{
  "contractName": "BancorNetwork",
  "abi": [
    {
      "inputs": [
        {
          "internalType": "contract IContractRegistry",
          "name": "_registry",
          "type": "address"
        }
      ],
      "stateMutability": "nonpayable",
      "type": "constructor"
    },
    {
      "anonymous": false,
      "inputs": [
        {
          "indexed": true,
          "internalType": "contract IConverterAnchor",
          "name": "_smartToken",
          "type": "address"
        },
        {
          "indexed": true,
          "internalType": "contract IERC20Token",
          "name": "_fromToken",
          "type": "address"
        },
        {
          "indexed": true,
          "internalType": "contract IERC20Token",
          "name": "_toToken",
          "type": "address"
        },
        {
          "indexed": false,
          "internalType": "uint256",
          "name": "_fromAmount",
          "type": "uint256"
        },
        {
          "indexed": false,
          "internalType": "uint256",
          "name": "_toAmount",
          "type": "uint256"
        },
        {
          "indexed": false,
          "internalType": "address",
          "name": "_trader",
          "type": "address"
        }
      ],
      "name": "Conversion",
      "type": "event"
    },
    {
      "anonymous": false,
      "inputs": [
        {
          "indexed": true,
          "internalType": "address",
          "name": "_prevOwner",
          "type": "address"
        },
        {
          "indexed": true,
          "internalType": "address",
          "name": "_newOwner",
          "type": "address"
        }
      ],
      "name": "OwnerUpdate",
      "type": "event"
    },
    {
      "inputs": [],
      "name": "acceptOwnership",
      "outputs": [],
      "stateMutability": "nonpayable",
      "type": "function"
    },
    {
      "inputs": [
        {
          "internalType": "contract IERC20Token",
          "name": "",
          "type": "address"
        }
      ],
      "name": "etherTokens",
      "outputs": [
        {
          "internalType": "bool",
          "name": "",
          "type": "bool"
        }
      ],
      "stateMutability": "view",
      "type": "function",
      "constant": true
    },
    {
      "inputs": [],
      "name": "maxAffiliateFee",
      "outputs": [
        {
          "internalType": "uint256",
          "name": "",
          "type": "uint256"
        }
      ],
      "stateMutability": "view",
      "type": "function",
      "constant": true
    },
    {
      "inputs": [],
      "name": "newOwner",
      "outputs": [
        {
          "internalType": "address",
          "name": "",
          "type": "address"
        }
      ],
      "stateMutability": "view",
      "type": "function",
      "constant": true
    },
    {
      "inputs": [],
      "name": "onlyOwnerCanUpdateRegistry",
      "outputs": [
        {
          "internalType": "bool",
          "name": "",
          "type": "bool"
        }
      ],
      "stateMutability": "view",
      "type": "function",
      "constant": true
    },
    {
      "inputs": [],
      "name": "owner",
      "outputs": [
        {
          "internalType": "address",
          "name": "",
          "type": "address"
        }
      ],
      "stateMutability": "view",
      "type": "function",
      "constant": true
    },
    {
      "inputs": [],
      "name": "prevRegistry",
      "outputs": [
        {
          "internalType": "contract IContractRegistry",
          "name": "",
          "type": "address"
        }
      ],
      "stateMutability": "view",
      "type": "function",
      "constant": true
    },
    {
      "inputs": [],
      "name": "registry",
      "outputs": [
        {
          "internalType": "contract IContractRegistry",
          "name": "",
          "type": "address"
        }
      ],
      "stateMutability": "view",
      "type": "function",
      "constant": true
    },
    {
      "inputs": [],
      "name": "restoreRegistry",
      "outputs": [],
      "stateMutability": "nonpayable",
      "type": "function"
    },
    {
      "inputs": [
        {
          "internalType": "bool",
          "name": "_onlyOwnerCanUpdateRegistry",
          "type": "bool"
        }
      ],
      "name": "restrictRegistryUpdate",
      "outputs": [],
      "stateMutability": "nonpayable",
      "type": "function"
    },
    {
      "inputs": [
        {
          "internalType": "address",
          "name": "_newOwner",
          "type": "address"
        }
      ],
      "name": "transferOwnership",
      "outputs": [],
      "stateMutability": "nonpayable",
      "type": "function"
    },
    {
      "inputs": [],
      "name": "updateRegistry",
      "outputs": [],
      "stateMutability": "nonpayable",
      "type": "function"
    },
    {
      "inputs": [
        {
          "internalType": "contract IERC20Token",
          "name": "_token",
          "type": "address"
        },
        {
          "internalType": "address",
          "name": "_to",
          "type": "address"
        },
        {
          "internalType": "uint256",
          "name": "_amount",
          "type": "uint256"
        }
      ],
      "name": "withdrawTokens",
      "outputs": [],
      "stateMutability": "nonpayable",
      "type": "function"
    },
    {
      "inputs": [
        {
          "internalType": "uint256",
          "name": "_maxAffiliateFee",
          "type": "uint256"
        }
      ],
      "name": "setMaxAffiliateFee",
      "outputs": [],
      "stateMutability": "nonpayable",
      "type": "function"
    },
    {
      "inputs": [
        {
          "internalType": "contract IEtherToken",
          "name": "_token",
          "type": "address"
        },
        {
          "internalType": "bool",
          "name": "_register",
          "type": "bool"
        }
      ],
      "name": "registerEtherToken",
      "outputs": [],
      "stateMutability": "nonpayable",
      "type": "function"
    },
    {
      "inputs": [
        {
          "internalType": "contract IERC20Token",
          "name": "_sourceToken",
          "type": "address"
        },
        {
          "internalType": "contract IERC20Token",
          "name": "_targetToken",
          "type": "address"
        }
      ],
      "name": "conversionPath",
      "outputs": [
        {
          "internalType": "address[]",
          "name": "",
          "type": "address[]"
        }
      ],
      "stateMutability": "view",
      "type": "function",
      "constant": true
    },
    {
      "inputs": [
        {
          "internalType": "address[]",
          "name": "_path",
          "type": "address[]"
        },
        {
          "internalType": "uint256",
          "name": "_amount",
          "type": "uint256"
        }
      ],
      "name": "rateByPath",
      "outputs": [
        {
          "internalType": "uint256",
          "name": "",
          "type": "uint256"
        }
      ],
      "stateMutability": "view",
      "type": "function",
      "constant": true
    },
    {
      "inputs": [
        {
          "internalType": "address[]",
          "name": "_path",
          "type": "address[]"
        },
        {
          "internalType": "uint256",
          "name": "_amount",
          "type": "uint256"
        },
        {
          "internalType": "uint256",
          "name": "_minReturn",
          "type": "uint256"
        },
        {
          "internalType": "address payable",
          "name": "_beneficiary",
          "type": "address"
        },
        {
          "internalType": "address",
          "name": "_affiliateAccount",
          "type": "address"
        },
        {
          "internalType": "uint256",
          "name": "_affiliateFee",
          "type": "uint256"
        }
      ],
      "name": "convertByPath",
      "outputs": [
        {
          "internalType": "uint256",
          "name": "",
          "type": "uint256"
        }
      ],
      "stateMutability": "payable",
      "type": "function",
      "payable": true
    },
    {
      "inputs": [
        {
          "internalType": "address[]",
          "name": "_path",
          "type": "address[]"
        },
        {
          "internalType": "uint256",
          "name": "_amount",
          "type": "uint256"
        },
        {
          "internalType": "uint256",
          "name": "_minReturn",
          "type": "uint256"
        },
        {
          "internalType": "bytes32",
          "name": "_targetBlockchain",
          "type": "bytes32"
        },
        {
          "internalType": "bytes32",
          "name": "_targetAccount",
          "type": "bytes32"
        },
        {
          "internalType": "uint256",
          "name": "_conversionId",
          "type": "uint256"
        }
      ],
      "name": "xConvert",
      "outputs": [
        {
          "internalType": "uint256",
          "name": "",
          "type": "uint256"
        }
      ],
      "stateMutability": "payable",
      "type": "function",
      "payable": true
    },
    {
      "inputs": [
        {
          "internalType": "address[]",
          "name": "_path",
          "type": "address[]"
        },
        {
          "internalType": "uint256",
          "name": "_amount",
          "type": "uint256"
        },
        {
          "internalType": "uint256",
          "name": "_minReturn",
          "type": "uint256"
        },
        {
          "internalType": "bytes32",
          "name": "_targetBlockchain",
          "type": "bytes32"
        },
        {
          "internalType": "bytes32",
          "name": "_targetAccount",
          "type": "bytes32"
        },
        {
          "internalType": "uint256",
          "name": "_conversionId",
          "type": "uint256"
        },
        {
          "internalType": "address",
          "name": "_affiliateAccount",
          "type": "address"
        },
        {
          "internalType": "uint256",
          "name": "_affiliateFee",
          "type": "uint256"
        }
      ],
      "name": "xConvert2",
      "outputs": [
        {
          "internalType": "uint256",
          "name": "",
          "type": "uint256"
        }
      ],
      "stateMutability": "payable",
      "type": "function",
      "payable": true
    },
    {
      "inputs": [
        {
          "internalType": "address[]",
          "name": "_path",
          "type": "address[]"
        },
        {
          "internalType": "contract IBancorX",
          "name": "_bancorX",
          "type": "address"
        },
        {
          "internalType": "uint256",
          "name": "_conversionId",
          "type": "uint256"
        },
        {
          "internalType": "uint256",
          "name": "_minReturn",
          "type": "uint256"
        },
        {
          "internalType": "address payable",
          "name": "_beneficiary",
          "type": "address"
        }
      ],
      "name": "completeXConversion",
      "outputs": [
        {
          "internalType": "uint256",
          "name": "",
          "type": "uint256"
        }
      ],
      "stateMutability": "nonpayable",
      "type": "function"
    },
    {
      "inputs": [
        {
          "internalType": "address[]",
          "name": "_path",
          "type": "address[]"
        },
        {
          "internalType": "uint256",
          "name": "_amount",
          "type": "uint256"
        }
      ],
      "name": "getReturnByPath",
      "outputs": [
        {
          "internalType": "uint256",
          "name": "",
          "type": "uint256"
        },
        {
          "internalType": "uint256",
          "name": "",
          "type": "uint256"
        }
      ],
      "stateMutability": "view",
      "type": "function",
      "constant": true
    },
    {
      "inputs": [
        {
          "internalType": "address[]",
          "name": "_path",
          "type": "address[]"
        },
        {
          "internalType": "uint256",
          "name": "_amount",
          "type": "uint256"
        },
        {
          "internalType": "uint256",
          "name": "_minReturn",
          "type": "uint256"
        }
      ],
      "name": "convert",
      "outputs": [
        {
          "internalType": "uint256",
          "name": "",
          "type": "uint256"
        }
      ],
      "stateMutability": "payable",
      "type": "function",
      "payable": true
    },
    {
      "inputs": [
        {
          "internalType": "address[]",
          "name": "_path",
          "type": "address[]"
        },
        {
          "internalType": "uint256",
          "name": "_amount",
          "type": "uint256"
        },
        {
          "internalType": "uint256",
          "name": "_minReturn",
          "type": "uint256"
        },
        {
          "internalType": "address",
          "name": "_affiliateAccount",
          "type": "address"
        },
        {
          "internalType": "uint256",
          "name": "_affiliateFee",
          "type": "uint256"
        }
      ],
      "name": "convert2",
      "outputs": [
        {
          "internalType": "uint256",
          "name": "",
          "type": "uint256"
        }
      ],
      "stateMutability": "payable",
      "type": "function",
      "payable": true
    },
    {
      "inputs": [
        {
          "internalType": "address[]",
          "name": "_path",
          "type": "address[]"
        },
        {
          "internalType": "uint256",
          "name": "_amount",
          "type": "uint256"
        },
        {
          "internalType": "uint256",
          "name": "_minReturn",
          "type": "uint256"
        },
        {
          "internalType": "address payable",
          "name": "_beneficiary",
          "type": "address"
        }
      ],
      "name": "convertFor",
      "outputs": [
        {
          "internalType": "uint256",
          "name": "",
          "type": "uint256"
        }
      ],
      "stateMutability": "payable",
      "type": "function",
      "payable": true
    },
    {
      "inputs": [
        {
          "internalType": "address[]",
          "name": "_path",
          "type": "address[]"
        },
        {
          "internalType": "uint256",
          "name": "_amount",
          "type": "uint256"
        },
        {
          "internalType": "uint256",
          "name": "_minReturn",
          "type": "uint256"
        },
        {
          "internalType": "address payable",
          "name": "_beneficiary",
          "type": "address"
        },
        {
          "internalType": "address",
          "name": "_affiliateAccount",
          "type": "address"
        },
        {
          "internalType": "uint256",
          "name": "_affiliateFee",
          "type": "uint256"
        }
      ],
      "name": "convertFor2",
      "outputs": [
        {
          "internalType": "uint256",
          "name": "",
          "type": "uint256"
        }
      ],
      "stateMutability": "payable",
      "type": "function",
      "payable": true
    },
    {
      "inputs": [
        {
          "internalType": "address[]",
          "name": "_path",
          "type": "address[]"
        },
        {
          "internalType": "uint256",
          "name": "_amount",
          "type": "uint256"
        },
        {
          "internalType": "uint256",
          "name": "_minReturn",
          "type": "uint256"
        }
      ],
      "name": "claimAndConvert",
      "outputs": [
        {
          "internalType": "uint256",
          "name": "",
          "type": "uint256"
        }
      ],
      "stateMutability": "nonpayable",
      "type": "function"
    },
    {
      "inputs": [
        {
          "internalType": "address[]",
          "name": "_path",
          "type": "address[]"
        },
        {
          "internalType": "uint256",
          "name": "_amount",
          "type": "uint256"
        },
        {
          "internalType": "uint256",
          "name": "_minReturn",
          "type": "uint256"
        },
        {
          "internalType": "address",
          "name": "_affiliateAccount",
          "type": "address"
        },
        {
          "internalType": "uint256",
          "name": "_affiliateFee",
          "type": "uint256"
        }
      ],
      "name": "claimAndConvert2",
      "outputs": [
        {
          "internalType": "uint256",
          "name": "",
          "type": "uint256"
        }
      ],
      "stateMutability": "nonpayable",
      "type": "function"
    },
    {
      "inputs": [
        {
          "internalType": "address[]",
          "name": "_path",
          "type": "address[]"
        },
        {
          "internalType": "uint256",
          "name": "_amount",
          "type": "uint256"
        },
        {
          "internalType": "uint256",
          "name": "_minReturn",
          "type": "uint256"
        },
        {
          "internalType": "address payable",
          "name": "_beneficiary",
          "type": "address"
        }
      ],
      "name": "claimAndConvertFor",
      "outputs": [
        {
          "internalType": "uint256",
          "name": "",
          "type": "uint256"
        }
      ],
      "stateMutability": "nonpayable",
      "type": "function"
    },
    {
      "inputs": [
        {
          "internalType": "address[]",
          "name": "_path",
          "type": "address[]"
        },
        {
          "internalType": "uint256",
          "name": "_amount",
          "type": "uint256"
        },
        {
          "internalType": "uint256",
          "name": "_minReturn",
          "type": "uint256"
        },
        {
          "internalType": "address payable",
          "name": "_beneficiary",
          "type": "address"
        },
        {
          "internalType": "address",
          "name": "_affiliateAccount",
          "type": "address"
        },
        {
          "internalType": "uint256",
          "name": "_affiliateFee",
          "type": "uint256"
        }
      ],
      "name": "claimAndConvertFor2",
      "outputs": [
        {
          "internalType": "uint256",
          "name": "",
          "type": "uint256"
        }
      ],
      "stateMutability": "nonpayable",
      "type": "function"
    }
  ],
  "bytecode": "0x60806040526003805460ff60a81b191690556175306004553480156200002457600080fd5b50604051620039ad380380620039ad833981810160405260208110156200004a57600080fd5b5051600080546001600160a01b0319163317905580806200006b81620000e6565b50600280546001600160a01b039092166001600160a01b03199283168117909155600380549092161790555073eeeeeeeeeeeeeeeeeeeeeeeeeeeeeeeeeeeeeeee60005260056020527fa1829a9003092132f585b6ccdd167c19fe9774dbdea4260287e8a8e8ca8185d7805460ff1916600117905562000145565b6001600160a01b03811662000142576040805162461bcd60e51b815260206004820152601360248201527f4552525f494e56414c49445f4144445245535300000000000000000000000000604482015290519081900360640190fd5b50565b61385880620001556000396000f3fe6080604052600436106101cd5760003560e01c80638da5cb5b116100f7578063c98fefed11610095578063e57738e511610064578063e57738e514610ca7578063f2fde38b14610cca578063f3898a9714610cfd578063f3bc7d2a14610d13576101cd565b8063c98fefed14610b23578063cb32564e14610b39578063d4ee1d9014610c07578063d734fa1914610c1c576101cd565b8063b4a176d3116100d1578063b4a176d3146108de578063b77d239b146108f3578063c52173de146109b8578063c7ba24bc14610a70576101cd565b80638da5cb5b14610742578063ab6214ce14610757578063b1e9932b1461081c576101cd565b80635d732ff21161016f5780637b1039991161013e5780637b1039991461057f5780637f9c0ecd146105945780638077ccf71461064457806389f9cc6114610677576101cd565b80635d732ff2146104e15780635e35359e146104f657806361cd756e1461053957806379ba50971461056a576101cd565b80632978c10e116101ab5780632978c10e146103045780632fe8a6ad146103e857806349d10b6414610411578063569706eb14610426576101cd565b8063024c7ec7146101d257806302ef521e146102005780630c8496cc1461023b575b600080fd5b3480156101de57600080fd5b506101fe600480360360208110156101f557600080fd5b50351515610d3d565b005b34801561020c57600080fd5b506101fe6004803603604081101561022357600080fd5b506001600160a01b0381351690602001351515610d63565b34801561024757600080fd5b506102eb6004803603604081101561025e57600080fd5b810190602081018135600160201b81111561027857600080fd5b82018360208201111561028a57600080fd5b803590602001918460208302840111600160201b831117156102ab57600080fd5b9190808060200260200160405190810160405280939291908181526020018383602002808284376000920191909152509295505091359250610dac915050565b6040805192835260208301919091528051918290030190f35b34801561031057600080fd5b506103d6600480360360c081101561032757600080fd5b810190602081018135600160201b81111561034157600080fd5b82018360208201111561035357600080fd5b803590602001918460208302840111600160201b8311171561037457600080fd5b919080806020026020016040519081016040528093929190818152602001838360200280828437600092019190915250929550508235935050506020810135906001600160a01b03604082013581169160608101359091169060800135610dc4565b60408051918252519081900360200190f35b3480156103f457600080fd5b506103fd610ddf565b604080519115158252519081900360200190f35b34801561041d57600080fd5b506101fe610def565b6103d6600480360360a081101561043c57600080fd5b810190602081018135600160201b81111561045657600080fd5b82018360208201111561046857600080fd5b803590602001918460208302840111600160201b8311171561048957600080fd5b919080806020026020016040519081016040528093929190818152602001838360200280828437600092019190915250929550508235935050506020810135906001600160a01b036040820135169060600135610ff7565b3480156104ed57600080fd5b506103d6611012565b34801561050257600080fd5b506101fe6004803603606081101561051957600080fd5b506001600160a01b03813581169160208101359091169060400135611018565b34801561054557600080fd5b5061054e611051565b604080516001600160a01b039092168252519081900360200190f35b34801561057657600080fd5b506101fe611060565b34801561058b57600080fd5b5061054e611117565b3480156105a057600080fd5b506103d6600480360360408110156105b757600080fd5b810190602081018135600160201b8111156105d157600080fd5b8201836020820111156105e357600080fd5b803590602001918460208302840111600160201b8311171561060457600080fd5b9190808060200260200160405190810160405280939291908181526020018383602002808284376000920191909152509295505091359250611126915050565b34801561065057600080fd5b506103fd6004803603602081101561066757600080fd5b50356001600160a01b0316611843565b34801561068357600080fd5b506103d6600480360360a081101561069a57600080fd5b810190602081018135600160201b8111156106b457600080fd5b8201836020820111156106c657600080fd5b803590602001918460208302840111600160201b831117156106e757600080fd5b919080806020026020016040519081016040528093929190818152602001838360200280828437600092019190915250929550506001600160a01b038335811694506020840135936040810135935060600135169050611858565b34801561074e57600080fd5b5061054e6119cf565b6103d6600480360360c081101561076d57600080fd5b810190602081018135600160201b81111561078757600080fd5b82018360208201111561079957600080fd5b803590602001918460208302840111600160201b831117156107ba57600080fd5b919080806020026020016040519081016040528093929190818152602001838360200280828437600092019190915250929550508235935050506020810135906001600160a01b036040820135811691606081013590911690608001356119de565b34801561082857600080fd5b506103d66004803603608081101561083f57600080fd5b810190602081018135600160201b81111561085957600080fd5b82018360208201111561086b57600080fd5b803590602001918460208302840111600160201b8311171561088c57600080fd5b91908080602002602001604051908101604052809392919081815260200183836020028082843760009201919091525092955050823593505050602081013590604001356001600160a01b0316611a04565b3480156108ea57600080fd5b506101fe611a1e565b6103d6600480360360c081101561090957600080fd5b810190602081018135600160201b81111561092357600080fd5b82018360208201111561093557600080fd5b803590602001918460208302840111600160201b8311171561095657600080fd5b919080806020026020016040519081016040528093929190818152602001838360200280828437600092019190915250929550508235935050506020810135906001600160a01b03604082013581169160608101359091169060800135611a4a565b6103d6600480360360c08110156109ce57600080fd5b810190602081018135600160201b8111156109e857600080fd5b8201836020820111156109fa57600080fd5b803590602001918460208302840111600160201b83111715610a1b57600080fd5b9190808060200260200160405190810160405280939291908181526020018383602002808284376000920191909152509295505082359350505060208101359060408101359060608101359060800135611c25565b348015610a7c57600080fd5b506103d660048036036060811015610a9357600080fd5b810190602081018135600160201b811115610aad57600080fd5b820183602082011115610abf57600080fd5b803590602001918460208302840111600160201b83111715610ae057600080fd5b9190808060200260200160405190810160405280939291908181526020018383602002808284376000920191909152509295505082359350505060200135611c38565b6103d66004803603608081101561083f57600080fd5b6103d66004803603610100811015610b5057600080fd5b810190602081018135600160201b811115610b6a57600080fd5b820183602082011115610b7c57600080fd5b803590602001918460208302840111600160201b83111715610b9d57600080fd5b919080806020026020016040519081016040528093929190818152602001838360200280828437600092019190915250929550508235935050506020810135906040810135906060810135906080810135906001600160a01b0360a0820135169060c00135611c52565b348015610c1357600080fd5b5061054e611dad565b348015610c2857600080fd5b50610c5760048036036040811015610c3f57600080fd5b506001600160a01b0381358116916020013516611dbc565b60408051602080825283518183015283519192839290830191858101910280838360005b83811015610c93578181015183820152602001610c7b565b505050509050019250505060405180910390f35b348015610cb357600080fd5b506103d6600480360360a081101561043c57600080fd5b348015610cd657600080fd5b506101fe60048036036020811015610ced57600080fd5b50356001600160a01b0316611f10565b6103d660048036036060811015610a9357600080fd5b348015610d1f57600080fd5b506101fe60048036036020811015610d3657600080fd5b5035611f8e565b610d45611fef565b60038054911515600160a01b0260ff60a01b19909216919091179055565b610d6b611fef565b81610d7581612044565b82610d7f81612098565b50506001600160a01b03919091166000908152600560205260409020805460ff1916911515919091179055565b600080610db98484611126565b946000945092505050565b6000610dd4878787878787611a4a565b979650505050505050565b600354600160a01b900460ff1681565b6000546001600160a01b0316331480610e125750600354600160a01b900460ff16155b610e57576040805162461bcd60e51b815260206004820152601160248201527011549497d050d0d154d4d7d11153925151607a1b604482015290519081900360640190fd5b6000610e756f436f6e7472616374526567697374727960801b6120ec565b6002549091506001600160a01b03808316911614801590610e9e57506001600160a01b03811615155b610ee6576040805162461bcd60e51b81526020600482015260146024820152734552525f494e56414c49445f524547495354525960601b604482015290519081900360640190fd5b60006001600160a01b0316816001600160a01b031663bb34534c6f436f6e7472616374526567697374727960801b6040518263ffffffff1660e01b81526004018082815260200191505060206040518083038186803b158015610f4857600080fd5b505afa158015610f5c573d6000803e3d6000fd5b505050506040513d6020811015610f7257600080fd5b50516001600160a01b03161415610fc7576040805162461bcd60e51b81526020600482015260146024820152734552525f494e56414c49445f524547495354525960601b604482015290519081900360640190fd5b60028054600380546001600160a01b038084166001600160a01b0319928316179092559091169216919091179055565b600061100886868660008787611a4a565b9695505050505050565b60045481565b611020611fef565b8261102a81612044565b8261103481612044565b8361103e81612098565b61104986868661216c565b505050505050565b6003546001600160a01b031681565b6001546001600160a01b031633146110b3576040805162461bcd60e51b815260206004820152601160248201527011549497d050d0d154d4d7d11153925151607a1b604482015290519081900360640190fd5b600154600080546040516001600160a01b0393841693909116917f343765429aea5a34b3ff6a3785a98a5abb2597aca87bfbb58632c173d585373a91a360018054600080546001600160a01b03199081166001600160a01b03841617909155169055565b6002546001600160a01b031681565b60008060008060008060008061114b6c42616e636f72466f726d756c6160981b6120ec565b905088965060028a5111801561116c575060028a518161116757fe5b066001145b6111b0576040805162461bcd60e51b815260206004820152601060248201526f08aa4a4be929cac82989288bea082a8960831b604482015290519081900360640190fd5b60025b8a518110156118325760008b60028303815181106111cd57fe5b6020026020010151905060008c60018403815181106111e857fe5b6020026020010151905060008d848151811061120057fe5b60200260200101519050816001600160a01b0316638da5cb5b6040518163ffffffff1660e01b815260040160206040518083038186803b15801561124357600080fd5b505afa158015611257573d6000803e3d6000fd5b505050506040513d602081101561126d57600080fd5b5051955061127b86846122cc565b925061128786826122cc565b9050816001600160a01b0316816001600160a01b031614156115745760038410806112da57508d60038503815181106112bc57fe5b60200260200101516001600160a01b0316826001600160a01b031614155b1561134757816001600160a01b03166318160ddd6040518163ffffffff1660e01b815260040160206040518083038186803b15801561131857600080fd5b505afa15801561132c573d6000803e3d6000fd5b505050506040513d602081101561134257600080fd5b505198505b856001600160a01b031663d8959512846040518263ffffffff1660e01b815260040180826001600160a01b0316815260200191505060206040518083038186803b15801561139457600080fd5b505afa1580156113a8573d6000803e3d6000fd5b505050506040513d60208110156113be57600080fd5b505160408051630e53aae960e01b81526001600160a01b0386811660048301529151929a5090881691630e53aae99160248082019260a092909190829003018186803b15801561140d57600080fd5b505afa158015611421573d6000803e3d6000fd5b505050506040513d60a081101561143757600080fd5b506020908101516040805163799287f160e11b8152600481018d9052602481018c905263ffffffff83166044820152606481018f905290519199506001600160a01b0388169263f3250fe292608480840193829003018186803b15801561149d57600080fd5b505afa1580156114b1573d6000803e3d6000fd5b505050506040513d60208110156114c757600080fd5b505160408051632bce69e560e11b81529051919c5061155c91620f424091611556916001600160a01b038b169163579cd3ca916004808301926020929190829003018186803b15801561151957600080fd5b505afa15801561152d573d6000803e3d6000fd5b505050506040513d602081101561154357600080fd5b50518e9063ffffffff9081169061232c16565b9061238a565b9a8b90039a995061156d898c6123e9565b9850611827565b816001600160a01b0316836001600160a01b031614156118155760038410806115c557508d60038503815181106115a757fe5b60200260200101516001600160a01b0316826001600160a01b031614155b1561163257816001600160a01b03166318160ddd6040518163ffffffff1660e01b815260040160206040518083038186803b15801561160357600080fd5b505afa158015611617573d6000803e3d6000fd5b505050506040513d602081101561162d57600080fd5b505198505b856001600160a01b031663d8959512826040518263ffffffff1660e01b815260040180826001600160a01b0316815260200191505060206040518083038186803b15801561167f57600080fd5b505afa158015611693573d6000803e3d6000fd5b505050506040513d60208110156116a957600080fd5b505160408051630e53aae960e01b81526001600160a01b0384811660048301529151929a5090881691630e53aae99160248082019260a092909190829003018186803b1580156116f857600080fd5b505afa15801561170c573d6000803e3d6000fd5b505050506040513d60a081101561172257600080fd5b5060209081015160408051633b6785ab60e11b8152600481018d9052602481018c905263ffffffff83166044820152606481018f905290519199506001600160a01b038816926376cf0b5692608480840193829003018186803b15801561178857600080fd5b505afa15801561179c573d6000803e3d6000fd5b505050506040513d60208110156117b257600080fd5b505160408051632bce69e560e11b81529051919c5061180491620f424091611556916001600160a01b038b169163579cd3ca916004808301926020929190829003018186803b15801561151957600080fd5b9a8b90039a995061156d898c612432565b6118218684838e61247f565b909b5099505b5050506002016111b3565b509596505050505050505b92915050565b60056020526000908152604090205460ff1681565b6000846001600160a01b031663fc0c546a6040518163ffffffff1660e01b815260040160206040518083038186803b15801561189357600080fd5b505afa1580156118a7573d6000803e3d6000fd5b505050506040513d60208110156118bd57600080fd5b505186516001600160a01b039091169087906000906118d857fe5b60200260200101516001600160a01b03161461193b576040805162461bcd60e51b815260206004820152601860248201527f4552525f494e56414c49445f534f555243455f544f4b454e0000000000000000604482015290519081900360640190fd5b6000856001600160a01b031663aafd6b7686336040518363ffffffff1660e01b815260040180838152602001826001600160a01b031681526020019250505060206040518083038186803b15801561199257600080fd5b505afa1580156119a6573d6000803e3d6000fd5b505050506040513d60208110156119bc57600080fd5b50519050610dd487828686600080611a4a565b6000546001600160a01b031681565b6000846119ea816125f3565b6119f8888888888888611a4a565b98975050505050505050565b6000611a1585858585600080611a4a565b95945050505050565b611a26611fef565b600354600280546001600160a01b0319166001600160a01b03909216919091179055565b6000611a54612639565b6003805460ff60a81b1916600160a81b17905584611a71816125f3565b60028851118015611a8d57506002885181611a8857fe5b066001145b611ad1576040805162461bcd60e51b815260206004820152601060248201526f08aa4a4be929cac82989288bea082a8960831b604482015290519081900360640190fd5b611b0488600081518110611ae157fe5b602002602001015189600181518110611af657fe5b602002602001015189612689565b60006001600160a01b038516611b68578315611b63576040805162461bcd60e51b81526020600482015260196024820152784552525f494e56414c49445f414646494c494154455f46454560381b604482015290519081900360640190fd5b611bcb565b836000108015611b7a57506004548411155b611bc7576040805162461bcd60e51b81526020600482015260196024820152784552525f494e56414c49445f414646494c494154455f46454560381b604482015290519081900360640190fd5b5060015b336001600160a01b03871615611bde5750855b6060611beb8b8385612874565b90506000611bfc828c8c8b8b612c71565b9050611c09828285613145565b6003805460ff60a81b191690559b9a5050505050505050505050565b6000610dd4878787878787600080611c52565b6000611c4a8484846000806000611a4a565b949350505050565b600086611c5e816125f3565b60008a60018c510381518110611c7057fe5b602002602001015190506000611c8f66084c2dcc6dee4b60cb1b6120ec565b9050611ca56721272a2a37b5b2b760c11b6120ec565b6001600160a01b0316826001600160a01b031614611d0a576040805162461bcd60e51b815260206004820152601860248201527f4552525f494e56414c49445f5441524745545f544f4b454e0000000000000000604482015290519081900360640190fd5b6000611d1a8d8d8d308b8b611a4a565b9050611d27838383613223565b6040805163109f00dd60e21b8152600481018c9052602481018b905260448101839052606481018a905290516001600160a01b0384169163427c037491608480830192600092919082900301818387803b158015611d8457600080fd5b505af1158015611d98573d6000803e3d6000fd5b50929f9e505050505050505050505050505050565b6001546001600160a01b031681565b60606000611de07321b7b73b32b939b4b7b72830ba342334b73232b960611b6120ec565b9050806001600160a01b031663a1c421cd85856040518363ffffffff1660e01b815260040180836001600160a01b03168152602001826001600160a01b031681526020019250505060006040518083038186803b158015611e4057600080fd5b505afa158015611e54573d6000803e3d6000fd5b505050506040513d6000823e601f3d908101601f191682016040526020811015611e7d57600080fd5b8101908080516040519392919084600160201b821115611e9c57600080fd5b908301906020820185811115611eb157600080fd5b82518660208202830111600160201b82111715611ecd57600080fd5b82525081516020918201928201910280838360005b83811015611efa578181015183820152602001611ee2565b5050505090500160405250505091505092915050565b611f18611fef565b6000546001600160a01b0382811691161415611f6c576040805162461bcd60e51b815260206004820152600e60248201526d22a9292fa9a0a6a2afa7aba722a960911b604482015290519081900360640190fd5b600180546001600160a01b0319166001600160a01b0392909216919091179055565b611f96611fef565b620f4240811115611fea576040805162461bcd60e51b81526020600482015260196024820152784552525f494e56414c49445f414646494c494154455f46454560381b604482015290519081900360640190fd5b600455565b6000546001600160a01b03163314612042576040805162461bcd60e51b815260206004820152601160248201527011549497d050d0d154d4d7d11153925151607a1b604482015290519081900360640190fd5b565b6001600160a01b038116612095576040805162461bcd60e51b81526020600482015260136024820152724552525f494e56414c49445f4144445245535360681b604482015290519081900360640190fd5b50565b6001600160a01b038116301415612095576040805162461bcd60e51b815260206004820152601360248201527222a9292fa0a2222922a9a9afa4a9afa9a2a62360691b604482015290519081900360640190fd5b60025460408051632ecd14d360e21b81526004810184905290516000926001600160a01b03169163bb34534c916024808301926020929190829003018186803b15801561213857600080fd5b505afa15801561214c573d6000803e3d6000fd5b505050506040513d602081101561216257600080fd5b505190505b919050565b604080516001600160a01b038481166024830152604480830185905283518084039091018152606490920183526020820180516001600160e01b031663a9059cbb60e01b178152925182516000946060949389169392918291908083835b602083106121e95780518252601f1990920191602091820191016121ca565b6001836020036101000a0380198251168184511680821785525050505050509050019150506000604051808303816000865af19150503d806000811461224b576040519150601f19603f3d011682016040523d82523d6000602084013e612250565b606091505b509150915081801561227e57508051158061227e575080806020019051602081101561227b57600080fd5b50515b6122c5576040805162461bcd60e51b815260206004820152601360248201527211549497d514905394d1915497d19052531151606a1b604482015290519081900360640190fd5b5050505050565b6001600160a01b03811660009081526005602052604081205460ff166122f357508061183d565b6122fc836132cd565b1561231c575073eeeeeeeeeeeeeeeeeeeeeeeeeeeeeeeeeeeeeeee61183d565b612325836133e4565b9392505050565b60008261233b5750600061183d565b8282028284828161234857fe5b0414612325576040805162461bcd60e51b815260206004820152600c60248201526b4552525f4f564552464c4f5760a01b604482015290519081900360640190fd5b60008082116123d5576040805162461bcd60e51b81526020600482015260126024820152714552525f4449564944455f42595f5a45524f60701b604482015290519081900360640190fd5b60008284816123e057fe5b04949350505050565b600082820183811015612325576040805162461bcd60e51b815260206004820152600c60248201526b4552525f4f564552464c4f5760a01b604482015290519081900360640190fd5b600081831015612479576040805162461bcd60e51b815260206004820152600d60248201526c4552525f554e444552464c4f5760981b604482015290519081900360640190fd5b50900390565b604080516001600160a01b0380861660248301528085166044830152606480830185905283518084039091018152608490920183526020820180516001600160e01b03166303c2803f60e31b178152925182516000948594938593606093918c169286928291908083835b602083106125095780518252601f1990920191602091820191016124ea565b6001836020036101000a038019825116818451168082178552505050505050905001915050600060405180830381855afa9150503d8060008114612569576040519150601f19603f3d011682016040523d82523d6000602084013e61256e565b606091505b509150915081156125df578051604014156125af5780806020019051604081101561259857600080fd5b50805160209091015190955093506125ea92505050565b8051602014156125df578080602001905160208110156125ce57600080fd5b50519450600093506125ea92505050565b600080945094505050505b94509492505050565b60008111612095576040805162461bcd60e51b815260206004820152600e60248201526d4552525f5a45524f5f56414c554560901b604482015290519081900360640190fd5b600354600160a81b900460ff1615612042576040805162461bcd60e51b815260206004820152600e60248201526d4552525f5245454e5452414e435960901b604482015290519081900360640190fd5b6000826001600160a01b0316638da5cb5b6040518163ffffffff1660e01b815260040160206040518083038186803b1580156126c457600080fd5b505afa1580156126d8573d6000803e3d6000fd5b505050506040513d60208110156126ee57600080fd5b5051905060006126fd826132cd565b905034156127c057823414612759576040805162461bcd60e51b815260206004820152601760248201527f4552525f4554485f414d4f554e545f4d49534d41544348000000000000000000604482015290519081900360640190fd5b806127bb57612767826133e4565b6001600160a01b031663d0e30db0346040518263ffffffff1660e01b81526004016000604051808303818588803b1580156127a157600080fd5b505af11580156127b5573d6000803e3d6000fd5b50505050505b6122c5565b6001600160a01b03851660009081526005602052604090205460ff1615612856576127ed85333086613523565b80156127bb57846001600160a01b0316632e1a7d4d846040518263ffffffff1660e01b815260040180828152602001915050600060405180830381600087803b15801561283957600080fd5b505af115801561284d573d6000803e3d6000fd5b505050506122c5565b8015612868576127bb85338486613523565b6122c585333086613523565b606080600285518161288257fe5b0467ffffffffffffffff8111801561289957600080fd5b506040519080825280602002602001820160405280156128d357816020015b6128c06137e6565b8152602001906001900390816128b85790505b5090506000806128ed6721272a2a37b5b2b760c11b6120ec565b905060005b6001885103811015612a8157600088826001018151811061290f57fe5b602002602001015190506000816001600160a01b0316638da5cb5b6040518163ffffffff1660e01b815260040160206040518083038186803b15801561295457600080fd5b505afa158015612968573d6000803e3d6000fd5b505050506040513d602081101561297e57600080fd5b50518a519091506000908b906002860190811061299757fe5b6020026020010151905060008980156129ae575086155b80156129cb5750856001600160a01b0316826001600160a01b0316145b905080156129d857600196505b6040518060e00160405280846001600160a01b03168152602001856001600160a01b031681526020018d8781518110612a0d57fe5b60200260200101516001600160a01b03168152602001836001600160a01b0316815260200160006001600160a01b03168152602001612a4b856132cd565b15158152821515602090910152886002870481518110612a6757fe5b6020026020010181905250505050506002810190506128f2565b612a896137e6565b84600081518110612a9657fe5b6020908102919091018101516040808201516001600160a01b0316600090815260059093529091205490915060ff1615612b0d578060a0015115612af35773eeeeeeeeeeeeeeeeeeeeeeeeeeeeeeeeeeeeeeee6040820152612b0d565b8051612afe906133e4565b6001600160a01b031660408201525b84600186510381518110612b1d57fe5b60209081029190910181015160608101516001600160a01b03166000908152600590925260409091205490915060ff1615612b95578060a0015115612b7b5773eeeeeeeeeeeeeeeeeeeeeeeeeeeeeeeeeeeeeeee6060820152612b95565b8051612b86906133e4565b6001600160a01b031660608201525b600091505b8451821015612c6457848281518110612baf57fe5b602002602001015190508060a0015115612c52578060c0015115612bd857306080820152612c4d565b6001855103821415612bf8576001600160a01b0388166080820152612c4d565b848260010181518110612c0757fe5b602002602001015160a0015115612c4657848260010181518110612c2757fe5b6020908102919091010151516001600160a01b03166080820152612c4d565b3060808201525b612c59565b3060808201525b600190910190612b9a565b5092979650505050505050565b60008085815b88518110156130ef57612c886137e6565b898281518110612c9457fe5b602002602001015190508060a0015115612d26578115801590612ce25750306001600160a01b03168a6001840381518110612ccb57fe5b6020026020010151608001516001600160a01b0316145b8015612d0957506040808201516001600160a01b031660009081526005602052205460ff16155b15612d2157612d21816040015182600001518561216c565b612d5a565b80602001516001600160a01b031681604001516001600160a01b031614612d5a57612d5a8160400151826000015185613223565b8060a00151612e0257805160408083015160608401518251635e5144eb60e01b81526001600160a01b039283166004820152908216602482015260448101879052600160648201529151921691635e5144eb916084808201926020929091908290030181600087803b158015612dcf57600080fd5b505af1158015612de3573d6000803e3d6000fd5b505050506040513d6020811015612df957600080fd5b50519350612f6d565b6040808201516001600160a01b031660009081526005602052205460ff1615612ec757805160408083015160608401516080850151835163e8dc12ff60e01b81526001600160a01b03938416600482015291831660248301526044820188905233606483015282166084820152915192169163e8dc12ff91349160a480830192602092919082900301818588803b158015612e9c57600080fd5b505af1158015612eb0573d6000803e3d6000fd5b50505050506040513d6020811015612df957600080fd5b805160408083015160608401516080850151835163e8dc12ff60e01b81526001600160a01b03938416600482015291831660248301526044820188905233606483015282166084820152915192169163e8dc12ff9160a4808201926020929091908290030181600087803b158015612f3e57600080fd5b505af1158015612f52573d6000803e3d6000fd5b505050506040513d6020811015612f6857600080fd5b505193505b8060c0015115613069576000612f8a620f4240611556878a61232c565b905081606001516001600160a01b031663a9059cbb89836040518363ffffffff1660e01b815260040180836001600160a01b0316815260200182815260200192505050602060405180830381600087803b158015612fe757600080fd5b505af1158015612ffb573d6000803e3d6000fd5b505050506040513d602081101561301157600080fd5b5051613064576040805162461bcd60e51b815260206004820152601760248201527f4552525f4645455f5452414e534645525f4641494c4544000000000000000000604482015290519081900360640190fd5b909303925b80606001516001600160a01b031681604001516001600160a01b031682602001516001600160a01b03167f7154b38b5dd31bb3122436a96d4e09aba5b323ae1fd580025fab55074334c09586883360405180848152602001838152602001826001600160a01b03168152602001935050505060405180910390a450829150600101612c77565b508582101561313a576040805162461bcd60e51b81526020600482015260126024820152714552525f52455455524e5f544f4f5f4c4f5760701b604482015290519081900360640190fd5b509695505050505050565b61314d6137e6565b8360018551038151811061315d57fe5b60200260200101519050306001600160a01b031681608001516001600160a01b03161461318a575061321e565b60608101516001600160a01b03811660009081526005602052604090205460ff1615613213578160a00151156131bc57fe5b806001600160a01b031663205c287884866040518363ffffffff1660e01b815260040180836001600160a01b0316815260200182815260200192505050600060405180830381600087803b15801561283957600080fd5b6122c581848661216c565b505050565b60408051636eb1769f60e11b81523060048201526001600160a01b038481166024830152915160009286169163dd62ed3e916044808301926020929190829003018186803b15801561327457600080fd5b505afa158015613288573d6000803e3d6000fd5b505050506040513d602081101561329e57600080fd5b50519050818110156132c75780156132bc576132bc8484600061368e565b6132c784848461368e565b50505050565b60408051600481526024810182526020810180516001600160e01b031663349814a760e21b1781529151815160009384926060926001600160a01b03881692610fa0928792909182918083835b602083106133395780518252601f19909201916020918201910161331a565b6001836020036101000a0380198251168184511680821785525050505050509050019150506000604051808303818686fa925050503d806000811461339a576040519150601f19603f3d011682016040523d82523d6000602084013e61339f565b606091505b50915091508180156133b2575080516020145b156133d9578080602001905160208110156133cc57600080fd5b5051935061216792505050565b506000949350505050565b600080826001600160a01b03166371f52bf36040518163ffffffff1660e01b815260040160206040518083038186803b15801561342057600080fd5b505afa158015613434573d6000803e3d6000fd5b505050506040513d602081101561344a57600080fd5b505161ffff16905060005b81811015613506576000846001600160a01b03166319b64015836040518263ffffffff1660e01b81526004018082815260200191505060206040518083038186803b1580156134a357600080fd5b505afa1580156134b7573d6000803e3d6000fd5b505050506040513d60208110156134cd57600080fd5b50516001600160a01b03811660009081526005602052604090205490915060ff16156134fd579250612167915050565b50600101613455565b5073eeeeeeeeeeeeeeeeeeeeeeeeeeeeeeeeeeeeeeee9392505050565b604080516001600160a01b0385811660248301528481166044830152606480830185905283518084039091018152608490920183526020820180516001600160e01b03166323b872dd60e01b17815292518251600094606094938a169392918291908083835b602083106135a85780518252601f199092019160209182019101613589565b6001836020036101000a0380198251168184511680821785525050505050509050019150506000604051808303816000865af19150503d806000811461360a576040519150601f19603f3d011682016040523d82523d6000602084013e61360f565b606091505b509150915081801561363d57508051158061363d575080806020019051602081101561363a57600080fd5b50515b611049576040805162461bcd60e51b815260206004820152601860248201527f4552525f5452414e534645525f46524f4d5f4641494c45440000000000000000604482015290519081900360640190fd5b604080516001600160a01b038481166024830152604480830185905283518084039091018152606490920183526020820180516001600160e01b031663095ea7b360e01b178152925182516000946060949389169392918291908083835b6020831061370b5780518252601f1990920191602091820191016136ec565b6001836020036101000a0380198251168184511680821785525050505050509050019150506000604051808303816000865af19150503d806000811461376d576040519150601f19603f3d011682016040523d82523d6000602084013e613772565b606091505b50915091508180156137a05750805115806137a0575080806020019051602081101561379d57600080fd5b50515b6122c5576040805162461bcd60e51b815260206004820152601260248201527111549497d054141493d59157d1905253115160721b604482015290519081900360640190fd5b6040805160e081018252600080825260208201819052918101829052606081018290526080810182905260a0810182905260c08101919091529056fea264697066735822122077a4a6153a0865a6077a6c21f0e36ac3a1a2290bcb3ce1b21870501d7465c9e164736f6c634300060c0033",
  "immutableReferences": {},
  "source": "// SPDX-License-Identifier: SEE LICENSE IN LICENSE\r\npragma solidity 0.6.12;\r\nimport \"./IConversionPathFinder.sol\";\r\nimport \"./converter/interfaces/IConverter.sol\";\r\nimport \"./converter/interfaces/IConverterAnchor.sol\";\r\nimport \"./converter/interfaces/IBancorFormula.sol\";\r\nimport \"./utility/ContractRegistryClient.sol\";\r\nimport \"./utility/ReentrancyGuard.sol\";\r\nimport \"./utility/TokenHolder.sol\";\r\nimport \"./utility/SafeMath.sol\";\r\nimport \"./token/interfaces/IEtherToken.sol\";\r\nimport \"./token/interfaces/ISmartToken.sol\";\r\nimport \"./bancorx/interfaces/IBancorX.sol\";\r\n\r\n// interface of older converters for backward compatibility\r\ninterface ILegacyConverter {\r\n    function change(IERC20Token _sourceToken, IERC20Token _targetToken, uint256 _amount, uint256 _minReturn) external returns (uint256);\r\n}\r\n\r\n/**\r\n  * @dev The BancorNetwork contract is the main entry point for Bancor token conversions.\r\n  * It also allows for the conversion of any token in the Bancor Network to any other token in a single\r\n  * transaction by providing a conversion path.\r\n  *\r\n  * A note on Conversion Path: Conversion path is a data structure that is used when converting a token\r\n  * to another token in the Bancor Network, when the conversion cannot necessarily be done by a single\r\n  * converter and might require multiple 'hops'.\r\n  * The path defines which converters should be used and what kind of conversion should be done in each step.\r\n  *\r\n  * The path format doesn't include complex structure; instead, it is represented by a single array\r\n  * in which each 'hop' is represented by a 2-tuple - converter anchor & target token.\r\n  * In addition, the first element is always the source token.\r\n  * The converter anchor is only used as a pointer to a converter (since converter addresses are more\r\n  * likely to change as opposed to anchor addresses).\r\n  *\r\n  * Format:\r\n  * [source token, converter anchor, target token, converter anchor, target token...]\r\n*/\r\ncontract BancorNetwork is TokenHolder, ContractRegistryClient, ReentrancyGuard {\r\n    using SafeMath for uint256;\r\n\r\n    uint256 private constant PPM_RESOLUTION = 1000000;\r\n    IERC20Token private constant ETH_RESERVE_ADDRESS = IERC20Token(0xEeeeeEeeeEeEeeEeEeEeeEEEeeeeEeeeeeeeEEeE);\r\n\r\n    struct ConversionStep {\r\n        IConverter converter;\r\n        IConverterAnchor anchor;\r\n        IERC20Token sourceToken;\r\n        IERC20Token targetToken;\r\n        address payable beneficiary;\r\n        bool isV28OrHigherConverter;\r\n        bool processAffiliateFee;\r\n    }\r\n\r\n    uint256 public maxAffiliateFee = 30000;     // maximum affiliate-fee\r\n\r\n    mapping (IERC20Token => bool) public etherTokens;   // list of all supported ether tokens\r\n\r\n    /**\r\n      * @dev triggered when a conversion between two tokens occurs\r\n      *\r\n      * @param _smartToken  anchor governed by the converter\r\n      * @param _fromToken   source ERC20 token\r\n      * @param _toToken     target ERC20 token\r\n      * @param _fromAmount  amount converted, in the source token\r\n      * @param _toAmount    amount returned, minus conversion fee\r\n      * @param _trader      wallet that initiated the trade\r\n    */\r\n    event Conversion(\r\n        IConverterAnchor indexed _smartToken,\r\n        IERC20Token indexed _fromToken,\r\n        IERC20Token indexed _toToken,\r\n        uint256 _fromAmount,\r\n        uint256 _toAmount,\r\n        address _trader\r\n    );\r\n\r\n    /**\r\n      * @dev initializes a new BancorNetwork instance\r\n      *\r\n      * @param _registry    address of a contract registry contract\r\n    */\r\n    constructor(IContractRegistry _registry) ContractRegistryClient(_registry) public {\r\n        etherTokens[ETH_RESERVE_ADDRESS] = true;\r\n    }\r\n\r\n    /**\r\n      * @dev allows the owner to update the maximum affiliate-fee\r\n      *\r\n      * @param _maxAffiliateFee   maximum affiliate-fee\r\n    */\r\n    function setMaxAffiliateFee(uint256 _maxAffiliateFee)\r\n        public\r\n        ownerOnly\r\n    {\r\n        require(_maxAffiliateFee <= PPM_RESOLUTION, \"ERR_INVALID_AFFILIATE_FEE\");\r\n        maxAffiliateFee = _maxAffiliateFee;\r\n    }\r\n\r\n    /**\r\n      * @dev allows the owner to register/unregister ether tokens\r\n      *\r\n      * @param _token       ether token contract address\r\n      * @param _register    true to register, false to unregister\r\n    */\r\n    function registerEtherToken(IEtherToken _token, bool _register)\r\n        public\r\n        ownerOnly\r\n        validAddress(address(_token))\r\n        notThis(address(_token))\r\n    {\r\n        etherTokens[_token] = _register;\r\n    }\r\n\r\n    /**\r\n      * @dev returns the conversion path between two tokens in the network\r\n      * note that this method is quite expensive in terms of gas and should generally be called off-chain\r\n      *\r\n      * @param _sourceToken source token address\r\n      * @param _targetToken target token address\r\n      *\r\n      * @return conversion path between the two tokens\r\n    */\r\n    function conversionPath(IERC20Token _sourceToken, IERC20Token _targetToken) public view returns (address[] memory) {\r\n        IConversionPathFinder pathFinder = IConversionPathFinder(addressOf(CONVERSION_PATH_FINDER));\r\n        return pathFinder.findPath(_sourceToken, _targetToken);\r\n    }\r\n\r\n    /**\r\n      * @dev returns the expected target amount of converting a given amount on a given path\r\n      * note that there is no support for circular paths\r\n      *\r\n      * @param _path        conversion path (see conversion path format above)\r\n      * @param _amount      amount of _path[0] tokens received from the sender\r\n      *\r\n      * @return expected target amount\r\n    */\r\n    function rateByPath(address[] memory _path, uint256 _amount) public view returns (uint256) {\r\n        uint256 amount;\r\n        uint256 fee;\r\n        uint256 supply;\r\n        uint256 balance;\r\n        uint32 weight;\r\n        IConverter converter;\r\n        IBancorFormula formula = IBancorFormula(addressOf(BANCOR_FORMULA));\r\n\r\n        amount = _amount;\r\n\r\n        // verify that the number of elements is larger than 2 and odd\r\n        require(_path.length > 2 && _path.length % 2 == 1, \"ERR_INVALID_PATH\");\r\n\r\n        // iterate over the conversion path\r\n        for (uint256 i = 2; i < _path.length; i += 2) {\r\n            IERC20Token sourceToken = IERC20Token(_path[i - 2]);\r\n            address anchor = _path[i - 1];\r\n            IERC20Token targetToken = IERC20Token(_path[i]);\r\n\r\n            converter = IConverter(payable(IConverterAnchor(anchor).owner()));\r\n\r\n            // backward compatibility\r\n            sourceToken = getConverterTokenAddress(converter, sourceToken);\r\n            targetToken = getConverterTokenAddress(converter, targetToken);\r\n\r\n            if (address(targetToken) == anchor) { // buy the smart token\r\n                // check if the current smart token has changed\r\n                if (i < 3 || anchor != _path[i - 3])\r\n                    supply = ISmartToken(anchor).totalSupply();\r\n\r\n                // get the amount & the conversion fee\r\n                balance = converter.getConnectorBalance(sourceToken);\r\n                (, weight, , , ) = converter.connectors(sourceToken);\r\n                amount = formula.purchaseTargetAmount(supply, balance, weight, amount);\r\n                fee = amount.mul(converter.conversionFee()).div(PPM_RESOLUTION);\r\n                amount -= fee;\r\n\r\n                // update the smart token supply for the next iteration\r\n                supply = supply.add(amount);\r\n            }\r\n            else if (address(sourceToken) == anchor) { // sell the smart token\r\n                // check if the current smart token has changed\r\n                if (i < 3 || anchor != _path[i - 3])\r\n                    supply = ISmartToken(anchor).totalSupply();\r\n\r\n                // get the amount & the conversion fee\r\n                balance = converter.getConnectorBalance(targetToken);\r\n                (, weight, , , ) = converter.connectors(targetToken);\r\n                amount = formula.saleTargetAmount(supply, balance, weight, amount);\r\n                fee = amount.mul(converter.conversionFee()).div(PPM_RESOLUTION);\r\n                amount -= fee;\r\n\r\n                // update the smart token supply for the next iteration\r\n                supply = supply.sub(amount);\r\n            }\r\n            else { // cross reserve conversion\r\n                (amount, fee) = getReturn(converter, sourceToken, targetToken, amount);\r\n            }\r\n        }\r\n\r\n        return amount;\r\n    }\r\n\r\n    /**\r\n      * @dev converts the token to any other token in the bancor network by following\r\n      * a predefined conversion path and transfers the result tokens to a target account\r\n      * affiliate account/fee can also be passed in to receive a conversion fee (on top of the liquidity provider fees)\r\n      * note that the network should already have been given allowance of the source token (if not ETH)\r\n      *\r\n      * @param _path                conversion path, see conversion path format above\r\n      * @param _amount              amount to convert from, in the source token\r\n      * @param _minReturn           if the conversion results in an amount smaller than the minimum return - it is cancelled, must be greater than zero\r\n      * @param _beneficiary         account that will receive the conversion result or 0x0 to send the result to the sender account\r\n      * @param _affiliateAccount    wallet address to receive the affiliate fee or 0x0 to disable affiliate fee\r\n      * @param _affiliateFee        affiliate fee in PPM or 0 to disable affiliate fee\r\n      *\r\n      * @return amount of tokens received from the conversion\r\n    */\r\n    function convertByPath(\r\n        address[] memory _path,\r\n        uint256 _amount,\r\n        uint256 _minReturn,\r\n        address payable _beneficiary,\r\n        address _affiliateAccount,\r\n        uint256 _affiliateFee)\r\n        public\r\n        payable\r\n        protected\r\n        greaterThanZero(_minReturn)\r\n        returns (uint256)\r\n    {\r\n        // verify that the path contrains at least a single 'hop' and that the number of elements is odd\r\n        require(_path.length > 2 && _path.length % 2 == 1, \"ERR_INVALID_PATH\");\r\n\r\n        // validate msg.value and prepare the source token for the conversion\r\n        handleSourceToken(IERC20Token(_path[0]), IConverterAnchor(_path[1]), _amount);\r\n\r\n        // check if affiliate fee is enabled\r\n        bool affiliateFeeEnabled = false;\r\n        if (address(_affiliateAccount) == address(0)) {\r\n            require(_affiliateFee == 0, \"ERR_INVALID_AFFILIATE_FEE\");\r\n        }\r\n        else {\r\n            require(0 < _affiliateFee && _affiliateFee <= maxAffiliateFee, \"ERR_INVALID_AFFILIATE_FEE\");\r\n            affiliateFeeEnabled = true;\r\n        }\r\n\r\n        // check if beneficiary is set\r\n        address payable beneficiary = msg.sender;\r\n        if (_beneficiary != address(0))\r\n            beneficiary = _beneficiary;\r\n\r\n        // convert and get the resulting amount\r\n        ConversionStep[] memory data = createConversionData(_path, beneficiary, affiliateFeeEnabled);\r\n        uint256 amount = doConversion(data, _amount, _minReturn, _affiliateAccount, _affiliateFee);\r\n\r\n        // handle the conversion target tokens\r\n        handleTargetToken(data, amount, beneficiary);\r\n\r\n        return amount;\r\n    }\r\n\r\n    /**\r\n      * @dev converts any other token to BNT in the bancor network by following\r\n      a predefined conversion path and transfers the result to an account on a different blockchain\r\n      * note that the network should already have been given allowance of the source token (if not ETH)\r\n      *\r\n      * @param _path                conversion path, see conversion path format above\r\n      * @param _amount              amount to convert from, in the source token\r\n      * @param _minReturn           if the conversion results in an amount smaller than the minimum return - it is cancelled, must be greater than zero\r\n      * @param _targetBlockchain    blockchain BNT will be issued on\r\n      * @param _targetAccount       address/account on the target blockchain to send the BNT to\r\n      * @param _conversionId        pre-determined unique (if non zero) id which refers to this transaction\r\n      *\r\n      * @return the amount of BNT received from this conversion\r\n    */\r\n    function xConvert(\r\n        address[] memory _path,\r\n        uint256 _amount,\r\n        uint256 _minReturn,\r\n        bytes32 _targetBlockchain,\r\n        bytes32 _targetAccount,\r\n        uint256 _conversionId\r\n    )\r\n        public\r\n        payable\r\n        returns (uint256)\r\n    {\r\n        return xConvert2(_path, _amount, _minReturn, _targetBlockchain, _targetAccount, _conversionId, address(0), 0);\r\n    }\r\n\r\n    /**\r\n      * @dev converts any other token to BNT in the bancor network by following\r\n      a predefined conversion path and transfers the result to an account on a different blockchain\r\n      * note that the network should already have been given allowance of the source token (if not ETH)\r\n      *\r\n      * @param _path                conversion path, see conversion path format above\r\n      * @param _amount              amount to convert from, in the source token\r\n      * @param _minReturn           if the conversion results in an amount smaller than the minimum return - it is cancelled, must be greater than zero\r\n      * @param _targetBlockchain    blockchain BNT will be issued on\r\n      * @param _targetAccount       address/account on the target blockchain to send the BNT to\r\n      * @param _conversionId        pre-determined unique (if non zero) id which refers to this transaction\r\n      * @param _affiliateAccount    affiliate account\r\n      * @param _affiliateFee        affiliate fee in PPM\r\n      *\r\n      * @return the amount of BNT received from this conversion\r\n    */\r\n    function xConvert2(\r\n        address[] memory _path,\r\n        uint256 _amount,\r\n        uint256 _minReturn,\r\n        bytes32 _targetBlockchain,\r\n        bytes32 _targetAccount,\r\n        uint256 _conversionId,\r\n        address _affiliateAccount,\r\n        uint256 _affiliateFee\r\n    )\r\n        public\r\n        payable\r\n        greaterThanZero(_minReturn)\r\n        returns (uint256)\r\n    {\r\n        IERC20Token targetToken = IERC20Token(_path[_path.length - 1]);\r\n        IBancorX bancorX = IBancorX(addressOf(BANCOR_X));\r\n\r\n        // verify that the destination token is BNT\r\n        require(targetToken == IERC20Token(addressOf(BNT_TOKEN)), \"ERR_INVALID_TARGET_TOKEN\");\r\n\r\n        // convert and get the resulting amount\r\n        uint256 amount = convertByPath(_path, _amount, _minReturn, payable(address(this)), _affiliateAccount, _affiliateFee);\r\n\r\n        // grant BancorX allowance\r\n        ensureAllowance(targetToken, address(bancorX), amount);\r\n\r\n        // transfer the resulting amount to BancorX\r\n        bancorX.xTransfer(_targetBlockchain, _targetAccount, amount, _conversionId);\r\n\r\n        return amount;\r\n    }\r\n\r\n    /**\r\n      * @dev allows a user to convert a token that was sent from another blockchain into any other\r\n      * token on the BancorNetwork\r\n      * ideally this transaction is created before the previous conversion is even complete, so\r\n      * so the input amount isn't known at that point - the amount is actually take from the\r\n      * BancorX contract directly by specifying the conversion id\r\n      *\r\n      * @param _path            conversion path\r\n      * @param _bancorX         address of the BancorX contract for the source token\r\n      * @param _conversionId    pre-determined unique (if non zero) id which refers to this conversion\r\n      * @param _minReturn       if the conversion results in an amount smaller than the minimum return - it is cancelled, must be nonzero\r\n      * @param _beneficiary     wallet to receive the conversion result\r\n      *\r\n      * @return amount of tokens received from the conversion\r\n    */\r\n    function completeXConversion(address[] memory _path, IBancorX _bancorX, uint256 _conversionId, uint256 _minReturn, address payable _beneficiary)\r\n        public returns (uint256)\r\n    {\r\n        // verify that the source token is the BancorX token\r\n        require(IERC20Token(_path[0]) == _bancorX.token(), \"ERR_INVALID_SOURCE_TOKEN\");\r\n\r\n        // get conversion amount from BancorX contract\r\n        uint256 amount = _bancorX.getXTransferAmount(_conversionId, msg.sender);\r\n\r\n        // perform the conversion\r\n        return convertByPath(_path, amount, _minReturn, _beneficiary, address(0), 0);\r\n    }\r\n\r\n    /**\r\n      * @dev executes the actual conversion by following the conversion path\r\n      *\r\n      * @param _data                conversion data, see ConversionStep struct above\r\n      * @param _amount              amount to convert from, in the source token\r\n      * @param _minReturn           if the conversion results in an amount smaller than the minimum return - it is cancelled, must be greater than zero\r\n      * @param _affiliateAccount    affiliate account\r\n      * @param _affiliateFee        affiliate fee in PPM\r\n      *\r\n      * @return amount of tokens received from the conversion\r\n    */\r\n    function doConversion(\r\n        ConversionStep[] memory _data,\r\n        uint256 _amount,\r\n        uint256 _minReturn,\r\n        address _affiliateAccount,\r\n        uint256 _affiliateFee\r\n    ) private returns (uint256) {\r\n        uint256 toAmount;\r\n        uint256 fromAmount = _amount;\r\n\r\n        // iterate over the conversion data\r\n        for (uint256 i = 0; i < _data.length; i++) {\r\n            ConversionStep memory stepData = _data[i];\r\n\r\n            // newer converter\r\n            if (stepData.isV28OrHigherConverter) {\r\n                // transfer the tokens to the converter only if the network contract currently holds the tokens\r\n                // not needed with ETH or if it's the first conversion step\r\n                if (i != 0 && _data[i - 1].beneficiary == address(this) && !etherTokens[stepData.sourceToken])\r\n                    safeTransfer(stepData.sourceToken, address(stepData.converter), fromAmount);\r\n            }\r\n            // older converter\r\n            // if the source token is the smart token, no need to do any transfers as the converter controls it\r\n            else if (stepData.sourceToken != ISmartToken(address(stepData.anchor))) {\r\n                // grant allowance for it to transfer the tokens from the network contract\r\n                ensureAllowance(stepData.sourceToken, address(stepData.converter), fromAmount);\r\n            }\r\n\r\n            // do the conversion\r\n            if (!stepData.isV28OrHigherConverter)\r\n                toAmount = ILegacyConverter(address(stepData.converter)).change(stepData.sourceToken, stepData.targetToken, fromAmount, 1);\r\n            else if (etherTokens[stepData.sourceToken])\r\n                toAmount = stepData.converter.convert{ value: msg.value }(stepData.sourceToken, stepData.targetToken, fromAmount, msg.sender, stepData.beneficiary);\r\n            else\r\n                toAmount = stepData.converter.convert(stepData.sourceToken, stepData.targetToken, fromAmount, msg.sender, stepData.beneficiary);\r\n\r\n            // pay affiliate-fee if needed\r\n            if (stepData.processAffiliateFee) {\r\n                uint256 affiliateAmount = toAmount.mul(_affiliateFee).div(PPM_RESOLUTION);\r\n                require(stepData.targetToken.transfer(_affiliateAccount, affiliateAmount), \"ERR_FEE_TRANSFER_FAILED\");\r\n                toAmount -= affiliateAmount;\r\n            }\r\n\r\n            emit Conversion(stepData.anchor, stepData.sourceToken, stepData.targetToken, fromAmount, toAmount, msg.sender);\r\n            fromAmount = toAmount;\r\n        }\r\n\r\n        // ensure the trade meets the minimum requested amount\r\n        require(toAmount >= _minReturn, \"ERR_RETURN_TOO_LOW\");\r\n\r\n        return toAmount;\r\n    }\r\n\r\n    /**\r\n      * @dev validates msg.value and prepares the conversion source token for the conversion\r\n      *\r\n      * @param _sourceToken source token of the first conversion step\r\n      * @param _anchor      converter anchor of the first conversion step\r\n      * @param _amount      amount to convert from, in the source token\r\n    */\r\n    function handleSourceToken(IERC20Token _sourceToken, IConverterAnchor _anchor, uint256 _amount) private {\r\n        IConverter firstConverter = IConverter(payable(_anchor.owner()));\r\n        bool isNewerConverter = isV28OrHigherConverter(firstConverter);\r\n\r\n        // ETH\r\n        if (msg.value > 0) {\r\n            // validate msg.value\r\n            require(msg.value == _amount, \"ERR_ETH_AMOUNT_MISMATCH\");\r\n\r\n            // EtherToken converter - deposit the ETH into the EtherToken\r\n            // note that it can still be a non ETH converter if the path is wrong\r\n            // but such conversion will simply revert\r\n            if (!isNewerConverter)\r\n                IEtherToken(address(getConverterEtherTokenAddress(firstConverter))).deposit{ value: msg.value }();\r\n        }\r\n        // EtherToken\r\n        else if (etherTokens[_sourceToken]) {\r\n            // claim the tokens - if the source token is ETH reserve, this call will fail\r\n            // since in that case the transaction must be sent with msg.value\r\n            safeTransferFrom(_sourceToken, msg.sender, address(this), _amount);\r\n\r\n            // ETH converter - withdraw the ETH\r\n            if (isNewerConverter)\r\n                IEtherToken(address(_sourceToken)).withdraw(_amount);\r\n        }\r\n        // other ERC20 token\r\n        else {\r\n            // newer converter - transfer the tokens from the sender directly to the converter\r\n            // otherwise claim the tokens\r\n            if (isNewerConverter)\r\n                safeTransferFrom(_sourceToken, msg.sender, address(firstConverter), _amount);\r\n            else\r\n                safeTransferFrom(_sourceToken, msg.sender, address(this), _amount);\r\n        }\r\n    }\r\n\r\n    /**\r\n      * @dev handles the conversion target token if the network still holds it at the end of the conversion\r\n      *\r\n      * @param _data        conversion data, see ConversionStep struct above\r\n      * @param _amount      conversion target amount\r\n      * @param _beneficiary wallet to receive the conversion result\r\n    */\r\n    function handleTargetToken(ConversionStep[] memory _data, uint256 _amount, address payable _beneficiary) private {\r\n        ConversionStep memory stepData = _data[_data.length - 1];\r\n\r\n        // network contract doesn't hold the tokens, do nothing\r\n        if (stepData.beneficiary != address(this))\r\n            return;\r\n\r\n        IERC20Token targetToken = stepData.targetToken;\r\n\r\n        // ETH / EtherToken\r\n        if (etherTokens[targetToken]) {\r\n            // newer converter should send ETH directly to the beneficiary\r\n            assert(!stepData.isV28OrHigherConverter);\r\n\r\n            // EtherToken converter - withdraw the ETH and transfer to the beneficiary\r\n            IEtherToken(address(targetToken)).withdrawTo(_beneficiary, _amount);\r\n        }\r\n        // other ERC20 token\r\n        else {\r\n            safeTransfer(targetToken, _beneficiary, _amount);\r\n        }\r\n    }\r\n\r\n    /**\r\n      * @dev creates a memory cache of all conversion steps data to minimize logic and external calls during conversions\r\n      *\r\n      * @param _conversionPath      conversion path, see conversion path format above\r\n      * @param _beneficiary         wallet to receive the conversion result\r\n      * @param _affiliateFeeEnabled true if affiliate fee was requested by the sender, false if not\r\n      *\r\n      * @return cached conversion data to be ingested later on by the conversion flow\r\n    */\r\n    function createConversionData(address[] memory _conversionPath, address payable _beneficiary, bool _affiliateFeeEnabled) private view returns (ConversionStep[] memory) {\r\n        ConversionStep[] memory data = new ConversionStep[](_conversionPath.length / 2);\r\n\r\n        bool affiliateFeeProcessed = false;\r\n        IERC20Token bntToken = IERC20Token(addressOf(BNT_TOKEN));\r\n        // iterate the conversion path and create the conversion data for each step\r\n        uint256 i;\r\n        for (i = 0; i < _conversionPath.length - 1; i += 2) {\r\n            IConverterAnchor anchor = IConverterAnchor(_conversionPath[i + 1]);\r\n            IConverter converter = IConverter(payable(anchor.owner()));\r\n            IERC20Token targetToken = IERC20Token(_conversionPath[i + 2]);\r\n\r\n            // check if the affiliate fee should be processed in this step\r\n            bool processAffiliateFee = _affiliateFeeEnabled && !affiliateFeeProcessed && targetToken == bntToken;\r\n            if (processAffiliateFee)\r\n                affiliateFeeProcessed = true;\r\n\r\n            data[i / 2] = ConversionStep({\r\n                // set the converter anchor\r\n                anchor: anchor,\r\n\r\n                // set the converter\r\n                converter: converter,\r\n\r\n                // set the source/target tokens\r\n                sourceToken: IERC20Token(_conversionPath[i]),\r\n                targetToken: targetToken,\r\n\r\n                // requires knowledge about the next step, so initialize in the next phase\r\n                beneficiary: address(0),\r\n\r\n                // set flags\r\n                isV28OrHigherConverter: isV28OrHigherConverter(converter),\r\n                processAffiliateFee: processAffiliateFee\r\n            });\r\n        }\r\n\r\n        // ETH support\r\n        // source is ETH\r\n        ConversionStep memory stepData = data[0];\r\n        if (etherTokens[stepData.sourceToken]) {\r\n            // newer converter - replace the source token address with ETH reserve address\r\n            if (stepData.isV28OrHigherConverter)\r\n                stepData.sourceToken = ETH_RESERVE_ADDRESS;\r\n            // older converter - replace the source token with the EtherToken address used by the converter\r\n            else\r\n                stepData.sourceToken = getConverterEtherTokenAddress(stepData.converter);\r\n        }\r\n\r\n        // target is ETH\r\n        stepData = data[data.length - 1];\r\n        if (etherTokens[stepData.targetToken]) {\r\n            // newer converter - replace the target token address with ETH reserve address\r\n            if (stepData.isV28OrHigherConverter)\r\n                stepData.targetToken = ETH_RESERVE_ADDRESS;\r\n            // older converter - replace the target token with the EtherToken address used by the converter\r\n            else\r\n                stepData.targetToken = getConverterEtherTokenAddress(stepData.converter);\r\n        }\r\n\r\n        // set the beneficiary for each step\r\n        for (i = 0; i < data.length; i++) {\r\n            stepData = data[i];\r\n\r\n            // first check if the converter in this step is newer as older converters don't even support the beneficiary argument\r\n            if (stepData.isV28OrHigherConverter) {\r\n                // if affiliate fee is processed in this step, beneficiary is the network contract\r\n                if (stepData.processAffiliateFee)\r\n                    stepData.beneficiary = payable(address(this));\r\n                // if it's the last step, beneficiary is the final beneficiary\r\n                else if (i == data.length - 1)\r\n                    stepData.beneficiary = _beneficiary;\r\n                // if the converter in the next step is newer, beneficiary is the next converter\r\n                else if (data[i + 1].isV28OrHigherConverter)\r\n                    stepData.beneficiary = address(data[i + 1].converter);\r\n                // the converter in the next step is older, beneficiary is the network contract\r\n                else\r\n                    stepData.beneficiary = payable(address(this));\r\n            }\r\n            else {\r\n                // converter in this step is older, beneficiary is the network contract\r\n                stepData.beneficiary = payable(address(this));\r\n            }\r\n        }\r\n\r\n        return data;\r\n    }\r\n\r\n    /**\r\n      * @dev utility, checks whether allowance for the given spender exists and approves one if it doesn't.\r\n      * Note that we use the non standard erc-20 interface in which `approve` has no return value so that\r\n      * this function will work for both standard and non standard tokens\r\n      *\r\n      * @param _token   token to check the allowance in\r\n      * @param _spender approved address\r\n      * @param _value   allowance amount\r\n    */\r\n    function ensureAllowance(IERC20Token _token, address _spender, uint256 _value) private {\r\n        uint256 allowance = _token.allowance(address(this), _spender);\r\n        if (allowance < _value) {\r\n            if (allowance > 0)\r\n                safeApprove(_token, _spender, 0);\r\n            safeApprove(_token, _spender, _value);\r\n        }\r\n    }\r\n\r\n    // legacy - returns the address of an EtherToken used by the converter\r\n    function getConverterEtherTokenAddress(IConverter _converter) private view returns (IERC20Token) {\r\n        uint256 reserveCount = _converter.connectorTokenCount();\r\n        for (uint256 i = 0; i < reserveCount; i++) {\r\n            IERC20Token reserveTokenAddress = _converter.connectorTokens(i);\r\n            if (etherTokens[reserveTokenAddress])\r\n                return reserveTokenAddress;\r\n        }\r\n\r\n        return ETH_RESERVE_ADDRESS;\r\n    }\r\n\r\n    // legacy - if the token is an ether token, returns the ETH reserve address\r\n    // used by the converter, otherwise returns the input token address\r\n    function getConverterTokenAddress(IConverter _converter, IERC20Token _token) private view returns (IERC20Token) {\r\n        if (!etherTokens[_token])\r\n            return _token;\r\n\r\n        if (isV28OrHigherConverter(_converter))\r\n            return ETH_RESERVE_ADDRESS;\r\n\r\n        return getConverterEtherTokenAddress(_converter);\r\n    }\r\n\r\n    bytes4 private constant GET_RETURN_FUNC_SELECTOR = bytes4(keccak256(\"getReturn(address,address,uint256)\"));\r\n\r\n    // using a static call to get the return from older converters\r\n    function getReturn(IConverter _dest, IERC20Token _sourceToken, IERC20Token _targetToken, uint256 _amount) internal view returns (uint256, uint256) {\r\n        bytes memory data = abi.encodeWithSelector(GET_RETURN_FUNC_SELECTOR, _sourceToken, _targetToken, _amount);\r\n        (bool success, bytes memory returnData) = address(_dest).staticcall(data);\r\n\r\n        if (success) {\r\n            if (returnData.length == 64) {\r\n                return abi.decode(returnData, (uint256, uint256));\r\n            }\r\n\r\n            if (returnData.length == 32) {\r\n                return (abi.decode(returnData, (uint256)), 0);\r\n            }\r\n        }\r\n\r\n        return (0, 0);\r\n    }\r\n\r\n    bytes4 private constant IS_V28_OR_HIGHER_FUNC_SELECTOR = bytes4(keccak256(\"isV28OrHigher()\"));\r\n\r\n    // using a static call to identify converter version\r\n    // can't rely on the version number since the function had a different signature in older converters\r\n    function isV28OrHigherConverter(IConverter _converter) internal view returns (bool) {\r\n        bytes memory data = abi.encodeWithSelector(IS_V28_OR_HIGHER_FUNC_SELECTOR);\r\n        (bool success, bytes memory returnData) = address(_converter).staticcall{ gas: 4000 }(data);\r\n\r\n        if (success && returnData.length == 32) {\r\n            return abi.decode(returnData, (bool));\r\n        }\r\n\r\n        return false;\r\n    }\r\n\r\n    /**\r\n      * @dev deprecated, backward compatibility\r\n    */\r\n    function getReturnByPath(address[] memory _path, uint256 _amount) public view returns (uint256, uint256) {\r\n        return (rateByPath(_path, _amount), 0);\r\n    }\r\n\r\n    /**\r\n      * @dev deprecated, backward compatibility\r\n    */\r\n    function convert(address[] memory _path, uint256 _amount, uint256 _minReturn) public payable returns (uint256) {\r\n        return convertByPath(_path, _amount, _minReturn, address(0), address(0), 0);\r\n    }\r\n\r\n    /**\r\n      * @dev deprecated, backward compatibility\r\n    */\r\n    function convert2(\r\n        address[] memory _path,\r\n        uint256 _amount,\r\n        uint256 _minReturn,\r\n        address _affiliateAccount,\r\n        uint256 _affiliateFee\r\n    )\r\n        public\r\n        payable\r\n        returns (uint256)\r\n    {\r\n        return convertByPath(_path, _amount, _minReturn, address(0), _affiliateAccount, _affiliateFee);\r\n    }\r\n\r\n    /**\r\n      * @dev deprecated, backward compatibility\r\n    */\r\n    function convertFor(address[] memory _path, uint256 _amount, uint256 _minReturn, address payable _beneficiary) public payable returns (uint256) {\r\n        return convertByPath(_path, _amount, _minReturn, _beneficiary, address(0), 0);\r\n    }\r\n\r\n    /**\r\n      * @dev deprecated, backward compatibility\r\n    */\r\n    function convertFor2(\r\n        address[] memory _path,\r\n        uint256 _amount,\r\n        uint256 _minReturn,\r\n        address payable _beneficiary,\r\n        address _affiliateAccount,\r\n        uint256 _affiliateFee\r\n    )\r\n        public\r\n        payable\r\n        greaterThanZero(_minReturn)\r\n        returns (uint256)\r\n    {\r\n        return convertByPath(_path, _amount, _minReturn, _beneficiary, _affiliateAccount, _affiliateFee);\r\n    }\r\n\r\n    /**\r\n      * @dev deprecated, backward compatibility\r\n    */\r\n    function claimAndConvert(address[] memory _path, uint256 _amount, uint256 _minReturn) public returns (uint256) {\r\n        return convertByPath(_path, _amount, _minReturn, address(0), address(0), 0);\r\n    }\r\n\r\n    /**\r\n      * @dev deprecated, backward compatibility\r\n    */\r\n    function claimAndConvert2(\r\n        address[] memory _path,\r\n        uint256 _amount,\r\n        uint256 _minReturn,\r\n        address _affiliateAccount,\r\n        uint256 _affiliateFee\r\n    )\r\n        public\r\n        returns (uint256)\r\n    {\r\n        return convertByPath(_path, _amount, _minReturn, address(0), _affiliateAccount, _affiliateFee);\r\n    }\r\n\r\n    /**\r\n      * @dev deprecated, backward compatibility\r\n    */\r\n    function claimAndConvertFor(address[] memory _path, uint256 _amount, uint256 _minReturn, address payable _beneficiary) public returns (uint256) {\r\n        return convertByPath(_path, _amount, _minReturn, _beneficiary, address(0), 0);\r\n    }\r\n\r\n    /**\r\n      * @dev deprecated, backward compatibility\r\n    */\r\n    function claimAndConvertFor2(\r\n        address[] memory _path,\r\n        uint256 _amount,\r\n        uint256 _minReturn,\r\n        address payable _beneficiary,\r\n        address _affiliateAccount,\r\n        uint256 _affiliateFee\r\n    )\r\n        public\r\n        returns (uint256)\r\n    {\r\n        return convertByPath(_path, _amount, _minReturn, _beneficiary, _affiliateAccount, _affiliateFee);\r\n    }\r\n}\r\n",
  "sourcePath": "/home/lash/src/ext/cic/grassrootseconomics/bancor-contracts/solidity/contracts/BancorNetwork.sol",
  "compiler": {
    "name": "solc",
    "version": "0.6.12+commit.27d51765.Emscripten.clang"
  },
  "schemaVersion": "3.2.3",
  "updatedAt": "2020-11-10T14:20:44.742Z",
  "networkType": "ethereum",
  "devdoc": {
    "details": "The BancorNetwork contract is the main entry point for Bancor token conversions. It also allows for the conversion of any token in the Bancor Network to any other token in a single transaction by providing a conversion path. A note on Conversion Path: Conversion path is a data structure that is used when converting a token to another token in the Bancor Network, when the conversion cannot necessarily be done by a single converter and might require multiple 'hops'. The path defines which converters should be used and what kind of conversion should be done in each step. The path format doesn't include complex structure; instead, it is represented by a single array in which each 'hop' is represented by a 2-tuple - converter anchor & target token. In addition, the first element is always the source token. The converter anchor is only used as a pointer to a converter (since converter addresses are more likely to change as opposed to anchor addresses). Format: [source token, converter anchor, target token, converter anchor, target token...]",
    "events": {
      "Conversion(address,address,address,uint256,uint256,address)": {
        "details": "triggered when a conversion between two tokens occurs",
        "params": {
          "_fromAmount": "amount converted, in the source token",
          "_fromToken": "source ERC20 token",
          "_smartToken": "anchor governed by the converter",
          "_toAmount": "amount returned, minus conversion fee",
          "_toToken": "target ERC20 token",
          "_trader": "wallet that initiated the trade"
        }
      }
    },
    "kind": "dev",
    "methods": {
      "acceptOwnership()": {
        "details": "used by a new owner to accept an ownership transfer"
      },
      "claimAndConvert(address[],uint256,uint256)": {
        "details": "deprecated, backward compatibility"
      },
      "claimAndConvert2(address[],uint256,uint256,address,uint256)": {
        "details": "deprecated, backward compatibility"
      },
      "claimAndConvertFor(address[],uint256,uint256,address)": {
        "details": "deprecated, backward compatibility"
      },
      "claimAndConvertFor2(address[],uint256,uint256,address,address,uint256)": {
        "details": "deprecated, backward compatibility"
      },
      "completeXConversion(address[],address,uint256,uint256,address)": {
        "details": "allows a user to convert a token that was sent from another blockchain into any other token on the BancorNetwork ideally this transaction is created before the previous conversion is even complete, so so the input amount isn't known at that point - the amount is actually take from the BancorX contract directly by specifying the conversion id",
        "params": {
          "_bancorX": "address of the BancorX contract for the source token",
          "_beneficiary": "wallet to receive the conversion result",
          "_conversionId": "pre-determined unique (if non zero) id which refers to this conversion",
          "_minReturn": "if the conversion results in an amount smaller than the minimum return - it is cancelled, must be nonzero",
          "_path": "conversion path"
        },
        "returns": {
          "_0": "amount of tokens received from the conversion"
        }
      },
      "constructor": {
        "details": "initializes a new BancorNetwork instance",
        "params": {
          "_registry": "address of a contract registry contract"
        }
      },
      "conversionPath(address,address)": {
        "details": "returns the conversion path between two tokens in the network note that this method is quite expensive in terms of gas and should generally be called off-chain",
        "params": {
          "_sourceToken": "source token address",
          "_targetToken": "target token address"
        },
        "returns": {
          "_0": "conversion path between the two tokens"
        }
      },
      "convert(address[],uint256,uint256)": {
        "details": "deprecated, backward compatibility"
      },
      "convert2(address[],uint256,uint256,address,uint256)": {
        "details": "deprecated, backward compatibility"
      },
      "convertByPath(address[],uint256,uint256,address,address,uint256)": {
        "details": "converts the token to any other token in the bancor network by following a predefined conversion path and transfers the result tokens to a target account affiliate account/fee can also be passed in to receive a conversion fee (on top of the liquidity provider fees) note that the network should already have been given allowance of the source token (if not ETH)",
        "params": {
          "_affiliateAccount": "wallet address to receive the affiliate fee or 0x0 to disable affiliate fee",
          "_affiliateFee": "affiliate fee in PPM or 0 to disable affiliate fee",
          "_amount": "amount to convert from, in the source token",
          "_beneficiary": "account that will receive the conversion result or 0x0 to send the result to the sender account",
          "_minReturn": "if the conversion results in an amount smaller than the minimum return - it is cancelled, must be greater than zero",
          "_path": "conversion path, see conversion path format above"
        },
        "returns": {
          "_0": "amount of tokens received from the conversion"
        }
      },
      "convertFor(address[],uint256,uint256,address)": {
        "details": "deprecated, backward compatibility"
      },
      "convertFor2(address[],uint256,uint256,address,address,uint256)": {
        "details": "deprecated, backward compatibility"
      },
      "getReturnByPath(address[],uint256)": {
        "details": "deprecated, backward compatibility"
      },
      "rateByPath(address[],uint256)": {
        "details": "returns the expected target amount of converting a given amount on a given path note that there is no support for circular paths",
        "params": {
          "_amount": "amount of _path[0] tokens received from the sender",
          "_path": "conversion path (see conversion path format above)"
        },
        "returns": {
          "_0": "expected target amount"
        }
      },
      "registerEtherToken(address,bool)": {
        "details": "allows the owner to register/unregister ether tokens",
        "params": {
          "_register": "true to register, false to unregister",
          "_token": "ether token contract address"
        }
      },
      "restoreRegistry()": {
        "details": "restores the previous contract-registry"
      },
      "restrictRegistryUpdate(bool)": {
        "details": "restricts the permission to update the contract-registry",
        "params": {
          "_onlyOwnerCanUpdateRegistry": "indicates whether or not permission is restricted to owner only"
        }
      },
      "setMaxAffiliateFee(uint256)": {
        "details": "allows the owner to update the maximum affiliate-fee",
        "params": {
          "_maxAffiliateFee": "maximum affiliate-fee"
        }
      },
      "transferOwnership(address)": {
        "details": "allows transferring the contract ownership the new owner still needs to accept the transfer can only be called by the contract owner",
        "params": {
          "_newOwner": "new contract owner"
        }
      },
      "updateRegistry()": {
        "details": "updates to the new contract-registry"
      },
      "withdrawTokens(address,address,uint256)": {
        "details": "withdraws tokens held by the contract and sends them to an account can only be called by the owner",
        "params": {
          "_amount": "amount to withdraw",
          "_to": "account to receive the new amount",
          "_token": "ERC20 token contract address"
        }
      },
      "xConvert(address[],uint256,uint256,bytes32,bytes32,uint256)": {
        "details": "converts any other token to BNT in the bancor network by following a predefined conversion path and transfers the result to an account on a different blockchain note that the network should already have been given allowance of the source token (if not ETH)",
        "params": {
          "_amount": "amount to convert from, in the source token",
          "_conversionId": "pre-determined unique (if non zero) id which refers to this transaction",
          "_minReturn": "if the conversion results in an amount smaller than the minimum return - it is cancelled, must be greater than zero",
          "_path": "conversion path, see conversion path format above",
          "_targetAccount": "address/account on the target blockchain to send the BNT to",
          "_targetBlockchain": "blockchain BNT will be issued on"
        },
        "returns": {
          "_0": "the amount of BNT received from this conversion"
        }
      },
      "xConvert2(address[],uint256,uint256,bytes32,bytes32,uint256,address,uint256)": {
        "details": "converts any other token to BNT in the bancor network by following a predefined conversion path and transfers the result to an account on a different blockchain note that the network should already have been given allowance of the source token (if not ETH)",
        "params": {
          "_affiliateAccount": "affiliate account",
          "_affiliateFee": "affiliate fee in PPM",
          "_amount": "amount to convert from, in the source token",
          "_conversionId": "pre-determined unique (if non zero) id which refers to this transaction",
          "_minReturn": "if the conversion results in an amount smaller than the minimum return - it is cancelled, must be greater than zero",
          "_path": "conversion path, see conversion path format above",
          "_targetAccount": "address/account on the target blockchain to send the BNT to",
          "_targetBlockchain": "blockchain BNT will be issued on"
        },
        "returns": {
          "_0": "the amount of BNT received from this conversion"
        }
      }
    },
    "version": 1
  },
  "userdoc": {
    "kind": "user",
    "methods": {},
    "version": 1
  }
}