{
  "contractName": "ChainlinkETHToETHOracle",
  "abi": [
    {
      "inputs": [],
      "name": "latestAnswer",
      "outputs": [
        {
          "internalType": "int256",
          "name": "",
          "type": "int256"
        }
      ],
      "stateMutability": "view",
      "type": "function"
    },
    {
      "inputs": [],
      "name": "latestTimestamp",
      "outputs": [
        {
          "internalType": "uint256",
          "name": "",
          "type": "uint256"
        }
      ],
      "stateMutability": "view",
      "type": "function"
    }
  ],
  "bytecode": "0x6080604052348015600f57600080fd5b5060948061001e6000396000f3fe6080604052348015600f57600080fd5b506004361060325760003560e01c806350d25bcd1460375780638205bf6a14604f575b600080fd5b603d6055565b60408051918252519081900360200190f35b603d605a565b600190565b429056fea2646970667358221220c822ae6afcb353631cf38e35b68885314d174a60445c8b6f4e095de2c2451b7164736f6c634300060c0033",
  "immutableReferences": {},
  "source": "// SPDX-License-Identifier: SEE LICENSE IN LICENSE\npragma solidity 0.6.12;\n\nimport \"./interfaces/IChainlinkPriceOracle.sol\";\n\n/**\n  * @dev Provides the trivial ETH/ETH rate to be used with other TKN/ETH rates\n*/\ncontract ChainlinkETHToETHOracle is IChainlinkPriceOracle {\n    int256 private constant ETH_RATE = 1;\n\n    /**\n      * @dev returns the trivial ETH/ETH rate.\n      *\n      * @return always returns the trivial rate of 1\n    */\n    function latestAnswer() external view override returns (int256) {\n        return ETH_RATE;\n    }\n\n    /**\n      * @dev returns the trivial ETH/ETH update time.\n      *\n      * @return always returns current block's timestamp\n    */\n    function latestTimestamp() external view override returns (uint256) {\n        return now;\n    }\n}\n",
  "sourcePath": "/home/lash/src/ext/cic/grassrootseconomics/bancor-contracts/solidity/contracts/utility/ChainlinkETHToETHOracle.sol",
  "compiler": {
    "name": "solc",
    "version": "0.6.12+commit.27d51765.Emscripten.clang"
  },
  "schemaVersion": "3.2.3",
  "updatedAt": "2020-10-20T08:24:47.837Z",
  "devdoc": {
    "details": "Provides the trivial ETH/ETH rate to be used with other TKN/ETH rates",
    "kind": "dev",
    "methods": {
      "latestAnswer()": {
        "details": "returns the trivial ETH/ETH rate.",
        "returns": {
          "_0": "always returns the trivial rate of 1"
        }
      },
      "latestTimestamp()": {
        "details": "returns the trivial ETH/ETH update time.",
        "returns": {
          "_0": "always returns current block's timestamp"
        }
      }
    },
    "version": 1
  },
  "userdoc": {
    "kind": "user",
    "methods": {},
    "version": 1
  }
}