{
  "contractName": "ConverterFactory",
  "abi": [
    {
      "anonymous": false,
      "inputs": [
        {
          "indexed": true,
          "internalType": "uint16",
          "name": "_type",
          "type": "uint16"
        },
        {
          "indexed": true,
          "internalType": "contract IConverter",
          "name": "_converter",
          "type": "address"
        },
        {
          "indexed": true,
          "internalType": "address",
          "name": "_owner",
          "type": "address"
        }
      ],
      "name": "NewConverter",
      "type": "event"
    },
    {
      "anonymous": false,
      "inputs": [
        {
          "indexed": true,
          "internalType": "address",
          "name": "_prevOwner",
          "type": "address"
        },
        {
          "indexed": true,
          "internalType": "address",
          "name": "_newOwner",
          "type": "address"
        }
      ],
      "name": "OwnerUpdate",
      "type": "event"
    },
    {
      "inputs": [],
      "name": "acceptOwnership",
      "outputs": [],
      "stateMutability": "nonpayable",
      "type": "function"
    },
    {
      "inputs": [
        {
          "internalType": "uint16",
          "name": "",
          "type": "uint16"
        }
      ],
      "name": "anchorFactories",
      "outputs": [
        {
          "internalType": "contract ITypedConverterAnchorFactory",
          "name": "",
          "type": "address"
        }
      ],
      "stateMutability": "view",
      "type": "function",
      "constant": true
    },
    {
      "inputs": [
        {
          "internalType": "uint16",
          "name": "",
          "type": "uint16"
        }
      ],
      "name": "converterFactories",
      "outputs": [
        {
          "internalType": "contract ITypedConverterFactory",
          "name": "",
          "type": "address"
        }
      ],
      "stateMutability": "view",
      "type": "function",
      "constant": true
    },
    {
      "inputs": [
        {
          "internalType": "uint16",
          "name": "",
          "type": "uint16"
        }
      ],
      "name": "customFactories",
      "outputs": [
        {
          "internalType": "contract ITypedConverterCustomFactory",
          "name": "",
          "type": "address"
        }
      ],
      "stateMutability": "view",
      "type": "function",
      "constant": true
    },
    {
      "inputs": [],
      "name": "newOwner",
      "outputs": [
        {
          "internalType": "address",
          "name": "",
          "type": "address"
        }
      ],
      "stateMutability": "view",
      "type": "function",
      "constant": true
    },
    {
      "inputs": [],
      "name": "owner",
      "outputs": [
        {
          "internalType": "address",
          "name": "",
          "type": "address"
        }
      ],
      "stateMutability": "view",
      "type": "function",
      "constant": true
    },
    {
      "inputs": [
        {
          "internalType": "address",
          "name": "_newOwner",
          "type": "address"
        }
      ],
      "name": "transferOwnership",
      "outputs": [],
      "stateMutability": "nonpayable",
      "type": "function"
    },
    {
      "inputs": [
        {
          "internalType": "contract ITypedConverterFactory",
          "name": "_factory",
          "type": "address"
        }
      ],
      "name": "registerTypedConverterFactory",
      "outputs": [],
      "stateMutability": "nonpayable",
      "type": "function"
    },
    {
      "inputs": [
        {
          "internalType": "contract ITypedConverterAnchorFactory",
          "name": "_factory",
          "type": "address"
        }
      ],
      "name": "registerTypedConverterAnchorFactory",
      "outputs": [],
      "stateMutability": "nonpayable",
      "type": "function"
    },
    {
      "inputs": [
        {
          "internalType": "contract ITypedConverterCustomFactory",
          "name": "_factory",
          "type": "address"
        }
      ],
      "name": "registerTypedConverterCustomFactory",
      "outputs": [],
      "stateMutability": "nonpayable",
      "type": "function"
    },
    {
      "inputs": [
        {
          "internalType": "uint16",
          "name": "_converterType",
          "type": "uint16"
        },
        {
          "internalType": "string",
          "name": "_name",
          "type": "string"
        },
        {
          "internalType": "string",
          "name": "_symbol",
          "type": "string"
        },
        {
          "internalType": "uint8",
          "name": "_decimals",
          "type": "uint8"
        }
      ],
      "name": "createAnchor",
      "outputs": [
        {
          "internalType": "contract IConverterAnchor",
          "name": "",
          "type": "address"
        }
      ],
      "stateMutability": "nonpayable",
      "type": "function"
    },
    {
      "inputs": [
        {
          "internalType": "uint16",
          "name": "_type",
          "type": "uint16"
        },
        {
          "internalType": "contract IConverterAnchor",
          "name": "_anchor",
          "type": "address"
        },
        {
          "internalType": "contract IContractRegistry",
          "name": "_registry",
          "type": "address"
        },
        {
          "internalType": "uint32",
          "name": "_maxConversionFee",
          "type": "uint32"
        }
      ],
      "name": "createConverter",
      "outputs": [
        {
          "internalType": "contract IConverter",
          "name": "",
          "type": "address"
        }
      ],
      "stateMutability": "nonpayable",
      "type": "function"
    }
  ],
  "bytecode": "0x608060405234801561001057600080fd5b50600080546001600160a01b03191633179055611e53806100326000396000f3fe60806040523480156200001157600080fd5b5060043610620000c45760003560e01c80638cac5e29116200007b5780638cac5e2914620002f25780638da5cb5b146200031b578063c977aed21462000325578063d4ee1d901462000349578063e54b93ef1462000353578063f2fde38b146200037c57620000c4565b806312b4c6c114620000c957806315f64b6a14620000f45780632e9ab7b3146200015a578063327779a714620002a05780633a8fc52014620002c457806379ba509714620002e8575b600080fd5b620000f260048036036020811015620000e157600080fd5b50356001600160a01b0316620003a5565b005b6200013e600480360360808110156200010c57600080fd5b50803561ffff169060208101356001600160a01b03908116916040810135909116906060013563ffffffff1662000451565b604080516001600160a01b039092168252519081900360200190f35b6200013e600480360360808110156200017257600080fd5b61ffff82351691908101906040810160208201356401000000008111156200019957600080fd5b820183602082011115620001ac57600080fd5b80359060200191846001830284011164010000000083111715620001cf57600080fd5b91908080601f01602080910402602001604051908101604052809392919081815260200183838082843760009201919091525092959493602081019350359150506401000000008111156200022357600080fd5b8201836020820111156200023657600080fd5b803590602001918460018302840111640100000000831117156200025957600080fd5b91908080601f0160208091040260200160405190810160405280939291908181526020018383808284376000920191909152509295505050903560ff169150620005f69050565b6200013e60048036036020811015620002b857600080fd5b503561ffff166200094c565b6200013e60048036036020811015620002dc57600080fd5b503561ffff1662000967565b620000f262000982565b620000f2600480360360208110156200030a57600080fd5b50356001600160a01b031662000a3a565b6200013e62000a83565b6200013e600480360360208110156200033d57600080fd5b503561ffff1662000a92565b6200013e62000aad565b620000f2600480360360208110156200036b57600080fd5b50356001600160a01b031662000abc565b620000f2600480360360208110156200039457600080fd5b50356001600160a01b031662000b05565b620003af62000b86565b8060026000836001600160a01b0316633e8ff43f6040518163ffffffff1660e01b815260040160206040518083038186803b158015620003ee57600080fd5b505afa15801562000403573d6000803e3d6000fd5b505050506040513d60208110156200041a57600080fd5b505161ffff168152602081019190915260400160002080546001600160a01b0319166001600160a01b039290921691909117905550565b61ffff84166000908152600260209081526040808320548151630228272b60e31b81526001600160a01b038881166004830152878116602483015263ffffffff8716604483015292518594939092169263114139589260648084019382900301818787803b158015620004c357600080fd5b505af1158015620004d8573d6000803e3d6000fd5b505050506040513d6020811015620004ef57600080fd5b5051604080516379ba509760e01b815290519192506001600160a01b038316916379ba50979160048082019260009290919082900301818387803b1580156200053757600080fd5b505af11580156200054c573d6000803e3d6000fd5b50506040805163f2fde38b60e01b815233600482015290516001600160a01b038516935063f2fde38b9250602480830192600092919082900301818387803b1580156200059857600080fd5b505af1158015620005ad573d6000803e3d6000fd5b50506040513392506001600160a01b038416915061ffff8916907fbb340bcea68d239ac719bc5cf8c9a1716df04ad3babb8d1e562aa44d19fea3a390600090a495945050505050565b61ffff841660009081526003602052604081205481906001600160a01b03168062000731578585856040516200062c9062000bdc565b60ff82166040820152606080825284519082015283518190602080830191608084019188019080838360005b838110156200067257818101518382015260200162000658565b50505050905090810190601f168015620006a05780820380516001836020036101000a031916815260200191505b50838103825285518152855160209182019187019080838360005b83811015620006d5578181015183820152602001620006bb565b50505050905090810190601f168015620007035780820380516001836020036101000a031916815260200191505b5095505050505050604051809103906000f08015801562000728573d6000803e3d6000fd5b509150620008e0565b806001600160a01b031663a9fd4a2a8787876040518463ffffffff1660e01b81526004018080602001806020018460ff168152602001838103835286818151815260200191508051906020019080838360005b838110156200079e57818101518382015260200162000784565b50505050905090810190601f168015620007cc5780820380516001836020036101000a031916815260200191505b50838103825285518152855160209182019187019080838360005b8381101562000801578181015183820152602001620007e7565b50505050905090810190601f1680156200082f5780820380516001836020036101000a031916815260200191505b5095505050505050602060405180830381600087803b1580156200085257600080fd5b505af115801562000867573d6000803e3d6000fd5b505050506040513d60208110156200087e57600080fd5b5051604080516379ba509760e01b815290519193506001600160a01b038416916379ba50979160048082019260009290919082900301818387803b158015620008c657600080fd5b505af1158015620008db573d6000803e3d6000fd5b505050505b6040805163f2fde38b60e01b815233600482015290516001600160a01b0384169163f2fde38b91602480830192600092919082900301818387803b1580156200092857600080fd5b505af11580156200093d573d6000803e3d6000fd5b50939998505050505050505050565b6002602052600090815260409020546001600160a01b031681565b6003602052600090815260409020546001600160a01b031681565b6001546001600160a01b03163314620009d6576040805162461bcd60e51b815260206004820152601160248201527011549497d050d0d154d4d7d11153925151607a1b604482015290519081900360640190fd5b600154600080546040516001600160a01b0393841693909116917f343765429aea5a34b3ff6a3785a98a5abb2597aca87bfbb58632c173d585373a91a360018054600080546001600160a01b03199081166001600160a01b03841617909155169055565b62000a4462000b86565b8060046000836001600160a01b0316633e8ff43f6040518163ffffffff1660e01b815260040160206040518083038186803b158015620003ee57600080fd5b6000546001600160a01b031681565b6004602052600090815260409020546001600160a01b031681565b6001546001600160a01b031681565b62000ac662000b86565b8060036000836001600160a01b0316633e8ff43f6040518163ffffffff1660e01b815260040160206040518083038186803b158015620003ee57600080fd5b62000b0f62000b86565b6000546001600160a01b038281169116141562000b64576040805162461bcd60e51b815260206004820152600e60248201526d22a9292fa9a0a6a2afa7aba722a960911b604482015290519081900360640190fd5b600180546001600160a01b0319166001600160a01b0392909216919091179055565b6000546001600160a01b0316331462000bda576040805162461bcd60e51b815260206004820152601160248201527011549497d050d0d154d4d7d11153925151607a1b604482015290519081900360640190fd5b565b6112338062000beb8339019056fe60806040526008805460ff191660011790553480156200001e57600080fd5b506040516200123338038062001233833981810160405260608110156200004457600080fd5b81019080805160405193929190846401000000008211156200006557600080fd5b9083019060208201858111156200007b57600080fd5b82516401000000008111828201881017156200009657600080fd5b82525081516020918201929091019080838360005b83811015620000c5578181015183820152602001620000ab565b50505050905090810190601f168015620000f35780820380516001836020036101000a031916815260200191505b50604052602001805160405193929190846401000000008211156200011757600080fd5b9083019060208201858111156200012d57600080fd5b82516401000000008111828201881017156200014857600080fd5b82525081516020918201929091019080838360005b83811015620001775781810151838201526020016200015d565b50505050905090810190601f168015620001a55780820380516001836020036101000a031916815260200191505b5060405260200151600080546001600160a01b031916331781558551919350859250849184919062000211576040805162461bcd60e51b815260206004820152601060248201526f4552525f494e56414c49445f4e414d4560801b604482015290519081900360640190fd5b60008351116200025d576040805162461bcd60e51b815260206004820152601260248201527111549497d253959053125117d4d6535093d360721b604482015290519081900360640190fd5b835162000272906002906020870190620002bf565b50825162000288906003906020860190620002bf565b506004805460ff191660ff9390931692909217909155600581905533600090815260066020526040902055506200035b9350505050565b828054600181600116156101000203166002900490600052602060002090601f016020900481019282601f106200030257805160ff191683800117855562000332565b8280016001018555821562000332579182015b828111156200033257825182559160200191906001019062000315565b506200034092915062000344565b5090565b5b8082111562000340576000815560010162000345565b610ec8806200036b6000396000f3fe608060405234801561001057600080fd5b50600436106101215760003560e01c806379ba5097116100ad578063a9059cbb11610071578063a9059cbb14610379578063bef97c87146103a5578063d4ee1d90146103ad578063dd62ed3e146103b5578063f2fde38b146103e357610121565b806379ba5097146102ed578063867904b4146102f55780638da5cb5b1461032157806395d89b4114610345578063a24835d11461034d57610121565b806323b872dd116100f457806323b872dd1461021e578063313ce5671461025457806354fd4d50146102725780635e35359e1461029157806370a08231146102c757610121565b806306fdde0314610126578063095ea7b3146101a35780631608f18f146101e357806318160ddd14610204575b600080fd5b61012e610409565b6040805160208082528351818301528351919283929083019185019080838360005b83811015610168578181015183820152602001610150565b50505050905090810190601f1680156101955780820380516001836020036101000a031916815260200191505b509250505060405180910390f35b6101cf600480360360408110156101b957600080fd5b506001600160a01b038135169060200135610494565b604080519115158252519081900360200190f35b610202600480360360208110156101f957600080fd5b5035151561057c565b005b61020c610596565b60408051918252519081900360200190f35b6101cf6004803603606081101561023457600080fd5b506001600160a01b0381358116916020810135909116906040013561059c565b61025c6105b9565b6040805160ff9092168252519081900360200190f35b61027a6105c2565b6040805161ffff9092168252519081900360200190f35b610202600480360360608110156102a757600080fd5b506001600160a01b038135811691602081013590911690604001356105c7565b61020c600480360360208110156102dd57600080fd5b50356001600160a01b0316610600565b610202610612565b6102026004803603604081101561030b57600080fd5b506001600160a01b0381351690602001356106c9565b61032961079f565b604080516001600160a01b039092168252519081900360200190f35b61012e6107ae565b6102026004803603604081101561036357600080fd5b506001600160a01b038135169060200135610809565b6101cf6004803603604081101561038f57600080fd5b506001600160a01b0381351690602001356108c3565b6101cf6108de565b6103296108e7565b61020c600480360360408110156103cb57600080fd5b506001600160a01b03813581169160200135166108f6565b610202600480360360208110156103f957600080fd5b50356001600160a01b0316610913565b6002805460408051602060018416156101000260001901909316849004601f8101849004840282018401909252818152929183018282801561048c5780601f106104615761010080835404028352916020019161048c565b820191906000526020600020905b81548152906001019060200180831161046f57829003601f168201915b505050505081565b6000826104a081610991565b8215806104ce57503360009081526007602090815260408083206001600160a01b0388168452909152902054155b610514576040805162461bcd60e51b815260206004820152601260248201527111549497d253959053125117d05353d5539560721b604482015290519081900360640190fd5b3360008181526007602090815260408083206001600160a01b03891680855290835292819020879055805187815290519293927f8c5be1e5ebec7d5bd14f71427d1e84f3dd0314c0f7b2291e5b200ac8c7c3b925929181900390910190a35060019392505050565b6105846109e5565b6008805460ff19169115919091179055565b60055481565b60006105a6610a3a565b6105b1848484610a8a565b949350505050565b60045460ff1681565b600481565b6105cf6109e5565b826105d981610991565b826105e381610991565b836105ed81610b89565b6105f8868686610bdd565b505050505050565b60066020526000908152604090205481565b6001546001600160a01b03163314610665576040805162461bcd60e51b815260206004820152601160248201527011549497d050d0d154d4d7d11153925151607a1b604482015290519081900360640190fd5b600154600080546040516001600160a01b0393841693909116917f343765429aea5a34b3ff6a3785a98a5abb2597aca87bfbb58632c173d585373a91a360018054600080546001600160a01b03199081166001600160a01b03841617909155169055565b6106d16109e5565b816106db81610991565b826106e581610b89565b6005546106f29084610d3d565b6005556001600160a01b0384166000908152600660205260409020546107189084610d3d565b6001600160a01b03851660009081526006602090815260409182902092909255805185815290517f9386c90217c323f58030f9dadcbc938f807a940f4ff41cd4cead9562f5da7dc3929181900390910190a16040805184815290516001600160a01b03861691600091600080516020610e738339815191529181900360200190a350505050565b6000546001600160a01b031681565b6003805460408051602060026001851615610100026000190190941693909304601f8101849004840282018401909252818152929183018282801561048c5780601f106104615761010080835404028352916020019161048c565b6108116109e5565b6001600160a01b0382166000908152600660205260409020546108349082610d86565b6001600160a01b03831660009081526006602052604090205560055461085a9082610d86565b6005556040805182815290516000916001600160a01b03851691600080516020610e738339815191529181900360200190a36040805182815290517f9a1b418bc061a5d80270261562e6986a35d995f8051145f277be16103abd34539181900360200190a15050565b60006108cd610a3a565b6108d78383610dd3565b9392505050565b60085460ff1681565b6001546001600160a01b031681565b600760209081526000928352604080842090915290825290205481565b61091b6109e5565b6000546001600160a01b038281169116141561096f576040805162461bcd60e51b815260206004820152600e60248201526d22a9292fa9a0a6a2afa7aba722a960911b604482015290519081900360640190fd5b600180546001600160a01b0319166001600160a01b0392909216919091179055565b6001600160a01b0381166109e2576040805162461bcd60e51b81526020600482015260136024820152724552525f494e56414c49445f4144445245535360681b604482015290519081900360640190fd5b50565b6000546001600160a01b03163314610a38576040805162461bcd60e51b815260206004820152601160248201527011549497d050d0d154d4d7d11153925151607a1b604482015290519081900360640190fd5b565b60085460ff16610a38576040805162461bcd60e51b815260206004820152601660248201527511549497d514905394d1915494d7d11254d05093115160521b604482015290519081900360640190fd5b600083610a9681610991565b83610aa081610991565b6001600160a01b0386166000908152600760209081526040808320338452909152902054610ace9085610d86565b6001600160a01b038716600081815260076020908152604080832033845282528083209490945591815260069091522054610b099085610d86565b6001600160a01b038088166000908152600660205260408082209390935590871681522054610b389085610d3d565b6001600160a01b0380871660008181526006602090815260409182902094909455805188815290519193928a1692600080516020610e7383398151915292918290030190a350600195945050505050565b6001600160a01b0381163014156109e2576040805162461bcd60e51b815260206004820152601360248201527222a9292fa0a2222922a9a9afa4a9afa9a2a62360691b604482015290519081900360640190fd5b604080516001600160a01b038481166024830152604480830185905283518084039091018152606490920183526020820180516001600160e01b031663a9059cbb60e01b178152925182516000946060949389169392918291908083835b60208310610c5a5780518252601f199092019160209182019101610c3b565b6001836020036101000a0380198251168184511680821785525050505050509050019150506000604051808303816000865af19150503d8060008114610cbc576040519150601f19603f3d011682016040523d82523d6000602084013e610cc1565b606091505b5091509150818015610cef575080511580610cef5750808060200190516020811015610cec57600080fd5b50515b610d36576040805162461bcd60e51b815260206004820152601360248201527211549497d514905394d1915497d19052531151606a1b604482015290519081900360640190fd5b5050505050565b6000828201838110156108d7576040805162461bcd60e51b815260206004820152600c60248201526b4552525f4f564552464c4f5760a01b604482015290519081900360640190fd5b600081831015610dcd576040805162461bcd60e51b815260206004820152600d60248201526c4552525f554e444552464c4f5760981b604482015290519081900360640190fd5b50900390565b600082610ddf81610991565b33600090815260066020526040902054610df99084610d86565b33600090815260066020526040808220929092556001600160a01b03861681522054610e259084610d3d565b6001600160a01b038516600081815260066020908152604091829020939093558051868152905191923392600080516020610e738339815191529281900390910190a3506001939250505056feddf252ad1be2c89b69c2b068fc378daa952ba7f163c4a11628f55a4df523b3efa2646970667358221220d062eb319db2db22c11903c935b69a66b9513479c3c65c965f0b19eb73aa4f9464736f6c634300060c0033a2646970667358221220fc5f6a99127d8d0071c0f2c4ac85b6fdbbf4eedbd35f596c64b06cf58ca8125d64736f6c634300060c0033",
  "immutableReferences": {},
  "source": "// SPDX-License-Identifier: SEE LICENSE IN LICENSE\r\npragma solidity 0.6.12;\r\nimport \"./interfaces/IConverter.sol\";\r\nimport \"./interfaces/IConverterFactory.sol\";\r\nimport \"./interfaces/ITypedConverterFactory.sol\";\r\nimport \"./interfaces/ITypedConverterAnchorFactory.sol\";\r\nimport \"./interfaces/ITypedConverterCustomFactory.sol\";\r\nimport \"../utility/Owned.sol\";\r\nimport \"../utility/interfaces/IContractRegistry.sol\";\r\nimport \"../token/SmartToken.sol\";\r\n\r\n/*\r\n    Converter Factory\r\n*/\r\ncontract ConverterFactory is IConverterFactory, Owned {\r\n    /**\r\n      * @dev triggered when a new converter is created\r\n      *\r\n      * @param _type        converter type, see ConverterBase contract main doc\r\n      * @param _converter   new converter address\r\n      * @param _owner       converter owner address\r\n    */\r\n    event NewConverter(uint16 indexed _type, IConverter indexed _converter, address indexed _owner);\r\n\r\n    mapping (uint16 => ITypedConverterFactory) public converterFactories;\r\n    mapping (uint16 => ITypedConverterAnchorFactory) public anchorFactories;\r\n    mapping (uint16 => ITypedConverterCustomFactory) public override customFactories;\r\n\r\n    /**\r\n      * @dev initializes the factory with a specific typed converter factory\r\n      * can only be called by the owner\r\n      *\r\n      * @param _factory typed converter factory\r\n    */\r\n    function registerTypedConverterFactory(ITypedConverterFactory _factory) public ownerOnly {\r\n        converterFactories[_factory.converterType()] = _factory;\r\n    }\r\n\r\n    /**\r\n      * @dev initializes the factory with a specific typed converter anchor factory\r\n      * can only be called by the owner\r\n      *\r\n      * @param _factory typed converter anchor factory\r\n    */\r\n    function registerTypedConverterAnchorFactory(ITypedConverterAnchorFactory _factory) public ownerOnly {\r\n        anchorFactories[_factory.converterType()] = _factory;\r\n    }\r\n\r\n    /**\r\n      * @dev initializes the factory with a specific typed converter custom factory\r\n      * can only be called by the owner\r\n      *\r\n      * @param _factory typed converter custom factory\r\n    */\r\n    function registerTypedConverterCustomFactory(ITypedConverterCustomFactory _factory) public ownerOnly {\r\n        customFactories[_factory.converterType()] = _factory;\r\n    }\r\n\r\n    /**\r\n      * @dev creates a new converter anchor with the given arguments and transfers\r\n      * the ownership to the caller\r\n      *\r\n      * @param _converterType   converter type, see ConverterBase contract main doc\r\n      * @param _name            name\r\n      * @param _symbol          symbol\r\n      * @param _decimals        decimals\r\n      *\r\n      * @return new converter anchor\r\n    */\r\n    function createAnchor(uint16 _converterType, string memory _name, string memory _symbol, uint8 _decimals)\r\n        public\r\n        virtual\r\n        override\r\n        returns (IConverterAnchor)\r\n    {\r\n        IConverterAnchor anchor;\r\n        ITypedConverterAnchorFactory factory = anchorFactories[_converterType];\r\n\r\n        if (address(factory) == address(0)) {\r\n            // create default anchor (SmartToken)\r\n            anchor = new SmartToken(_name, _symbol, _decimals);\r\n        }\r\n        else {\r\n            // create custom anchor\r\n            anchor = factory.createAnchor(_name, _symbol, _decimals);\r\n            anchor.acceptOwnership();\r\n        }\r\n\r\n        anchor.transferOwnership(msg.sender);\r\n        return anchor;\r\n    }\r\n\r\n    /**\r\n      * @dev creates a new converter with the given arguments and transfers\r\n      * the ownership to the caller\r\n      *\r\n      * @param _type              converter type, see ConverterBase contract main doc\r\n      * @param _anchor            anchor governed by the converter\r\n      * @param _registry          address of a contract registry contract\r\n      * @param _maxConversionFee  maximum conversion fee, represented in ppm\r\n      *\r\n      * @return new converter\r\n    */\r\n    function createConverter(uint16 _type, IConverterAnchor _anchor, IContractRegistry _registry, uint32 _maxConversionFee)\r\n        public\r\n        virtual\r\n        override\r\n        returns (IConverter)\r\n    {\r\n        IConverter converter = converterFactories[_type].createConverter(_anchor, _registry, _maxConversionFee);\r\n        converter.acceptOwnership();\r\n        converter.transferOwnership(msg.sender);\r\n\r\n        emit NewConverter(_type, converter, msg.sender);\r\n        return converter;\r\n    }\r\n}\r\n",
  "sourcePath": "/home/lash/src/ext/cic/grassrootseconomics/bancor-contracts/solidity/contracts/converter/ConverterFactory.sol",
  "compiler": {
    "name": "solc",
    "version": "0.6.12+commit.27d51765.Emscripten.clang"
  },
  "schemaVersion": "3.2.3",
  "updatedAt": "2020-11-10T14:20:45.557Z",
  "networkType": "ethereum",
  "devdoc": {
    "events": {
      "NewConverter(uint16,address,address)": {
        "details": "triggered when a new converter is created",
        "params": {
          "_converter": "new converter address",
          "_owner": "converter owner address",
          "_type": "converter type, see ConverterBase contract main doc"
        }
      }
    },
    "kind": "dev",
    "methods": {
      "acceptOwnership()": {
        "details": "used by a new owner to accept an ownership transfer"
      },
      "createAnchor(uint16,string,string,uint8)": {
        "details": "creates a new converter anchor with the given arguments and transfers the ownership to the caller",
        "params": {
          "_converterType": "converter type, see ConverterBase contract main doc",
          "_decimals": "decimals",
          "_name": "name",
          "_symbol": "symbol"
        },
        "returns": {
          "_0": "new converter anchor"
        }
      },
      "createConverter(uint16,address,address,uint32)": {
        "details": "creates a new converter with the given arguments and transfers the ownership to the caller",
        "params": {
          "_anchor": "anchor governed by the converter",
          "_maxConversionFee": "maximum conversion fee, represented in ppm",
          "_registry": "address of a contract registry contract",
          "_type": "converter type, see ConverterBase contract main doc"
        },
        "returns": {
          "_0": "new converter"
        }
      },
      "registerTypedConverterAnchorFactory(address)": {
        "details": "initializes the factory with a specific typed converter anchor factory can only be called by the owner",
        "params": {
          "_factory": "typed converter anchor factory"
        }
      },
      "registerTypedConverterCustomFactory(address)": {
        "details": "initializes the factory with a specific typed converter custom factory can only be called by the owner",
        "params": {
          "_factory": "typed converter custom factory"
        }
      },
      "registerTypedConverterFactory(address)": {
        "details": "initializes the factory with a specific typed converter factory can only be called by the owner",
        "params": {
          "_factory": "typed converter factory"
        }
      },
      "transferOwnership(address)": {
        "details": "allows transferring the contract ownership the new owner still needs to accept the transfer can only be called by the contract owner",
        "params": {
          "_newOwner": "new contract owner"
        }
      }
    },
    "version": 1
  },
  "userdoc": {
    "kind": "user",
    "methods": {},
    "version": 1
  }
}