{
  "contractName": "EtherToken",
  "abi": [
    {
      "inputs": [
        {
          "internalType": "string",
          "name": "_name",
          "type": "string"
        },
        {
          "internalType": "string",
          "name": "_symbol",
          "type": "string"
        }
      ],
      "stateMutability": "nonpayable",
      "type": "constructor"
    },
    {
      "anonymous": false,
      "inputs": [
        {
          "indexed": true,
          "internalType": "address",
          "name": "_owner",
          "type": "address"
        },
        {
          "indexed": true,
          "internalType": "address",
          "name": "_spender",
          "type": "address"
        },
        {
          "indexed": false,
          "internalType": "uint256",
          "name": "_value",
          "type": "uint256"
        }
      ],
      "name": "Approval",
      "type": "event"
    },
    {
      "anonymous": false,
      "inputs": [
        {
          "indexed": false,
          "internalType": "uint256",
          "name": "_amount",
          "type": "uint256"
        }
      ],
      "name": "Destruction",
      "type": "event"
    },
    {
      "anonymous": false,
      "inputs": [
        {
          "indexed": false,
          "internalType": "uint256",
          "name": "_amount",
          "type": "uint256"
        }
      ],
      "name": "Issuance",
      "type": "event"
    },
    {
      "anonymous": false,
      "inputs": [
        {
          "indexed": true,
          "internalType": "address",
          "name": "_from",
          "type": "address"
        },
        {
          "indexed": true,
          "internalType": "address",
          "name": "_to",
          "type": "address"
        },
        {
          "indexed": false,
          "internalType": "uint256",
          "name": "_value",
          "type": "uint256"
        }
      ],
      "name": "Transfer",
      "type": "event"
    },
    {
      "inputs": [
        {
          "internalType": "address",
          "name": "",
          "type": "address"
        },
        {
          "internalType": "address",
          "name": "",
          "type": "address"
        }
      ],
      "name": "allowance",
      "outputs": [
        {
          "internalType": "uint256",
          "name": "",
          "type": "uint256"
        }
      ],
      "stateMutability": "view",
      "type": "function"
    },
    {
      "inputs": [
        {
          "internalType": "address",
          "name": "_spender",
          "type": "address"
        },
        {
          "internalType": "uint256",
          "name": "_value",
          "type": "uint256"
        }
      ],
      "name": "approve",
      "outputs": [
        {
          "internalType": "bool",
          "name": "",
          "type": "bool"
        }
      ],
      "stateMutability": "nonpayable",
      "type": "function"
    },
    {
      "inputs": [
        {
          "internalType": "address",
          "name": "",
          "type": "address"
        }
      ],
      "name": "balanceOf",
      "outputs": [
        {
          "internalType": "uint256",
          "name": "",
          "type": "uint256"
        }
      ],
      "stateMutability": "view",
      "type": "function"
    },
    {
      "inputs": [],
      "name": "decimals",
      "outputs": [
        {
          "internalType": "uint8",
          "name": "",
          "type": "uint8"
        }
      ],
      "stateMutability": "view",
      "type": "function"
    },
    {
      "inputs": [],
      "name": "name",
      "outputs": [
        {
          "internalType": "string",
          "name": "",
          "type": "string"
        }
      ],
      "stateMutability": "view",
      "type": "function"
    },
    {
      "inputs": [],
      "name": "symbol",
      "outputs": [
        {
          "internalType": "string",
          "name": "",
          "type": "string"
        }
      ],
      "stateMutability": "view",
      "type": "function"
    },
    {
      "inputs": [],
      "name": "totalSupply",
      "outputs": [
        {
          "internalType": "uint256",
          "name": "",
          "type": "uint256"
        }
      ],
      "stateMutability": "view",
      "type": "function"
    },
    {
      "stateMutability": "payable",
      "type": "receive"
    },
    {
      "inputs": [],
      "name": "deposit",
      "outputs": [],
      "stateMutability": "payable",
      "type": "function"
    },
    {
      "inputs": [
        {
          "internalType": "uint256",
          "name": "_amount",
          "type": "uint256"
        }
      ],
      "name": "withdraw",
      "outputs": [],
      "stateMutability": "nonpayable",
      "type": "function"
    },
    {
      "inputs": [
        {
          "internalType": "address",
          "name": "_to",
          "type": "address"
        }
      ],
      "name": "depositTo",
      "outputs": [],
      "stateMutability": "payable",
      "type": "function"
    },
    {
      "inputs": [
        {
          "internalType": "address payable",
          "name": "_to",
          "type": "address"
        },
        {
          "internalType": "uint256",
          "name": "_amount",
          "type": "uint256"
        }
      ],
      "name": "withdrawTo",
      "outputs": [],
      "stateMutability": "nonpayable",
      "type": "function"
    },
    {
      "inputs": [
        {
          "internalType": "address",
          "name": "_to",
          "type": "address"
        },
        {
          "internalType": "uint256",
          "name": "_value",
          "type": "uint256"
        }
      ],
      "name": "transfer",
      "outputs": [
        {
          "internalType": "bool",
          "name": "",
          "type": "bool"
        }
      ],
      "stateMutability": "nonpayable",
      "type": "function"
    },
    {
      "inputs": [
        {
          "internalType": "address",
          "name": "_from",
          "type": "address"
        },
        {
          "internalType": "address",
          "name": "_to",
          "type": "address"
        },
        {
          "internalType": "uint256",
          "name": "_value",
          "type": "uint256"
        }
      ],
      "name": "transferFrom",
      "outputs": [
        {
          "internalType": "bool",
          "name": "",
          "type": "bool"
        }
      ],
      "stateMutability": "nonpayable",
      "type": "function"
    }
  ],
  "bytecode": "0x60806040523480156200001157600080fd5b5060405162000e0738038062000e07833981810160405260408110156200003757600080fd5b81019080805160405193929190846401000000008211156200005857600080fd5b9083019060208201858111156200006e57600080fd5b82516401000000008111828201881017156200008957600080fd5b82525081516020918201929091019080838360005b83811015620000b85781810151838201526020016200009e565b50505050905090810190601f168015620000e65780820380516001836020036101000a031916815260200191505b50604052602001805160405193929190846401000000008211156200010a57600080fd5b9083019060208201858111156200012057600080fd5b82516401000000008111828201881017156200013b57600080fd5b82525081516020918201929091019080838360005b838110156200016a57818101518382015260200162000150565b50505050905090810190601f168015620001985780820380516001836020036101000a031916815260200191505b5060405250505081816012600080845111620001ee576040805162461bcd60e51b815260206004820152601060248201526f4552525f494e56414c49445f4e414d4560801b604482015290519081900360640190fd5b60008351116200023a576040805162461bcd60e51b815260206004820152601260248201527111549497d253959053125117d4d6535093d360721b604482015290519081900360640190fd5b83516200024f9060009060208701906200029b565b508251620002659060019060208601906200029b565b506002805460ff191660ff9390931692909217909155600381905533600090815260046020526040902055506200033792505050565b828054600181600116156101000203166002900490600052602060002090601f016020900481019282601f10620002de57805160ff19168380011785556200030e565b828001600101855582156200030e579182015b828111156200030e578251825591602001919060010190620002f1565b506200031c92915062000320565b5090565b5b808211156200031c576000815560010162000321565b610ac080620003476000396000f3fe6080604052600436106100c65760003560e01c8063313ce5671161007f578063a9059cbb11610059578063a9059cbb146102f1578063b760faf91461032a578063d0e30db014610350578063dd62ed3e14610358576100d5565b8063313ce5671461027e57806370a08231146102a957806395d89b41146102dc576100d5565b806306fdde03146100da578063095ea7b31461016457806318160ddd146101b1578063205c2878146101d857806323b872dd146102115780632e1a7d4d14610254576100d5565b366100d5576100d3610393565b005b600080fd5b3480156100e657600080fd5b506100ef61039e565b6040805160208082528351818301528351919283929083019185019080838360005b83811015610129578181015183820152602001610111565b50505050905090810190601f1680156101565780820380516001836020036101000a031916815260200191505b509250505060405180910390f35b34801561017057600080fd5b5061019d6004803603604081101561018757600080fd5b506001600160a01b03813516906020013561042c565b604080519115158252519081900360200190f35b3480156101bd57600080fd5b506101c6610514565b60408051918252519081900360200190f35b3480156101e457600080fd5b506100d3600480360360408110156101fb57600080fd5b506001600160a01b03813516906020013561051a565b34801561021d57600080fd5b5061019d6004803603606081101561023457600080fd5b506001600160a01b038135811691602081013590911690604001356105f2565b34801561026057600080fd5b506100d36004803603602081101561027757600080fd5b5035610612565b34801561028a57600080fd5b5061029361061f565b6040805160ff9092168252519081900360200190f35b3480156102b557600080fd5b506101c6600480360360208110156102cc57600080fd5b50356001600160a01b0316610628565b3480156102e857600080fd5b506100ef61063a565b3480156102fd57600080fd5b5061019d6004803603604081101561031457600080fd5b506001600160a01b038135169060200135610694565b6100d36004803603602081101561034057600080fd5b50356001600160a01b03166106b2565b6100d3610393565b34801561036457600080fd5b506101c66004803603604081101561037b57600080fd5b506001600160a01b038135811691602001351661076d565b61039c336106b2565b565b6000805460408051602060026001851615610100026000190190941693909304601f810184900484028201840190925281815292918301828280156104245780601f106103f957610100808354040283529160200191610424565b820191906000526020600020905b81548152906001019060200180831161040757829003601f168201915b505050505081565b6000826104388161078a565b82158061046657503360009081526005602090815260408083206001600160a01b0388168452909152902054155b6104ac576040805162461bcd60e51b815260206004820152601260248201527111549497d253959053125117d05353d5539560721b604482015290519081900360640190fd5b3360008181526005602090815260408083206001600160a01b03891680855290835292819020879055805187815290519293927f8c5be1e5ebec7d5bd14f71427d1e84f3dd0314c0f7b2291e5b200ac8c7c3b925929181900390910190a35060019392505050565b60035481565b81610524816107db565b3360009081526004602052604090205461053e908361082f565b3360009081526004602052604090205560035461055b908361082f565b6003556040516001600160a01b0384169083156108fc029084906000818181858888f19350505050158015610594573d6000803e3d6000fd5b5060408051838152905130913391600080516020610a6b8339815191529181900360200190a36040805183815290517f9a1b418bc061a5d80270261562e6986a35d995f8051145f277be16103abd34539181900360200190a1505050565b6000826105fe816107db565b61060985858561087c565b95945050505050565b61061c338261051a565b50565b60025460ff1681565b60046020526000908152604090205481565b60018054604080516020600284861615610100026000190190941693909304601f810184900484028201840190925281815292918301828280156104245780601f106103f957610100808354040283529160200191610424565b6000826106a0816107db565b6106aa848461097b565b949350505050565b806106bc816107db565b6001600160a01b0382166000908152600460205260409020546106df9034610a1a565b6001600160a01b0383166000908152600460205260409020556003546107059034610a1a565b6003556040805134815290517f9386c90217c323f58030f9dadcbc938f807a940f4ff41cd4cead9562f5da7dc39181900360200190a16040805134815290516001600160a01b038416913091600080516020610a6b8339815191529181900360200190a35050565b600560209081526000928352604080842090915290825290205481565b6001600160a01b03811661061c576040805162461bcd60e51b81526020600482015260136024820152724552525f494e56414c49445f4144445245535360681b604482015290519081900360640190fd5b6001600160a01b03811630141561061c576040805162461bcd60e51b815260206004820152601360248201527222a9292fa0a2222922a9a9afa4a9afa9a2a62360691b604482015290519081900360640190fd5b600081831015610876576040805162461bcd60e51b815260206004820152600d60248201526c4552525f554e444552464c4f5760981b604482015290519081900360640190fd5b50900390565b6000836108888161078a565b836108928161078a565b6001600160a01b03861660009081526005602090815260408083203384529091529020546108c0908561082f565b6001600160a01b0387166000818152600560209081526040808320338452825280832094909455918152600490915220546108fb908561082f565b6001600160a01b03808816600090815260046020526040808220939093559087168152205461092a9085610a1a565b6001600160a01b0380871660008181526004602090815260409182902094909455805188815290519193928a1692600080516020610a6b83398151915292918290030190a350600195945050505050565b6000826109878161078a565b336000908152600460205260409020546109a1908461082f565b33600090815260046020526040808220929092556001600160a01b038616815220546109cd9084610a1a565b6001600160a01b038516600081815260046020908152604091829020939093558051868152905191923392600080516020610a6b8339815191529281900390910190a35060019392505050565b600082820183811015610a63576040805162461bcd60e51b815260206004820152600c60248201526b4552525f4f564552464c4f5760a01b604482015290519081900360640190fd5b939250505056feddf252ad1be2c89b69c2b068fc378daa952ba7f163c4a11628f55a4df523b3efa264697066735822122029c1e8ed4c9efa01a428c8f35f0d8c72b801cc0161065977203a80395ce1976664736f6c634300060c0033",
  "immutableReferences": {},
  "source": "// SPDX-License-Identifier: SEE LICENSE IN LICENSE\r\npragma solidity 0.6.12;\r\nimport \"./ERC20Token.sol\";\r\nimport \"./interfaces/IEtherToken.sol\";\r\nimport \"../utility/SafeMath.sol\";\r\n\r\n/**\r\n  * @dev Ether tokenization contract\r\n  *\r\n  * 'Owned' is specified here for readability reasons\r\n*/\r\ncontract EtherToken is IEtherToken, ERC20Token {\r\n    using SafeMath for uint256;\r\n\r\n    /**\r\n      * @dev triggered when the total supply is increased\r\n      *\r\n      * @param _amount  amount that gets added to the supply\r\n    */\r\n    event Issuance(uint256 _amount);\r\n\r\n    /**\r\n      * @dev triggered when the total supply is decreased\r\n      *\r\n      * @param _amount  amount that gets removed from the supply\r\n    */\r\n    event Destruction(uint256 _amount);\r\n\r\n    /**\r\n      * @dev initializes a new EtherToken instance\r\n      *\r\n      * @param _name        token name\r\n      * @param _symbol      token symbol\r\n    */\r\n    constructor(string memory _name, string memory _symbol)\r\n        public\r\n        ERC20Token(_name, _symbol, 18, 0) {\r\n    }\r\n\r\n    /**\r\n      * @dev deposit ether on behalf of the sender\r\n    */\r\n    function deposit() public override payable {\r\n        depositTo(msg.sender);\r\n    }\r\n\r\n    /**\r\n      * @dev withdraw ether to the sender's account\r\n      *\r\n      * @param _amount  amount of ether to withdraw\r\n    */\r\n    function withdraw(uint256 _amount) public override {\r\n        withdrawTo(msg.sender, _amount);\r\n    }\r\n\r\n    /**\r\n      * @dev deposit ether to be entitled for a given account\r\n      *\r\n      * @param _to      account to be entitled for the ether\r\n    */\r\n    function depositTo(address _to)\r\n        public\r\n        override\r\n        payable\r\n        notThis(_to)\r\n    {\r\n        balanceOf[_to] = balanceOf[_to].add(msg.value); // add the value to the account balance\r\n        totalSupply = totalSupply.add(msg.value); // increase the total supply\r\n\r\n        emit Issuance(msg.value);\r\n        emit Transfer(address(this), _to, msg.value);\r\n    }\r\n\r\n    /**\r\n      * @dev withdraw ether entitled by the sender to a given account\r\n      *\r\n      * @param _to      account to receive the ether\r\n      * @param _amount  amount of ether to withdraw\r\n    */\r\n    function withdrawTo(address payable _to, uint256 _amount)\r\n        public\r\n        override\r\n        notThis(_to)\r\n    {\r\n        balanceOf[msg.sender] = balanceOf[msg.sender].sub(_amount); // deduct the amount from the account balance\r\n        totalSupply = totalSupply.sub(_amount); // decrease the total supply\r\n        _to.transfer(_amount); // send the amount to the target account\r\n\r\n        emit Transfer(msg.sender, address(this), _amount);\r\n        emit Destruction(_amount);\r\n    }\r\n\r\n    // ERC20 standard method overrides with some extra protection\r\n\r\n    /**\r\n      * @dev send coins\r\n      * throws on any error rather then return a false flag to minimize user errors\r\n      *\r\n      * @param _to      target address\r\n      * @param _value   transfer amount\r\n      *\r\n      * @return true if the transfer was successful, false if it wasn't\r\n    */\r\n    function transfer(address _to, uint256 _value)\r\n        public\r\n        override(IERC20Token, ERC20Token)\r\n        notThis(_to)\r\n        returns (bool)\r\n    {\r\n        return super.transfer(_to, _value);\r\n    }\r\n\r\n    /**\r\n      * @dev an account/contract attempts to get the coins\r\n      * throws on any error rather then return a false flag to minimize user errors\r\n      *\r\n      * @param _from    source address\r\n      * @param _to      target address\r\n      * @param _value   transfer amount\r\n      *\r\n      * @return true if the transfer was successful, false if it wasn't\r\n    */\r\n    function transferFrom(address _from, address _to, uint256 _value)\r\n        public\r\n        override(IERC20Token, ERC20Token)\r\n        notThis(_to)\r\n        returns (bool)\r\n    {\r\n        return super.transferFrom(_from, _to, _value);\r\n    }\r\n\r\n    /**\r\n      * @dev deposit ether in the account\r\n    */\r\n    receive() external payable {\r\n        deposit();\r\n    }\r\n}\r\n",
  "sourcePath": "/home/lash/src/ext/cic/grassrootseconomics/bancor-contracts/solidity/contracts/token/EtherToken.sol",
  "compiler": {
    "name": "solc",
    "version": "0.6.12+commit.27d51765.Emscripten.clang"
  },
  "schemaVersion": "3.2.3",
  "updatedAt": "2020-11-10T14:20:45.584Z",
  "networkType": "ethereum",
  "devdoc": {
    "details": "Ether tokenization contract 'Owned' is specified here for readability reasons",
    "events": {
      "Destruction(uint256)": {
        "details": "triggered when the total supply is decreased",
        "params": {
          "_amount": "amount that gets removed from the supply"
        }
      },
      "Issuance(uint256)": {
        "details": "triggered when the total supply is increased",
        "params": {
          "_amount": "amount that gets added to the supply"
        }
      }
    },
    "kind": "dev",
    "methods": {
      "approve(address,uint256)": {
        "details": "allows another account/contract to transfers tokens on behalf of the caller throws on any error rather then return a false flag to minimize user errors also, to minimize the risk of the approve/transferFrom attack vector (see https://docs.google.com/document/d/1YLPtQxZu1UAvO9cZ1O2RPXBbT0mooh4DYKjA_jp-RLM/), approve has to be called twice in 2 separate transactions - once to change the allowance to 0 and secondly to change it to the new allowance value",
        "params": {
          "_spender": "approved address",
          "_value": "allowance amount"
        },
        "returns": {
          "_0": "true if the approval was successful, false if it wasn't"
        }
      },
      "constructor": {
        "details": "initializes a new EtherToken instance",
        "params": {
          "_name": "token name",
          "_symbol": "token symbol"
        }
      },
      "deposit()": {
        "details": "deposit ether on behalf of the sender"
      },
      "depositTo(address)": {
        "details": "deposit ether to be entitled for a given account",
        "params": {
          "_to": "account to be entitled for the ether"
        }
      },
      "transfer(address,uint256)": {
        "details": "send coins throws on any error rather then return a false flag to minimize user errors",
        "params": {
          "_to": "target address",
          "_value": "transfer amount"
        },
        "returns": {
          "_0": "true if the transfer was successful, false if it wasn't"
        }
      },
      "transferFrom(address,address,uint256)": {
        "details": "an account/contract attempts to get the coins throws on any error rather then return a false flag to minimize user errors",
        "params": {
          "_from": "source address",
          "_to": "target address",
          "_value": "transfer amount"
        },
        "returns": {
          "_0": "true if the transfer was successful, false if it wasn't"
        }
      },
      "withdraw(uint256)": {
        "details": "withdraw ether to the sender's account",
        "params": {
          "_amount": "amount of ether to withdraw"
        }
      },
      "withdrawTo(address,uint256)": {
        "details": "withdraw ether entitled by the sender to a given account",
        "params": {
          "_amount": "amount of ether to withdraw",
          "_to": "account to receive the ether"
        }
      }
    },
    "version": 1
  },
  "userdoc": {
    "kind": "user",
    "methods": {},
    "version": 1
  }
}