{
  "contractName": "GiftableToken",
  "abi": [
    {
      "inputs": [
        {
          "internalType": "string",
          "name": "_name",
          "type": "string"
        },
        {
          "internalType": "string",
          "name": "_symbol",
          "type": "string"
        },
        {
          "internalType": "uint8",
          "name": "_decimals",
          "type": "uint8"
        },
        {
          "internalType": "uint256",
          "name": "_initialSupply",
          "type": "uint256"
        }
      ],
      "stateMutability": "nonpayable",
      "type": "constructor"
    },
    {
      "anonymous": false,
      "inputs": [
        {
          "indexed": true,
          "internalType": "address",
          "name": "_owner",
          "type": "address"
        },
        {
          "indexed": true,
          "internalType": "address",
          "name": "_spender",
          "type": "address"
        },
        {
          "indexed": false,
          "internalType": "uint256",
          "name": "_value",
          "type": "uint256"
        }
      ],
      "name": "Approval",
      "type": "event"
    },
    {
      "anonymous": false,
      "inputs": [
        {
          "indexed": false,
          "internalType": "uint256",
          "name": "_oldTotal",
          "type": "uint256"
        },
        {
          "indexed": false,
          "internalType": "uint256",
          "name": "_newTotal",
          "type": "uint256"
        }
      ],
      "name": "ChangedSupply",
      "type": "event"
    },
    {
      "anonymous": false,
      "inputs": [
        {
          "indexed": true,
          "internalType": "address",
          "name": "_from",
          "type": "address"
        },
        {
          "indexed": true,
          "internalType": "address",
          "name": "_to",
          "type": "address"
        },
        {
          "indexed": false,
          "internalType": "uint256",
          "name": "_value",
          "type": "uint256"
        }
      ],
      "name": "Transfer",
      "type": "event"
    },
    {
      "inputs": [
        {
          "internalType": "address",
          "name": "",
          "type": "address"
        },
        {
          "internalType": "address",
          "name": "",
          "type": "address"
        }
      ],
      "name": "allowance",
      "outputs": [
        {
          "internalType": "uint256",
          "name": "",
          "type": "uint256"
        }
      ],
      "stateMutability": "view",
      "type": "function",
      "constant": true
    },
    {
      "inputs": [
        {
          "internalType": "address",
          "name": "",
          "type": "address"
        }
      ],
      "name": "balanceOf",
      "outputs": [
        {
          "internalType": "uint256",
          "name": "",
          "type": "uint256"
        }
      ],
      "stateMutability": "view",
      "type": "function",
      "constant": true
    },
    {
      "inputs": [],
      "name": "decimals",
      "outputs": [
        {
          "internalType": "uint8",
          "name": "",
          "type": "uint8"
        }
      ],
      "stateMutability": "view",
      "type": "function",
      "constant": true
    },
    {
      "inputs": [],
      "name": "name",
      "outputs": [
        {
          "internalType": "string",
          "name": "",
          "type": "string"
        }
      ],
      "stateMutability": "view",
      "type": "function",
      "constant": true
    },
    {
      "inputs": [],
      "name": "symbol",
      "outputs": [
        {
          "internalType": "string",
          "name": "",
          "type": "string"
        }
      ],
      "stateMutability": "view",
      "type": "function",
      "constant": true
    },
    {
      "inputs": [],
      "name": "totalSupply",
      "outputs": [
        {
          "internalType": "uint256",
          "name": "",
          "type": "uint256"
        }
      ],
      "stateMutability": "view",
      "type": "function",
      "constant": true
    },
    {
      "inputs": [
        {
          "internalType": "address",
          "name": "_to",
          "type": "address"
        },
        {
          "internalType": "uint256",
          "name": "_value",
          "type": "uint256"
        }
      ],
      "name": "gift",
      "outputs": [
        {
          "internalType": "bool",
          "name": "",
          "type": "bool"
        }
      ],
      "stateMutability": "nonpayable",
      "type": "function"
    },
    {
      "inputs": [
        {
          "internalType": "address",
          "name": "_to",
          "type": "address"
        },
        {
          "internalType": "uint256",
          "name": "_value",
          "type": "uint256"
        }
      ],
      "name": "transfer",
      "outputs": [
        {
          "internalType": "bool",
          "name": "",
          "type": "bool"
        }
      ],
      "stateMutability": "nonpayable",
      "type": "function"
    },
    {
      "inputs": [
        {
          "internalType": "address",
          "name": "_from",
          "type": "address"
        },
        {
          "internalType": "address",
          "name": "_to",
          "type": "address"
        },
        {
          "internalType": "uint256",
          "name": "_value",
          "type": "uint256"
        }
      ],
      "name": "transferFrom",
      "outputs": [
        {
          "internalType": "bool",
          "name": "",
          "type": "bool"
        }
      ],
      "stateMutability": "nonpayable",
      "type": "function"
    },
    {
      "inputs": [
        {
          "internalType": "address",
          "name": "_spender",
          "type": "address"
        },
        {
          "internalType": "uint256",
          "name": "_value",
          "type": "uint256"
        }
      ],
      "name": "approve",
      "outputs": [
        {
          "internalType": "bool",
          "name": "",
          "type": "bool"
        }
      ],
      "stateMutability": "nonpayable",
      "type": "function"
    }
  ],
  "bytecode": "0x608060405234801561001057600080fd5b5060405162000b5e38038062000b5e8339818101604052608081101561003557600080fd5b810190808051604051939291908464010000000082111561005557600080fd5b90830190602082018581111561006a57600080fd5b825164010000000081118282018810171561008457600080fd5b82525081516020918201929091019080838360005b838110156100b1578181015183820152602001610099565b50505050905090810190601f1680156100de5780820380516001836020036101000a031916815260200191505b506040526020018051604051939291908464010000000082111561010157600080fd5b90830190602082018581111561011657600080fd5b825164010000000081118282018810171561013057600080fd5b82525081516020918201929091019080838360005b8381101561015d578181015183820152602001610145565b50505050905090810190601f16801561018a5780820380516001836020036101000a031916815260200191505b5060409081526020820151910151855191935091506101e3576040805162461bcd60e51b815260206004820152601060248201526f4552525f494e56414c49445f4e414d4560801b604482015290519081900360640190fd5b600083511161022e576040805162461bcd60e51b815260206004820152601260248201527111549497d253959053125117d4d6535093d360721b604482015290519081900360640190fd5b8351610241906000906020870190610288565b508251610255906001906020860190610288565b506002805460ff191660ff93909316929092179091556003819055336000908152600460205260409020555061031b9050565b828054600181600116156101000203166002900490600052602060002090601f016020900481019282601f106102c957805160ff19168380011785556102f6565b828001600101855582156102f6579182015b828111156102f65782518255916020019190600101906102db565b50610302929150610306565b5090565b5b808211156103025760008155600101610307565b610833806200032b6000396000f3fe608060405234801561001057600080fd5b506004361061009e5760003560e01c806370a082311161006657806370a08231146101ce57806395d89b41146101f4578063a9059cbb146101fc578063cbce4c9714610228578063dd62ed3e146102545761009e565b806306fdde03146100a3578063095ea7b31461012057806318160ddd1461016057806323b872dd1461017a578063313ce567146101b0575b600080fd5b6100ab610282565b6040805160208082528351818301528351919283929083019185019080838360005b838110156100e55781810151838201526020016100cd565b50505050905090810190601f1680156101125780820380516001836020036101000a031916815260200191505b509250505060405180910390f35b61014c6004803603604081101561013657600080fd5b506001600160a01b038135169060200135610310565b604080519115158252519081900360200190f35b6101686103f8565b60408051918252519081900360200190f35b61014c6004803603606081101561019057600080fd5b506001600160a01b038135811691602081013590911690604001356103fe565b6101b861050f565b6040805160ff9092168252519081900360200190f35b610168600480360360208110156101e457600080fd5b50356001600160a01b0316610518565b6100ab61052a565b61014c6004803603604081101561021257600080fd5b506001600160a01b038135169060200135610584565b61014c6004803603604081101561023e57600080fd5b506001600160a01b038135169060200135610635565b6101686004803603604081101561026a57600080fd5b506001600160a01b03813581169160200135166106ef565b6000805460408051602060026001851615610100026000190190941693909304601f810184900484028201840190925281815292918301828280156103085780601f106102dd57610100808354040283529160200191610308565b820191906000526020600020905b8154815290600101906020018083116102eb57829003601f168201915b505050505081565b60008261031c8161070c565b82158061034a57503360009081526005602090815260408083206001600160a01b0388168452909152902054155b610390576040805162461bcd60e51b815260206004820152601260248201527111549497d253959053125117d05353d5539560721b604482015290519081900360640190fd5b3360008181526005602090815260408083206001600160a01b03891680855290835292819020879055805187815290519293927f8c5be1e5ebec7d5bd14f71427d1e84f3dd0314c0f7b2291e5b200ac8c7c3b925929181900390910190a35060019392505050565b60035481565b60008361040a8161070c565b836104148161070c565b6001600160a01b03861660009081526005602090815260408083203384529091529020546104429085610760565b6001600160a01b03871660008181526005602090815260408083203384528252808320949094559181526004909152205461047d9085610760565b6001600160a01b0380881660009081526004602052604080822093909355908716815220546104ac90856107ad565b6001600160a01b0380871660008181526004602090815260409182902094909455805188815290519193928a16927fddf252ad1be2c89b69c2b068fc378daa952ba7f163c4a11628f55a4df523b3ef92918290030190a350600195945050505050565b60025460ff1681565b60046020526000908152604090205481565b60018054604080516020600284861615610100026000190190941693909304601f810184900484028201840190925281815292918301828280156103085780601f106102dd57610100808354040283529160200191610308565b6000826105908161070c565b336000908152600460205260409020546105aa9084610760565b33600090815260046020526040808220929092556001600160a01b038616815220546105d690846107ad565b6001600160a01b0385166000818152600460209081526040918290209390935580518681529051919233927fddf252ad1be2c89b69c2b068fc378daa952ba7f163c4a11628f55a4df523b3ef9281900390910190a35060019392505050565b6000826106418161070c565b60038054840190556001600160a01b038416600090815260046020908152604091829020805480870191829055835181815292830191909152825190927f5f8b22485eeda034e9b3b8726a34dbff9aeea5105cbefd66dac32e2890de592e928290030190a16040805185815290516001600160a01b038716916000917fddf252ad1be2c89b69c2b068fc378daa952ba7f163c4a11628f55a4df523b3ef9181900360200190a3505092915050565b600560209081526000928352604080842090915290825290205481565b6001600160a01b03811661075d576040805162461bcd60e51b81526020600482015260136024820152724552525f494e56414c49445f4144445245535360681b604482015290519081900360640190fd5b50565b6000818310156107a7576040805162461bcd60e51b815260206004820152600d60248201526c4552525f554e444552464c4f5760981b604482015290519081900360640190fd5b50900390565b6000828201838110156107f6576040805162461bcd60e51b815260206004820152600c60248201526b4552525f4f564552464c4f5760a01b604482015290519081900360640190fd5b939250505056fea2646970667358221220644eb3a30aaa221921cdec2760f5f3994cae5532951555edfed3499ba643345e64736f6c634300060c0033",
  "immutableReferences": {},
  "source": "// SPDX-License-Identifier: SEE LICENSE IN LICENSE\r\npragma solidity 0.6.12;\r\nimport \"./interfaces/IERC20Token.sol\";\r\nimport \"../utility/Utils.sol\";\r\nimport \"../utility/SafeMath.sol\";\r\n\r\n/*\r\n  * This is a MOCK token used for DEVELOPMENT PURPOSES ONLY.\r\n  *\r\n  * @dev ERC20 Standard Token implementation\r\n*/\r\ncontract GiftableToken is IERC20Token, Utils {\r\n    using SafeMath for uint256;\r\n\r\n\r\n    string public override name;\r\n    string public override symbol;\r\n    uint8 public override decimals;\r\n    uint256 public override totalSupply;\r\n    mapping (address => uint256) public override balanceOf;\r\n    mapping (address => mapping (address => uint256)) public override allowance;\r\n\r\n    /**\r\n      * @dev triggered when tokens are transferred between wallets\r\n      *\r\n      * @param _from    source address\r\n      * @param _to      target address\r\n      * @param _value   transfer amount\r\n    */\r\n    event Transfer(address indexed _from, address indexed _to, uint256 _value);\r\n\r\n    /**\r\n      * @dev triggered when a wallet allows another wallet to transfer tokens from on its behalf\r\n      *\r\n      * @param _owner   wallet that approves the allowance\r\n      * @param _spender wallet that receives the allowance\r\n      * @param _value   allowance amount\r\n    */\r\n    event Approval(address indexed _owner, address indexed _spender, uint256 _value);\r\n\r\n    event ChangedSupply(uint256 _oldTotal, uint256 _newTotal);\r\n\r\n    /**\r\n      * @dev initializes a new ERC20Token instance\r\n      *\r\n      * @param _name        token name\r\n      * @param _symbol      token symbol\r\n      * @param _decimals    decimal points, for display purposes\r\n      * @param _initialSupply total supply of token units\r\n    */\r\n    constructor(string memory _name, string memory _symbol, uint8 _decimals, uint256 _initialSupply) public {\r\n        // validate input\r\n        require(bytes(_name).length > 0, \"ERR_INVALID_NAME\");\r\n        require(bytes(_symbol).length > 0, \"ERR_INVALID_SYMBOL\");\r\n\r\n        name = _name;\r\n        symbol = _symbol;\r\n        decimals = _decimals;\r\n        totalSupply = _initialSupply;\r\n        balanceOf[msg.sender] = _initialSupply;\r\n    }\r\n\r\n    function gift(address _to, uint256 _value) \r\n\tpublic\r\n\tvirtual\r\n\tvalidAddress(_to)\r\n\treturns (bool)\r\n        {\r\n\ttotalSupply = totalSupply + _value;\r\n\tuint256 oldSupply = balanceOf[_to];\r\n\tbalanceOf[_to] = balanceOf[_to] + _value;\r\n\temit ChangedSupply(oldSupply, balanceOf[_to]);\r\n\temit Transfer(address(0x00), _to, _value);\r\n    }\r\n\r\n    /**\r\n      * @dev transfers tokens to a given address\r\n      * throws on any error rather then return a false flag to minimize user errors\r\n      *\r\n      * @param _to      target address\r\n      * @param _value   transfer amount\r\n      *\r\n      * @return true if the transfer was successful, false if it wasn't\r\n    */\r\n    function transfer(address _to, uint256 _value)\r\n        public\r\n        virtual\r\n        override\r\n        validAddress(_to)\r\n        returns (bool)\r\n    {\r\n        balanceOf[msg.sender] = balanceOf[msg.sender].sub(_value);\r\n        balanceOf[_to] = balanceOf[_to].add(_value);\r\n        emit Transfer(msg.sender, _to, _value);\r\n        return true;\r\n    }\r\n\r\n    /**\r\n      * @dev transfers tokens to a given address on behalf of another address\r\n      * throws on any error rather then return a false flag to minimize user errors\r\n      *\r\n      * @param _from    source address\r\n      * @param _to      target address\r\n      * @param _value   transfer amount\r\n      *\r\n      * @return true if the transfer was successful, false if it wasn't\r\n    */\r\n    function transferFrom(address _from, address _to, uint256 _value)\r\n        public\r\n        virtual\r\n        override\r\n        validAddress(_from)\r\n        validAddress(_to)\r\n        returns (bool)\r\n    {\r\n        allowance[_from][msg.sender] = allowance[_from][msg.sender].sub(_value);\r\n        balanceOf[_from] = balanceOf[_from].sub(_value);\r\n        balanceOf[_to] = balanceOf[_to].add(_value);\r\n        emit Transfer(_from, _to, _value);\r\n        return true;\r\n    }\r\n\r\n    /**\r\n      * @dev allows another account/contract to transfers tokens on behalf of the caller\r\n      * throws on any error rather then return a false flag to minimize user errors\r\n      *\r\n      * also, to minimize the risk of the approve/transferFrom attack vector\r\n      * (see https://docs.google.com/document/d/1YLPtQxZu1UAvO9cZ1O2RPXBbT0mooh4DYKjA_jp-RLM/), approve has to be called twice\r\n      * in 2 separate transactions - once to change the allowance to 0 and secondly to change it to the new allowance value\r\n      *\r\n      * @param _spender approved address\r\n      * @param _value   allowance amount\r\n      *\r\n      * @return true if the approval was successful, false if it wasn't\r\n    */\r\n    function approve(address _spender, uint256 _value)\r\n        public\r\n        virtual\r\n        override\r\n        validAddress(_spender)\r\n        returns (bool)\r\n    {\r\n        // if the allowance isn't 0, it can only be updated to 0 to prevent an allowance change immediately after withdrawal\r\n        require(_value == 0 || allowance[msg.sender][_spender] == 0, \"ERR_INVALID_AMOUNT\");\r\n\r\n        allowance[msg.sender][_spender] = _value;\r\n        emit Approval(msg.sender, _spender, _value);\r\n        return true;\r\n    }\r\n}\r\n",
  "sourcePath": "/home/lash/src/ext/cic/grassrootseconomics/bancor-contracts/solidity/contracts/token/GiftableToken.sol",
  "compiler": {
    "name": "solc",
    "version": "0.6.12+commit.27d51765.Emscripten.clang"
  },
  "schemaVersion": "3.2.3",
  "updatedAt": "2020-11-10T14:20:44.724Z",
  "networkType": "ethereum",
  "devdoc": {
    "events": {
      "Approval(address,address,uint256)": {
        "details": "triggered when a wallet allows another wallet to transfer tokens from on its behalf",
        "params": {
          "_owner": "wallet that approves the allowance",
          "_spender": "wallet that receives the allowance",
          "_value": "allowance amount"
        }
      },
      "Transfer(address,address,uint256)": {
        "details": "triggered when tokens are transferred between wallets",
        "params": {
          "_from": "source address",
          "_to": "target address",
          "_value": "transfer amount"
        }
      }
    },
    "kind": "dev",
    "methods": {
      "approve(address,uint256)": {
        "details": "allows another account/contract to transfers tokens on behalf of the caller throws on any error rather then return a false flag to minimize user errors also, to minimize the risk of the approve/transferFrom attack vector (see https://docs.google.com/document/d/1YLPtQxZu1UAvO9cZ1O2RPXBbT0mooh4DYKjA_jp-RLM/), approve has to be called twice in 2 separate transactions - once to change the allowance to 0 and secondly to change it to the new allowance value",
        "params": {
          "_spender": "approved address",
          "_value": "allowance amount"
        },
        "returns": {
          "_0": "true if the approval was successful, false if it wasn't"
        }
      },
      "constructor": {
        "details": "initializes a new ERC20Token instance",
        "params": {
          "_decimals": "decimal points, for display purposes",
          "_initialSupply": "total supply of token units",
          "_name": "token name",
          "_symbol": "token symbol"
        }
      },
      "transfer(address,uint256)": {
        "details": "transfers tokens to a given address throws on any error rather then return a false flag to minimize user errors",
        "params": {
          "_to": "target address",
          "_value": "transfer amount"
        },
        "returns": {
          "_0": "true if the transfer was successful, false if it wasn't"
        }
      },
      "transferFrom(address,address,uint256)": {
        "details": "transfers tokens to a given address on behalf of another address throws on any error rather then return a false flag to minimize user errors",
        "params": {
          "_from": "source address",
          "_to": "target address",
          "_value": "transfer amount"
        },
        "returns": {
          "_0": "true if the transfer was successful, false if it wasn't"
        }
      }
    },
    "version": 1
  },
  "userdoc": {
    "kind": "user",
    "methods": {},
    "version": 1
  }
}