{
  "contractName": "LiquidityPoolV1Converter",
  "abi": [
    {
      "inputs": [
        {
          "internalType": "contract ISmartToken",
          "name": "_token",
          "type": "address"
        },
        {
          "internalType": "contract IContractRegistry",
          "name": "_registry",
          "type": "address"
        },
        {
          "internalType": "uint32",
          "name": "_maxConversionFee",
          "type": "uint32"
        }
      ],
      "stateMutability": "nonpayable",
      "type": "constructor"
    },
    {
      "anonymous": false,
      "inputs": [
        {
          "indexed": true,
          "internalType": "uint16",
          "name": "_type",
          "type": "uint16"
        },
        {
          "indexed": true,
          "internalType": "contract IConverterAnchor",
          "name": "_anchor",
          "type": "address"
        },
        {
          "indexed": true,
          "internalType": "bool",
          "name": "_activated",
          "type": "bool"
        }
      ],
      "name": "Activation",
      "type": "event"
    },
    {
      "anonymous": false,
      "inputs": [
        {
          "indexed": true,
          "internalType": "contract IERC20Token",
          "name": "_fromToken",
          "type": "address"
        },
        {
          "indexed": true,
          "internalType": "contract IERC20Token",
          "name": "_toToken",
          "type": "address"
        },
        {
          "indexed": true,
          "internalType": "address",
          "name": "_trader",
          "type": "address"
        },
        {
          "indexed": false,
          "internalType": "uint256",
          "name": "_amount",
          "type": "uint256"
        },
        {
          "indexed": false,
          "internalType": "uint256",
          "name": "_return",
          "type": "uint256"
        },
        {
          "indexed": false,
          "internalType": "int256",
          "name": "_conversionFee",
          "type": "int256"
        }
      ],
      "name": "Conversion",
      "type": "event"
    },
    {
      "anonymous": false,
      "inputs": [
        {
          "indexed": false,
          "internalType": "uint32",
          "name": "_prevFee",
          "type": "uint32"
        },
        {
          "indexed": false,
          "internalType": "uint32",
          "name": "_newFee",
          "type": "uint32"
        }
      ],
      "name": "ConversionFeeUpdate",
      "type": "event"
    },
    {
      "anonymous": false,
      "inputs": [
        {
          "indexed": true,
          "internalType": "address",
          "name": "_provider",
          "type": "address"
        },
        {
          "indexed": true,
          "internalType": "contract IERC20Token",
          "name": "_reserveToken",
          "type": "address"
        },
        {
          "indexed": false,
          "internalType": "uint256",
          "name": "_amount",
          "type": "uint256"
        },
        {
          "indexed": false,
          "internalType": "uint256",
          "name": "_newBalance",
          "type": "uint256"
        },
        {
          "indexed": false,
          "internalType": "uint256",
          "name": "_newSupply",
          "type": "uint256"
        }
      ],
      "name": "LiquidityAdded",
      "type": "event"
    },
    {
      "anonymous": false,
      "inputs": [
        {
          "indexed": true,
          "internalType": "address",
          "name": "_provider",
          "type": "address"
        },
        {
          "indexed": true,
          "internalType": "contract IERC20Token",
          "name": "_reserveToken",
          "type": "address"
        },
        {
          "indexed": false,
          "internalType": "uint256",
          "name": "_amount",
          "type": "uint256"
        },
        {
          "indexed": false,
          "internalType": "uint256",
          "name": "_newBalance",
          "type": "uint256"
        },
        {
          "indexed": false,
          "internalType": "uint256",
          "name": "_newSupply",
          "type": "uint256"
        }
      ],
      "name": "LiquidityRemoved",
      "type": "event"
    },
    {
      "anonymous": false,
      "inputs": [
        {
          "indexed": true,
          "internalType": "address",
          "name": "_prevOwner",
          "type": "address"
        },
        {
          "indexed": true,
          "internalType": "address",
          "name": "_newOwner",
          "type": "address"
        }
      ],
      "name": "OwnerUpdate",
      "type": "event"
    },
    {
      "anonymous": false,
      "inputs": [
        {
          "indexed": true,
          "internalType": "contract IERC20Token",
          "name": "_connectorToken",
          "type": "address"
        },
        {
          "indexed": false,
          "internalType": "uint256",
          "name": "_tokenSupply",
          "type": "uint256"
        },
        {
          "indexed": false,
          "internalType": "uint256",
          "name": "_connectorBalance",
          "type": "uint256"
        },
        {
          "indexed": false,
          "internalType": "uint32",
          "name": "_connectorWeight",
          "type": "uint32"
        }
      ],
      "name": "PriceDataUpdate",
      "type": "event"
    },
    {
      "anonymous": false,
      "inputs": [
        {
          "indexed": true,
          "internalType": "contract IERC20Token",
          "name": "_token1",
          "type": "address"
        },
        {
          "indexed": true,
          "internalType": "contract IERC20Token",
          "name": "_token2",
          "type": "address"
        },
        {
          "indexed": false,
          "internalType": "uint256",
          "name": "_rateN",
          "type": "uint256"
        },
        {
          "indexed": false,
          "internalType": "uint256",
          "name": "_rateD",
          "type": "uint256"
        }
      ],
      "name": "TokenRateUpdate",
      "type": "event"
    },
    {
      "inputs": [],
      "name": "acceptOwnership",
      "outputs": [],
      "stateMutability": "nonpayable",
      "type": "function"
    },
    {
      "inputs": [],
      "name": "acceptTokenOwnership",
      "outputs": [],
      "stateMutability": "nonpayable",
      "type": "function"
    },
    {
      "inputs": [],
      "name": "anchor",
      "outputs": [
        {
          "internalType": "contract IConverterAnchor",
          "name": "",
          "type": "address"
        }
      ],
      "stateMutability": "view",
      "type": "function"
    },
    {
      "inputs": [],
      "name": "connectorTokenCount",
      "outputs": [
        {
          "internalType": "uint16",
          "name": "",
          "type": "uint16"
        }
      ],
      "stateMutability": "view",
      "type": "function"
    },
    {
      "inputs": [
        {
          "internalType": "uint256",
          "name": "_index",
          "type": "uint256"
        }
      ],
      "name": "connectorTokens",
      "outputs": [
        {
          "internalType": "contract IERC20Token",
          "name": "",
          "type": "address"
        }
      ],
      "stateMutability": "view",
      "type": "function"
    },
    {
      "inputs": [
        {
          "internalType": "contract IERC20Token",
          "name": "_address",
          "type": "address"
        }
      ],
      "name": "connectors",
      "outputs": [
        {
          "internalType": "uint256",
          "name": "",
          "type": "uint256"
        },
        {
          "internalType": "uint32",
          "name": "",
          "type": "uint32"
        },
        {
          "internalType": "bool",
          "name": "",
          "type": "bool"
        },
        {
          "internalType": "bool",
          "name": "",
          "type": "bool"
        },
        {
          "internalType": "bool",
          "name": "",
          "type": "bool"
        }
      ],
      "stateMutability": "view",
      "type": "function"
    },
    {
      "inputs": [],
      "name": "conversionFee",
      "outputs": [
        {
          "internalType": "uint32",
          "name": "",
          "type": "uint32"
        }
      ],
      "stateMutability": "view",
      "type": "function"
    },
    {
      "inputs": [],
      "name": "conversionWhitelist",
      "outputs": [
        {
          "internalType": "contract IWhitelist",
          "name": "",
          "type": "address"
        }
      ],
      "stateMutability": "view",
      "type": "function"
    },
    {
      "inputs": [],
      "name": "conversionsEnabled",
      "outputs": [
        {
          "internalType": "bool",
          "name": "",
          "type": "bool"
        }
      ],
      "stateMutability": "view",
      "type": "function"
    },
    {
      "inputs": [
        {
          "internalType": "contract IERC20Token",
          "name": "_sourceToken",
          "type": "address"
        },
        {
          "internalType": "contract IERC20Token",
          "name": "_targetToken",
          "type": "address"
        },
        {
          "internalType": "uint256",
          "name": "_amount",
          "type": "uint256"
        },
        {
          "internalType": "address",
          "name": "_trader",
          "type": "address"
        },
        {
          "internalType": "address payable",
          "name": "_beneficiary",
          "type": "address"
        }
      ],
      "name": "convert",
      "outputs": [
        {
          "internalType": "uint256",
          "name": "",
          "type": "uint256"
        }
      ],
      "stateMutability": "payable",
      "type": "function"
    },
    {
      "inputs": [
        {
          "internalType": "contract IERC20Token",
          "name": "_connectorToken",
          "type": "address"
        }
      ],
      "name": "getConnectorBalance",
      "outputs": [
        {
          "internalType": "uint256",
          "name": "",
          "type": "uint256"
        }
      ],
      "stateMutability": "view",
      "type": "function"
    },
    {
      "inputs": [
        {
          "internalType": "contract IERC20Token",
          "name": "_sourceToken",
          "type": "address"
        },
        {
          "internalType": "contract IERC20Token",
          "name": "_targetToken",
          "type": "address"
        },
        {
          "internalType": "uint256",
          "name": "_amount",
          "type": "uint256"
        }
      ],
      "name": "getReturn",
      "outputs": [
        {
          "internalType": "uint256",
          "name": "",
          "type": "uint256"
        },
        {
          "internalType": "uint256",
          "name": "",
          "type": "uint256"
        }
      ],
      "stateMutability": "view",
      "type": "function"
    },
    {
      "inputs": [],
      "name": "hasETHReserve",
      "outputs": [
        {
          "internalType": "bool",
          "name": "",
          "type": "bool"
        }
      ],
      "stateMutability": "view",
      "type": "function"
    },
    {
      "inputs": [],
      "name": "isActive",
      "outputs": [
        {
          "internalType": "bool",
          "name": "",
          "type": "bool"
        }
      ],
      "stateMutability": "view",
      "type": "function"
    },
    {
      "inputs": [],
      "name": "isStandardPool",
      "outputs": [
        {
          "internalType": "bool",
          "name": "",
          "type": "bool"
        }
      ],
      "stateMutability": "view",
      "type": "function"
    },
    {
      "inputs": [],
      "name": "isV28OrHigher",
      "outputs": [
        {
          "internalType": "bool",
          "name": "",
          "type": "bool"
        }
      ],
      "stateMutability": "pure",
      "type": "function"
    },
    {
      "inputs": [],
      "name": "maxConversionFee",
      "outputs": [
        {
          "internalType": "uint32",
          "name": "",
          "type": "uint32"
        }
      ],
      "stateMutability": "view",
      "type": "function"
    },
    {
      "inputs": [],
      "name": "newOwner",
      "outputs": [
        {
          "internalType": "address",
          "name": "",
          "type": "address"
        }
      ],
      "stateMutability": "view",
      "type": "function"
    },
    {
      "inputs": [],
      "name": "onlyOwnerCanUpdateRegistry",
      "outputs": [
        {
          "internalType": "bool",
          "name": "",
          "type": "bool"
        }
      ],
      "stateMutability": "view",
      "type": "function"
    },
    {
      "inputs": [],
      "name": "owner",
      "outputs": [
        {
          "internalType": "address",
          "name": "",
          "type": "address"
        }
      ],
      "stateMutability": "view",
      "type": "function"
    },
    {
      "inputs": [],
      "name": "prevAverageRate",
      "outputs": [
        {
          "internalType": "uint256",
          "name": "n",
          "type": "uint256"
        },
        {
          "internalType": "uint256",
          "name": "d",
          "type": "uint256"
        }
      ],
      "stateMutability": "view",
      "type": "function"
    },
    {
      "inputs": [],
      "name": "prevAverageRateUpdateTime",
      "outputs": [
        {
          "internalType": "uint256",
          "name": "",
          "type": "uint256"
        }
      ],
      "stateMutability": "view",
      "type": "function"
    },
    {
      "inputs": [],
      "name": "prevRegistry",
      "outputs": [
        {
          "internalType": "contract IContractRegistry",
          "name": "",
          "type": "address"
        }
      ],
      "stateMutability": "view",
      "type": "function"
    },
    {
      "inputs": [],
      "name": "registry",
      "outputs": [
        {
          "internalType": "contract IContractRegistry",
          "name": "",
          "type": "address"
        }
      ],
      "stateMutability": "view",
      "type": "function"
    },
    {
      "inputs": [
        {
          "internalType": "contract IERC20Token",
          "name": "_reserveToken",
          "type": "address"
        }
      ],
      "name": "reserveBalance",
      "outputs": [
        {
          "internalType": "uint256",
          "name": "",
          "type": "uint256"
        }
      ],
      "stateMutability": "view",
      "type": "function"
    },
    {
      "inputs": [],
      "name": "reserveRatio",
      "outputs": [
        {
          "internalType": "uint32",
          "name": "",
          "type": "uint32"
        }
      ],
      "stateMutability": "view",
      "type": "function"
    },
    {
      "inputs": [],
      "name": "reserveTokenCount",
      "outputs": [
        {
          "internalType": "uint16",
          "name": "",
          "type": "uint16"
        }
      ],
      "stateMutability": "view",
      "type": "function"
    },
    {
      "inputs": [
        {
          "internalType": "uint256",
          "name": "",
          "type": "uint256"
        }
      ],
      "name": "reserveTokens",
      "outputs": [
        {
          "internalType": "contract IERC20Token",
          "name": "",
          "type": "address"
        }
      ],
      "stateMutability": "view",
      "type": "function"
    },
    {
      "inputs": [
        {
          "internalType": "contract IERC20Token",
          "name": "_reserveToken",
          "type": "address"
        }
      ],
      "name": "reserveWeight",
      "outputs": [
        {
          "internalType": "uint32",
          "name": "",
          "type": "uint32"
        }
      ],
      "stateMutability": "view",
      "type": "function"
    },
    {
      "inputs": [
        {
          "internalType": "contract IERC20Token",
          "name": "",
          "type": "address"
        }
      ],
      "name": "reserves",
      "outputs": [
        {
          "internalType": "uint256",
          "name": "balance",
          "type": "uint256"
        },
        {
          "internalType": "uint32",
          "name": "weight",
          "type": "uint32"
        },
        {
          "internalType": "bool",
          "name": "deprecated1",
          "type": "bool"
        },
        {
          "internalType": "bool",
          "name": "deprecated2",
          "type": "bool"
        },
        {
          "internalType": "bool",
          "name": "isSet",
          "type": "bool"
        }
      ],
      "stateMutability": "view",
      "type": "function"
    },
    {
      "inputs": [],
      "name": "restoreRegistry",
      "outputs": [],
      "stateMutability": "nonpayable",
      "type": "function"
    },
    {
      "inputs": [
        {
          "internalType": "bool",
          "name": "_onlyOwnerCanUpdateRegistry",
          "type": "bool"
        }
      ],
      "name": "restrictRegistryUpdate",
      "outputs": [],
      "stateMutability": "nonpayable",
      "type": "function"
    },
    {
      "inputs": [
        {
          "internalType": "uint32",
          "name": "_conversionFee",
          "type": "uint32"
        }
      ],
      "name": "setConversionFee",
      "outputs": [],
      "stateMutability": "nonpayable",
      "type": "function"
    },
    {
      "inputs": [
        {
          "internalType": "contract IWhitelist",
          "name": "_whitelist",
          "type": "address"
        }
      ],
      "name": "setConversionWhitelist",
      "outputs": [],
      "stateMutability": "nonpayable",
      "type": "function"
    },
    {
      "inputs": [],
      "name": "token",
      "outputs": [
        {
          "internalType": "contract IConverterAnchor",
          "name": "",
          "type": "address"
        }
      ],
      "stateMutability": "view",
      "type": "function"
    },
    {
      "inputs": [
        {
          "internalType": "address",
          "name": "_newOwner",
          "type": "address"
        }
      ],
      "name": "transferAnchorOwnership",
      "outputs": [],
      "stateMutability": "nonpayable",
      "type": "function"
    },
    {
      "inputs": [
        {
          "internalType": "address",
          "name": "_newOwner",
          "type": "address"
        }
      ],
      "name": "transferOwnership",
      "outputs": [],
      "stateMutability": "nonpayable",
      "type": "function"
    },
    {
      "inputs": [
        {
          "internalType": "address",
          "name": "_newOwner",
          "type": "address"
        }
      ],
      "name": "transferTokenOwnership",
      "outputs": [],
      "stateMutability": "nonpayable",
      "type": "function"
    },
    {
      "inputs": [],
      "name": "updateRegistry",
      "outputs": [],
      "stateMutability": "nonpayable",
      "type": "function"
    },
    {
      "inputs": [],
      "name": "upgrade",
      "outputs": [],
      "stateMutability": "nonpayable",
      "type": "function"
    },
    {
      "inputs": [],
      "name": "version",
      "outputs": [
        {
          "internalType": "uint16",
          "name": "",
          "type": "uint16"
        }
      ],
      "stateMutability": "view",
      "type": "function"
    },
    {
      "inputs": [
        {
          "internalType": "address payable",
          "name": "_to",
          "type": "address"
        }
      ],
      "name": "withdrawETH",
      "outputs": [],
      "stateMutability": "nonpayable",
      "type": "function"
    },
    {
      "inputs": [
        {
          "internalType": "contract IERC20Token",
          "name": "_token",
          "type": "address"
        },
        {
          "internalType": "address",
          "name": "_to",
          "type": "address"
        },
        {
          "internalType": "uint256",
          "name": "_amount",
          "type": "uint256"
        }
      ],
      "name": "withdrawFromAnchor",
      "outputs": [],
      "stateMutability": "nonpayable",
      "type": "function"
    },
    {
      "inputs": [
        {
          "internalType": "contract IERC20Token",
          "name": "_token",
          "type": "address"
        },
        {
          "internalType": "address",
          "name": "_to",
          "type": "address"
        },
        {
          "internalType": "uint256",
          "name": "_amount",
          "type": "uint256"
        }
      ],
      "name": "withdrawTokens",
      "outputs": [],
      "stateMutability": "nonpayable",
      "type": "function"
    },
    {
      "stateMutability": "payable",
      "type": "receive"
    },
    {
      "inputs": [],
      "name": "converterType",
      "outputs": [
        {
          "internalType": "uint16",
          "name": "",
          "type": "uint16"
        }
      ],
      "stateMutability": "pure",
      "type": "function"
    },
    {
      "inputs": [],
      "name": "acceptAnchorOwnership",
      "outputs": [],
      "stateMutability": "nonpayable",
      "type": "function"
    },
    {
      "inputs": [
        {
          "internalType": "contract IERC20Token",
          "name": "_token",
          "type": "address"
        },
        {
          "internalType": "uint32",
          "name": "_weight",
          "type": "uint32"
        }
      ],
      "name": "addReserve",
      "outputs": [],
      "stateMutability": "nonpayable",
      "type": "function"
    },
    {
      "inputs": [
        {
          "internalType": "contract IERC20Token",
          "name": "_sourceToken",
          "type": "address"
        },
        {
          "internalType": "contract IERC20Token",
          "name": "_targetToken",
          "type": "address"
        },
        {
          "internalType": "uint256",
          "name": "_amount",
          "type": "uint256"
        }
      ],
      "name": "targetAmountAndFee",
      "outputs": [
        {
          "internalType": "uint256",
          "name": "",
          "type": "uint256"
        },
        {
          "internalType": "uint256",
          "name": "",
          "type": "uint256"
        }
      ],
      "stateMutability": "view",
      "type": "function"
    },
    {
      "inputs": [
        {
          "internalType": "contract IERC20Token",
          "name": "_token",
          "type": "address"
        }
      ],
      "name": "recentAverageRate",
      "outputs": [
        {
          "internalType": "uint256",
          "name": "",
          "type": "uint256"
        },
        {
          "internalType": "uint256",
          "name": "",
          "type": "uint256"
        }
      ],
      "stateMutability": "view",
      "type": "function"
    },
    {
      "inputs": [
        {
          "internalType": "contract IERC20Token[]",
          "name": "_reserveTokens",
          "type": "address[]"
        },
        {
          "internalType": "uint256[]",
          "name": "_reserveAmounts",
          "type": "uint256[]"
        },
        {
          "internalType": "uint256",
          "name": "_minReturn",
          "type": "uint256"
        }
      ],
      "name": "addLiquidity",
      "outputs": [
        {
          "internalType": "uint256",
          "name": "",
          "type": "uint256"
        }
      ],
      "stateMutability": "payable",
      "type": "function"
    },
    {
      "inputs": [
        {
          "internalType": "uint256",
          "name": "_amount",
          "type": "uint256"
        },
        {
          "internalType": "contract IERC20Token[]",
          "name": "_reserveTokens",
          "type": "address[]"
        },
        {
          "internalType": "uint256[]",
          "name": "_reserveMinReturnAmounts",
          "type": "uint256[]"
        }
      ],
      "name": "removeLiquidity",
      "outputs": [
        {
          "internalType": "uint256[]",
          "name": "",
          "type": "uint256[]"
        }
      ],
      "stateMutability": "nonpayable",
      "type": "function"
    },
    {
      "inputs": [
        {
          "internalType": "uint256",
          "name": "_amount",
          "type": "uint256"
        }
      ],
      "name": "fund",
      "outputs": [
        {
          "internalType": "uint256",
          "name": "",
          "type": "uint256"
        }
      ],
      "stateMutability": "payable",
      "type": "function"
    },
    {
      "inputs": [
        {
          "internalType": "uint256",
          "name": "_amount",
          "type": "uint256"
        }
      ],
      "name": "liquidate",
      "outputs": [
        {
          "internalType": "uint256[]",
          "name": "",
          "type": "uint256[]"
        }
      ],
      "stateMutability": "nonpayable",
      "type": "function"
    },
    {
      "inputs": [
        {
          "internalType": "contract IERC20Token[]",
          "name": "_reserveTokens",
          "type": "address[]"
        },
        {
          "internalType": "uint256",
          "name": "_reserveTokenIndex",
          "type": "uint256"
        },
        {
          "internalType": "uint256",
          "name": "_reserveAmount",
          "type": "uint256"
        }
      ],
      "name": "addLiquidityCost",
      "outputs": [
        {
          "internalType": "uint256[]",
          "name": "",
          "type": "uint256[]"
        }
      ],
      "stateMutability": "view",
      "type": "function"
    },
    {
      "inputs": [
        {
          "internalType": "contract IERC20Token",
          "name": "_reserveToken",
          "type": "address"
        },
        {
          "internalType": "uint256",
          "name": "_reserveAmount",
          "type": "uint256"
        }
      ],
      "name": "addLiquidityReturn",
      "outputs": [
        {
          "internalType": "uint256",
          "name": "",
          "type": "uint256"
        }
      ],
      "stateMutability": "view",
      "type": "function"
    },
    {
      "inputs": [
        {
          "internalType": "uint256",
          "name": "_amount",
          "type": "uint256"
        },
        {
          "internalType": "contract IERC20Token[]",
          "name": "_reserveTokens",
          "type": "address[]"
        }
      ],
      "name": "removeLiquidityReturn",
      "outputs": [
        {
          "internalType": "uint256[]",
          "name": "",
          "type": "uint256[]"
        }
      ],
      "stateMutability": "view",
      "type": "function"
    },
    {
      "inputs": [
        {
          "internalType": "uint256",
          "name": "_x",
          "type": "uint256"
        }
      ],
      "name": "decimalLength",
      "outputs": [
        {
          "internalType": "uint256",
          "name": "",
          "type": "uint256"
        }
      ],
      "stateMutability": "pure",
      "type": "function"
    },
    {
      "inputs": [
        {
          "internalType": "uint256",
          "name": "_n",
          "type": "uint256"
        },
        {
          "internalType": "uint256",
          "name": "_d",
          "type": "uint256"
        }
      ],
      "name": "roundDiv",
      "outputs": [
        {
          "internalType": "uint256",
          "name": "",
          "type": "uint256"
        }
      ],
      "stateMutability": "pure",
      "type": "function"
    },
    {
      "inputs": [
        {
          "internalType": "uint256[]",
          "name": "_values",
          "type": "uint256[]"
        }
      ],
      "name": "geometricMean",
      "outputs": [
        {
          "internalType": "uint256",
          "name": "",
          "type": "uint256"
        }
      ],
      "stateMutability": "pure",
      "type": "function"
    }
  ],
  "bytecode": "0x60806040526003805460ff60a81b191690557fc0829421c1d260bd3cb3e0f06cfe2d52db2ce3150000000000000000000000006008556009805460ff191690553480156200004c57600080fd5b50604051620056ce380380620056ce833981810160405260608110156200007257600080fd5b5080516020820151604090920151600080546001600160a01b031916331790559091908282828282828180620000a88162000142565b50600280546001600160a01b039092166001600160a01b031992831681179091556003805490921617905582620000df8162000142565b81620000eb81620001a1565b5050600480546001600160a01b039094166001600160a01b031990941693909317909255506008805463ffffffff9092166401000000000263ffffffff60201b199092169190911790555062000200945050505050565b6001600160a01b0381166200019e576040805162461bcd60e51b815260206004820152601360248201527f4552525f494e56414c49445f4144445245535300000000000000000000000000604482015290519081900360640190fd5b50565b620f424063ffffffff821611156200019e576040805162461bcd60e51b815260206004820152601a60248201527f4552525f494e56414c49445f434f4e56455253494f4e5f464545000000000000604482015290519081900360640190fd5b6154be80620002106000396000f3fe6080604052600436106103905760003560e01c806371f52bf3116101dc578063ca1d209d11610102578063d66bd524116100a0578063e8dc12ff1161006f578063e8dc12ff14611081578063ecbca55d146110c7578063f2fde38b146110f7578063fc0c546a1461112a57610421565b8063d66bd52414610fd3578063d895951214611006578063dc8de37914611039578063e2c524681461106c57610421565b8063d260529c116100dc578063d260529c14610f7f578063d3fb73b414610f94578063d4ee1d9014610fa9578063d55ec69714610fbe57610421565b8063ca1d209d14610f23578063cdc91c6914610f40578063d031370b14610f5557610421565b80639b99a8e21161017a578063b4a176d311610149578063b4a176d314610eb4578063bbb7e5d814610ec9578063bf75455814610ef9578063c45d3d9214610f0e57610421565b80639b99a8e214610c77578063a60e772414610c8c578063af94b8d814610d3a578063b127c0a514610d7d57610421565b80637d8916bd116101b65780637d8916bd14610a7557806380d9416d14610b9a5780638da5cb5b14610c4d57806394c275ad14610c6257610421565b806371f52bf314610a3657806379ba509714610a4b5780637b10399914610a6057610421565b806338e9f27a116102c157806354fd4d501161025f57806367b6d57c1161022e57806367b6d57c14610967578063690d83201461099a5780636a49d2c4146109cd5780636aa5332c14610a0c57610421565b806354fd4d50146108e5578063579cd3ca146108fa5780635e35359e1461090f57806361cd756e1461095257610421565b8063415f12401161029b578063415f12401461083a57806349d10b64146108645780634af80f0e146108795780634e40c260146108ac57610421565b806338e9f27a146107b6578063395900d4146107cb5780633e8ff43f1461080e57610421565b80631d4db7911161032e57806321e6b53d1161030857806321e6b53d1461074457806322f3e2d4146107775780632fe8a6ad1461078c57806338a5e016146107a157610421565b80631d4db7911461068e5780631e1401f8146106b55780631f0181bc1461071157610421565b806312c2aca41161036a57806312c2aca4146104e7578063154588371461051057806319b64015146106155780631cfab2901461065b57610421565b8063024c7ec7146104265780630c7d5cd8146104525780630e53aae91461048057610421565b366104215760008051602061544983398151915260005260076020527fb2084a3e4595ccf007fb44245853374aaf0de960074375e8e0fb334712e94d0f54600160301b900460ff1661041f576040805162461bcd60e51b81526020600482015260136024820152724552525f494e56414c49445f5245534552564560681b604482015290519081900360640190fd5b005b600080fd5b34801561043257600080fd5b5061041f6004803603602081101561044957600080fd5b5035151561113f565b34801561045e57600080fd5b50610467611165565b6040805163ffffffff9092168252519081900360200190f35b34801561048c57600080fd5b506104b3600480360360208110156104a357600080fd5b50356001600160a01b0316611171565b6040805195865263ffffffff9094166020860152911515848401521515606084015215156080830152519081900360a00190f35b3480156104f357600080fd5b506104fc611208565b604080519115158252519081900360200190f35b34801561051c57600080fd5b506105c56004803603604081101561053357600080fd5b81359190810190604081016020820135600160201b81111561055457600080fd5b82018360208201111561056657600080fd5b803590602001918460208302840111600160201b8311171561058757600080fd5b91908080602002602001604051908101604052809392919081815260200183836020028082843760009201919091525092955061124f945050505050565b60408051602080825283518183015283519192839290830191858101910280838360005b838110156106015781810151838201526020016105e9565b505050509050019250505060405180910390f35b34801561062157600080fd5b5061063f6004803603602081101561063857600080fd5b50356112f6565b604080516001600160a01b039092168252519081900360200190f35b34801561066757600080fd5b506104676004803603602081101561067e57600080fd5b50356001600160a01b0316611320565b34801561069a57600080fd5b506106a3611352565b60408051918252519081900360200190f35b3480156106c157600080fd5b506106f8600480360360608110156106d857600080fd5b506001600160a01b03813581169160208101359091169060400135611358565b6040805192835260208301919091528051918290030190f35b34801561071d57600080fd5b506106f86004803603602081101561073457600080fd5b50356001600160a01b0316611373565b34801561075057600080fd5b5061041f6004803603602081101561076757600080fd5b50356001600160a01b031661142a565b34801561078357600080fd5b506104fc61143e565b34801561079857600080fd5b506104fc6114bd565b3480156107ad57600080fd5b5061041f6114cd565b3480156107c257600080fd5b506104fc6114df565b3480156107d757600080fd5b5061041f600480360360608110156107ee57600080fd5b506001600160a01b038135811691602081013590911690604001356114e8565b34801561081a57600080fd5b5061082361156e565b6040805161ffff9092168252519081900360200190f35b34801561084657600080fd5b506105c56004803603602081101561085d57600080fd5b5035611573565b34801561087057600080fd5b5061041f6117b1565b34801561088557600080fd5b5061041f6004803603602081101561089c57600080fd5b50356001600160a01b03166119b9565b3480156108b857600080fd5b506106a3600480360360408110156108cf57600080fd5b506001600160a01b0381351690602001356119ee565b3480156108f157600080fd5b50610823611b2a565b34801561090657600080fd5b50610467611b2f565b34801561091b57600080fd5b5061041f6004803603606081101561093257600080fd5b506001600160a01b03813581169160208101359091169060400135611b42565b34801561095e57600080fd5b5061063f611c73565b34801561097357600080fd5b5061041f6004803603602081101561098a57600080fd5b50356001600160a01b0316611c82565b3480156109a657600080fd5b5061041f600480360360208110156109bd57600080fd5b50356001600160a01b0316611d2e565b3480156109d957600080fd5b5061041f600480360360408110156109f057600080fd5b5080356001600160a01b0316906020013563ffffffff16611e55565b348015610a1857600080fd5b506106a360048036036020811015610a2f57600080fd5b5035611f1e565b348015610a4257600080fd5b50610823611f40565b348015610a5757600080fd5b5061041f611f4f565b348015610a6c57600080fd5b5061063f612006565b6106a360048036036060811015610a8b57600080fd5b810190602081018135600160201b811115610aa557600080fd5b820183602082011115610ab757600080fd5b803590602001918460208302840111600160201b83111715610ad857600080fd5b9190808060200260200160405190810160405280939291908181526020018383602002808284376000920191909152509295949360208101935035915050600160201b811115610b2757600080fd5b820183602082011115610b3957600080fd5b803590602001918460208302840111600160201b83111715610b5a57600080fd5b9190808060200260200160405190810160405280939291908181526020018383602002808284376000920191909152509295505091359250612015915050565b348015610ba657600080fd5b506105c560048036036060811015610bbd57600080fd5b810190602081018135600160201b811115610bd757600080fd5b820183602082011115610be957600080fd5b803590602001918460208302840111600160201b83111715610c0a57600080fd5b91908080602002602001604051908101604052809392919081815260200183836020028082843760009201919091525092955050823593505050602001356122df565b348015610c5957600080fd5b5061063f61258e565b348015610c6e57600080fd5b5061046761259d565b348015610c8357600080fd5b506108236125b0565b348015610c9857600080fd5b506106a360048036036020811015610caf57600080fd5b810190602081018135600160201b811115610cc957600080fd5b820183602082011115610cdb57600080fd5b803590602001918460208302840111600160201b83111715610cfc57600080fd5b9190808060200260200160405190810160405280939291908181526020018383602002808284376000920191909152509295506125b6945050505050565b348015610d4657600080fd5b506106f860048036036060811015610d5d57600080fd5b506001600160a01b03813581169160208101359091169060400135612608565b348015610d8957600080fd5b506105c560048036036060811015610da057600080fd5b81359190810190604081016020820135600160201b811115610dc157600080fd5b820183602082011115610dd357600080fd5b803590602001918460208302840111600160201b83111715610df457600080fd5b9190808060200260200160405190810160405280939291908181526020018383602002808284376000920191909152509295949360208101935035915050600160201b811115610e4357600080fd5b820183602082011115610e5557600080fd5b803590602001918460208302840111600160201b83111715610e7657600080fd5b9190808060200260200160405190810160405280939291908181526020018383602002808284376000920191909152509295506127ab945050505050565b348015610ec057600080fd5b5061041f6128e7565b348015610ed557600080fd5b506106a360048036036040811015610eec57600080fd5b5080359060200135612913565b348015610f0557600080fd5b506104fc61292b565b348015610f1a57600080fd5b5061063f612930565b6106a360048036036020811015610f3957600080fd5b503561293f565b348015610f4c57600080fd5b5061041f612dba565b348015610f6157600080fd5b5061063f60048036036020811015610f7857600080fd5b5035612e13565b348015610f8b57600080fd5b506104fc61156e565b348015610fa057600080fd5b5061063f612e3a565b348015610fb557600080fd5b5061063f612e49565b348015610fca57600080fd5b5061041f612e58565b348015610fdf57600080fd5b506104b360048036036020811015610ff657600080fd5b50356001600160a01b0316612f40565b34801561101257600080fd5b506106a36004803603602081101561102957600080fd5b50356001600160a01b0316612f82565b34801561104557600080fd5b506106a36004803603602081101561105c57600080fd5b50356001600160a01b0316612f89565b34801561107857600080fd5b506106f8612fb2565b6106a3600480360360a081101561109757600080fd5b506001600160a01b0381358116916020810135821691604082013591606081013582169160809091013516612fbb565b3480156110d357600080fd5b5061041f600480360360208110156110ea57600080fd5b503563ffffffff166131cb565b34801561110357600080fd5b5061041f6004803603602081101561111a57600080fd5b50356001600160a01b03166132b2565b34801561113657600080fd5b5061063f613330565b61114761333f565b60038054911515600160a01b0260ff60a01b19909216919091179055565b60085463ffffffff1681565b6000806000806000611181615400565b505050506001600160a01b03929092166000908152600760209081526040808320815160a081018352815480825260019092015463ffffffff811694820185905260ff600160201b82048116151594830194909452650100000000008104841615156060830152600160301b90049092161515608090920182905295919450919250829190565b60008051602061544983398151915260005260076020527fb2084a3e4595ccf007fb44245853374aaf0de960074375e8e0fb334712e94d0f54600160301b900460ff165b90565b60048054604080516318160ddd60e01b815290516060936000936001600160a01b0316926318160ddd9281830192602092829003018186803b15801561129457600080fd5b505afa1580156112a8573d6000803e3d6000fd5b505050506040513d60208110156112be57600080fd5b5051905060006112dd6c42616e636f72466f726d756c6160981b613392565b90506112eb85858484613410565b925050505b92915050565b60006006828154811061130557fe5b6000918252602090912001546001600160a01b031692915050565b60008161132c81613555565b50506001600160a01b031660009081526007602052604090206001015463ffffffff1690565b600c5481565b600080611366858585612608565b915091505b935093915050565b600954600090819060ff166113c7576040805162461bcd60e51b815260206004820152601560248201527411549497d393d397d4d510539110549117d413d3d3605a1b604482015290519081900360640190fd5b6113cf61542e565b6113d76135c2565b905060066000815481106113e757fe5b6000918252602090912001546001600160a01b03858116911614156114185780516020909101519092509050611425565b6020810151905190925090505b915091565b61143261333f565b61143b81611c82565b50565b6004805460408051638da5cb5b60e01b8152905160009330936001600160a01b031692638da5cb5b9281830192602092829003018186803b15801561148257600080fd5b505afa158015611496573d6000803e3d6000fd5b505050506040513d60208110156114ac57600080fd5b50516001600160a01b031614905090565b600354600160a01b900460ff1681565b6114d561333f565b6114dd612dba565b565b60095460ff1681565b6114f061333f565b6004805460408051632f1a9acf60e11b81526001600160a01b038781169482019490945285841660248201526044810185905290519290911691635e35359e9160648082019260009290919082900301818387803b15801561155157600080fd5b505af1158015611565573d6000803e3d6000fd5b50505050505050565b600190565b606061157d61375d565b6003805460ff60a81b1916600160a81b179055816115d4576040805162461bcd60e51b815260206004820152600f60248201526e11549497d6915493d7d05353d55395608a1b604482015290519081900360640190fd5b6000600460009054906101000a90046001600160a01b03166001600160a01b03166318160ddd6040518163ffffffff1660e01b815260040160206040518083038186803b15801561162457600080fd5b505afa158015611638573d6000803e3d6000fd5b505050506040513d602081101561164e57600080fd5b5051600480546040805163a24835d160e01b8152339381019390935260248301879052519293506001600160a01b03169163a24835d19160448082019260009290919082900301818387803b1580156116a657600080fd5b505af11580156116ba573d6000803e3d6000fd5b505060065460609250905067ffffffffffffffff811180156116db57600080fd5b50604051908082528060200260200182016040528015611705578160200160208202803683370190505b50905060005b815181101561173557600182828151811061172257fe5b602090810291909101015260010161170b565b5061179c600680548060200260200160405190810160405280929190818152602001828054801561178f57602002820191906000526020600020905b81546001600160a01b03168152600190910190602001808311611771575b50505050508284876137ad565b6003805460ff60a81b19169055949350505050565b6000546001600160a01b03163314806117d45750600354600160a01b900460ff16155b611819576040805162461bcd60e51b815260206004820152601160248201527011549497d050d0d154d4d7d11153925151607a1b604482015290519081900360640190fd5b60006118376f436f6e7472616374526567697374727960801b613392565b6002549091506001600160a01b0380831691161480159061186057506001600160a01b03811615155b6118a8576040805162461bcd60e51b81526020600482015260146024820152734552525f494e56414c49445f524547495354525960601b604482015290519081900360640190fd5b60006001600160a01b0316816001600160a01b031663bb34534c6f436f6e7472616374526567697374727960801b6040518263ffffffff1660e01b81526004018082815260200191505060206040518083038186803b15801561190a57600080fd5b505afa15801561191e573d6000803e3d6000fd5b505050506040513d602081101561193457600080fd5b50516001600160a01b03161415611989576040805162461bcd60e51b81526020600482015260146024820152734552525f494e56414c49445f524547495354525960601b604482015290519081900360640190fd5b60028054600380546001600160a01b038084166001600160a01b0319928316179092559091169216919091179055565b6119c161333f565b806119cb816139b8565b50600580546001600160a01b0319166001600160a01b0392909216919091179055565b60048054604080516318160ddd60e01b8152905160009384936001600160a01b0316926318160ddd9281830192602092829003018186803b158015611a3257600080fd5b505afa158015611a46573d6000803e3d6000fd5b505050506040513d6020811015611a5c57600080fd5b505190506000611a7b6c42616e636f72466f726d756c6160981b613392565b6001600160a01b03868116600090815260076020908152604091829020546008548351632f55bdb560e01b815260048101899052602481019290925263ffffffff16604482015260648101899052915193945091841692632f55bdb592608480840193919291829003018186803b158015611af557600080fd5b505afa158015611b09573d6000803e3d6000fd5b505050506040513d6020811015611b1f57600080fd5b505195945050505050565b602781565b600854600160401b900463ffffffff1681565b611b4a61375d565b6003805460ff60a81b1916600160a81b179055611b6561333f565b6000611b8a762130b731b7b921b7b73b32b93a32b92ab833b930b232b960491b613392565b6001600160a01b038516600090815260076020526040902060010154909150600160301b900460ff161580611bc45750611bc261143e565b155b80611bdc57506000546001600160a01b038281169116145b611c21576040805162461bcd60e51b815260206004820152601160248201527011549497d050d0d154d4d7d11153925151607a1b604482015290519081900360640190fd5b611c2c848484613a0c565b6001600160a01b038416600090815260076020526040902060010154600160301b900460ff1615611c6057611c6084613a3d565b50506003805460ff60a81b191690555050565b6003546001600160a01b031681565b611c8a61333f565b762130b731b7b921b7b73b32b93a32b92ab833b930b232b960491b611cae81613b16565b600460009054906101000a90046001600160a01b03166001600160a01b031663f2fde38b836040518263ffffffff1660e01b815260040180826001600160a01b03168152602001915050600060405180830381600087803b158015611d1257600080fd5b505af1158015611d26573d6000803e3d6000fd5b505050505050565b611d3661375d565b6003805460ff60a81b1916600160a81b179055611d5161333f565b600080516020615449833981519152611d6981613555565b6000611d8e762130b731b7b921b7b73b32b93a32b92ab833b930b232b960491b613392565b9050611d9861143e565b1580611db157506000546001600160a01b038281169116145b611df6576040805162461bcd60e51b815260206004820152601160248201527011549497d050d0d154d4d7d11153925151607a1b604482015290519081900360640190fd5b6040516001600160a01b038416904780156108fc02916000818181858888f19350505050158015611e2b573d6000803e3d6000fd5b50611e43600080516020615449833981519152613a3d565b50506003805460ff60a81b1916905550565b611e5d61333f565b611e678282613b78565b6006546002148015611ebb5750600760006006600081548110611e8657fe5b6000918252602080832091909101546001600160a01b0316835282019290925260400190206001015463ffffffff166207a120145b8015611f095750600760006006600181548110611ed457fe5b6000918252602080832091909101546001600160a01b0316835282019290925260400190206001015463ffffffff166207a120145b6009805460ff19169115159190911790555050565b600080825b8015611f395760019190910190600a9004611f23565b5092915050565b6000611f4a6125b0565b905090565b6001546001600160a01b03163314611fa2576040805162461bcd60e51b815260206004820152601160248201527011549497d050d0d154d4d7d11153925151607a1b604482015290519081900360640190fd5b600154600080546040516001600160a01b0393841693909116917f343765429aea5a34b3ff6a3785a98a5abb2597aca87bfbb58632c173d585373a91a360018054600080546001600160a01b03199081166001600160a01b03841617909155169055565b6002546001600160a01b031681565b600061201f61375d565b6003805460ff60a81b1916600160a81b17905561203a613d9a565b612045848484613de2565b60005b84518110156120f5576000805160206154498339815191526001600160a01b031685828151811061207557fe5b60200260200101516001600160a01b031614156120ed573484828151811061209957fe5b6020026020010151146120ed576040805162461bcd60e51b815260206004820152601760248201527608aa4a4be8aa890be829a9eaa9ca8be9a92a69a82a8869604b1b604482015290519081900360640190fd5b600101612048565b5034156121855760008051602061544983398151915260005260076020527fb2084a3e4595ccf007fb44245853374aaf0de960074375e8e0fb334712e94d0f54600160301b900460ff16612185576040805162461bcd60e51b81526020600482015260126024820152714552525f4e4f5f4554485f5245534552564560701b604482015290519081900360640190fd5b6000600460009054906101000a90046001600160a01b03166001600160a01b03166318160ddd6040518163ffffffff1660e01b815260040160206040518083038186803b1580156121d557600080fd5b505afa1580156121e9573d6000803e3d6000fd5b505050506040513d60208110156121ff57600080fd5b505190506000612210868684614077565b90508381101561225c576040805162461bcd60e51b81526020600482015260126024820152714552525f52455455524e5f544f4f5f4c4f5760701b604482015290519081900360640190fd5b600480546040805163219e412d60e21b8152339381019390935260248301849052516001600160a01b039091169163867904b491604480830192600092919082900301818387803b1580156122b057600080fd5b505af11580156122c4573d6000803e3d6000fd5b50506003805460ff60a81b1916905550909695505050505050565b606080845167ffffffffffffffff811180156122fa57600080fd5b50604051908082528060200260200182016040528015612324578160200160208202803683370190505b5090506000600460009054906101000a90046001600160a01b03166001600160a01b03166318160ddd6040518163ffffffff1660e01b815260040160206040518083038186803b15801561237757600080fd5b505afa15801561238b573d6000803e3d6000fd5b505050506040513d60208110156123a157600080fd5b5051905060006123c06c42616e636f72466f726d756c6160981b613392565b90506000816001600160a01b0316632f55bdb584600760008c8c815181106123e457fe5b6020908102919091018101516001600160a01b031682528181019290925260409081016000205460085482516001600160e01b031960e088901b1681526004810195909552602485019190915263ffffffff166044840152606483018b905251608480840193829003018186803b15801561245e57600080fd5b505afa158015612472573d6000803e3d6000fd5b505050506040513d602081101561248857600080fd5b5051905060005b845181101561257f57826001600160a01b031663ebbb215885600760008d86815181106124b857fe5b6020908102919091018101516001600160a01b031682528181019290925260409081016000205460085482516001600160e01b031960e088901b1681526004810195909552602485019190915263ffffffff1660448401526064830187905251608480840193829003018186803b15801561253257600080fd5b505afa158015612546573d6000803e3d6000fd5b505050506040513d602081101561255c57600080fd5b5051855186908390811061256c57fe5b602090810291909101015260010161248f565b509293505050505b9392505050565b6000546001600160a01b031681565b600854600160201b900463ffffffff1681565b60065490565b80516000908190815b818110156125ef576125e38582815181106125d657fe5b6020026020010151611f1e565b909201916001016125bf565b5060016125fc8383612913565b03600a0a949350505050565b600080612613613d9a565b8461261d81613555565b8461262781613555565b856001600160a01b0316876001600160a01b03161415612687576040805162461bcd60e51b815260206004820152601660248201527511549497d4d0535157d4d3d55490d157d5105491d15560521b604482015290519081900360640190fd5b60006126a26c42616e636f72466f726d756c6160981b613392565b6001600160a01b03166394491fab6126b98a612f89565b6001600160a01b038b1660009081526007602052604090206001015463ffffffff166126e48b612f89565b6001600160a01b038c166000908152600760209081526040918290206001015482516001600160e01b031960e089901b168152600481019690965263ffffffff94851660248701526044860193909352929091166064840152608483018b90525160a480840193829003018186803b15801561275f57600080fd5b505afa158015612773573d6000803e3d6000fd5b505050506040513d602081101561278957600080fd5b505190506000612798826140a2565b9182900399919850909650505050505050565b60606127b561375d565b6003805460ff60a81b1916600160a81b1790556127d0613d9a565b6127db838386613de2565b6000600460009054906101000a90046001600160a01b03166001600160a01b03166318160ddd6040518163ffffffff1660e01b815260040160206040518083038186803b15801561282b57600080fd5b505afa15801561283f573d6000803e3d6000fd5b505050506040513d602081101561285557600080fd5b5051600480546040805163a24835d160e01b8152339381019390935260248301899052519293506001600160a01b03169163a24835d19160448082019260009290919082900301818387803b1580156128ad57600080fd5b505af11580156128c1573d6000803e3d6000fd5b505050506128d1848483886137ad565b6003805460ff60a81b1916905595945050505050565b6128ef61333f565b600354600280546001600160a01b0319166001600160a01b03909216919091179055565b6000816002810484018161292357fe5b049392505050565b600181565b6005546001600160a01b031681565b600061294961375d565b6003805460ff60a81b1916600160a81b1790556129646140d3565b6000805160206154498339815191526000526007602052600080516020615469833981519152546129959034614113565b6000805160206154498339815191526000908152600760209081526000805160206154698339815191529290925560048054604080516318160ddd60e01b8152905193946001600160a01b03909216936318160ddd938281019392829003018186803b158015612a0457600080fd5b505afa158015612a18573d6000803e3d6000fd5b505050506040513d6020811015612a2e57600080fd5b505190506000612a4d6c42616e636f72466f726d756c6160981b613392565b60065490915060005b81811015612d3757600060068281548110612a6d57fe5b60009182526020808320909101546001600160a01b03908116808452600783526040808520546008548251631d77642b60e31b8152600481018d90526024810183905263ffffffff9091166044820152606481018e9052915192965094939289169263ebbb215892608480840193829003018186803b158015612aef57600080fd5b505afa158015612b03573d6000803e3d6000fd5b505050506040513d6020811015612b1957600080fd5b505190506001600160a01b0383166000805160206154498339815191521415612c645780341115612b795760405133903483900380156108fc02916000818181858888f19350505050158015612b73573d6000803e3d6000fd5b50612c5f565b80341015612c5f573415612bcc576040805162461bcd60e51b81526020600482015260156024820152744552525f494e56414c49445f4554485f56414c554560581b604482015290519081900360640190fd5b600854612beb90600160601b90046001600160a01b0316333084614160565b6008600c9054906101000a90046001600160a01b03166001600160a01b0316632e1a7d4d826040518263ffffffff1660e01b815260040180828152602001915050600060405180830381600087803b158015612c4657600080fd5b505af1158015612c5a573d6000803e3d6000fd5b505050505b612c70565b612c7083333084614160565b6000612c7c83836142cb565b6001600160a01b0385166000908152600760205260408120829055909150612ca4898c6142cb565b604080518581526020810185905280820183905290519192506001600160a01b0387169133917f4a1a2a6176e9646d9e3157f7c2ab3c499f18337c0b0828cfb28e0a61de4a11f7919081900360600190a36001600160a01b038516600090815260076020526040902060010154612d269082908790859063ffffffff16614314565b505060019093019250612a56915050565b50600480546040805163219e412d60e21b8152339381019390935260248301889052516001600160a01b039091169163867904b491604480830192600092919082900301818387803b158015612d8c57600080fd5b505af1158015612da0573d6000803e3d6000fd5b50506003805460ff60a81b19169055509495945050505050565b612dc261333f565b612dca614383565b6004546001906001600160a01b0316612de161156e565b61ffff167f6b08c2e2c9969e55a647a764db9b554d64dc42f1a704da11a6d5b129ad163f2c60405160405180910390a4565b60068181548110612e2057fe5b6000918252602090912001546001600160a01b0316905081565b6004546001600160a01b031681565b6001546001600160a01b031681565b612e6061333f565b6000612e85762130b731b7b921b7b73b32b93a32b92ab833b930b232b960491b613392565b6004549091506000906001600160a01b0316612e9f61156e565b61ffff167f6b08c2e2c9969e55a647a764db9b554d64dc42f1a704da11a6d5b129ad163f2c60405160405180910390a4612ed8816132b2565b6040805163487ac64b60e11b81526027600482015290516001600160a01b038316916390f58c9691602480830192600092919082900301818387803b158015612f2057600080fd5b505af1158015612f34573d6000803e3d6000fd5b5050505061143b611f4f565b6007602052600090815260409020805460019091015463ffffffff81169060ff600160201b8204811691650100000000008104821691600160301b9091041685565b60006112f0825b600081612f9581613555565b50506001600160a01b031660009081526007602052604090205490565b600a54600b5482565b6000612fc561375d565b6003805460ff60a81b1916600160a81b1790556c42616e636f724e6574776f726b60981b612ff281613b16565b856001600160a01b0316876001600160a01b03161415613052576040805162461bcd60e51b815260206004820152601660248201527511549497d4d0535157d4d3d55490d157d5105491d15560521b604482015290519081900360640190fd5b6005546001600160a01b0316158061315f575060055460408051633af32abf60e01b81526001600160a01b03878116600483015291519190921691633af32abf916024808301926020929190829003018186803b1580156130b257600080fd5b505afa1580156130c6573d6000803e3d6000fd5b505050506040513d60208110156130dc57600080fd5b5051801561315f575060055460408051633af32abf60e01b81526001600160a01b03868116600483015291519190921691633af32abf916024808301926020929190829003018186803b15801561313257600080fd5b505afa158015613146573d6000803e3d6000fd5b505050506040513d602081101561315c57600080fd5b50515b6131a6576040805162461bcd60e51b815260206004820152601360248201527211549497d393d517d5d2125511531254d51151606a1b604482015290519081900360640190fd5b6131b387878787876143e7565b6003805460ff60a81b19169055979650505050505050565b6131d361333f565b60085463ffffffff600160201b9091048116908216111561323b576040805162461bcd60e51b815260206004820152601a60248201527f4552525f494e56414c49445f434f4e56455253494f4e5f464545000000000000604482015290519081900360640190fd5b6008546040805163ffffffff600160401b90930483168152918316602083015280517f81cd2ffb37dd237c0e4e2a3de5265fcf9deb43d3e7801e80db9f1ccfba7ee6009281900390910190a16008805463ffffffff909216600160401b026bffffffff000000000000000019909216919091179055565b6132ba61333f565b6000546001600160a01b038281169116141561330e576040805162461bcd60e51b815260206004820152600e60248201526d22a9292fa9a0a6a2afa7aba722a960911b604482015290519081900360640190fd5b600180546001600160a01b0319166001600160a01b0392909216919091179055565b6004546001600160a01b031690565b6000546001600160a01b031633146114dd576040805162461bcd60e51b815260206004820152601160248201527011549497d050d0d154d4d7d11153925151607a1b604482015290519081900360640190fd5b60025460408051632ecd14d360e21b81526004810184905290516000926001600160a01b03169163bb34534c916024808301926020929190829003018186803b1580156133de57600080fd5b505afa1580156133f2573d6000803e3d6000fd5b505050506040513d602081101561340857600080fd5b505192915050565b606080845167ffffffffffffffff8111801561342b57600080fd5b50604051908082528060200260200182016040528015613455578160200160208202803683370190505b50905060005b815181101561354b57836001600160a01b0316638074590a86600760008a868151811061348457fe5b6020908102919091018101516001600160a01b031682528181019290925260409081016000205460085482516001600160e01b031960e088901b1681526004810195909552602485019190915263ffffffff166044840152606483018c905251608480840193829003018186803b1580156134fe57600080fd5b505afa158015613512573d6000803e3d6000fd5b505050506040513d602081101561352857600080fd5b5051825183908390811061353857fe5b602090810291909101015260010161345b565b5095945050505050565b6001600160a01b038116600090815260076020526040902060010154600160301b900460ff1661143b576040805162461bcd60e51b81526020600482015260136024820152724552525f494e56414c49445f5245534552564560681b604482015290519081900360640190fd5b6135ca61542e565b6000600c546135d76146aa565b039050806135fd57505060408051808201909152600a548152600b54602082015261124c565b600060076000600660018154811061361157fe5b60009182526020808320909101546001600160a01b0316835282019290925260400181205460068054919350600791839190829061364b57fe5b60009182526020808320909101546001600160a01b031683528201929092526040019020549050610258831061369657604080518082019091529182526020820152915061124c9050565b61369e61542e565b5060408051808201909152600a548152600b54602082018190526000906136c590856146ae565b82519091506000906136d790856146ae565b905060006136fd6136e884896146ae565b6136f7846102588b90036146ae565b906142cb565b9050600061372461025861371e8888602001516146ae90919063ffffffff16565b906146ae565b905061373e82826c0c9f2c9cd04674edea4000000061470c565b6040805180820190915291825260208201529850505050505050505090565b600354600160a81b900460ff16156114dd576040805162461bcd60e51b815260206004820152600e60248201526d4552525f5245454e5452414e435960901b604482015290519081900360640190fd5b60606137b76140d3565b60006137d26c42616e636f72466f726d756c6160981b613392565b905060006137e08585614113565b905060606137f085898886613410565b905060005b88518110156139ac57600089828151811061380c57fe5b60200260200101519050600083838151811061382457fe5b6020026020010151905089838151811061383a57fe5b602002602001015181101561388f576040805162461bcd60e51b815260206004820152601660248201527511549497d6915493d7d5105491d15517d05353d5539560521b604482015290519081900360640190fd5b6001600160a01b0382166000908152600760205260408120546138b29083614113565b6001600160a01b0384166000818152600760205260409020829055909150600080516020615449833981519152141561391857604051339083156108fc029084906000818181858888f19350505050158015613912573d6000803e3d6000fd5b50613923565b61392383338461473e565b604080518381526020810183905280820188905290516001600160a01b0385169133917fbc7d19d505c7ec4db83f3b51f19fb98c4c8a99922e7839d1ee608dfbee29501b9181900360600190a36001600160a01b0383166000908152600760205260409020600101546139a19087908590849063ffffffff16614314565b5050506001016137f5565b50979650505050505050565b6001600160a01b03811630141561143b576040805162461bcd60e51b815260206004820152601360248201527222a9292fa0a2222922a9a9afa4a9afa9a2a62360691b604482015290519081900360640190fd5b613a1461333f565b82613a1e8161489e565b82613a288161489e565b83613a32816139b8565b611d2686868661473e565b80613a4781613555565b6001600160a01b0382166000805160206154498339815191521415613a86576001600160a01b0382166000908152600760205260409020479055613b12565b604080516370a0823160e01b815230600482015290516001600160a01b038416916370a08231916024808301926020929190829003018186803b158015613acc57600080fd5b505afa158015613ae0573d6000803e3d6000fd5b505050506040513d6020811015613af657600080fd5b50516001600160a01b0383166000908152600760205260409020555b5050565b613b1f81613392565b6001600160a01b0316336001600160a01b03161461143b576040805162461bcd60e51b815260206004820152601160248201527011549497d050d0d154d4d7d11153925151607a1b604482015290519081900360640190fd5b613b8061333f565b613b886148ef565b81613b928161489e565b82613b9c816139b8565b82613ba681614936565b6004546001600160a01b03868116911614801590613be757506001600160a01b038516600090815260076020526040902060010154600160301b900460ff16155b613c2e576040805162461bcd60e51b81526020600482015260136024820152724552525f494e56414c49445f5245534552564560681b604482015290519081900360640190fd5b60085463ffffffff908116620f42400381169085161115613c96576040805162461bcd60e51b815260206004820152601a60248201527f4552525f494e56414c49445f524553455256455f574549474854000000000000604482015290519081900360640190fd5b61ffff613ca16125b0565b61ffff1610613cf3576040805162461bcd60e51b815260206004820152601960248201527811549497d253959053125117d49154d154959157d0d3d55395603a1b604482015290519081900360640190fd5b5050506001600160a01b0390911660008181526007602052604081208181556001908101805466ff0000000000001963ffffffff80881663ffffffff199384161791909116600160301b179092556006805493840181559093527ff652222313e28459528d920b65115c16c04f3efc82aaedc97be59f3f377c0d3f90910180546001600160a01b031916909317909255600880548084169094019092169216919091179055565b613da261143e565b6114dd576040805162461bcd60e51b815260206004820152600c60248201526b4552525f494e41435449564560a01b604482015290519081900360640190fd5b600654835160009182918114613e35576040805162461bcd60e51b81526020600482015260136024820152724552525f494e56414c49445f5245534552564560681b604482015290519081900360640190fd5b84518114613e7f576040805162461bcd60e51b815260206004820152601260248201527111549497d253959053125117d05353d5539560721b604482015290519081900360640190fd5b600092505b808310156140305760076000878581518110613e9c57fe5b60200260200101516001600160a01b03166001600160a01b0316815260200190815260200160002060010160069054906101000a900460ff16613f1c576040805162461bcd60e51b81526020600482015260136024820152724552525f494e56414c49445f5245534552564560681b604482015290519081900360640190fd5b600091505b80821015613f7e57858281518110613f3557fe5b60200260200101516001600160a01b031660068481548110613f5357fe5b6000918252602090912001546001600160a01b03161415613f7357613f7e565b600190910190613f21565b808210613fc8576040805162461bcd60e51b81526020600482015260136024820152724552525f494e56414c49445f5245534552564560681b604482015290519081900360640190fd5b6000858481518110613fd657fe5b602002602001015111614025576040805162461bcd60e51b815260206004820152601260248201527111549497d253959053125117d05353d5539560721b604482015290519081900360640190fd5b600190920191613e84565b60008411611d26576040805162461bcd60e51b815260206004820152600f60248201526e11549497d6915493d7d05353d55395608a1b604482015290519081900360640190fd5b60008161408f5761408884846149a6565b9050612587565b61409a848484614ac5565b949350505050565b6008546000906112f090620f4240906140cd908590600160401b900463ffffffff908116906146ae16565b90614df2565b60065460005b81811015613b125761410b600682815481106140f157fe5b6000918252602090912001546001600160a01b0316613a3d565b6001016140d9565b60008183101561415a576040805162461bcd60e51b815260206004820152600d60248201526c4552525f554e444552464c4f5760981b604482015290519081900360640190fd5b50900390565b604080516001600160a01b0385811660248301528481166044830152606480830185905283518084039091018152608490920183526020820180516001600160e01b03166323b872dd60e01b17815292518251600094606094938a169392918291908083835b602083106141e55780518252601f1990920191602091820191016141c6565b6001836020036101000a0380198251168184511680821785525050505050509050019150506000604051808303816000865af19150503d8060008114614247576040519150601f19603f3d011682016040523d82523d6000602084013e61424c565b606091505b509150915081801561427a57508051158061427a575080806020019051602081101561427757600080fd5b50515b611d26576040805162461bcd60e51b815260206004820152601860248201527f4552525f5452414e534645525f46524f4d5f4641494c45440000000000000000604482015290519081900360640190fd5b600082820183811015612587576040805162461bcd60e51b815260206004820152600c60248201526b4552525f4f564552464c4f5760a01b604482015290519081900360640190fd5b6004546001600160a01b0380851691167f77f29993cf2c084e726f7e802da0719d6a0ade3e204badc7a3ffd57ecb768c2461435285620f42406146ae565b6143658863ffffffff808816906146ae16565b6040805192835260208301919091528051918290030190a350505050565b600161438d6125b0565b61ffff16116143df576040805162461bcd60e51b815260206004820152601960248201527811549497d253959053125117d49154d154959157d0d3d55395603a1b604482015290519081900360640190fd5b6114dd614e51565b60008060006143f7888888612608565b91509150816000141561444a576040805162461bcd60e51b815260206004820152601660248201527511549497d6915493d7d5105491d15517d05353d5539560521b604482015290519081900360640190fd5b61445387612f89565b821061445b57fe5b6001600160a01b03881660008051602061544983398151915214156144cd578534146144c8576040805162461bcd60e51b815260206004820152601760248201527608aa4a4be8aa890be829a9eaa9ca8be9a92a69a82a8869604b1b604482015290519081900360640190fd5b6145a4565b3415801561455e57508561455b6144e38a612f89565b604080516370a0823160e01b815230600482015290516001600160a01b038d16916370a08231916024808301926020929190829003018186803b15801561452957600080fd5b505afa15801561453d573d6000803e3d6000fd5b505050506040513d602081101561455357600080fd5b505190614113565b10155b6145a4576040805162461bcd60e51b815260206004820152601260248201527111549497d253959053125117d05353d5539560721b604482015290519081900360640190fd5b6145ad88613a3d565b6001600160a01b0387166000908152600760205260409020546145d09083614113565b6001600160a01b038816600081815260076020526040902091909155600080516020615449833981519152141561463d576040516001600160a01b0385169083156108fc029084906000818181858888f19350505050158015614637573d6000803e3d6000fd5b50614648565b61464887858461473e565b60095460ff168015614662575061465d6146aa565b600c54105b156146875761466f6135c2565b8051600a5560200151600b556146836146aa565b600c555b614695888887898686614f18565b61469f8888614f81565b509695505050505050565b4290565b6000826146bd575060006112f0565b828202828482816146ca57fe5b0414612587576040805162461bcd60e51b815260206004820152600c60248201526b4552525f4f564552464c4f5760a01b604482015290519081900360640190fd5b6000808285118061471c57508284115b156147355761472c858585615185565b9150915061136b565b50929391925050565b604080516001600160a01b038481166024830152604480830185905283518084039091018152606490920183526020820180516001600160e01b031663a9059cbb60e01b178152925182516000946060949389169392918291908083835b602083106147bb5780518252601f19909201916020918201910161479c565b6001836020036101000a0380198251168184511680821785525050505050509050019150506000604051808303816000865af19150503d806000811461481d576040519150601f19603f3d011682016040523d82523d6000602084013e614822565b606091505b5091509150818015614850575080511580614850575080806020019051602081101561484d57600080fd5b50515b614897576040805162461bcd60e51b815260206004820152601360248201527211549497d514905394d1915497d19052531151606a1b604482015290519081900360640190fd5b5050505050565b6001600160a01b03811661143b576040805162461bcd60e51b81526020600482015260136024820152724552525f494e56414c49445f4144445245535360681b604482015290519081900360640190fd5b6148f761143e565b156114dd576040805162461bcd60e51b815260206004820152600a6024820152694552525f41435449564560b01b604482015290519081900360640190fd5b60008163ffffffff161180156149555750620f424063ffffffff821611155b61143b576040805162461bcd60e51b815260206004820152601a60248201527f4552525f494e56414c49445f524553455256455f574549474854000000000000604482015290519081900360640190fd5b6000806149b2836125b6565b905060005b8451811015614abd5760008582815181106149ce57fe5b6020026020010151905060008583815181106149e657fe5b602002602001015190506000805160206154498339815191526001600160a01b0316826001600160a01b031614614a2357614a2382333084614160565b6001600160a01b0382166000818152600760209081526040918290208490558151848152908101849052808201879052905133917f4a1a2a6176e9646d9e3157f7c2ab3c499f18337c0b0828cfb28e0a61de4a11f7919081900360600190a36001600160a01b038216600090815260076020526040902060010154614ab39085908490849063ffffffff16614314565b50506001016149b7565b509392505050565b6000614acf6140d3565b600080516020615449833981519152600052600760205260008051602061546983398151915254614b009034614113565b6000805160206154498339815191526000908152600760205260008051602061546983398151915291909155614b456c42616e636f72466f726d756c6160981b613392565b90506000614b55828588886151ca565b90506000614b6385836142cb565b905060005b8751811015614de6576000888281518110614b7f57fe5b6020908102919091018101516001600160a01b038082166000908152600784526040808220546008548251631d77642b60e31b8152600481018f90526024810183905263ffffffff9091166044820152606481018b90529151949650949193928a169263ebbb215892608480840193919291829003018186803b158015614c0557600080fd5b505afa158015614c19573d6000803e3d6000fd5b505050506040513d6020811015614c2f57600080fd5b5051905080614c7e576040805162461bcd60e51b815260206004820152601660248201527511549497d6915493d7d5105491d15517d05353d5539560521b604482015290519081900360640190fd5b898481518110614c8a57fe5b6020026020010151811115614c9b57fe5b6001600160a01b03831660008051602061544983398151915214614cca57614cc583333084614160565b614d35565b808a8581518110614cd757fe5b60200260200101511115614d3557336001600160a01b03166108fc828c8781518110614cff57fe5b6020026020010151039081150290604051600060405180830381858888f19350505050158015614d33573d6000803e3d6000fd5b505b6000614d4183836142cb565b6001600160a01b03851660008181526007602090815260409182902084905581518681529081018490528082018a90529051929350909133917f4a1a2a6176e9646d9e3157f7c2ab3c499f18337c0b0828cfb28e0a61de4a11f7919081900360600190a36001600160a01b038416600090815260076020526040902060010154614dd69087908690849063ffffffff16614314565b505060019092019150614b689050565b50909695505050505050565b6000808211614e3d576040805162461bcd60e51b81526020600482015260126024820152714552525f4449564944455f42595f5a45524f60701b604482015290519081900360640190fd5b6000828481614e4857fe5b04949350505050565b614e5961333f565b6000614e636125b0565b61ffff1611614eb5576040805162461bcd60e51b815260206004820152601960248201527811549497d253959053125117d49154d154959157d0d3d55395603a1b604482015290519081900360640190fd5b60048054604080516379ba509760e01b815290516001600160a01b03909216926379ba509792828201926000929082900301818387803b158015614ef857600080fd5b505af1158015614f0c573d6000803e3d6000fd5b505050506114dd6140d3565b600160ff1b8110614f2557fe5b604080518481526020810184905280820183905290516001600160a01b038087169288821692918a16917f276856b36cbc45526a0ba64f44611557a2a8b68662c5388e9fe6d72e86e1c8cb9181900360600190a4505050505050565b6000600460009054906101000a90046001600160a01b03166001600160a01b03166318160ddd6040518163ffffffff1660e01b815260040160206040518083038186803b158015614fd157600080fd5b505afa158015614fe5573d6000803e3d6000fd5b505050506040513d6020811015614ffb57600080fd5b50519050600061500a84612f89565b9050600061501784612f89565b6001600160a01b038087166000908152600760205260408082206001908101549389168352908220015492935063ffffffff9182169282169161505e90859085906146ae16565b905060006150758663ffffffff808616906146ae16565b604080518481526020810183905281519293506001600160a01b03808c1693908d16927f77f29993cf2c084e726f7e802da0719d6a0ade3e204badc7a3ffd57ecb768c24928290030190a36150cc878a8887614314565b6150d887898786614314565b604080518881526020810188905263ffffffff86168183015290516001600160a01b038b16917f8a6a7f53b3c8fa1dc4b83e3f1be668c1b251ff8d44cdcb83eb3acec3fec6a788919081900360600190a2604080518881526020810187905263ffffffff85168183015290516001600160a01b038a16917f8a6a7f53b3c8fa1dc4b83e3f1be668c1b251ff8d44cdcb83eb3acec3fec6a788919081900360600190a2505050505050505050565b6000808385141561519c575050600281048061136b565b838510156151af5761472c858585615390565b6000806151bd868887615390565b9890975095505050505050565b60008060015b84518110156152975761523a600760008784815181106151ec57fe5b60200260200101516001600160a01b03166001600160a01b031681526020019081526020016000206000015485848151811061522457fe5b60200260200101516146ae90919063ffffffff16565b6152856007600088868151811061524d57fe5b60200260200101516001600160a01b03166001600160a01b031681526020019081526020016000206000015486848151811061522457fe5b101561528f578091505b6001016151d0565b50856001600160a01b0316632f55bdb586600760008886815181106152b857fe5b60200260200101516001600160a01b03166001600160a01b0316815260200190815260200160002060000154600860009054906101000a900463ffffffff1687868151811061530357fe5b60200260200101516040518563ffffffff1660e01b8152600401808581526020018481526020018363ffffffff16815260200182815260200194505050505060206040518083038186803b15801561535a57600080fd5b505afa15801561536e573d6000803e3d6000fd5b505050506040513d602081101561538457600080fd5b50519695505050505050565b600080600083600019816153a057fe5b049050808611156153d95760008160010187816153b957fe5b0460010190508087816153c857fe5b0496508086816153d457fe5b049550505b60006153f08786026153eb89896142cb565b612913565b9794889003965093945050505050565b6040805160a08101825260008082526020820181905291810182905260608101829052608081019190915290565b60405180604001604052806000815260200160008152509056fe000000000000000000000000eeeeeeeeeeeeeeeeeeeeeeeeeeeeeeeeeeeeeeeeb2084a3e4595ccf007fb44245853374aaf0de960074375e8e0fb334712e94d0ea2646970667358221220dc4c1eb48a73c448bec71e9e69e5d49a32f99ae3d43ede630d3172fc61af9d7764736f6c634300060c0033",
  "immutableReferences": {},
  "source": "// SPDX-License-Identifier: SEE LICENSE IN LICENSE\r\npragma solidity 0.6.12;\r\nimport \"../../LiquidityPoolConverter.sol\";\r\nimport \"../../../token/interfaces/ISmartToken.sol\";\r\nimport \"../../../utility/Types.sol\";\r\n\r\n/**\r\n  * @dev Liquidity Pool v1 Converter\r\n  *\r\n  * The liquidity pool v1 converter is a specialized version of a converter that manages\r\n  * a classic bancor liquidity pool.\r\n  *\r\n  * Even though pools can have many reserves, the standard pool configuration\r\n  * is 2 reserves with 50%/50% weights.\r\n*/\r\ncontract LiquidityPoolV1Converter is LiquidityPoolConverter {\r\n    IEtherToken internal etherToken = IEtherToken(0xc0829421C1d260BD3cB3E0F06cfE2D52db2cE315);\r\n    uint256 internal constant MAX_RATE_FACTOR_LOWER_BOUND = 1e30;\r\n    \r\n    // the period of time taken into account when calculating the recent averate rate\r\n    uint256 private constant AVERAGE_RATE_PERIOD = 10 minutes;\r\n\r\n    // true if the pool is a 2 reserves / 50%/50% weights pool, false otherwise\r\n    bool public isStandardPool = false;\r\n\r\n    // only used in standard pools\r\n    Fraction public prevAverageRate;          // average rate after the previous conversion (1 reserve token 0 in reserve token 1 units)\r\n    uint256 public prevAverageRateUpdateTime; // last time when the previous rate was updated (in seconds)\r\n\r\n    /**\r\n      * @dev triggered after a conversion with new price data\r\n      * deprecated, use `TokenRateUpdate` from version 28 and up\r\n      *\r\n      * @param  _connectorToken     reserve token\r\n      * @param  _tokenSupply        smart token supply\r\n      * @param  _connectorBalance   reserve balance\r\n      * @param  _connectorWeight    reserve weight\r\n    */\r\n    event PriceDataUpdate(\r\n        IERC20Token indexed _connectorToken,\r\n        uint256 _tokenSupply,\r\n        uint256 _connectorBalance,\r\n        uint32 _connectorWeight\r\n    );\r\n\r\n    /**\r\n      * @dev initializes a new LiquidityPoolV1Converter instance\r\n      *\r\n      * @param  _token              pool token governed by the converter\r\n      * @param  _registry           address of a contract registry contract\r\n      * @param  _maxConversionFee   maximum conversion fee, represented in ppm\r\n    */\r\n    constructor(\r\n        ISmartToken _token,\r\n        IContractRegistry _registry,\r\n        uint32 _maxConversionFee\r\n    )\r\n        LiquidityPoolConverter(_token, _registry, _maxConversionFee)\r\n        public\r\n    {\r\n    }\r\n\r\n    /**\r\n      * @dev returns the converter type\r\n      *\r\n      * @return see the converter types in the the main contract doc\r\n    */\r\n    function converterType() public pure override returns (uint16) {\r\n        return 1;\r\n    }\r\n\r\n    /**\r\n      * @dev accepts ownership of the anchor after an ownership transfer\r\n      * also activates the converter\r\n      * can only be called by the contract owner\r\n      * note that prior to version 28, you should use 'acceptTokenOwnership' instead\r\n    */\r\n    function acceptAnchorOwnership() public override ownerOnly {\r\n        super.acceptAnchorOwnership();\r\n\r\n        emit Activation(converterType(), anchor, true);\r\n    }\r\n\r\n    /**\r\n      * @dev defines a new reserve token for the converter\r\n      * can only be called by the owner while the converter is inactive\r\n      *\r\n      * @param _token   address of the reserve token\r\n      * @param _weight  reserve weight, represented in ppm, 1-1000000\r\n    */\r\n    function addReserve(IERC20Token _token, uint32 _weight) public override ownerOnly {\r\n        super.addReserve(_token, _weight);\r\n\r\n        isStandardPool =\r\n            reserveTokens.length == 2 &&\r\n            reserves[reserveTokens[0]].weight == 500000 &&\r\n            reserves[reserveTokens[1]].weight == 500000;\r\n    }\r\n\r\n    /**\r\n      * @dev returns the expected target amount of converting one reserve to another along with the fee\r\n      *\r\n      * @param _sourceToken contract address of the source reserve token\r\n      * @param _targetToken contract address of the target reserve token\r\n      * @param _amount      amount of tokens received from the user\r\n      *\r\n      * @return expected target amount\r\n      * @return expected fee\r\n    */\r\n    function targetAmountAndFee(IERC20Token _sourceToken, IERC20Token _targetToken, uint256 _amount)\r\n        public\r\n        view\r\n        override\r\n        active\r\n        validReserve(_sourceToken)\r\n        validReserve(_targetToken)\r\n        returns (uint256, uint256)\r\n    {\r\n        // validate input\r\n        require(_sourceToken != _targetToken, \"ERR_SAME_SOURCE_TARGET\");\r\n\r\n        uint256 amount = IBancorFormula(addressOf(BANCOR_FORMULA)).crossReserveTargetAmount(\r\n            reserveBalance(_sourceToken),\r\n            reserves[_sourceToken].weight,\r\n            reserveBalance(_targetToken),\r\n            reserves[_targetToken].weight,\r\n            _amount\r\n        );\r\n\r\n        // return the amount minus the conversion fee and the conversion fee\r\n        uint256 fee = calculateFee(amount);\r\n        return (amount - fee, fee);\r\n    }\r\n\r\n    /**\r\n      * @dev converts a specific amount of source tokens to target tokens\r\n      * can only be called by the bancor network contract\r\n      *\r\n      * @param _sourceToken source ERC20 token\r\n      * @param _targetToken target ERC20 token\r\n      * @param _amount      amount of tokens to convert (in units of the source token)\r\n      * @param _trader      address of the caller who executed the conversion\r\n      * @param _beneficiary wallet to receive the conversion result\r\n      *\r\n      * @return amount of tokens received (in units of the target token)\r\n    */\r\n    function doConvert(IERC20Token _sourceToken, IERC20Token _targetToken, uint256 _amount, address _trader, address payable _beneficiary)\r\n        internal\r\n        override\r\n        returns (uint256)\r\n    {\r\n        // get expected target amount and fee\r\n        (uint256 amount, uint256 fee) = targetAmountAndFee(_sourceToken, _targetToken, _amount);\r\n\r\n        // ensure that the trade gives something in return\r\n        require(amount != 0, \"ERR_ZERO_TARGET_AMOUNT\");\r\n\r\n        // ensure that the trade won't deplete the reserve balance\r\n        assert(amount < reserveBalance(_targetToken));\r\n\r\n        // ensure that the input amount was already deposited\r\n        if (_sourceToken == ETH_RESERVE_ADDRESS)\r\n            require(msg.value == _amount, \"ERR_ETH_AMOUNT_MISMATCH\");\r\n        else\r\n            require(msg.value == 0 && _sourceToken.balanceOf(address(this)).sub(reserveBalance(_sourceToken)) >= _amount, \"ERR_INVALID_AMOUNT\");\r\n\r\n        // sync the reserve balances\r\n        syncReserveBalance(_sourceToken);\r\n        reserves[_targetToken].balance = reserves[_targetToken].balance.sub(amount);\r\n\r\n        // transfer funds to the beneficiary in the to reserve token\r\n        if (_targetToken == ETH_RESERVE_ADDRESS)\r\n            _beneficiary.transfer(amount);\r\n        else\r\n            safeTransfer(_targetToken, _beneficiary, amount);\r\n\r\n        // update the recent average rate\r\n        if (isStandardPool && prevAverageRateUpdateTime < time()) {\r\n            prevAverageRate = recentAverageRate();\r\n            prevAverageRateUpdateTime = time();\r\n        }\r\n\r\n        // dispatch the conversion event\r\n        dispatchConversionEvent(_sourceToken, _targetToken, _trader, _amount, amount, fee);\r\n\r\n        // dispatch rate updates\r\n        dispatchTokenRateUpdateEvents(_sourceToken, _targetToken);\r\n\r\n        return amount;\r\n    }\r\n\r\n    /**\r\n      * @dev returns the recent average rate of 1 `_token` in the other reserve token units\r\n      * note that the rate can only be queried for reserves in a standard pool\r\n      *\r\n      * @param _token   token to get the rate for\r\n      * @return recent average rate between the reserves (numerator)\r\n      * @return recent average rate between the reserves (denominator)\r\n    */\r\n    function recentAverageRate(IERC20Token _token) external view returns (uint256, uint256) {\r\n        // verify that the pool is standard\r\n        require(isStandardPool, \"ERR_NON_STANDARD_POOL\");\r\n\r\n        // get the recent average rate of reserve 0\r\n        Fraction memory rate = recentAverageRate();\r\n        if (_token == reserveTokens[0]) {\r\n            return (rate.n, rate.d);\r\n        }\r\n\r\n        return (rate.d, rate.n);\r\n    }\r\n\r\n    /**\r\n      * @dev returns the recent average rate of 1 reserve token 0 in reserve token 1 units\r\n      *\r\n      * @return recent average rate between the reserves\r\n    */\r\n    function recentAverageRate() internal view returns (Fraction memory) {\r\n        // get the elapsed time since the previous average rate was calculated\r\n        uint256 timeElapsed = time() - prevAverageRateUpdateTime;\r\n\r\n        // if the previous average rate was calculated in the current block, return it\r\n        if (timeElapsed == 0) {\r\n            return prevAverageRate;\r\n        }\r\n\r\n        // get the current rate between the reserves\r\n        uint256 currentRateN = reserves[reserveTokens[1]].balance;\r\n        uint256 currentRateD = reserves[reserveTokens[0]].balance;\r\n\r\n        // if the previous average rate was calculated a while ago, the average rate is equal to the current rate\r\n        if (timeElapsed >= AVERAGE_RATE_PERIOD) {\r\n            return Fraction({ n: currentRateN, d: currentRateD });\r\n        }\r\n\r\n        // given N as the sampling window, the new rate is calculated according to the following formula:\r\n        // newRate = prevAverageRate + timeElapsed * [currentRate - prevAverageRate] / N\r\n\r\n        // calculate the numerator and the denumerator of the new rate\r\n        Fraction memory prevAverage = prevAverageRate;\r\n\r\n        uint256 x = prevAverage.d.mul(currentRateN);\r\n        uint256 y = prevAverage.n.mul(currentRateD);\r\n\r\n        // since we know that timeElapsed < AVERAGE_RATE_PERIOD, we can avoid using SafeMath:\r\n        uint256 newRateN = y.mul(AVERAGE_RATE_PERIOD - timeElapsed).add(x.mul(timeElapsed));\r\n        uint256 newRateD = prevAverage.d.mul(currentRateD).mul(AVERAGE_RATE_PERIOD);\r\n\r\n        (newRateN, newRateD) = reducedRatio(newRateN, newRateD, MAX_RATE_FACTOR_LOWER_BOUND);\r\n        return Fraction({ n: newRateN, d: newRateD });\r\n    }\r\n\r\n    /**\r\n      * @dev increases the pool's liquidity and mints new shares in the pool to the caller\r\n      * note that prior to version 28, you should use 'fund' instead\r\n      *\r\n      * @param _reserveTokens   address of each reserve token\r\n      * @param _reserveAmounts  amount of each reserve token\r\n      * @param _minReturn       token minimum return-amount\r\n      *\r\n      * @return amount of pool tokens issued\r\n    */\r\n    function addLiquidity(IERC20Token[] memory _reserveTokens, uint256[] memory _reserveAmounts, uint256 _minReturn)\r\n        public\r\n        payable\r\n        protected\r\n        active\r\n        returns (uint256)\r\n    {\r\n        // verify the user input\r\n        verifyLiquidityInput(_reserveTokens, _reserveAmounts, _minReturn);\r\n\r\n        // if one of the reserves is ETH, then verify that the input amount of ETH is equal to the input value of ETH\r\n        for (uint256 i = 0; i < _reserveTokens.length; i++)\r\n            if (_reserveTokens[i] == ETH_RESERVE_ADDRESS)\r\n                require(_reserveAmounts[i] == msg.value, \"ERR_ETH_AMOUNT_MISMATCH\");\r\n\r\n        // if the input value of ETH is larger than zero, then verify that one of the reserves is ETH\r\n        if (msg.value > 0) {\r\n            require(reserves[ETH_RESERVE_ADDRESS].isSet, \"ERR_NO_ETH_RESERVE\");\r\n        }\r\n\r\n        // get the total supply\r\n        uint256 totalSupply = ISmartToken(address(anchor)).totalSupply();\r\n\r\n        // transfer from the user an equally-worth amount of each one of the reserve tokens\r\n        uint256 amount = addLiquidityToPool(_reserveTokens, _reserveAmounts, totalSupply);\r\n\r\n        // verify that the equivalent amount of tokens is equal to or larger than the user's expectation\r\n        require(amount >= _minReturn, \"ERR_RETURN_TOO_LOW\");\r\n\r\n        // issue the tokens to the user\r\n        ISmartToken(address(anchor)).issue(msg.sender, amount);\r\n\r\n        // return the amount of pool tokens issued\r\n        return amount;\r\n    }\r\n\r\n    /**\r\n      * @dev decreases the pool's liquidity and burns the caller's shares in the pool\r\n      * note that prior to version 28, you should use 'liquidate' instead\r\n      *\r\n      * @param _amount                  token amount\r\n      * @param _reserveTokens           address of each reserve token\r\n      * @param _reserveMinReturnAmounts minimum return-amount of each reserve token\r\n      *\r\n      * @return the amount of each reserve token granted for the given amount of pool tokens\r\n    */\r\n    function removeLiquidity(uint256 _amount, IERC20Token[] memory _reserveTokens, uint256[] memory _reserveMinReturnAmounts)\r\n        public\r\n        protected\r\n        active\r\n        returns (uint256[] memory)\r\n    {\r\n        // verify the user input\r\n        verifyLiquidityInput(_reserveTokens, _reserveMinReturnAmounts, _amount);\r\n\r\n        // get the total supply BEFORE destroying the user tokens\r\n        uint256 totalSupply = ISmartToken(address(anchor)).totalSupply();\r\n\r\n        // destroy the user tokens\r\n        ISmartToken(address(anchor)).destroy(msg.sender, _amount);\r\n\r\n        // transfer to the user an equivalent amount of each one of the reserve tokens\r\n        return removeLiquidityFromPool(_reserveTokens, _reserveMinReturnAmounts, totalSupply, _amount);\r\n    }\r\n\r\n    /**\r\n      * @dev increases the pool's liquidity and mints new shares in the pool to the caller\r\n      * for example, if the caller increases the supply by 10%,\r\n      * then it will cost an amount equal to 10% of each reserve token balance\r\n      * note that starting from version 28, you should use 'addLiquidity' instead\r\n      *\r\n      * @param _amount  amount to increase the supply by (in the pool token)\r\n      *\r\n      * @return amount of pool tokens issued\r\n    */\r\n    function fund(uint256 _amount)\r\n        public\r\n        payable\r\n        protected\r\n        returns (uint256)\r\n    {\r\n        syncReserveBalances();\r\n        reserves[ETH_RESERVE_ADDRESS].balance = reserves[ETH_RESERVE_ADDRESS].balance.sub(msg.value);\r\n\r\n        uint256 supply = ISmartToken(address(anchor)).totalSupply();\r\n        IBancorFormula formula = IBancorFormula(addressOf(BANCOR_FORMULA));\r\n\r\n        // iterate through the reserve tokens and transfer a percentage equal to the weight between\r\n        // _amount and the total supply in each reserve from the caller to the converter\r\n        uint256 reserveCount = reserveTokens.length;\r\n        for (uint256 i = 0; i < reserveCount; i++) {\r\n            IERC20Token reserveToken = reserveTokens[i];\r\n            uint256 rsvBalance = reserves[reserveToken].balance;\r\n            uint256 reserveAmount = formula.fundCost(supply, rsvBalance, reserveRatio, _amount);\r\n\r\n            // transfer funds from the caller in the reserve token\r\n            if (reserveToken == ETH_RESERVE_ADDRESS) {\r\n                if (msg.value > reserveAmount) {\r\n                    msg.sender.transfer(msg.value - reserveAmount);\r\n                }\r\n                else if (msg.value < reserveAmount) {\r\n                    require(msg.value == 0, \"ERR_INVALID_ETH_VALUE\");\r\n                    safeTransferFrom(etherToken, msg.sender, address(this), reserveAmount);\r\n                    etherToken.withdraw(reserveAmount);\r\n                }\r\n            }\r\n            else {\r\n                safeTransferFrom(reserveToken, msg.sender, address(this), reserveAmount);\r\n            }\r\n\r\n            // sync the reserve balance\r\n            uint256 newReserveBalance = rsvBalance.add(reserveAmount);\r\n            reserves[reserveToken].balance = newReserveBalance;\r\n\r\n            uint256 newPoolTokenSupply = supply.add(_amount);\r\n\r\n            // dispatch liquidity update for the pool token/reserve\r\n            emit LiquidityAdded(msg.sender, reserveToken, reserveAmount, newReserveBalance, newPoolTokenSupply);\r\n\r\n            // dispatch the `TokenRateUpdate` event for the pool token\r\n            dispatchPoolTokenRateUpdateEvent(newPoolTokenSupply, reserveToken, newReserveBalance, reserves[reserveToken].weight);\r\n        }\r\n\r\n        // issue new funds to the caller in the pool token\r\n        ISmartToken(address(anchor)).issue(msg.sender, _amount);\r\n\r\n        // return the amount of pool tokens issued\r\n        return _amount;\r\n    }\r\n\r\n    /**\r\n      * @dev decreases the pool's liquidity and burns the caller's shares in the pool\r\n      * for example, if the holder sells 10% of the supply,\r\n      * then they will receive 10% of each reserve token balance in return\r\n      * note that starting from version 28, you should use 'removeLiquidity' instead\r\n      *\r\n      * @param _amount  amount to liquidate (in the pool token)\r\n      *\r\n      * @return the amount of each reserve token granted for the given amount of pool tokens\r\n    */\r\n    function liquidate(uint256 _amount)\r\n        public\r\n        protected\r\n        returns (uint256[] memory)\r\n    {\r\n        require(_amount > 0, \"ERR_ZERO_AMOUNT\");\r\n\r\n        uint256 totalSupply = ISmartToken(address(anchor)).totalSupply();\r\n        ISmartToken(address(anchor)).destroy(msg.sender, _amount);\r\n\r\n        uint256[] memory reserveMinReturnAmounts = new uint256[](reserveTokens.length);\r\n        for (uint256 i = 0; i < reserveMinReturnAmounts.length; i++)\r\n            reserveMinReturnAmounts[i] = 1;\r\n\r\n        return removeLiquidityFromPool(reserveTokens, reserveMinReturnAmounts, totalSupply, _amount);\r\n    }\r\n\r\n    /**\r\n      * @dev given the amount of one of the reserve tokens to add liquidity of,\r\n      * returns the required amount of each one of the other reserve tokens\r\n      * since an empty pool can be funded with any list of non-zero input amounts,\r\n      * this function assumes that the pool is not empty (has already been funded)\r\n      *\r\n      * @param _reserveTokens       address of each reserve token\r\n      * @param _reserveTokenIndex   index of the relevant reserve token\r\n      * @param _reserveAmount       amount of the relevant reserve token\r\n      *\r\n      * @return the required amount of each one of the reserve tokens\r\n    */\r\n    function addLiquidityCost(IERC20Token[] memory _reserveTokens, uint256 _reserveTokenIndex, uint256 _reserveAmount)\r\n        public\r\n        view\r\n        returns (uint256[] memory)\r\n    {\r\n        uint256[] memory reserveAmounts = new uint256[](_reserveTokens.length);\r\n\r\n        uint256 totalSupply = ISmartToken(address(anchor)).totalSupply();\r\n        IBancorFormula formula = IBancorFormula(addressOf(BANCOR_FORMULA));\r\n        uint256 amount = formula.fundSupplyAmount(totalSupply, reserves[_reserveTokens[_reserveTokenIndex]].balance, reserveRatio, _reserveAmount);\r\n\r\n        for (uint256 i = 0; i < reserveAmounts.length; i++)\r\n            reserveAmounts[i] = formula.fundCost(totalSupply, reserves[_reserveTokens[i]].balance, reserveRatio, amount);\r\n\r\n        return reserveAmounts;\r\n    }\r\n\r\n    /**\r\n      * @dev given the amount of one of the reserve tokens to add liquidity of,\r\n      * returns the amount of pool tokens entitled for it\r\n      * since an empty pool can be funded with any list of non-zero input amounts,\r\n      * this function assumes that the pool is not empty (has already been funded)\r\n      *\r\n      * @param _reserveToken    address of the reserve token\r\n      * @param _reserveAmount   amount of the reserve token\r\n      *\r\n      * @return the amount of pool tokens entitled\r\n    */\r\n    function addLiquidityReturn(IERC20Token _reserveToken, uint256 _reserveAmount)\r\n        public\r\n        view\r\n        returns (uint256)\r\n    {\r\n        uint256 totalSupply = ISmartToken(address(anchor)).totalSupply();\r\n        IBancorFormula formula = IBancorFormula(addressOf(BANCOR_FORMULA));\r\n        return formula.fundSupplyAmount(totalSupply, reserves[_reserveToken].balance, reserveRatio, _reserveAmount);\r\n    }\r\n\r\n    /**\r\n      * @dev returns the amount of each reserve token entitled for a given amount of pool tokens\r\n      *\r\n      * @param _amount          amount of pool tokens\r\n      * @param _reserveTokens   address of each reserve token\r\n      *\r\n      * @return the amount of each reserve token entitled for the given amount of pool tokens\r\n    */\r\n    function removeLiquidityReturn(uint256 _amount, IERC20Token[] memory _reserveTokens)\r\n        public\r\n        view\r\n        returns (uint256[] memory)\r\n    {\r\n        uint256 totalSupply = ISmartToken(address(anchor)).totalSupply();\r\n        IBancorFormula formula = IBancorFormula(addressOf(BANCOR_FORMULA));\r\n        return removeLiquidityReserveAmounts(_amount, _reserveTokens, totalSupply, formula);\r\n    }\r\n\r\n    /**\r\n      * @dev verifies that a given array of tokens is identical to the converter's array of reserve tokens\r\n      * we take this input in order to allow specifying the corresponding reserve amounts in any order\r\n      *\r\n      * @param _reserveTokens   array of reserve tokens\r\n      * @param _reserveAmounts  array of reserve amounts\r\n      * @param _amount          token amount\r\n    */\r\n    function verifyLiquidityInput(IERC20Token[] memory _reserveTokens, uint256[] memory _reserveAmounts, uint256 _amount)\r\n        private\r\n        view\r\n    {\r\n        uint256 i;\r\n        uint256 j;\r\n\r\n        uint256 length = reserveTokens.length;\r\n        require(length == _reserveTokens.length, \"ERR_INVALID_RESERVE\");\r\n        require(length == _reserveAmounts.length, \"ERR_INVALID_AMOUNT\");\r\n\r\n        for (i = 0; i < length; i++) {\r\n            // verify that every input reserve token is included in the reserve tokens\r\n            require(reserves[_reserveTokens[i]].isSet, \"ERR_INVALID_RESERVE\");\r\n            for (j = 0; j < length; j++) {\r\n                if (reserveTokens[i] == _reserveTokens[j])\r\n                    break;\r\n            }\r\n            // verify that every reserve token is included in the input reserve tokens\r\n            require(j < length, \"ERR_INVALID_RESERVE\");\r\n            // verify that every input reserve token amount is larger than zero\r\n            require(_reserveAmounts[i] > 0, \"ERR_INVALID_AMOUNT\");\r\n        }\r\n\r\n        // verify that the input token amount is larger than zero\r\n        require(_amount > 0, \"ERR_ZERO_AMOUNT\");\r\n    }\r\n\r\n    /**\r\n      * @dev adds liquidity (reserve) to the pool\r\n      *\r\n      * @param _reserveTokens   address of each reserve token\r\n      * @param _reserveAmounts  amount of each reserve token\r\n      * @param _totalSupply     token total supply\r\n      *\r\n      * @return amount of pool tokens issued\r\n    */\r\n    function addLiquidityToPool(IERC20Token[] memory _reserveTokens, uint256[] memory _reserveAmounts, uint256 _totalSupply)\r\n        private\r\n        returns (uint256)\r\n    {\r\n        if (_totalSupply == 0)\r\n            return addLiquidityToEmptyPool(_reserveTokens, _reserveAmounts);\r\n        return addLiquidityToNonEmptyPool(_reserveTokens, _reserveAmounts, _totalSupply);\r\n    }\r\n\r\n    /**\r\n      * @dev adds liquidity (reserve) to the pool when it's empty\r\n      *\r\n      * @param _reserveTokens   address of each reserve token\r\n      * @param _reserveAmounts  amount of each reserve token\r\n      *\r\n      * @return amount of pool tokens issued\r\n    */\r\n    function addLiquidityToEmptyPool(IERC20Token[] memory _reserveTokens, uint256[] memory _reserveAmounts)\r\n        private\r\n        returns (uint256)\r\n    {\r\n        // calculate the geometric-mean of the reserve amounts approved by the user\r\n        uint256 amount = geometricMean(_reserveAmounts);\r\n\r\n        // transfer each one of the reserve amounts from the user to the pool\r\n        for (uint256 i = 0; i < _reserveTokens.length; i++) {\r\n            IERC20Token reserveToken = _reserveTokens[i];\r\n            uint256 reserveAmount = _reserveAmounts[i];\r\n\r\n            if (reserveToken != ETH_RESERVE_ADDRESS) // ETH has already been transferred as part of the transaction\r\n                safeTransferFrom(reserveToken, msg.sender, address(this), reserveAmount);\r\n\r\n            reserves[reserveToken].balance = reserveAmount;\r\n\r\n            emit LiquidityAdded(msg.sender, reserveToken, reserveAmount, reserveAmount, amount);\r\n\r\n            // dispatch the `TokenRateUpdate` event for the pool token\r\n            dispatchPoolTokenRateUpdateEvent(amount, reserveToken, reserveAmount, reserves[reserveToken].weight);\r\n        }\r\n\r\n        // return the amount of pool tokens issued\r\n        return amount;\r\n    }\r\n\r\n    /**\r\n      * @dev adds liquidity (reserve) to the pool when it's not empty\r\n      *\r\n      * @param _reserveTokens   address of each reserve token\r\n      * @param _reserveAmounts  amount of each reserve token\r\n      * @param _totalSupply     token total supply\r\n      *\r\n      * @return amount of pool tokens issued\r\n    */\r\n    function addLiquidityToNonEmptyPool(IERC20Token[] memory _reserveTokens, uint256[] memory _reserveAmounts, uint256 _totalSupply)\r\n        private\r\n        returns (uint256)\r\n    {\r\n        syncReserveBalances();\r\n        reserves[ETH_RESERVE_ADDRESS].balance = reserves[ETH_RESERVE_ADDRESS].balance.sub(msg.value);\r\n\r\n        IBancorFormula formula = IBancorFormula(addressOf(BANCOR_FORMULA));\r\n        uint256 amount = getMinShare(formula, _totalSupply, _reserveTokens, _reserveAmounts);\r\n        uint256 newPoolTokenSupply = _totalSupply.add(amount);\r\n\r\n        for (uint256 i = 0; i < _reserveTokens.length; i++) {\r\n            IERC20Token reserveToken = _reserveTokens[i];\r\n            uint256 rsvBalance = reserves[reserveToken].balance;\r\n            uint256 reserveAmount = formula.fundCost(_totalSupply, rsvBalance, reserveRatio, amount);\r\n            require(reserveAmount > 0, \"ERR_ZERO_TARGET_AMOUNT\");\r\n            assert(reserveAmount <= _reserveAmounts[i]);\r\n\r\n            // transfer each one of the reserve amounts from the user to the pool\r\n            if (reserveToken != ETH_RESERVE_ADDRESS) // ETH has already been transferred as part of the transaction\r\n                safeTransferFrom(reserveToken, msg.sender, address(this), reserveAmount);\r\n            else if (_reserveAmounts[i] > reserveAmount) // transfer the extra amount of ETH back to the user\r\n                msg.sender.transfer(_reserveAmounts[i] - reserveAmount);\r\n\r\n            uint256 newReserveBalance = rsvBalance.add(reserveAmount);\r\n            reserves[reserveToken].balance = newReserveBalance;\r\n\r\n            emit LiquidityAdded(msg.sender, reserveToken, reserveAmount, newReserveBalance, newPoolTokenSupply);\r\n\r\n            // dispatch the `TokenRateUpdate` event for the pool token\r\n            dispatchPoolTokenRateUpdateEvent(newPoolTokenSupply, reserveToken, newReserveBalance, reserves[reserveToken].weight);\r\n        }\r\n\r\n        // return the amount of pool tokens issued\r\n        return amount;\r\n    }\r\n\r\n    /**\r\n      * @dev returns the amount of each reserve token entitled for a given amount of pool tokens\r\n      *\r\n      * @param _amount          amount of pool tokens\r\n      * @param _reserveTokens   address of each reserve token\r\n      * @param _totalSupply     token total supply\r\n      * @param _formula         formula contract\r\n      *\r\n      * @return the amount of each reserve token entitled for the given amount of pool tokens\r\n    */\r\n    function removeLiquidityReserveAmounts(uint256 _amount, IERC20Token[] memory _reserveTokens, uint256 _totalSupply, IBancorFormula _formula)\r\n        private\r\n        view\r\n        returns (uint256[] memory)\r\n    {\r\n        uint256[] memory reserveAmounts = new uint256[](_reserveTokens.length);\r\n        for (uint256 i = 0; i < reserveAmounts.length; i++)\r\n            reserveAmounts[i] = _formula.liquidateReserveAmount(_totalSupply, reserves[_reserveTokens[i]].balance, reserveRatio, _amount);\r\n        return reserveAmounts;\r\n    }\r\n\r\n    /**\r\n      * @dev removes liquidity (reserve) from the pool\r\n      *\r\n      * @param _reserveTokens           address of each reserve token\r\n      * @param _reserveMinReturnAmounts minimum return-amount of each reserve token\r\n      * @param _totalSupply             token total supply\r\n      * @param _amount                  token amount\r\n      *\r\n      * @return the amount of each reserve token granted for the given amount of pool tokens\r\n    */\r\n    function removeLiquidityFromPool(IERC20Token[] memory _reserveTokens, uint256[] memory _reserveMinReturnAmounts, uint256 _totalSupply, uint256 _amount)\r\n        private\r\n        returns (uint256[] memory)\r\n    {\r\n        syncReserveBalances();\r\n\r\n        IBancorFormula formula = IBancorFormula(addressOf(BANCOR_FORMULA));\r\n        uint256 newPoolTokenSupply = _totalSupply.sub(_amount);\r\n        uint256[] memory reserveAmounts = removeLiquidityReserveAmounts(_amount, _reserveTokens, _totalSupply, formula);\r\n\r\n        for (uint256 i = 0; i < _reserveTokens.length; i++) {\r\n            IERC20Token reserveToken = _reserveTokens[i];\r\n            uint256 reserveAmount = reserveAmounts[i];\r\n            require(reserveAmount >= _reserveMinReturnAmounts[i], \"ERR_ZERO_TARGET_AMOUNT\");\r\n\r\n            uint256 newReserveBalance = reserves[reserveToken].balance.sub(reserveAmount);\r\n            reserves[reserveToken].balance = newReserveBalance;\r\n\r\n            // transfer each one of the reserve amounts from the pool to the user\r\n            if (reserveToken == ETH_RESERVE_ADDRESS)\r\n                msg.sender.transfer(reserveAmount);\r\n            else\r\n                safeTransfer(reserveToken, msg.sender, reserveAmount);\r\n\r\n            emit LiquidityRemoved(msg.sender, reserveToken, reserveAmount, newReserveBalance, newPoolTokenSupply);\r\n\r\n            // dispatch the `TokenRateUpdate` event for the pool token\r\n            dispatchPoolTokenRateUpdateEvent(newPoolTokenSupply, reserveToken, newReserveBalance, reserves[reserveToken].weight);\r\n        }\r\n\r\n        // return the amount of each reserve token granted for the given amount of pool tokens\r\n        return reserveAmounts;\r\n    }\r\n\r\n    function getMinShare(IBancorFormula formula, uint256 _totalSupply, IERC20Token[] memory _reserveTokens, uint256[] memory _reserveAmounts) private view returns (uint256) {\r\n        uint256 minIndex = 0;\r\n        for (uint256 i = 1; i < _reserveTokens.length; i++) {\r\n            if (_reserveAmounts[i].mul(reserves[_reserveTokens[minIndex]].balance) < _reserveAmounts[minIndex].mul(reserves[_reserveTokens[i]].balance))\r\n                minIndex = i;\r\n        }\r\n        return formula.fundSupplyAmount(_totalSupply, reserves[_reserveTokens[minIndex]].balance, reserveRatio, _reserveAmounts[minIndex]);\r\n    }\r\n\r\n    /**\r\n      * @dev returns the number of decimal digits in a given value\r\n      *\r\n      * @param _x   value (assumed positive)\r\n      *\r\n      * @return the number of decimal digits in the given value\r\n    */\r\n    function decimalLength(uint256 _x) public pure returns (uint256) {\r\n        uint256 y = 0;\r\n        for (uint256 x = _x; x > 0; x /= 10)\r\n            y++;\r\n        return y;\r\n    }\r\n\r\n    /**\r\n      * @dev returns the nearest integer to a given quotient\r\n      *\r\n      * @param _n   quotient numerator\r\n      * @param _d   quotient denominator\r\n      *\r\n      * @return the nearest integer to the given quotient\r\n    */\r\n    function roundDiv(uint256 _n, uint256 _d) public pure returns (uint256) {\r\n        return (_n + _d / 2) / _d;\r\n    }\r\n\r\n    /**\r\n      * @dev returns the average number of decimal digits in a given list of values\r\n      *\r\n      * @param _values  list of values (each of which assumed positive)\r\n      *\r\n      * @return the average number of decimal digits in the given list of values\r\n    */\r\n    function geometricMean(uint256[] memory _values) public pure returns (uint256) {\r\n        uint256 numOfDigits = 0;\r\n        uint256 length = _values.length;\r\n        for (uint256 i = 0; i < length; i++)\r\n            numOfDigits += decimalLength(_values[i]);\r\n        return uint256(10) ** (roundDiv(numOfDigits, length) - 1);\r\n    }\r\n\r\n    /**\r\n      * @dev dispatches token rate update events for the reserve tokens and the pool token\r\n      *\r\n      * @param _sourceToken address of the source reserve token\r\n      * @param _targetToken address of the target reserve token\r\n    */\r\n    function dispatchTokenRateUpdateEvents(IERC20Token _sourceToken, IERC20Token _targetToken) private {\r\n        uint256 poolTokenSupply = ISmartToken(address(anchor)).totalSupply();\r\n        uint256 sourceReserveBalance = reserveBalance(_sourceToken);\r\n        uint256 targetReserveBalance = reserveBalance(_targetToken);\r\n        uint32 sourceReserveWeight = reserves[_sourceToken].weight;\r\n        uint32 targetReserveWeight = reserves[_targetToken].weight;\r\n\r\n        // dispatch token rate update event for the reserve tokens\r\n        uint256 rateN = targetReserveBalance.mul(sourceReserveWeight);\r\n        uint256 rateD = sourceReserveBalance.mul(targetReserveWeight);\r\n        emit TokenRateUpdate(_sourceToken, _targetToken, rateN, rateD);\r\n\r\n        // dispatch token rate update events for the pool token\r\n        dispatchPoolTokenRateUpdateEvent(poolTokenSupply, _sourceToken, sourceReserveBalance, sourceReserveWeight);\r\n        dispatchPoolTokenRateUpdateEvent(poolTokenSupply, _targetToken, targetReserveBalance, targetReserveWeight);\r\n\r\n        // dispatch price data update events (deprecated events)\r\n        emit PriceDataUpdate(_sourceToken, poolTokenSupply, sourceReserveBalance, sourceReserveWeight);\r\n        emit PriceDataUpdate(_targetToken, poolTokenSupply, targetReserveBalance, targetReserveWeight);\r\n    }\r\n\r\n    /**\r\n      * @dev dispatches token rate update event for the pool token\r\n      *\r\n      * @param _poolTokenSupply total pool token supply\r\n      * @param _reserveToken    address of the reserve token\r\n      * @param _reserveBalance  reserve balance\r\n      * @param _reserveWeight   reserve weight\r\n    */\r\n    function dispatchPoolTokenRateUpdateEvent(uint256 _poolTokenSupply, IERC20Token _reserveToken, uint256 _reserveBalance, uint32 _reserveWeight) private {\r\n        emit TokenRateUpdate(ISmartToken(address(anchor)), _reserveToken, _reserveBalance.mul(PPM_RESOLUTION), _poolTokenSupply.mul(_reserveWeight));\r\n    }\r\n\r\n    /**\r\n      * @dev returns the current time\r\n      * utility to allow overrides for tests\r\n    */\r\n    function time() internal view virtual returns (uint256) {\r\n        return now;\r\n    }\r\n\r\n    /**\r\n      * @dev computes a reduced-scalar ratio\r\n      *\r\n      * @param _n   ratio numerator\r\n      * @param _d   ratio denominator\r\n      * @param _max maximum desired scalar\r\n      *\r\n      * @return ratio's numerator and denominator\r\n    */\r\n    function reducedRatio(uint256 _n, uint256 _d, uint256 _max) internal pure returns (uint256, uint256) {\r\n        if (_n > _max || _d > _max)\r\n            return normalizedRatio(_n, _d, _max);\r\n        return (_n, _d);\r\n    }\r\n\r\n    /**\r\n      * @dev computes \"scale * a / (a + b)\" and \"scale * b / (a + b)\".\r\n    */\r\n    function normalizedRatio(uint256 _a, uint256 _b, uint256 _scale) internal pure returns (uint256, uint256) {\r\n        if (_a == _b)\r\n            return (_scale / 2, _scale / 2);\r\n        if (_a < _b)\r\n            return accurateRatio(_a, _b, _scale);\r\n        (uint256 y, uint256 x) = accurateRatio(_b, _a, _scale);\r\n        return (x, y);\r\n    }\r\n\r\n    /**\r\n      * @dev computes \"scale * a / (a + b)\" and \"scale * b / (a + b)\", assuming that \"a < b\".\r\n    */\r\n    function accurateRatio(uint256 _a, uint256 _b, uint256 _scale) internal pure returns (uint256, uint256) {\r\n        uint256 maxVal = uint256(-1) / _scale;\r\n        if (_a > maxVal) {\r\n            uint256 c = _a / (maxVal + 1) + 1;\r\n            _a /= c;\r\n            _b /= c;\r\n        }\r\n        uint256 x = roundDiv(_a * _scale, _a.add(_b));\r\n        uint256 y = _scale - x;\r\n        return (x, y);\r\n    }\r\n}\r\n",
  "sourcePath": "/home/lash/src/ext/cic/grassrootseconomics/bancor-contracts/solidity/contracts/converter/types/liquidity-pool-v1/LiquidityPoolV1Converter.sol",
  "compiler": {
    "name": "solc",
    "version": "0.6.12+commit.27d51765.Emscripten.clang"
  },
  "schemaVersion": "3.2.3",
  "updatedAt": "2020-11-10T14:20:35.927Z",
  "devdoc": {
    "details": "Liquidity Pool v1 Converter The liquidity pool v1 converter is a specialized version of a converter that manages a classic bancor liquidity pool. Even though pools can have many reserves, the standard pool configuration is 2 reserves with 50%/50% weights.",
    "events": {
      "PriceDataUpdate(address,uint256,uint256,uint32)": {
        "details": "triggered after a conversion with new price data deprecated, use `TokenRateUpdate` from version 28 and up",
        "params": {
          "_connectorBalance": "reserve balance",
          "_connectorToken": "reserve token",
          "_connectorWeight": "reserve weight",
          "_tokenSupply": "smart token supply"
        }
      }
    },
    "kind": "dev",
    "methods": {
      "acceptAnchorOwnership()": {
        "details": "accepts ownership of the anchor after an ownership transfer also activates the converter can only be called by the contract owner note that prior to version 28, you should use 'acceptTokenOwnership' instead"
      },
      "acceptOwnership()": {
        "details": "used by a new owner to accept an ownership transfer"
      },
      "acceptTokenOwnership()": {
        "details": "deprecated, backward compatibility"
      },
      "addLiquidity(address[],uint256[],uint256)": {
        "details": "increases the pool's liquidity and mints new shares in the pool to the caller note that prior to version 28, you should use 'fund' instead",
        "params": {
          "_minReturn": "token minimum return-amount",
          "_reserveAmounts": "amount of each reserve token",
          "_reserveTokens": "address of each reserve token"
        },
        "returns": {
          "_0": "amount of pool tokens issued"
        }
      },
      "addLiquidityCost(address[],uint256,uint256)": {
        "details": "given the amount of one of the reserve tokens to add liquidity of, returns the required amount of each one of the other reserve tokens since an empty pool can be funded with any list of non-zero input amounts, this function assumes that the pool is not empty (has already been funded)",
        "params": {
          "_reserveAmount": "amount of the relevant reserve token",
          "_reserveTokenIndex": "index of the relevant reserve token",
          "_reserveTokens": "address of each reserve token"
        },
        "returns": {
          "_0": "the required amount of each one of the reserve tokens"
        }
      },
      "addLiquidityReturn(address,uint256)": {
        "details": "given the amount of one of the reserve tokens to add liquidity of, returns the amount of pool tokens entitled for it since an empty pool can be funded with any list of non-zero input amounts, this function assumes that the pool is not empty (has already been funded)",
        "params": {
          "_reserveAmount": "amount of the reserve token",
          "_reserveToken": "address of the reserve token"
        },
        "returns": {
          "_0": "the amount of pool tokens entitled"
        }
      },
      "addReserve(address,uint32)": {
        "details": "defines a new reserve token for the converter can only be called by the owner while the converter is inactive",
        "params": {
          "_token": "address of the reserve token",
          "_weight": "reserve weight, represented in ppm, 1-1000000"
        }
      },
      "connectorTokenCount()": {
        "details": "deprecated, backward compatibility"
      },
      "connectorTokens(uint256)": {
        "details": "deprecated, backward compatibility"
      },
      "connectors(address)": {
        "details": "deprecated, backward compatibility"
      },
      "constructor": {
        "details": "initializes a new LiquidityPoolV1Converter instance",
        "params": {
          "_maxConversionFee": "maximum conversion fee, represented in ppm",
          "_registry": "address of a contract registry contract",
          "_token": "pool token governed by the converter"
        }
      },
      "convert(address,address,uint256,address,address)": {
        "details": "converts a specific amount of source tokens to target tokens can only be called by the bancor network contract",
        "params": {
          "_amount": "amount of tokens to convert (in units of the source token)",
          "_beneficiary": "wallet to receive the conversion result",
          "_sourceToken": "source ERC20 token",
          "_targetToken": "target ERC20 token",
          "_trader": "address of the caller who executed the conversion"
        },
        "returns": {
          "_0": "amount of tokens received (in units of the target token)"
        }
      },
      "converterType()": {
        "details": "returns the converter type",
        "returns": {
          "_0": "see the converter types in the the main contract doc"
        }
      },
      "decimalLength(uint256)": {
        "details": "returns the number of decimal digits in a given value",
        "params": {
          "_x": "value (assumed positive)"
        },
        "returns": {
          "_0": "the number of decimal digits in the given value"
        }
      },
      "fund(uint256)": {
        "details": "increases the pool's liquidity and mints new shares in the pool to the caller for example, if the caller increases the supply by 10%, then it will cost an amount equal to 10% of each reserve token balance note that starting from version 28, you should use 'addLiquidity' instead",
        "params": {
          "_amount": "amount to increase the supply by (in the pool token)"
        },
        "returns": {
          "_0": "amount of pool tokens issued"
        }
      },
      "geometricMean(uint256[])": {
        "details": "returns the average number of decimal digits in a given list of values",
        "params": {
          "_values": "list of values (each of which assumed positive)"
        },
        "returns": {
          "_0": "the average number of decimal digits in the given list of values"
        }
      },
      "getConnectorBalance(address)": {
        "details": "deprecated, backward compatibility"
      },
      "getReturn(address,address,uint256)": {
        "details": "deprecated, backward compatibility"
      },
      "hasETHReserve()": {
        "details": "checks whether or not the converter has an ETH reserve",
        "returns": {
          "_0": "true if the converter has an ETH reserve, false otherwise"
        }
      },
      "isActive()": {
        "details": "returns true if the converter is active, false otherwise",
        "returns": {
          "_0": "true if the converter is active, false otherwise"
        }
      },
      "isV28OrHigher()": {
        "details": "checks whether or not the converter version is 28 or higher",
        "returns": {
          "_0": "true, since the converter version is 28 or higher"
        }
      },
      "liquidate(uint256)": {
        "details": "decreases the pool's liquidity and burns the caller's shares in the pool for example, if the holder sells 10% of the supply, then they will receive 10% of each reserve token balance in return note that starting from version 28, you should use 'removeLiquidity' instead",
        "params": {
          "_amount": "amount to liquidate (in the pool token)"
        },
        "returns": {
          "_0": "the amount of each reserve token granted for the given amount of pool tokens"
        }
      },
      "recentAverageRate(address)": {
        "details": "returns the recent average rate of 1 `_token` in the other reserve token units note that the rate can only be queried for reserves in a standard pool",
        "params": {
          "_token": "token to get the rate for"
        },
        "returns": {
          "_0": "recent average rate between the reserves (numerator)",
          "_1": "recent average rate between the reserves (denominator)"
        }
      },
      "removeLiquidity(uint256,address[],uint256[])": {
        "details": "decreases the pool's liquidity and burns the caller's shares in the pool note that prior to version 28, you should use 'liquidate' instead",
        "params": {
          "_amount": "token amount",
          "_reserveMinReturnAmounts": "minimum return-amount of each reserve token",
          "_reserveTokens": "address of each reserve token"
        },
        "returns": {
          "_0": "the amount of each reserve token granted for the given amount of pool tokens"
        }
      },
      "removeLiquidityReturn(uint256,address[])": {
        "details": "returns the amount of each reserve token entitled for a given amount of pool tokens",
        "params": {
          "_amount": "amount of pool tokens",
          "_reserveTokens": "address of each reserve token"
        },
        "returns": {
          "_0": "the amount of each reserve token entitled for the given amount of pool tokens"
        }
      },
      "reserveBalance(address)": {
        "details": "returns the reserve's balance note that prior to version 17, you should use 'getConnectorBalance' instead",
        "params": {
          "_reserveToken": "reserve token contract address"
        },
        "returns": {
          "_0": "reserve balance"
        }
      },
      "reserveTokenCount()": {
        "details": "returns the number of reserve tokens defined note that prior to version 17, you should use 'connectorTokenCount' instead",
        "returns": {
          "_0": "number of reserve tokens"
        }
      },
      "reserveWeight(address)": {
        "details": "returns the reserve's weight added in version 28",
        "params": {
          "_reserveToken": "reserve token contract address"
        },
        "returns": {
          "_0": "reserve weight"
        }
      },
      "restoreRegistry()": {
        "details": "restores the previous contract-registry"
      },
      "restrictRegistryUpdate(bool)": {
        "details": "restricts the permission to update the contract-registry",
        "params": {
          "_onlyOwnerCanUpdateRegistry": "indicates whether or not permission is restricted to owner only"
        }
      },
      "roundDiv(uint256,uint256)": {
        "details": "returns the nearest integer to a given quotient",
        "params": {
          "_d": "quotient denominator",
          "_n": "quotient numerator"
        },
        "returns": {
          "_0": "the nearest integer to the given quotient"
        }
      },
      "setConversionFee(uint32)": {
        "details": "updates the current conversion fee can only be called by the contract owner",
        "params": {
          "_conversionFee": "new conversion fee, represented in ppm"
        }
      },
      "setConversionWhitelist(address)": {
        "details": "allows the owner to update & enable the conversion whitelist contract address when set, only addresses that are whitelisted are actually allowed to use the converter note that the whitelist check is actually done by the BancorNetwork contract",
        "params": {
          "_whitelist": "address of a whitelist contract"
        }
      },
      "targetAmountAndFee(address,address,uint256)": {
        "details": "returns the expected target amount of converting one reserve to another along with the fee",
        "params": {
          "_amount": "amount of tokens received from the user",
          "_sourceToken": "contract address of the source reserve token",
          "_targetToken": "contract address of the target reserve token"
        },
        "returns": {
          "_0": "expected target amount",
          "_1": "expected fee"
        }
      },
      "token()": {
        "details": "deprecated since version 28, backward compatibility - use only for earlier versions"
      },
      "transferAnchorOwnership(address)": {
        "details": "transfers the anchor ownership the new owner needs to accept the transfer can only be called by the converter upgrder while the upgrader is the owner note that prior to version 28, you should use 'transferAnchorOwnership' instead",
        "params": {
          "_newOwner": "new token owner"
        }
      },
      "transferOwnership(address)": {
        "details": "allows transferring the contract ownership the new owner still needs to accept the transfer can only be called by the contract owner",
        "params": {
          "_newOwner": "new contract owner"
        }
      },
      "transferTokenOwnership(address)": {
        "details": "deprecated, backward compatibility"
      },
      "updateRegistry()": {
        "details": "updates to the new contract-registry"
      },
      "upgrade()": {
        "details": "upgrades the converter to the latest version can only be called by the owner note that the owner needs to call acceptOwnership on the new converter after the upgrade"
      },
      "withdrawETH(address)": {
        "details": "withdraws ether can only be called by the owner if the converter is inactive or by upgrader contract can only be called after the upgrader contract has accepted the ownership of this contract can only be called if the converter has an ETH reserve",
        "params": {
          "_to": "address to send the ETH to"
        }
      },
      "withdrawFromAnchor(address,address,uint256)": {
        "details": "withdraws tokens held by the anchor and sends them to an account can only be called by the owner",
        "params": {
          "_amount": "amount to withdraw",
          "_to": "account to receive the new amount",
          "_token": "ERC20 token contract address"
        }
      },
      "withdrawTokens(address,address,uint256)": {
        "details": "withdraws tokens held by the converter and sends them to an account can only be called by the owner note that reserve tokens can only be withdrawn by the owner while the converter is inactive unless the owner is the converter upgrader contract",
        "params": {
          "_amount": "amount to withdraw",
          "_to": "account to receive the new amount",
          "_token": "ERC20 token contract address"
        }
      }
    },
    "version": 1
  },
  "userdoc": {
    "kind": "user",
    "methods": {},
    "version": 1
  }
}