{
  "contractName": "LiquidTokenConverterFactory",
  "abi": [
    {
      "inputs": [],
      "name": "converterType",
      "outputs": [
        {
          "internalType": "uint16",
          "name": "",
          "type": "uint16"
        }
      ],
      "stateMutability": "pure",
      "type": "function",
      "constant": true
    },
    {
      "inputs": [
        {
          "internalType": "contract IConverterAnchor",
          "name": "_anchor",
          "type": "address"
        },
        {
          "internalType": "contract IContractRegistry",
          "name": "_registry",
          "type": "address"
        },
        {
          "internalType": "uint32",
          "name": "_maxConversionFee",
          "type": "uint32"
        }
      ],
      "name": "createConverter",
      "outputs": [
        {
          "internalType": "contract IConverter",
          "name": "",
          "type": "address"
        }
      ],
      "stateMutability": "nonpayable",
      "type": "function"
    }
  ],
  "bytecode": "0x608060405234801561001057600080fd5b506133a7806100206000396000f3fe608060405234801561001057600080fd5b50600436106100365760003560e01c8063114139581461003b5780633e8ff43f14610094575b600080fd5b6100786004803603606081101561005157600080fd5b5080356001600160a01b03908116916020810135909116906040013563ffffffff166100b3565b604080516001600160a01b039092168252519081900360200190f35b61009c610184565b6040805161ffff9092168252519081900360200190f35b6000808484846040516100c590610189565b80846001600160a01b03168152602001836001600160a01b031681526020018263ffffffff1681526020019350505050604051809103906000f080158015610111573d6000803e3d6000fd5b509050806001600160a01b031663f2fde38b336040518263ffffffff1660e01b815260040180826001600160a01b03168152602001915050600060405180830381600087803b15801561016357600080fd5b505af1158015610177573d6000803e3d6000fd5b5092979650505050505050565b600090565b6131db806101978339019056fe60806040526003805460ff60a81b19169055600880546001600160601b03191690553480156200002e57600080fd5b50604051620031db380380620031db833981810160405260608110156200005457600080fd5b5080516020820151604090920151600080546001600160a01b03191633179055909190828282818062000087816200011e565b50600280546001600160a01b039092166001600160a01b031992831681179091556003805490921617905582620000be816200011e565b81620000ca816200017d565b5050600480546001600160a01b039094166001600160a01b031990941693909317909255506008805463ffffffff9092166401000000000263ffffffff60201b1990921691909117905550620001dc915050565b6001600160a01b0381166200017a576040805162461bcd60e51b815260206004820152601360248201527f4552525f494e56414c49445f4144445245535300000000000000000000000000604482015290519081900360640190fd5b50565b620f424063ffffffff821611156200017a576040805162461bcd60e51b815260206004820152601a60248201527f4552525f494e56414c49445f434f4e56455253494f4e5f464545000000000000604482015290519081900360640190fd5b612fef80620001ec6000396000f3fe6080604052600436106102765760003560e01c806371f52bf31161014f578063d031370b116100c1578063d89595121161007a578063d8959512146108e7578063dc8de3791461092c578063e8dc12ff1461095f578063ecbca55d146109a5578063f2fde38b146109d5578063fc0c546a14610a085761030d565b8063d031370b14610836578063d260529c14610860578063d3fb73b414610875578063d4ee1d901461088a578063d55ec6971461089f578063d66bd524146108b45761030d565b80639b99a8e2116101135780639b99a8e21461078a578063af94b8d81461079f578063b4a176d3146107e2578063bf754558146107f7578063c45d3d921461080c578063cdc91c69146108215761030d565b806371f52bf31461072157806379ba5097146107365780637b1039991461074b5780638da5cb5b1461076057806394c275ad146107755761030d565b8063395900d4116101e8578063579cd3ca116101ac578063579cd3ca1461060f5780635e35359e1461062457806361cd756e1461066757806367b6d57c1461067c578063690d8320146106af5780636a49d2c4146106e25761030d565b8063395900d4146105435780633e8ff43f1461058657806349d10b64146105b25780634af80f0e146105c757806354fd4d50146105fa5761030d565b80631cfab2901161023a5780631cfab290146104425780631e1401f81461047557806321e6b53d146104d157806322f3e2d4146105045780632fe8a6ad1461051957806338a5e0161461052e5761030d565b8063024c7ec7146103125780630c7d5cd81461033e5780630e53aae91461036c57806312c2aca4146103d357806319b64015146103fc5761030d565b3661030d5773eeeeeeeeeeeeeeeeeeeeeeeeeeeeeeeeeeeeeeee60005260076020527fb2084a3e4595ccf007fb44245853374aaf0de960074375e8e0fb334712e94d0f54600160301b900460ff1661030b576040805162461bcd60e51b81526020600482015260136024820152724552525f494e56414c49445f5245534552564560681b604482015290519081900360640190fd5b005b600080fd5b34801561031e57600080fd5b5061030b6004803603602081101561033557600080fd5b50351515610a1d565b34801561034a57600080fd5b50610353610a43565b6040805163ffffffff9092168252519081900360200190f35b34801561037857600080fd5b5061039f6004803603602081101561038f57600080fd5b50356001600160a01b0316610a4f565b6040805195865263ffffffff9094166020860152911515848401521515606084015215156080830152519081900360a00190f35b3480156103df57600080fd5b506103e8610ae7565b604080519115158252519081900360200190f35b34801561040857600080fd5b506104266004803603602081101561041f57600080fd5b5035610b33565b604080516001600160a01b039092168252519081900360200190f35b34801561044e57600080fd5b506103536004803603602081101561046557600080fd5b50356001600160a01b0316610b5d565b34801561048157600080fd5b506104b86004803603606081101561049857600080fd5b506001600160a01b03813581169160208101359091169060400135610b8f565b6040805192835260208301919091528051918290030190f35b3480156104dd57600080fd5b5061030b600480360360208110156104f457600080fd5b50356001600160a01b0316610baa565b34801561051057600080fd5b506103e8610bbe565b34801561052557600080fd5b506103e8610c3d565b34801561053a57600080fd5b5061030b610c4d565b34801561054f57600080fd5b5061030b6004803603606081101561056657600080fd5b506001600160a01b03813581169160208101359091169060400135610c5f565b34801561059257600080fd5b5061059b610ce5565b6040805161ffff9092168252519081900360200190f35b3480156105be57600080fd5b5061030b610cea565b3480156105d357600080fd5b5061030b600480360360208110156105ea57600080fd5b50356001600160a01b0316610ef2565b34801561060657600080fd5b5061059b610f27565b34801561061b57600080fd5b50610353610f2c565b34801561063057600080fd5b5061030b6004803603606081101561064757600080fd5b506001600160a01b03813581169160208101359091169060400135610f3f565b34801561067357600080fd5b50610426611070565b34801561068857600080fd5b5061030b6004803603602081101561069f57600080fd5b50356001600160a01b031661107f565b3480156106bb57600080fd5b5061030b600480360360208110156106d257600080fd5b50356001600160a01b031661112b565b3480156106ee57600080fd5b5061030b6004803603604081101561070557600080fd5b5080356001600160a01b0316906020013563ffffffff1661125e565b34801561072d57600080fd5b5061059b6112ce565b34801561074257600080fd5b5061030b6112dd565b34801561075757600080fd5b50610426611394565b34801561076c57600080fd5b506104266113a3565b34801561078157600080fd5b506103536113b2565b34801561079657600080fd5b5061059b6113c6565b3480156107ab57600080fd5b506104b8600480360360608110156107c257600080fd5b506001600160a01b038135811691602081013590911690604001356113cc565b3480156107ee57600080fd5b5061030b6114b5565b34801561080357600080fd5b506103e86114e1565b34801561081857600080fd5b506104266114e6565b34801561082d57600080fd5b5061030b6114f5565b34801561084257600080fd5b506104266004803603602081101561085957600080fd5b503561154e565b34801561086c57600080fd5b506103e8611575565b34801561088157600080fd5b5061042661157a565b34801561089657600080fd5b50610426611589565b3480156108ab57600080fd5b5061030b611598565b3480156108c057600080fd5b5061039f600480360360208110156108d757600080fd5b50356001600160a01b0316611680565b3480156108f357600080fd5b5061091a6004803603602081101561090a57600080fd5b50356001600160a01b03166116c3565b60408051918252519081900360200190f35b34801561093857600080fd5b5061091a6004803603602081101561094f57600080fd5b50356001600160a01b03166116d4565b61091a600480360360a081101561097557600080fd5b506001600160a01b03813581169160208101358216916040820135916060810135821691608090910135166116fd565b3480156109b157600080fd5b5061030b600480360360208110156109c857600080fd5b503563ffffffff1661190d565b3480156109e157600080fd5b5061030b600480360360208110156109f857600080fd5b50356001600160a01b03166119f5565b348015610a1457600080fd5b50610426611a73565b610a25611a82565b60038054911515600160a01b0260ff60a01b19909216919091179055565b60085463ffffffff1681565b6000806000806000610a5f612f8b565b505050506001600160a01b03929092166000908152600760209081526040808320815160a081018352815480825260019092015463ffffffff811694820185905260ff64010000000082048116151594830194909452650100000000008104841615156060830152600160301b90049092161515608090920182905295919450919250829190565b73eeeeeeeeeeeeeeeeeeeeeeeeeeeeeeeeeeeeeeee60005260076020527fb2084a3e4595ccf007fb44245853374aaf0de960074375e8e0fb334712e94d0f54600160301b900460ff1690565b600060068281548110610b4257fe5b6000918252602090912001546001600160a01b031692915050565b600081610b6981611ad5565b50506001600160a01b031660009081526007602052604090206001015463ffffffff1690565b600080610b9d8585856113cc565b915091505b935093915050565b610bb2611a82565b610bbb8161107f565b50565b6004805460408051638da5cb5b60e01b8152905160009330936001600160a01b031692638da5cb5b9281830192602092829003018186803b158015610c0257600080fd5b505afa158015610c16573d6000803e3d6000fd5b505050506040513d6020811015610c2c57600080fd5b50516001600160a01b031614905090565b600354600160a01b900460ff1681565b610c55611a82565b610c5d6114f5565b565b610c67611a82565b6004805460408051632f1a9acf60e11b81526001600160a01b038781169482019490945285841660248201526044810185905290519290911691635e35359e9160648082019260009290919082900301818387803b158015610cc857600080fd5b505af1158015610cdc573d6000803e3d6000fd5b50505050505050565b600090565b6000546001600160a01b0316331480610d0d5750600354600160a01b900460ff16155b610d52576040805162461bcd60e51b815260206004820152601160248201527011549497d050d0d154d4d7d11153925151607a1b604482015290519081900360640190fd5b6000610d706f436f6e7472616374526567697374727960801b611b42565b6002549091506001600160a01b03808316911614801590610d9957506001600160a01b03811615155b610de1576040805162461bcd60e51b81526020600482015260146024820152734552525f494e56414c49445f524547495354525960601b604482015290519081900360640190fd5b60006001600160a01b0316816001600160a01b031663bb34534c6f436f6e7472616374526567697374727960801b6040518263ffffffff1660e01b81526004018082815260200191505060206040518083038186803b158015610e4357600080fd5b505afa158015610e57573d6000803e3d6000fd5b505050506040513d6020811015610e6d57600080fd5b50516001600160a01b03161415610ec2576040805162461bcd60e51b81526020600482015260146024820152734552525f494e56414c49445f524547495354525960601b604482015290519081900360640190fd5b60028054600380546001600160a01b038084166001600160a01b0319928316179092559091169216919091179055565b610efa611a82565b80610f0481611bc0565b50600580546001600160a01b0319166001600160a01b0392909216919091179055565b602781565b600854600160401b900463ffffffff1681565b610f47611c14565b6003805460ff60a81b1916600160a81b179055610f62611a82565b6000610f87762130b731b7b921b7b73b32b93a32b92ab833b930b232b960491b611b42565b6001600160a01b038516600090815260076020526040902060010154909150600160301b900460ff161580610fc15750610fbf610bbe565b155b80610fd957506000546001600160a01b038281169116145b61101e576040805162461bcd60e51b815260206004820152601160248201527011549497d050d0d154d4d7d11153925151607a1b604482015290519081900360640190fd5b611029848484611c64565b6001600160a01b038416600090815260076020526040902060010154600160301b900460ff161561105d5761105d84611c95565b50506003805460ff60a81b191690555050565b6003546001600160a01b031681565b611087611a82565b762130b731b7b921b7b73b32b93a32b92ab833b930b232b960491b6110ab81611d73565b600460009054906101000a90046001600160a01b03166001600160a01b031663f2fde38b836040518263ffffffff1660e01b815260040180826001600160a01b03168152602001915050600060405180830381600087803b15801561110f57600080fd5b505af1158015611123573d6000803e3d6000fd5b505050505050565b611133611c14565b6003805460ff60a81b1916600160a81b17905561114e611a82565b73eeeeeeeeeeeeeeeeeeeeeeeeeeeeeeeeeeeeeeee61116c81611ad5565b6000611191762130b731b7b921b7b73b32b93a32b92ab833b930b232b960491b611b42565b905061119b610bbe565b15806111b457506000546001600160a01b038281169116145b6111f9576040805162461bcd60e51b815260206004820152601160248201527011549497d050d0d154d4d7d11153925151607a1b604482015290519081900360640190fd5b6040516001600160a01b038416904780156108fc02916000818181858888f1935050505015801561122e573d6000803e3d6000fd5b5061124c73eeeeeeeeeeeeeeeeeeeeeeeeeeeeeeeeeeeeeeee611c95565b50506003805460ff60a81b1916905550565b611266611a82565b61126e6113c6565b61ffff16156112c0576040805162461bcd60e51b815260206004820152601960248201527811549497d253959053125117d49154d154959157d0d3d55395603a1b604482015290519081900360640190fd5b6112ca8282611dd5565b5050565b60006112d86113c6565b905090565b6001546001600160a01b03163314611330576040805162461bcd60e51b815260206004820152601160248201527011549497d050d0d154d4d7d11153925151607a1b604482015290519081900360640190fd5b600154600080546040516001600160a01b0393841693909116917f343765429aea5a34b3ff6a3785a98a5abb2597aca87bfbb58632c173d585373a91a360018054600080546001600160a01b03199081166001600160a01b03841617909155169055565b6002546001600160a01b031681565b6000546001600160a01b031681565b600854640100000000900463ffffffff1681565b60065490565b60045460009081906001600160a01b03858116911614801561141057506001600160a01b038516600090815260076020526040902060010154600160301b900460ff165b156114275761141e83611ff7565b91509150610ba2565b6004546001600160a01b03868116911614801561146657506001600160a01b038416600090815260076020526040902060010154600160301b900460ff165b156114745761141e836121e9565b6040805162461bcd60e51b815260206004820152601160248201527022a9292fa4a72b20a624a22faa27a5a2a760791b604482015290519081900360640190fd5b6114bd611a82565b600354600280546001600160a01b0319166001600160a01b03909216919091179055565b600181565b6005546001600160a01b031681565b6114fd611a82565b6115056122dd565b6004546001906001600160a01b031661151c610ce5565b61ffff167f6b08c2e2c9969e55a647a764db9b554d64dc42f1a704da11a6d5b129ad163f2c60405160405180910390a4565b6006818154811061155b57fe5b6000918252602090912001546001600160a01b0316905081565b600190565b6004546001600160a01b031681565b6001546001600160a01b031681565b6115a0611a82565b60006115c5762130b731b7b921b7b73b32b93a32b92ab833b930b232b960491b611b42565b6004549091506000906001600160a01b03166115df610ce5565b61ffff167f6b08c2e2c9969e55a647a764db9b554d64dc42f1a704da11a6d5b129ad163f2c60405160405180910390a4611618816119f5565b6040805163487ac64b60e11b81526027600482015290516001600160a01b038316916390f58c9691602480830192600092919082900301818387803b15801561166057600080fd5b505af1158015611674573d6000803e3d6000fd5b50505050610bbb6112dd565b6007602052600090815260409020805460019091015463ffffffff81169060ff6401000000008204811691650100000000008104821691600160301b9091041685565b60006116ce826116d4565b92915050565b6000816116e081611ad5565b50506001600160a01b031660009081526007602052604090205490565b6000611707611c14565b6003805460ff60a81b1916600160a81b1790556c42616e636f724e6574776f726b60981b61173481611d73565b856001600160a01b0316876001600160a01b03161415611794576040805162461bcd60e51b815260206004820152601660248201527511549497d4d0535157d4d3d55490d157d5105491d15560521b604482015290519081900360640190fd5b6005546001600160a01b031615806118a1575060055460408051633af32abf60e01b81526001600160a01b03878116600483015291519190921691633af32abf916024808301926020929190829003018186803b1580156117f457600080fd5b505afa158015611808573d6000803e3d6000fd5b505050506040513d602081101561181e57600080fd5b505180156118a1575060055460408051633af32abf60e01b81526001600160a01b03868116600483015291519190921691633af32abf916024808301926020929190829003018186803b15801561187457600080fd5b505afa158015611888573d6000803e3d6000fd5b505050506040513d602081101561189e57600080fd5b50515b6118e8576040805162461bcd60e51b815260206004820152601360248201527211549497d393d517d5d2125511531254d51151606a1b604482015290519081900360640190fd5b6118f587878787876123a4565b6003805460ff60a81b19169055979650505050505050565b611915611a82565b60085463ffffffff6401000000009091048116908216111561197e576040805162461bcd60e51b815260206004820152601a60248201527f4552525f494e56414c49445f434f4e56455253494f4e5f464545000000000000604482015290519081900360640190fd5b6008546040805163ffffffff600160401b90930483168152918316602083015280517f81cd2ffb37dd237c0e4e2a3de5265fcf9deb43d3e7801e80db9f1ccfba7ee6009281900390910190a16008805463ffffffff909216600160401b026bffffffff000000000000000019909216919091179055565b6119fd611a82565b6000546001600160a01b0382811691161415611a51576040805162461bcd60e51b815260206004820152600e60248201526d22a9292fa9a0a6a2afa7aba722a960911b604482015290519081900360640190fd5b600180546001600160a01b0319166001600160a01b0392909216919091179055565b6004546001600160a01b031690565b6000546001600160a01b03163314610c5d576040805162461bcd60e51b815260206004820152601160248201527011549497d050d0d154d4d7d11153925151607a1b604482015290519081900360640190fd5b6001600160a01b038116600090815260076020526040902060010154600160301b900460ff16610bbb576040805162461bcd60e51b81526020600482015260136024820152724552525f494e56414c49445f5245534552564560681b604482015290519081900360640190fd5b60025460408051632ecd14d360e21b81526004810184905290516000926001600160a01b03169163bb34534c916024808301926020929190829003018186803b158015611b8e57600080fd5b505afa158015611ba2573d6000803e3d6000fd5b505050506040513d6020811015611bb857600080fd5b505192915050565b6001600160a01b038116301415610bbb576040805162461bcd60e51b815260206004820152601360248201527222a9292fa0a2222922a9a9afa4a9afa9a2a62360691b604482015290519081900360640190fd5b600354600160a81b900460ff1615610c5d576040805162461bcd60e51b815260206004820152600e60248201526d4552525f5245454e5452414e435960901b604482015290519081900360640190fd5b611c6c611a82565b82611c768161256d565b82611c808161256d565b83611c8a81611bc0565b6111238686866125be565b80611c9f81611ad5565b6001600160a01b03821673eeeeeeeeeeeeeeeeeeeeeeeeeeeeeeeeeeeeeeee1415611ce4576001600160a01b03821660009081526007602052604090204790556112ca565b604080516370a0823160e01b815230600482015290516001600160a01b038416916370a08231916024808301926020929190829003018186803b158015611d2a57600080fd5b505afa158015611d3e573d6000803e3d6000fd5b505050506040513d6020811015611d5457600080fd5b50516001600160a01b0383166000908152600760205260409020555050565b611d7c81611b42565b6001600160a01b0316336001600160a01b031614610bbb576040805162461bcd60e51b815260206004820152601160248201527011549497d050d0d154d4d7d11153925151607a1b604482015290519081900360640190fd5b611ddd611a82565b611de561271e565b81611def8161256d565b82611df981611bc0565b82611e0381612765565b6004546001600160a01b03868116911614801590611e4457506001600160a01b038516600090815260076020526040902060010154600160301b900460ff16155b611e8b576040805162461bcd60e51b81526020600482015260136024820152724552525f494e56414c49445f5245534552564560681b604482015290519081900360640190fd5b60085463ffffffff908116620f42400381169085161115611ef3576040805162461bcd60e51b815260206004820152601a60248201527f4552525f494e56414c49445f524553455256455f574549474854000000000000604482015290519081900360640190fd5b61ffff611efe6113c6565b61ffff1610611f50576040805162461bcd60e51b815260206004820152601960248201527811549497d253959053125117d49154d154959157d0d3d55395603a1b604482015290519081900360640190fd5b5050506001600160a01b0390911660008181526007602052604081208181556001908101805466ff0000000000001963ffffffff80881663ffffffff199384161791909116600160301b179092556006805493840181559093527ff652222313e28459528d920b65115c16c04f3efc82aaedc97be59f3f377c0d3f90910180546001600160a01b031916909317909255600880548084169094019092169216919091179055565b6000806120026127d5565b6000600460009054906101000a90046001600160a01b03166001600160a01b03166318160ddd6040518163ffffffff1660e01b815260040160206040518083038186803b15801561205257600080fd5b505afa158015612066573d6000803e3d6000fd5b505050506040513d602081101561207c57600080fd5b505160068054919250600091829061209057fe5b6000918252602090912001546001600160a01b03169050816120f9576001600160a01b0381166000908152600760205260409020600101546120ec9063ffffffff908116906120e6908890620f42409061281d16565b90612882565b60009350935050506121e4565b60006121146c42616e636f72466f726d756c6160981b611b42565b6001600160a01b031663f3250fe28461212c856116d4565b6001600160a01b0386166000908152600760209081526040918290206001015482516001600160e01b031960e088901b1681526004810195909552602485019390935263ffffffff9092166044840152606483018b905251608480840193829003018186803b15801561219e57600080fd5b505afa1580156121b2573d6000803e3d6000fd5b505050506040513d60208110156121c857600080fd5b5051905060006121d7826128e1565b9182900395509093505050505b915091565b6000806121f46127d5565b6000600460009054906101000a90046001600160a01b03166001600160a01b03166318160ddd6040518163ffffffff1660e01b815260040160206040518083038186803b15801561224457600080fd5b505afa158015612258573d6000803e3d6000fd5b505050506040513d602081101561226e57600080fd5b505160068054919250600091829061228257fe5b6000918252602090912001546001600160a01b03169050818514156122aa576120ec816116d4565b60006122c56c42616e636f72466f726d756c6160981b611b42565b6001600160a01b03166376cf0b568461212c856116d4565b6122e5611a82565b60006122ef6113c6565b61ffff1611612341576040805162461bcd60e51b815260206004820152601960248201527811549497d253959053125117d49154d154959157d0d3d55395603a1b604482015290519081900360640190fd5b60048054604080516379ba509760e01b815290516001600160a01b03909216926379ba509792828201926000929082900301818387803b15801561238457600080fd5b505af1158015612398573d6000803e3d6000fd5b50505050610c5d61290c565b600454600090819081906001600160a01b0388811691161480156123ea57506001600160a01b038816600090815260076020526040902060010154600160301b900460ff165b156124035750866123fc86868661294c565b9150612454565b6004546001600160a01b03898116911614801561244257506001600160a01b038716600090815260076020526040902060010154600160301b900460ff165b156114745750856123fc868686612bc0565b6000600460009054906101000a90046001600160a01b03166001600160a01b03166318160ddd6040518163ffffffff1660e01b815260040160206040518083038186803b1580156124a457600080fd5b505afa1580156124b8573d6000803e3d6000fd5b505050506040513d60208110156124ce57600080fd5b50516001600160a01b0380841660008181526007602052604090206001015460045493945063ffffffff16929091167f77f29993cf2c084e726f7e802da0719d6a0ade3e204badc7a3ffd57ecb768c24612534620f424061252e886116d4565b9061281d565b6125478663ffffffff8088169061281d16565b6040805192835260208301919091528051918290030190a3509198975050505050505050565b6001600160a01b038116610bbb576040805162461bcd60e51b81526020600482015260136024820152724552525f494e56414c49445f4144445245535360681b604482015290519081900360640190fd5b604080516001600160a01b038481166024830152604480830185905283518084039091018152606490920183526020820180516001600160e01b031663a9059cbb60e01b178152925182516000946060949389169392918291908083835b6020831061263b5780518252601f19909201916020918201910161261c565b6001836020036101000a0380198251168184511680821785525050505050509050019150506000604051808303816000865af19150503d806000811461269d576040519150601f19603f3d011682016040523d82523d6000602084013e6126a2565b606091505b50915091508180156126d05750805115806126d057508080602001905160208110156126cd57600080fd5b50515b612717576040805162461bcd60e51b815260206004820152601360248201527211549497d514905394d1915497d19052531151606a1b604482015290519081900360640190fd5b5050505050565b612726610bbe565b15610c5d576040805162461bcd60e51b815260206004820152600a6024820152694552525f41435449564560b01b604482015290519081900360640190fd5b60008163ffffffff161180156127845750620f424063ffffffff821611155b610bbb576040805162461bcd60e51b815260206004820152601a60248201527f4552525f494e56414c49445f524553455256455f574549474854000000000000604482015290519081900360640190fd5b6127dd610bbe565b610c5d576040805162461bcd60e51b815260206004820152600c60248201526b4552525f494e41435449564560a01b604482015290519081900360640190fd5b60008261282c575060006116ce565b8282028284828161283957fe5b041461287b576040805162461bcd60e51b815260206004820152600c60248201526b4552525f4f564552464c4f5760a01b604482015290519081900360640190fd5b9392505050565b60008082116128cd576040805162461bcd60e51b81526020600482015260126024820152714552525f4449564944455f42595f5a45524f60701b604482015290519081900360640190fd5b60008284816128d857fe5b04949350505050565b6008546000906116ce90620f4240906120e6908590600160401b900463ffffffff9081169061281d16565b60065460005b818110156112ca576129446006828154811061292a57fe5b6000918252602090912001546001600160a01b0316611c95565b600101612912565b600080600061295a86611ff7565b9150915081600014156129ad576040805162461bcd60e51b815260206004820152601660248201527511549497d6915493d7d5105491d15517d05353d5539560521b604482015290519081900360640190fd5b600060066000815481106129bd57fe5b6000918252602090912001546001600160a01b0316905073eeeeeeeeeeeeeeeeeeeeeeeeeeeeeeeeeeeeeeee811415612a4957863414612a44576040805162461bcd60e51b815260206004820152601760248201527f4552525f4554485f414d4f554e545f4d49534d41544348000000000000000000604482015290519081900360640190fd5b612b20565b34158015612ada575086612ad7612a5f836116d4565b604080516370a0823160e01b815230600482015290516001600160a01b038616916370a08231916024808301926020929190829003018186803b158015612aa557600080fd5b505afa158015612ab9573d6000803e3d6000fd5b505050506040513d6020811015612acf57600080fd5b505190612ed5565b10155b612b20576040805162461bcd60e51b815260206004820152601260248201527111549497d253959053125117d05353d5539560721b604482015290519081900360640190fd5b612b2981611c95565b600480546040805163219e412d60e21b81526001600160a01b0389811694820194909452602481018790529051929091169163867904b49160448082019260009290919082900301818387803b158015612b8257600080fd5b505af1158015612b96573d6000803e3d6000fd5b5050600454612bb592508391506001600160a01b0316888a8787612f22565b509095945050505050565b60048054604080516370a0823160e01b81523093810193909352516000926001600160a01b03909216916370a08231916024808301926020929190829003018186803b158015612c0f57600080fd5b505afa158015612c23573d6000803e3d6000fd5b505050506040513d6020811015612c3957600080fd5b5051841115612c84576040805162461bcd60e51b815260206004820152601260248201527111549497d253959053125117d05353d5539560721b604482015290519081900360640190fd5b600080612c90866121e9565b915091508160001415612ce3576040805162461bcd60e51b815260206004820152601660248201527511549497d6915493d7d5105491d15517d05353d5539560521b604482015290519081900360640190fd5b60006006600081548110612cf357fe5b600091825260208083209091015460048054604080516318160ddd60e01b815290516001600160a01b03948516975091909316936318160ddd938084019391929190829003018186803b158015612d4957600080fd5b505afa158015612d5d573d6000803e3d6000fd5b505050506040513d6020811015612d7357600080fd5b505190506000612d82836116d4565b905080851080612d9b57508085148015612d9b57508189145b612da157fe5b600480546040805163a24835d160e01b81523093810193909352602483018c9052516001600160a01b039091169163a24835d191604480830192600092919082900301818387803b158015612df557600080fd5b505af1158015612e09573d6000803e3d6000fd5b5050506001600160a01b038416600090815260076020526040902054612e30915086612ed5565b6001600160a01b03841660008181526007602052604090209190915573eeeeeeeeeeeeeeeeeeeeeeeeeeeeeeeeeeeeeeee1415612ea3576040516001600160a01b0388169086156108fc029087906000818181858888f19350505050158015612e9d573d6000803e3d6000fd5b50612eae565b612eae8388876125be565b600454612ec8906001600160a01b0316848a8c8989612f22565b5092979650505050505050565b600081831015612f1c576040805162461bcd60e51b815260206004820152600d60248201526c4552525f554e444552464c4f5760981b604482015290519081900360640190fd5b50900390565b600160ff1b8110612f2f57fe5b604080518481526020810184905280820183905290516001600160a01b038087169288821692918a16917f276856b36cbc45526a0ba64f44611557a2a8b68662c5388e9fe6d72e86e1c8cb9181900360600190a4505050505050565b6040805160a0810182526000808252602082018190529181018290526060810182905260808101919091529056fea26469706673582212208711a54d3386915a9a6195bc55c1f59166ac4b22284e030f99ce604b01d8b3fd64736f6c634300060c0033a26469706673582212200541abc3a348b949a796f92270ff16b879e4214957a32a2383745a5a7eecb42e64736f6c634300060c0033",
  "immutableReferences": {},
  "source": "// SPDX-License-Identifier: SEE LICENSE IN LICENSE\r\npragma solidity 0.6.12;\r\nimport \"./LiquidTokenConverter.sol\";\r\nimport \"../../interfaces/IConverter.sol\";\r\nimport \"../../interfaces/ITypedConverterFactory.sol\";\r\nimport \"../../../token/interfaces/ISmartToken.sol\";\r\n\r\n/*\r\n    LiquidTokenConverter Factory\r\n*/\r\ncontract LiquidTokenConverterFactory is ITypedConverterFactory {\r\n    /**\r\n      * @dev returns the converter type the factory is associated with\r\n      *\r\n      * @return converter type\r\n    */\r\n    function converterType() external pure override returns (uint16) {\r\n        return 0;\r\n    }\r\n\r\n    /**\r\n      * @dev creates a new converter with the given arguments and transfers\r\n      * the ownership to the caller\r\n      *\r\n      * @param _anchor            anchor governed by the converter\r\n      * @param _registry          address of a contract registry contract\r\n      * @param _maxConversionFee  maximum conversion fee, represented in ppm\r\n      *\r\n      * @return a new converter\r\n    */\r\n    function createConverter(IConverterAnchor _anchor, IContractRegistry _registry, uint32 _maxConversionFee) external override returns (IConverter) {\r\n        IConverter converter = new LiquidTokenConverter(ISmartToken(address(_anchor)), _registry, _maxConversionFee);\r\n        converter.transferOwnership(msg.sender);\r\n        return converter;\r\n    }\r\n}\r\n",
  "sourcePath": "/home/lash/src/ext/cic/grassrootseconomics/bancor-contracts/solidity/contracts/converter/types/liquid-token/LiquidTokenConverterFactory.sol",
  "compiler": {
    "name": "solc",
    "version": "0.6.12+commit.27d51765.Emscripten.clang"
  },
  "schemaVersion": "3.2.3",
  "updatedAt": "2020-11-10T14:20:45.560Z",
  "networkType": "ethereum",
  "devdoc": {
    "kind": "dev",
    "methods": {
      "converterType()": {
        "details": "returns the converter type the factory is associated with",
        "returns": {
          "_0": "converter type"
        }
      },
      "createConverter(address,address,uint32)": {
        "details": "creates a new converter with the given arguments and transfers the ownership to the caller",
        "params": {
          "_anchor": "anchor governed by the converter",
          "_maxConversionFee": "maximum conversion fee, represented in ppm",
          "_registry": "address of a contract registry contract"
        },
        "returns": {
          "_0": "a new converter"
        }
      }
    },
    "version": 1
  },
  "userdoc": {
    "kind": "user",
    "methods": {},
    "version": 1
  }
}