{
  "contractName": "LiquidityPoolV2Converter",
  "abi": [
    {
      "inputs": [
        {
          "internalType": "contract IPoolTokensContainer",
          "name": "_poolTokensContainer",
          "type": "address"
        },
        {
          "internalType": "contract IContractRegistry",
          "name": "_registry",
          "type": "address"
        },
        {
          "internalType": "uint32",
          "name": "_maxConversionFee",
          "type": "uint32"
        }
      ],
      "stateMutability": "nonpayable",
      "type": "constructor"
    },
    {
      "anonymous": false,
      "inputs": [
        {
          "indexed": true,
          "internalType": "uint16",
          "name": "_type",
          "type": "uint16"
        },
        {
          "indexed": true,
          "internalType": "contract IConverterAnchor",
          "name": "_anchor",
          "type": "address"
        },
        {
          "indexed": true,
          "internalType": "bool",
          "name": "_activated",
          "type": "bool"
        }
      ],
      "name": "Activation",
      "type": "event"
    },
    {
      "anonymous": false,
      "inputs": [
        {
          "indexed": true,
          "internalType": "contract IERC20Token",
          "name": "_fromToken",
          "type": "address"
        },
        {
          "indexed": true,
          "internalType": "contract IERC20Token",
          "name": "_toToken",
          "type": "address"
        },
        {
          "indexed": true,
          "internalType": "address",
          "name": "_trader",
          "type": "address"
        },
        {
          "indexed": false,
          "internalType": "uint256",
          "name": "_amount",
          "type": "uint256"
        },
        {
          "indexed": false,
          "internalType": "uint256",
          "name": "_return",
          "type": "uint256"
        },
        {
          "indexed": false,
          "internalType": "int256",
          "name": "_conversionFee",
          "type": "int256"
        }
      ],
      "name": "Conversion",
      "type": "event"
    },
    {
      "anonymous": false,
      "inputs": [
        {
          "indexed": false,
          "internalType": "uint32",
          "name": "_prevFee",
          "type": "uint32"
        },
        {
          "indexed": false,
          "internalType": "uint32",
          "name": "_newFee",
          "type": "uint32"
        }
      ],
      "name": "ConversionFeeUpdate",
      "type": "event"
    },
    {
      "anonymous": false,
      "inputs": [
        {
          "indexed": true,
          "internalType": "address",
          "name": "_provider",
          "type": "address"
        },
        {
          "indexed": true,
          "internalType": "contract IERC20Token",
          "name": "_reserveToken",
          "type": "address"
        },
        {
          "indexed": false,
          "internalType": "uint256",
          "name": "_amount",
          "type": "uint256"
        },
        {
          "indexed": false,
          "internalType": "uint256",
          "name": "_newBalance",
          "type": "uint256"
        },
        {
          "indexed": false,
          "internalType": "uint256",
          "name": "_newSupply",
          "type": "uint256"
        }
      ],
      "name": "LiquidityAdded",
      "type": "event"
    },
    {
      "anonymous": false,
      "inputs": [
        {
          "indexed": true,
          "internalType": "address",
          "name": "_provider",
          "type": "address"
        },
        {
          "indexed": true,
          "internalType": "contract IERC20Token",
          "name": "_reserveToken",
          "type": "address"
        },
        {
          "indexed": false,
          "internalType": "uint256",
          "name": "_amount",
          "type": "uint256"
        },
        {
          "indexed": false,
          "internalType": "uint256",
          "name": "_newBalance",
          "type": "uint256"
        },
        {
          "indexed": false,
          "internalType": "uint256",
          "name": "_newSupply",
          "type": "uint256"
        }
      ],
      "name": "LiquidityRemoved",
      "type": "event"
    },
    {
      "anonymous": false,
      "inputs": [
        {
          "indexed": false,
          "internalType": "uint32",
          "name": "_prevFee",
          "type": "uint32"
        },
        {
          "indexed": false,
          "internalType": "uint32",
          "name": "_newFee",
          "type": "uint32"
        }
      ],
      "name": "OracleDeviationFeeUpdate",
      "type": "event"
    },
    {
      "anonymous": false,
      "inputs": [
        {
          "indexed": true,
          "internalType": "address",
          "name": "_prevOwner",
          "type": "address"
        },
        {
          "indexed": true,
          "internalType": "address",
          "name": "_newOwner",
          "type": "address"
        }
      ],
      "name": "OwnerUpdate",
      "type": "event"
    },
    {
      "anonymous": false,
      "inputs": [
        {
          "indexed": true,
          "internalType": "contract IERC20Token",
          "name": "_token1",
          "type": "address"
        },
        {
          "indexed": true,
          "internalType": "contract IERC20Token",
          "name": "_token2",
          "type": "address"
        },
        {
          "indexed": false,
          "internalType": "uint256",
          "name": "_rateN",
          "type": "uint256"
        },
        {
          "indexed": false,
          "internalType": "uint256",
          "name": "_rateD",
          "type": "uint256"
        }
      ],
      "name": "TokenRateUpdate",
      "type": "event"
    },
    {
      "inputs": [],
      "name": "acceptAnchorOwnership",
      "outputs": [],
      "stateMutability": "nonpayable",
      "type": "function"
    },
    {
      "inputs": [],
      "name": "acceptOwnership",
      "outputs": [],
      "stateMutability": "nonpayable",
      "type": "function"
    },
    {
      "inputs": [],
      "name": "acceptTokenOwnership",
      "outputs": [],
      "stateMutability": "nonpayable",
      "type": "function"
    },
    {
      "inputs": [],
      "name": "anchor",
      "outputs": [
        {
          "internalType": "contract IConverterAnchor",
          "name": "",
          "type": "address"
        }
      ],
      "stateMutability": "view",
      "type": "function"
    },
    {
      "inputs": [],
      "name": "connectorTokenCount",
      "outputs": [
        {
          "internalType": "uint16",
          "name": "",
          "type": "uint16"
        }
      ],
      "stateMutability": "view",
      "type": "function"
    },
    {
      "inputs": [
        {
          "internalType": "uint256",
          "name": "_index",
          "type": "uint256"
        }
      ],
      "name": "connectorTokens",
      "outputs": [
        {
          "internalType": "contract IERC20Token",
          "name": "",
          "type": "address"
        }
      ],
      "stateMutability": "view",
      "type": "function"
    },
    {
      "inputs": [
        {
          "internalType": "contract IERC20Token",
          "name": "_address",
          "type": "address"
        }
      ],
      "name": "connectors",
      "outputs": [
        {
          "internalType": "uint256",
          "name": "",
          "type": "uint256"
        },
        {
          "internalType": "uint32",
          "name": "",
          "type": "uint32"
        },
        {
          "internalType": "bool",
          "name": "",
          "type": "bool"
        },
        {
          "internalType": "bool",
          "name": "",
          "type": "bool"
        },
        {
          "internalType": "bool",
          "name": "",
          "type": "bool"
        }
      ],
      "stateMutability": "view",
      "type": "function"
    },
    {
      "inputs": [],
      "name": "conversionFee",
      "outputs": [
        {
          "internalType": "uint32",
          "name": "",
          "type": "uint32"
        }
      ],
      "stateMutability": "view",
      "type": "function"
    },
    {
      "inputs": [],
      "name": "conversionWhitelist",
      "outputs": [
        {
          "internalType": "contract IWhitelist",
          "name": "",
          "type": "address"
        }
      ],
      "stateMutability": "view",
      "type": "function"
    },
    {
      "inputs": [],
      "name": "conversionsEnabled",
      "outputs": [
        {
          "internalType": "bool",
          "name": "",
          "type": "bool"
        }
      ],
      "stateMutability": "view",
      "type": "function"
    },
    {
      "inputs": [
        {
          "internalType": "contract IERC20Token",
          "name": "_sourceToken",
          "type": "address"
        },
        {
          "internalType": "contract IERC20Token",
          "name": "_targetToken",
          "type": "address"
        },
        {
          "internalType": "uint256",
          "name": "_amount",
          "type": "uint256"
        },
        {
          "internalType": "address",
          "name": "_trader",
          "type": "address"
        },
        {
          "internalType": "address payable",
          "name": "_beneficiary",
          "type": "address"
        }
      ],
      "name": "convert",
      "outputs": [
        {
          "internalType": "uint256",
          "name": "",
          "type": "uint256"
        }
      ],
      "stateMutability": "payable",
      "type": "function"
    },
    {
      "inputs": [],
      "name": "externalRate",
      "outputs": [
        {
          "internalType": "uint256",
          "name": "n",
          "type": "uint256"
        },
        {
          "internalType": "uint256",
          "name": "d",
          "type": "uint256"
        }
      ],
      "stateMutability": "view",
      "type": "function"
    },
    {
      "inputs": [],
      "name": "externalRateUpdateTime",
      "outputs": [
        {
          "internalType": "uint256",
          "name": "",
          "type": "uint256"
        }
      ],
      "stateMutability": "view",
      "type": "function"
    },
    {
      "inputs": [
        {
          "internalType": "contract IERC20Token",
          "name": "_connectorToken",
          "type": "address"
        }
      ],
      "name": "getConnectorBalance",
      "outputs": [
        {
          "internalType": "uint256",
          "name": "",
          "type": "uint256"
        }
      ],
      "stateMutability": "view",
      "type": "function"
    },
    {
      "inputs": [
        {
          "internalType": "contract IERC20Token",
          "name": "_sourceToken",
          "type": "address"
        },
        {
          "internalType": "contract IERC20Token",
          "name": "_targetToken",
          "type": "address"
        },
        {
          "internalType": "uint256",
          "name": "_amount",
          "type": "uint256"
        }
      ],
      "name": "getReturn",
      "outputs": [
        {
          "internalType": "uint256",
          "name": "",
          "type": "uint256"
        },
        {
          "internalType": "uint256",
          "name": "",
          "type": "uint256"
        }
      ],
      "stateMutability": "view",
      "type": "function"
    },
    {
      "inputs": [],
      "name": "hasETHReserve",
      "outputs": [
        {
          "internalType": "bool",
          "name": "",
          "type": "bool"
        }
      ],
      "stateMutability": "view",
      "type": "function"
    },
    {
      "inputs": [],
      "name": "isV28OrHigher",
      "outputs": [
        {
          "internalType": "bool",
          "name": "",
          "type": "bool"
        }
      ],
      "stateMutability": "pure",
      "type": "function"
    },
    {
      "inputs": [],
      "name": "maxConversionFee",
      "outputs": [
        {
          "internalType": "uint32",
          "name": "",
          "type": "uint32"
        }
      ],
      "stateMutability": "view",
      "type": "function"
    },
    {
      "inputs": [],
      "name": "maxStakedBalanceEnabled",
      "outputs": [
        {
          "internalType": "bool",
          "name": "",
          "type": "bool"
        }
      ],
      "stateMutability": "view",
      "type": "function"
    },
    {
      "inputs": [
        {
          "internalType": "contract IERC20Token",
          "name": "",
          "type": "address"
        }
      ],
      "name": "maxStakedBalances",
      "outputs": [
        {
          "internalType": "uint256",
          "name": "",
          "type": "uint256"
        }
      ],
      "stateMutability": "view",
      "type": "function"
    },
    {
      "inputs": [],
      "name": "newOwner",
      "outputs": [
        {
          "internalType": "address",
          "name": "",
          "type": "address"
        }
      ],
      "stateMutability": "view",
      "type": "function"
    },
    {
      "inputs": [],
      "name": "onlyOwnerCanUpdateRegistry",
      "outputs": [
        {
          "internalType": "bool",
          "name": "",
          "type": "bool"
        }
      ],
      "stateMutability": "view",
      "type": "function"
    },
    {
      "inputs": [],
      "name": "oracleDeviationFee",
      "outputs": [
        {
          "internalType": "uint32",
          "name": "",
          "type": "uint32"
        }
      ],
      "stateMutability": "view",
      "type": "function"
    },
    {
      "inputs": [],
      "name": "owner",
      "outputs": [
        {
          "internalType": "address",
          "name": "",
          "type": "address"
        }
      ],
      "stateMutability": "view",
      "type": "function"
    },
    {
      "inputs": [],
      "name": "prevRegistry",
      "outputs": [
        {
          "internalType": "contract IContractRegistry",
          "name": "",
          "type": "address"
        }
      ],
      "stateMutability": "view",
      "type": "function"
    },
    {
      "inputs": [],
      "name": "priceOracle",
      "outputs": [
        {
          "internalType": "contract IPriceOracle",
          "name": "",
          "type": "address"
        }
      ],
      "stateMutability": "view",
      "type": "function"
    },
    {
      "inputs": [],
      "name": "primaryReserveToken",
      "outputs": [
        {
          "internalType": "contract IERC20Token",
          "name": "",
          "type": "address"
        }
      ],
      "stateMutability": "view",
      "type": "function"
    },
    {
      "inputs": [],
      "name": "registry",
      "outputs": [
        {
          "internalType": "contract IContractRegistry",
          "name": "",
          "type": "address"
        }
      ],
      "stateMutability": "view",
      "type": "function"
    },
    {
      "inputs": [
        {
          "internalType": "contract IERC20Token",
          "name": "_reserveToken",
          "type": "address"
        }
      ],
      "name": "reserveBalance",
      "outputs": [
        {
          "internalType": "uint256",
          "name": "",
          "type": "uint256"
        }
      ],
      "stateMutability": "view",
      "type": "function"
    },
    {
      "inputs": [],
      "name": "reserveRatio",
      "outputs": [
        {
          "internalType": "uint32",
          "name": "",
          "type": "uint32"
        }
      ],
      "stateMutability": "view",
      "type": "function"
    },
    {
      "inputs": [],
      "name": "reserveTokenCount",
      "outputs": [
        {
          "internalType": "uint16",
          "name": "",
          "type": "uint16"
        }
      ],
      "stateMutability": "view",
      "type": "function"
    },
    {
      "inputs": [
        {
          "internalType": "uint256",
          "name": "",
          "type": "uint256"
        }
      ],
      "name": "reserveTokens",
      "outputs": [
        {
          "internalType": "contract IERC20Token",
          "name": "",
          "type": "address"
        }
      ],
      "stateMutability": "view",
      "type": "function"
    },
    {
      "inputs": [
        {
          "internalType": "contract IERC20Token",
          "name": "_reserveToken",
          "type": "address"
        }
      ],
      "name": "reserveWeight",
      "outputs": [
        {
          "internalType": "uint32",
          "name": "",
          "type": "uint32"
        }
      ],
      "stateMutability": "view",
      "type": "function"
    },
    {
      "inputs": [
        {
          "internalType": "contract IERC20Token",
          "name": "",
          "type": "address"
        }
      ],
      "name": "reserves",
      "outputs": [
        {
          "internalType": "uint256",
          "name": "balance",
          "type": "uint256"
        },
        {
          "internalType": "uint32",
          "name": "weight",
          "type": "uint32"
        },
        {
          "internalType": "bool",
          "name": "deprecated1",
          "type": "bool"
        },
        {
          "internalType": "bool",
          "name": "deprecated2",
          "type": "bool"
        },
        {
          "internalType": "bool",
          "name": "isSet",
          "type": "bool"
        }
      ],
      "stateMutability": "view",
      "type": "function"
    },
    {
      "inputs": [],
      "name": "restoreRegistry",
      "outputs": [],
      "stateMutability": "nonpayable",
      "type": "function"
    },
    {
      "inputs": [
        {
          "internalType": "bool",
          "name": "_onlyOwnerCanUpdateRegistry",
          "type": "bool"
        }
      ],
      "name": "restrictRegistryUpdate",
      "outputs": [],
      "stateMutability": "nonpayable",
      "type": "function"
    },
    {
      "inputs": [],
      "name": "secondaryReserveToken",
      "outputs": [
        {
          "internalType": "contract IERC20Token",
          "name": "",
          "type": "address"
        }
      ],
      "stateMutability": "view",
      "type": "function"
    },
    {
      "inputs": [
        {
          "internalType": "uint32",
          "name": "_conversionFee",
          "type": "uint32"
        }
      ],
      "name": "setConversionFee",
      "outputs": [],
      "stateMutability": "nonpayable",
      "type": "function"
    },
    {
      "inputs": [
        {
          "internalType": "contract IWhitelist",
          "name": "_whitelist",
          "type": "address"
        }
      ],
      "name": "setConversionWhitelist",
      "outputs": [],
      "stateMutability": "nonpayable",
      "type": "function"
    },
    {
      "inputs": [],
      "name": "token",
      "outputs": [
        {
          "internalType": "contract IConverterAnchor",
          "name": "",
          "type": "address"
        }
      ],
      "stateMutability": "view",
      "type": "function"
    },
    {
      "inputs": [
        {
          "internalType": "address",
          "name": "_newOwner",
          "type": "address"
        }
      ],
      "name": "transferAnchorOwnership",
      "outputs": [],
      "stateMutability": "nonpayable",
      "type": "function"
    },
    {
      "inputs": [
        {
          "internalType": "address",
          "name": "_newOwner",
          "type": "address"
        }
      ],
      "name": "transferOwnership",
      "outputs": [],
      "stateMutability": "nonpayable",
      "type": "function"
    },
    {
      "inputs": [
        {
          "internalType": "address",
          "name": "_newOwner",
          "type": "address"
        }
      ],
      "name": "transferTokenOwnership",
      "outputs": [],
      "stateMutability": "nonpayable",
      "type": "function"
    },
    {
      "inputs": [],
      "name": "updateRegistry",
      "outputs": [],
      "stateMutability": "nonpayable",
      "type": "function"
    },
    {
      "inputs": [],
      "name": "upgrade",
      "outputs": [],
      "stateMutability": "nonpayable",
      "type": "function"
    },
    {
      "inputs": [],
      "name": "version",
      "outputs": [
        {
          "internalType": "uint16",
          "name": "",
          "type": "uint16"
        }
      ],
      "stateMutability": "view",
      "type": "function"
    },
    {
      "inputs": [
        {
          "internalType": "address payable",
          "name": "_to",
          "type": "address"
        }
      ],
      "name": "withdrawETH",
      "outputs": [],
      "stateMutability": "nonpayable",
      "type": "function"
    },
    {
      "inputs": [
        {
          "internalType": "contract IERC20Token",
          "name": "_token",
          "type": "address"
        },
        {
          "internalType": "address",
          "name": "_to",
          "type": "address"
        },
        {
          "internalType": "uint256",
          "name": "_amount",
          "type": "uint256"
        }
      ],
      "name": "withdrawFromAnchor",
      "outputs": [],
      "stateMutability": "nonpayable",
      "type": "function"
    },
    {
      "inputs": [
        {
          "internalType": "contract IERC20Token",
          "name": "_token",
          "type": "address"
        },
        {
          "internalType": "address",
          "name": "_to",
          "type": "address"
        },
        {
          "internalType": "uint256",
          "name": "_amount",
          "type": "uint256"
        }
      ],
      "name": "withdrawTokens",
      "outputs": [],
      "stateMutability": "nonpayable",
      "type": "function"
    },
    {
      "stateMutability": "payable",
      "type": "receive"
    },
    {
      "inputs": [],
      "name": "converterType",
      "outputs": [
        {
          "internalType": "uint16",
          "name": "",
          "type": "uint16"
        }
      ],
      "stateMutability": "pure",
      "type": "function"
    },
    {
      "inputs": [],
      "name": "isActive",
      "outputs": [
        {
          "internalType": "bool",
          "name": "",
          "type": "bool"
        }
      ],
      "stateMutability": "view",
      "type": "function"
    },
    {
      "inputs": [
        {
          "internalType": "contract IERC20Token",
          "name": "_primaryReserveToken",
          "type": "address"
        },
        {
          "internalType": "contract IChainlinkPriceOracle",
          "name": "_primaryReserveOracle",
          "type": "address"
        },
        {
          "internalType": "contract IChainlinkPriceOracle",
          "name": "_secondaryReserveOracle",
          "type": "address"
        }
      ],
      "name": "activate",
      "outputs": [],
      "stateMutability": "nonpayable",
      "type": "function"
    },
    {
      "inputs": [
        {
          "internalType": "uint32",
          "name": "_oracleDeviationFee",
          "type": "uint32"
        }
      ],
      "name": "setOracleDeviationFee",
      "outputs": [],
      "stateMutability": "nonpayable",
      "type": "function"
    },
    {
      "inputs": [
        {
          "internalType": "contract IERC20Token",
          "name": "_reserveToken",
          "type": "address"
        }
      ],
      "name": "reserveStakedBalance",
      "outputs": [
        {
          "internalType": "uint256",
          "name": "",
          "type": "uint256"
        }
      ],
      "stateMutability": "view",
      "type": "function"
    },
    {
      "inputs": [
        {
          "internalType": "contract IERC20Token",
          "name": "_reserveToken",
          "type": "address"
        }
      ],
      "name": "reserveAmplifiedBalance",
      "outputs": [
        {
          "internalType": "uint256",
          "name": "",
          "type": "uint256"
        }
      ],
      "stateMutability": "view",
      "type": "function"
    },
    {
      "inputs": [
        {
          "internalType": "contract IERC20Token",
          "name": "_reserveToken",
          "type": "address"
        },
        {
          "internalType": "uint256",
          "name": "_balance",
          "type": "uint256"
        }
      ],
      "name": "setReserveStakedBalance",
      "outputs": [],
      "stateMutability": "nonpayable",
      "type": "function"
    },
    {
      "inputs": [
        {
          "internalType": "uint256",
          "name": "_reserve1MaxStakedBalance",
          "type": "uint256"
        },
        {
          "internalType": "uint256",
          "name": "_reserve2MaxStakedBalance",
          "type": "uint256"
        }
      ],
      "name": "setMaxStakedBalances",
      "outputs": [],
      "stateMutability": "nonpayable",
      "type": "function"
    },
    {
      "inputs": [],
      "name": "disableMaxStakedBalances",
      "outputs": [],
      "stateMutability": "nonpayable",
      "type": "function"
    },
    {
      "inputs": [
        {
          "internalType": "contract IERC20Token",
          "name": "_reserveToken",
          "type": "address"
        }
      ],
      "name": "poolToken",
      "outputs": [
        {
          "internalType": "contract ISmartToken",
          "name": "",
          "type": "address"
        }
      ],
      "stateMutability": "view",
      "type": "function"
    },
    {
      "inputs": [
        {
          "internalType": "contract ISmartToken",
          "name": "_poolToken",
          "type": "address"
        }
      ],
      "name": "liquidationLimit",
      "outputs": [
        {
          "internalType": "uint256",
          "name": "",
          "type": "uint256"
        }
      ],
      "stateMutability": "view",
      "type": "function"
    },
    {
      "inputs": [
        {
          "internalType": "contract IERC20Token",
          "name": "_token",
          "type": "address"
        },
        {
          "internalType": "uint32",
          "name": "_weight",
          "type": "uint32"
        }
      ],
      "name": "addReserve",
      "outputs": [],
      "stateMutability": "nonpayable",
      "type": "function"
    },
    {
      "inputs": [],
      "name": "effectiveTokensRate",
      "outputs": [
        {
          "internalType": "uint256",
          "name": "",
          "type": "uint256"
        },
        {
          "internalType": "uint256",
          "name": "",
          "type": "uint256"
        }
      ],
      "stateMutability": "view",
      "type": "function"
    },
    {
      "inputs": [
        {
          "internalType": "contract IERC20Token",
          "name": "_sourceToken",
          "type": "address"
        },
        {
          "internalType": "contract IERC20Token",
          "name": "_targetToken",
          "type": "address"
        },
        {
          "internalType": "uint256",
          "name": "_amount",
          "type": "uint256"
        }
      ],
      "name": "targetAmountAndFee",
      "outputs": [
        {
          "internalType": "uint256",
          "name": "",
          "type": "uint256"
        },
        {
          "internalType": "uint256",
          "name": "",
          "type": "uint256"
        }
      ],
      "stateMutability": "view",
      "type": "function"
    },
    {
      "inputs": [
        {
          "internalType": "contract IERC20Token",
          "name": "_reserveToken",
          "type": "address"
        },
        {
          "internalType": "uint256",
          "name": "_amount",
          "type": "uint256"
        },
        {
          "internalType": "uint256",
          "name": "_minReturn",
          "type": "uint256"
        }
      ],
      "name": "addLiquidity",
      "outputs": [
        {
          "internalType": "uint256",
          "name": "",
          "type": "uint256"
        }
      ],
      "stateMutability": "payable",
      "type": "function"
    },
    {
      "inputs": [
        {
          "internalType": "contract ISmartToken",
          "name": "_poolToken",
          "type": "address"
        },
        {
          "internalType": "uint256",
          "name": "_amount",
          "type": "uint256"
        },
        {
          "internalType": "uint256",
          "name": "_minReturn",
          "type": "uint256"
        }
      ],
      "name": "removeLiquidity",
      "outputs": [
        {
          "internalType": "uint256",
          "name": "",
          "type": "uint256"
        }
      ],
      "stateMutability": "nonpayable",
      "type": "function"
    },
    {
      "inputs": [
        {
          "internalType": "contract ISmartToken",
          "name": "_poolToken",
          "type": "address"
        },
        {
          "internalType": "uint256",
          "name": "_amount",
          "type": "uint256"
        }
      ],
      "name": "removeLiquidityReturnAndFee",
      "outputs": [
        {
          "internalType": "uint256",
          "name": "",
          "type": "uint256"
        },
        {
          "internalType": "uint256",
          "name": "",
          "type": "uint256"
        }
      ],
      "stateMutability": "view",
      "type": "function"
    },
    {
      "inputs": [],
      "name": "effectiveReserveWeights",
      "outputs": [
        {
          "internalType": "uint256",
          "name": "",
          "type": "uint256"
        },
        {
          "internalType": "uint256",
          "name": "",
          "type": "uint256"
        }
      ],
      "stateMutability": "view",
      "type": "function"
    }
  ],
  "bytecode": "0x60806040526003805460ff60a81b19169055600880546001600160601b03191690556012805460ff191660011764ffffffff001916622710001790553480156200004857600080fd5b5060405162004d3738038062004d37833981810160405260608110156200006e57600080fd5b5080516020820151604090920151600080546001600160a01b031916331790559091908282828282828180620000a4816200013e565b50600280546001600160a01b039092166001600160a01b031992831681179091556003805490921617905582620000db816200013e565b81620000e7816200019d565b5050600480546001600160a01b039094166001600160a01b031990941693909317909255506008805463ffffffff9092166401000000000263ffffffff60201b1990921691909117905550620001fc945050505050565b6001600160a01b0381166200019a576040805162461bcd60e51b815260206004820152601360248201527f4552525f494e56414c49445f4144445245535300000000000000000000000000604482015290519081900360640190fd5b50565b620f424063ffffffff821611156200019a576040805162461bcd60e51b815260206004820152601a60248201527f4552525f494e56414c49445f434f4e56455253494f4e5f464545000000000000604482015290519081900360640190fd5b614b2b806200020c6000396000f3fe6080604052600436106103e75760003560e01c8063690d832011610208578063d260529c11610118578063dc8de379116100ab578063ec2240f51161007a578063ec2240f514610e3f578063ecbca55d14610e54578063f2fde38b14610e84578063fc0c546a14610eb7578063fd2d6c7c14610ecc57610478565b8063dc8de37914610d57578063ddd9abbf14610d8a578063e38192e314610dba578063e8dc12ff14610df957610478565b8063d66bd524116100e7578063d66bd52414610cc7578063d895951214610cfa578063db2830a414610d2d578063dc75eb9a14610d4257610478565b8063d260529c14610c73578063d3fb73b414610c88578063d4ee1d9014610c9d578063d55ec69714610cb257610478565b80639b99a8e21161019b578063bf7545581161016a578063bf75455814610bd1578063bf7da6ba14610be6578063c45d3d9214610c1f578063cdc91c6914610c34578063d031370b14610c4957610478565b80639b99a8e214610b4f578063ab28b17414610b64578063af94b8d814610b79578063b4a176d314610bbc57610478565b80637b103999116101d75780637b10399914610add5780638da5cb5b14610af257806394c275ad14610b0757806398a71dcb14610b1c57610478565b8063690d832014610a415780636a49d2c414610a7457806371f52bf314610ab357806379ba509714610ac857610478565b80632bf0c985116103035780634af80f0e11610296578063579cd3ca11610265578063579cd3ca146109685780635e35359e1461097d57806361cd756e146109c057806367b6d57c146109d557806369067d9514610a0857610478565b80634af80f0e146108bb57806354fd4d50146108ee57806355776b77146109035780635768adcf1461093557610478565b8063395900d4116102d2578063395900d4146108075780633e8ff43f1461084a578063467494681461087657806349d10b64146108a657610478565b80632bf0c985146107955780632fe8a6ad146107c857806334d084b9146107dd57806338a5e016146107f257610478565b806316912f961161037b57806321e6b53d1161034a57806321e6b53d1461070557806322f3e2d4146107385780632630c12f1461074d5780632bd3c1071461076257610478565b806316912f961461063757806319b640151461064c5780631cfab290146106765780631e1401f8146106a957610478565b80630c7d5cd8116103b75780630c7d5cd8146105485780630e53aae914610576578063119b90cd146105dd57806312c2aca41461062257610478565b80625e319c1461047d578063024c7ec7146104c25780630337e3fb146104ee5780630a55fb3d1461051f57610478565b3661047857600080516020614ad683398151915260005260076020527fb2084a3e4595ccf007fb44245853374aaf0de960074375e8e0fb334712e94d0f54600160301b900460ff16610476576040805162461bcd60e51b81526020600482015260136024820152724552525f494e56414c49445f5245534552564560681b604482015290519081900360640190fd5b005b600080fd5b34801561048957600080fd5b506104b0600480360360208110156104a057600080fd5b50356001600160a01b0316610ee1565b60408051918252519081900360200190f35b3480156104ce57600080fd5b50610476600480360360208110156104e557600080fd5b50351515610f0a565b3480156104fa57600080fd5b50610503610f30565b604080516001600160a01b039092168252519081900360200190f35b34801561052b57600080fd5b50610534610f3f565b604080519115158252519081900360200190f35b34801561055457600080fd5b5061055d610f48565b6040805163ffffffff9092168252519081900360200190f35b34801561058257600080fd5b506105a96004803603602081101561059957600080fd5b50356001600160a01b0316610f54565b6040805195865263ffffffff9094166020860152911515848401521515606084015215156080830152519081900360a00190f35b3480156105e957600080fd5b506104766004803603606081101561060057600080fd5b506001600160a01b038135811691602081013582169160409091013516610fec565b34801561062e57600080fd5b50610534611595565b34801561064357600080fd5b506104766115db565b34801561065857600080fd5b506105036004803603602081101561066f57600080fd5b50356115ef565b34801561068257600080fd5b5061055d6004803603602081101561069957600080fd5b50356001600160a01b0316611619565b3480156106b557600080fd5b506106ec600480360360608110156106cc57600080fd5b506001600160a01b0381358116916020810135909116906040013561164b565b6040805192835260208301919091528051918290030190f35b34801561071157600080fd5b506104766004803603602081101561072857600080fd5b50356001600160a01b0316611665565b34801561074457600080fd5b50610534611679565b34801561075957600080fd5b506105036116a5565b34801561076e57600080fd5b506104b06004803603602081101561078557600080fd5b50356001600160a01b03166116bb565b3480156107a157600080fd5b506104b0600480360360208110156107b857600080fd5b50356001600160a01b03166116d7565b3480156107d457600080fd5b506105346117a2565b3480156107e957600080fd5b5061055d6117b2565b3480156107fe57600080fd5b506104766117c3565b34801561081357600080fd5b506104766004803603606081101561082a57600080fd5b506001600160a01b038135811691602081013590911690604001356117d5565b34801561085657600080fd5b5061085f61185b565b6040805161ffff9092168252519081900360200190f35b34801561088257600080fd5b506104766004803603604081101561089957600080fd5b5080359060200135611860565b3480156108b257600080fd5b506104766118e2565b3480156108c757600080fd5b50610476600480360360208110156108de57600080fd5b50356001600160a01b0316611aea565b3480156108fa57600080fd5b5061085f611b1f565b6104b06004803603606081101561091957600080fd5b506001600160a01b038135169060208101359060400135611b24565b34801561094157600080fd5b506105036004803603602081101561095857600080fd5b50356001600160a01b0316612016565b34801561097457600080fd5b5061055d612034565b34801561098957600080fd5b50610476600480360360608110156109a057600080fd5b506001600160a01b03813581169160208101359091169060400135612047565b3480156109cc57600080fd5b50610503612178565b3480156109e157600080fd5b50610476600480360360208110156109f857600080fd5b50356001600160a01b0316612187565b348015610a1457600080fd5b506106ec60048036036040811015610a2b57600080fd5b506001600160a01b038135169060200135612233565b348015610a4d57600080fd5b5061047660048036036020811015610a6457600080fd5b50356001600160a01b0316612371565b348015610a8057600080fd5b5061047660048036036040811015610a9757600080fd5b5080356001600160a01b0316906020013563ffffffff16612498565b348015610abf57600080fd5b5061085f61250a565b348015610ad457600080fd5b50610476612514565b348015610ae957600080fd5b506105036125cb565b348015610afe57600080fd5b506105036125da565b348015610b1357600080fd5b5061055d6125e9565b348015610b2857600080fd5b506104b060048036036020811015610b3f57600080fd5b50356001600160a01b03166125fd565b348015610b5b57600080fd5b5061085f61260f565b348015610b7057600080fd5b506106ec612615565b348015610b8557600080fd5b506106ec60048036036060811015610b9c57600080fd5b506001600160a01b0381358116916020810135909116906040013561261e565b348015610bc857600080fd5b50610476612754565b348015610bdd57600080fd5b50610534612780565b348015610bf257600080fd5b5061047660048036036040811015610c0957600080fd5b506001600160a01b038135169060200135612785565b348015610c2b57600080fd5b506105036127d9565b348015610c4057600080fd5b506104766127e8565b348015610c5557600080fd5b5061050360048036036020811015610c6c57600080fd5b503561284c565b348015610c7f57600080fd5b50610534612873565b348015610c9457600080fd5b50610503612878565b348015610ca957600080fd5b50610503612887565b348015610cbe57600080fd5b50610476612896565b348015610cd357600080fd5b506105a960048036036020811015610cea57600080fd5b50356001600160a01b031661297e565b348015610d0657600080fd5b506104b060048036036020811015610d1d57600080fd5b50356001600160a01b03166129c1565b348015610d3957600080fd5b506106ec6129d2565b348015610d4e57600080fd5b506105036129f8565b348015610d6357600080fd5b506104b060048036036020811015610d7a57600080fd5b50356001600160a01b0316612a07565b348015610d9657600080fd5b5061047660048036036020811015610dad57600080fd5b503563ffffffff16612a30565b348015610dc657600080fd5b506104b060048036036060811015610ddd57600080fd5b506001600160a01b038135169060208101359060400135612b02565b6104b0600480360360a0811015610e0f57600080fd5b506001600160a01b0381358116916020810135821691604082013591606081013582169160809091013516612df7565b348015610e4b57600080fd5b506106ec613007565b348015610e6057600080fd5b5061047660048036036020811015610e7757600080fd5b503563ffffffff16613082565b348015610e9057600080fd5b5061047660048036036020811015610ea757600080fd5b50356001600160a01b031661316a565b348015610ec357600080fd5b506105036131e8565b348015610ed857600080fd5b506104b06131f7565b600081610eed816131fd565b50506001600160a01b03166000908152600b602052604090205490565b610f1261326a565b60038054911515600160a01b0260ff60a01b19909216919091179055565b6009546001600160a01b031681565b60125460ff1681565b60085463ffffffff1681565b6000806000806000610f64614a8d565b505050506001600160a01b03929092166000908152600760209081526040808320815160a081018352815480825260019092015463ffffffff811694820185905260ff64010000000082048116151594830194909452650100000000008104841615156060830152600160301b90049092161515608090920182905295919450919250829190565b610ff46132bd565b610ffc61326a565b82611006816131fd565b8261101081613304565b8261101a81613304565b8461102481613358565b8461102e81613358565b6004805460408051638da5cb5b60e01b8152905130936001600160a01b0390931692638da5cb5b92808201926020929091829003018186803b15801561107357600080fd5b505afa158015611087573d6000803e3d6000fd5b505050506040513d602081101561109d57600080fd5b50516001600160a01b0316146110f1576040805162461bcd60e51b815260206004820152601460248201527311549497d05390d213d497d393d517d3d5d3915160621b604482015290519081900360640190fd5b600061111c7f436861696e6c696e6b4f7261636c6557686974656c69737400000000000000006133a9565b9050806001600160a01b0316633af32abf896040518263ffffffff1660e01b815260040180826001600160a01b0316815260200191505060206040518083038186803b15801561116b57600080fd5b505afa15801561117f573d6000803e3d6000fd5b505050506040513d602081101561119557600080fd5b505180156112185750806001600160a01b0316633af32abf886040518263ffffffff1660e01b815260040180826001600160a01b0316815260200191505060206040518083038186803b1580156111eb57600080fd5b505afa1580156111ff573d6000803e3d6000fd5b505050506040513d602081101561121557600080fd5b50515b61125e576040805162461bcd60e51b81526020600482015260126024820152714552525f494e56414c49445f4f5241434c4560701b604482015290519081900360640190fd5b611266613427565b600980546001600160a01b0319166001600160a01b038b161790556006805460009061128e57fe5b6000918252602090912001546001600160a01b038a8116911614156112eb5760066001815481106112bb57fe5b600091825260209091200154600a80546001600160a01b0319166001600160a01b03909216919091179055611325565b60066000815481106112f957fe5b600091825260209091200154600a80546001600160a01b0319166001600160a01b039092169190911790555b60006113436f436f6e766572746572466163746f727960801b6133a9565b6001600160a01b031663c977aed261135961185b565b6040518263ffffffff1660e01b8152600401808261ffff16815260200191505060206040518083038186803b15801561139157600080fd5b505afa1580156113a5573d6000803e3d6000fd5b505050506040513d60208110156113bb57600080fd5b5051600a5460408051630d93a22760e11b81526001600160a01b038e8116600483015292831660248201528c831660448201528b83166064820152905192935090831691631b27444e916084808201926020929091908290030181600087803b15801561142757600080fd5b505af115801561143b573d6000803e3d6000fd5b505050506040513d602081101561145157600080fd5b5051600880546001600160a01b03909216600160601b026bffffffffffffffffffffffff909216919091179055611486613689565b8051600e5560200151600f5561149a613741565b6010556009546000906114b5906001600160a01b0316610ee1565b6009549091506000906114d0906001600160a01b0316612a07565b600a549091506000906114eb906001600160a01b0316612a07565b9050818314156115165760008311806115045750600081115b1561151157611511613745565b61153f565b6000831180156115265750600082115b80156115325750600081115b1561153f5761153f613745565b6004546001906001600160a01b031661155661185b565b61ffff167f6b08c2e2c9969e55a647a764db9b554d64dc42f1a704da11a6d5b129ad163f2c60405160405180910390a450505050505050505050505050565b600080516020614ad683398151915260005260076020527fb2084a3e4595ccf007fb44245853374aaf0de960074375e8e0fb334712e94d0f54600160301b900460ff1690565b6115e361326a565b6012805460ff19169055565b6000600682815481106115fe57fe5b6000918252602090912001546001600160a01b031692915050565b600081611625816131fd565b50506001600160a01b031660009081526007602052604090206001015463ffffffff1690565b60008061165985858561261e565b91509150935093915050565b61166d61326a565b61167681612187565b50565b60006116836137ba565b80156116a05750600854600160601b90046001600160a01b031615155b905090565b600854600160601b90046001600160a01b031681565b6000816116c7816131fd565b6116d083613839565b9392505050565b600080826001600160a01b03166318160ddd6040518163ffffffff1660e01b815260040160206040518083038186803b15801561171357600080fd5b505afa158015611727573d6000803e3d6000fd5b505050506040513d602081101561173d57600080fd5b50516001600160a01b038085166000908152600d602052604081205492935091169061176882612a07565b6001600160a01b0383166000908152600b6020526040902054909150611798816117928487613873565b906138d1565b9695505050505050565b600354600160a01b900460ff1681565b601254610100900463ffffffff1681565b6117cb61326a565b6117d36127e8565b565b6117dd61326a565b6004805460408051632f1a9acf60e11b81526001600160a01b038781169482019490945285841660248201526044810185905290519290911691635e35359e9160648082019260009290919082900301818387803b15801561183e57600080fd5b505af1158015611852573d6000803e3d6000fd5b50505050505050565b600290565b61186861326a565b8160116000600660008154811061187b57fe5b60009182526020808320909101546001600160a01b03168352820192909252604001812091909155600680548392601192909160019081106118b957fe5b60009182526020808320909101546001600160a01b031683528201929092526040019020555050565b6000546001600160a01b03163314806119055750600354600160a01b900460ff16155b61194a576040805162461bcd60e51b815260206004820152601160248201527011549497d050d0d154d4d7d11153925151607a1b604482015290519081900360640190fd5b60006119686f436f6e7472616374526567697374727960801b6133a9565b6002549091506001600160a01b0380831691161480159061199157506001600160a01b03811615155b6119d9576040805162461bcd60e51b81526020600482015260146024820152734552525f494e56414c49445f524547495354525960601b604482015290519081900360640190fd5b60006001600160a01b0316816001600160a01b031663bb34534c6f436f6e7472616374526567697374727960801b6040518263ffffffff1660e01b81526004018082815260200191505060206040518083038186803b158015611a3b57600080fd5b505afa158015611a4f573d6000803e3d6000fd5b505050506040513d6020811015611a6557600080fd5b50516001600160a01b03161415611aba576040805162461bcd60e51b81526020600482015260146024820152734552525f494e56414c49445f524547495354525960601b604482015290519081900360640190fd5b60028054600380546001600160a01b038084166001600160a01b0319928316179092559091169216919091179055565b611af261326a565b80611afc81613304565b50600580546001600160a01b0319166001600160a01b0392909216919091179055565b602781565b6000611b2e613930565b6003805460ff60a81b1916600160a81b179055611b49613980565b83611b53816131fd565b83611b5d816139c8565b83611b67816139c8565b6001600160a01b038716600080516020614ad683398151915214611b8c573415611b90565b8534145b611bdb576040805162461bcd60e51b815260206004820152601760248201527608aa4a4be8aa890be829a9eaa9ca8be9a92a69a82a8869604b1b604482015290519081900360640190fd5b611be3613a0e565b6001600160a01b038716600080516020614ad68339815191521415611c7f57600080516020614ad683398151915260005260076020527fb2084a3e4595ccf007fb44245853374aaf0de960074375e8e0fb334712e94d0e54611c459034613a4e565b600080516020614ad683398151915260005260076020527fb2084a3e4595ccf007fb44245853374aaf0de960074375e8e0fb334712e94d0e555b6001600160a01b0387166000908152600b602052604090205460125460ff1615611d3a576001600160a01b0388166000908152601160205260409020541580611ce957506001600160a01b038816600090815260116020526040902054611ce68289613a9b565b11155b611d3a576040805162461bcd60e51b815260206004820152601e60248201527f4552525f4d41585f5354414b45445f42414c414e43455f524541434845440000604482015290519081900360640190fd5b6001600160a01b038089166000908152600c602090815260408083205481516318160ddd60e01b8152915194169384926318160ddd9260048082019391829003018186803b158015611d8b57600080fd5b505afa158015611d9f573d6000803e3d6000fd5b505050506040513d6020811015611db557600080fd5b505190506001600160a01b038a16600080516020614ad683398151915214611de357611de38a33308c613ae4565b6001600160a01b038a16600090815260076020526040902054611e06908a613a9b565b6001600160a01b038b16600090815260076020526040902055611e29838a613a9b565b6001600160a01b038b166000908152600b6020526040812091909155831580611e50575081155b15611e5c575088611e6d565b611e6a846117928c85613873565b90505b88811015611eb7576040805162461bcd60e51b81526020600482015260126024820152714552525f52455455524e5f544f4f5f4c4f5760701b604482015290519081900360640190fd5b6004805460408051636361ddf360e11b81526001600160a01b0387811694820194909452336024820152604481018590529051929091169163c6c3bbe69160648082019260009290919082900301818387803b158015611f1657600080fd5b505af1158015611f2a573d6000803e3d6000fd5b50505050611f36613745565b6001600160a01b038b16337f4a1a2a6176e9646d9e3157f7c2ab3c499f18337c0b0828cfb28e0a61de4a11f78c611f6d8882613a9b565b611f778787613a9b565b60408051938452602084019290925282820152519081900360600190a3611fa883611fa28484613a9b565b8d613c4f565b611ffb6006600081548110611fb957fe5b600091825260209091200154600680546001600160a01b03909216916001908110611fe057fe5b60009182526020822001546001600160a01b03169080613caf565b6003805460ff60a81b191690559a9950505050505050505050565b6001600160a01b039081166000908152600c60205260409020541690565b600854600160401b900463ffffffff1681565b61204f613930565b6003805460ff60a81b1916600160a81b17905561206a61326a565b600061208f762130b731b7b921b7b73b32b93a32b92ab833b930b232b960491b6133a9565b6001600160a01b038516600090815260076020526040902060010154909150600160301b900460ff1615806120c957506120c7611679565b155b806120e157506000546001600160a01b038281169116145b612126576040805162461bcd60e51b815260206004820152601160248201527011549497d050d0d154d4d7d11153925151607a1b604482015290519081900360640190fd5b612131848484613d82565b6001600160a01b038416600090815260076020526040902060010154600160301b900460ff16156121655761216584613db3565b50506003805460ff60a81b191690555050565b6003546001600160a01b031681565b61218f61326a565b762130b731b7b921b7b73b32b93a32b92ab833b930b232b960491b6121b381613e8b565b600460009054906101000a90046001600160a01b03166001600160a01b031663f2fde38b836040518263ffffffff1660e01b815260040180826001600160a01b03168152602001915050600060405180830381600087803b15801561221757600080fd5b505af115801561222b573d6000803e3d6000fd5b505050505050565b6000806000846001600160a01b03166318160ddd6040518163ffffffff1660e01b815260040160206040518083038186803b15801561227157600080fd5b505afa158015612285573d6000803e3d6000fd5b505050506040513d602081101561229b57600080fd5b50516001600160a01b038087166000908152600d60209081526040808320549093168252600b9052205490915081851015612362576009546001600160a01b03166000908152600b60205260408120546122f6906014613873565b600954909150600090612311906001600160a01b0316613839565b9050600080828410612324578284612327565b83835b9092509050600061233c876117928c89613873565b9050600061234e836117928487613873565b995050889003965061236a95505050505050565b925060009150505b9250929050565b612379613930565b6003805460ff60a81b1916600160a81b17905561239461326a565b600080516020614ad68339815191526123ac816131fd565b60006123d1762130b731b7b921b7b73b32b93a32b92ab833b930b232b960491b6133a9565b90506123db611679565b15806123f457506000546001600160a01b038281169116145b612439576040805162461bcd60e51b815260206004820152601160248201527011549497d050d0d154d4d7d11153925151607a1b604482015290519081900360640190fd5b6040516001600160a01b038416904780156108fc02916000818181858888f1935050505015801561246e573d6000803e3d6000fd5b50612486600080516020614ad6833981519152613db3565b50506003805460ff60a81b1916905550565b6124a061326a565b60026124aa61260f565b61ffff16106124fc576040805162461bcd60e51b815260206004820152601960248201527811549497d253959053125117d49154d154959157d0d3d55395603a1b604482015290519081900360640190fd5b6125068282613eed565b5050565b60006116a061260f565b6001546001600160a01b03163314612567576040805162461bcd60e51b815260206004820152601160248201527011549497d050d0d154d4d7d11153925151607a1b604482015290519081900360640190fd5b600154600080546040516001600160a01b0393841693909116917f343765429aea5a34b3ff6a3785a98a5abb2597aca87bfbb58632c173d585373a91a360018054600080546001600160a01b03199081166001600160a01b03841617909155169055565b6002546001600160a01b031681565b6000546001600160a01b031681565b600854640100000000900463ffffffff1681565b60116020526000908152604090205481565b60065490565b600e54600f5482565b600080612629613980565b84612633816131fd565b8461263d816131fd565b856001600160a01b0316876001600160a01b0316141561269d576040805162461bcd60e51b815260206004820152601660248201527511549497d4d0535157d4d3d55490d157d5105491d15560521b604482015290519081900360640190fd5b6000806126a8613741565b60105414156126e15750506001600160a01b03871660009081526007602052604090206001015463ffffffff16620f4240819003612730565b6126e9614abb565b6126f1613689565b90506000806126ff8361410f565b60095491935091506001600160a01b038d8116911614156127255781945080935061272c565b8094508193505b5050505b6000806127408b8b86868d614224565b919d919c50909a5050505050505050505050565b61275c61326a565b600354600280546001600160a01b0319166001600160a01b03909216919091179055565b600181565b61278d61326a565b762130b731b7b921b7b73b32b93a32b92ab833b930b232b960491b6127b181613e8b565b826127bb816131fd565b50506001600160a01b039091166000908152600b6020526040902055565b6005546001600160a01b031681565b60016127f261260f565b61ffff1611612844576040805162461bcd60e51b815260206004820152601960248201527811549497d253959053125117d49154d154959157d0d3d55395603a1b604482015290519081900360640190fd5b6117d3614355565b6006818154811061285957fe5b6000918252602090912001546001600160a01b0316905081565b600190565b6004546001600160a01b031681565b6001546001600160a01b031681565b61289e61326a565b60006128c3762130b731b7b921b7b73b32b93a32b92ab833b930b232b960491b6133a9565b6004549091506000906001600160a01b03166128dd61185b565b61ffff167f6b08c2e2c9969e55a647a764db9b554d64dc42f1a704da11a6d5b129ad163f2c60405160405180910390a46129168161316a565b6040805163487ac64b60e11b81526027600482015290516001600160a01b038316916390f58c9691602480830192600092919082900301818387803b15801561295e57600080fd5b505af1158015612972573d6000803e3d6000fd5b50505050611676612514565b6007602052600090815260409020805460019091015463ffffffff81169060ff6401000000008204811691650100000000008104821691600160301b9091041685565b60006129cc82612a07565b92915050565b6000806129dd614abb565b6129e5613689565b80516020909101519093509150505b9091565b600a546001600160a01b031681565b600081612a13816131fd565b50506001600160a01b031660009081526007602052604090205490565b612a3861326a565b620f424063ffffffff82161115612a96576040805162461bcd60e51b815260206004820181905260248201527f4552525f494e56414c49445f4f5241434c455f444556494154494f4e5f464545604482015290519081900360640190fd5b6012546040805163ffffffff61010090930483168152918316602083015280517f4f6fed4838e1f48d74a10449b9152126aae795e67e8eba0fedacdeefdf19a8de9281900390910190a16012805463ffffffff9092166101000264ffffffff0019909216919091179055565b6000612b0c613930565b6003805460ff60a81b1916600160a81b179055612b27613980565b83612b318161441c565b83612b3b816139c8565b83612b45816139c8565b612b4d613a0e565b6000876001600160a01b03166318160ddd6040518163ffffffff1660e01b815260040160206040518083038186803b158015612b8857600080fd5b505afa158015612b9c573d6000803e3d6000fd5b505050506040513d6020811015612bb257600080fd5b505190506000612bc28989612233565b50905086811015612c0f576040805162461bcd60e51b81526020600482015260126024820152714552525f52455455524e5f544f4f5f4c4f5760701b604482015290519081900360640190fd5b6001600160a01b03808a166000818152600d602052604080822054600480548351633dae446f60e21b815291820195909552336024820152604481018e9052915190851694939093169263f6b911bc9260648084019391929182900301818387803b158015612c7d57600080fd5b505af1158015612c91573d6000803e3d6000fd5b5050506001600160a01b038216600090815260076020526040902054612cb8915083613a4e565b6001600160a01b038216600090815260076020908152604080832093909355600b905290812054612ce99084613a4e565b6001600160a01b0383166000818152600b60205260409020829055909150600080516020614ad68339815191521415612d4f57604051339084156108fc029085906000818181858888f19350505050158015612d49573d6000803e3d6000fd5b50612d5a565b612d5a823385614481565b612d62613745565b6000612d6e858c613a4e565b604080518681526020810185905280820183905290519192506001600160a01b0385169133917fbc7d19d505c7ec4db83f3b51f19fb98c4c8a99922e7839d1ee608dfbee29501b919081900360600190a3612dca8c8285613c4f565b612ddb6006600081548110611fb957fe5b50506003805460ff60a81b191690555098975050505050505050565b6000612e01613930565b6003805460ff60a81b1916600160a81b1790556c42616e636f724e6574776f726b60981b612e2e81613e8b565b856001600160a01b0316876001600160a01b03161415612e8e576040805162461bcd60e51b815260206004820152601660248201527511549497d4d0535157d4d3d55490d157d5105491d15560521b604482015290519081900360640190fd5b6005546001600160a01b03161580612f9b575060055460408051633af32abf60e01b81526001600160a01b03878116600483015291519190921691633af32abf916024808301926020929190829003018186803b158015612eee57600080fd5b505afa158015612f02573d6000803e3d6000fd5b505050506040513d6020811015612f1857600080fd5b50518015612f9b575060055460408051633af32abf60e01b81526001600160a01b03868116600483015291519190921691633af32abf916024808301926020929190829003018186803b158015612f6e57600080fd5b505afa158015612f82573d6000803e3d6000fd5b505050506040513d6020811015612f9857600080fd5b50515b612fe2576040805162461bcd60e51b815260206004820152601360248201527211549497d393d517d5d2125511531254d51151606a1b604482015290519081900360640190fd5b612fef87878787876145da565b6003805460ff60a81b19169055979650505050505050565b600080613012614abb565b61301a613689565b90506000806130288361410f565b91509150600660008154811061303a57fe5b6000918252602090912001546009546001600160a01b03908116911614156130705763ffffffff91821694501691506129f49050565b63ffffffff9081169450169150509091565b61308a61326a565b60085463ffffffff640100000000909104811690821611156130f3576040805162461bcd60e51b815260206004820152601a60248201527f4552525f494e56414c49445f434f4e56455253494f4e5f464545000000000000604482015290519081900360640190fd5b6008546040805163ffffffff600160401b90930483168152918316602083015280517f81cd2ffb37dd237c0e4e2a3de5265fcf9deb43d3e7801e80db9f1ccfba7ee6009281900390910190a16008805463ffffffff909216600160401b026bffffffff000000000000000019909216919091179055565b61317261326a565b6000546001600160a01b03828116911614156131c6576040805162461bcd60e51b815260206004820152600e60248201526d22a9292fa9a0a6a2afa7aba722a960911b604482015290519081900360640190fd5b600180546001600160a01b0319166001600160a01b0392909216919091179055565b6004546001600160a01b031690565b60105481565b6001600160a01b038116600090815260076020526040902060010154600160301b900460ff16611676576040805162461bcd60e51b81526020600482015260136024820152724552525f494e56414c49445f5245534552564560681b604482015290519081900360640190fd5b6000546001600160a01b031633146117d3576040805162461bcd60e51b815260206004820152601160248201527011549497d050d0d154d4d7d11153925151607a1b604482015290519081900360640190fd5b6132c5611679565b156117d3576040805162461bcd60e51b815260206004820152600a6024820152694552525f41435449564560b01b604482015290519081900360640190fd5b6001600160a01b038116301415611676576040805162461bcd60e51b815260206004820152601360248201527222a9292fa0a2222922a9a9afa4a9afa9a2a62360691b604482015290519081900360640190fd5b6001600160a01b038116611676576040805162461bcd60e51b81526020600482015260136024820152724552525f494e56414c49445f4144445245535360681b604482015290519081900360640190fd5b60025460408051632ecd14d360e21b81526004810184905290516000926001600160a01b03169163bb34534c916024808301926020929190829003018186803b1580156133f557600080fd5b505afa158015613409573d6000803e3d6000fd5b505050506040513d602081101561341f57600080fd5b505192915050565b600480546040805163369f189f60e11b815290516001600160a01b03909216926060928492636d3e313e9281810192600092909190829003018186803b15801561347057600080fd5b505afa158015613484573d6000803e3d6000fd5b505050506040513d6000823e601f3d908101601f1916820160405260208110156134ad57600080fd5b81019080805160405193929190846401000000008211156134cd57600080fd5b9083019060208201858111156134e257600080fd5b82518660208202830111640100000000821117156134ff57600080fd5b82525081516020918201928201910280838360005b8381101561352c578181015183820152602001613514565b50505050919091016040525050825160065493945015929150600090505b8181101561368257600083156135c857856001600160a01b0316639cbf9e366040518163ffffffff1660e01b8152600401602060405180830381600087803b15801561359557600080fd5b505af11580156135a9573d6000803e3d6000fd5b505050506040513d60208110156135bf57600080fd5b505190506135df565b8482815181106135d457fe5b602002602001015190505b80600c6000600685815481106135f157fe5b6000918252602080832091909101546001600160a01b039081168452908301939093526040909101902080546001600160a01b03191692909116919091179055600680548390811061363f57fe5b60009182526020808320909101546001600160a01b039384168352600d909152604090912080546001600160a01b0319169290911691909117905560010161354a565b5050505050565b613691614abb565b600854600954600a5460408051632ba0600160e21b81526001600160a01b039384166004820152918316602483015280516000948594600160601b909104169263ae818004926044808301939192829003018186803b1580156136f357600080fd5b505afa158015613707573d6000803e3d6000fd5b505050506040513d604081101561371d57600080fd5b50805160209182015160408051808201909152918252918101919091529250505090565b4290565b60408051808201909152600e548152600f5460208201526137659061410f565b6009546001600160a01b03908116600090815260076020526040808220600a54909316825290206001908101805463ffffffff94851663ffffffff199182161790915591018054939092169216919091179055565b6004805460408051638da5cb5b60e01b8152905160009330936001600160a01b031692638da5cb5b9281830192602092829003018186803b1580156137fe57600080fd5b505afa158015613812573d6000803e3d6000fd5b505050506040513d602081101561382857600080fd5b50516001600160a01b031614905090565b6001600160a01b038116600090815260076020908152604080832054600b9092528220546129cc919061386d906013613873565b90613a9b565b600082613882575060006129cc565b8282028284828161388f57fe5b04146116d0576040805162461bcd60e51b815260206004820152600c60248201526b4552525f4f564552464c4f5760a01b604482015290519081900360640190fd5b600080821161391c576040805162461bcd60e51b81526020600482015260126024820152714552525f4449564944455f42595f5a45524f60701b604482015290519081900360640190fd5b600082848161392757fe5b04949350505050565b600354600160a81b900460ff16156117d3576040805162461bcd60e51b815260206004820152600e60248201526d4552525f5245454e5452414e435960901b604482015290519081900360640190fd5b613988611679565b6117d3576040805162461bcd60e51b815260206004820152600c60248201526b4552525f494e41435449564560a01b604482015290519081900360640190fd5b60008111611676576040805162461bcd60e51b815260206004820152600e60248201526d4552525f5a45524f5f56414c554560901b604482015290519081900360640190fd5b60065460005b8181101561250657613a4660068281548110613a2c57fe5b6000918252602090912001546001600160a01b0316613db3565b600101613a14565b600081831015613a95576040805162461bcd60e51b815260206004820152600d60248201526c4552525f554e444552464c4f5760981b604482015290519081900360640190fd5b50900390565b6000828201838110156116d0576040805162461bcd60e51b815260206004820152600c60248201526b4552525f4f564552464c4f5760a01b604482015290519081900360640190fd5b604080516001600160a01b0385811660248301528481166044830152606480830185905283518084039091018152608490920183526020820180516001600160e01b03166323b872dd60e01b17815292518251600094606094938a169392918291908083835b60208310613b695780518252601f199092019160209182019101613b4a565b6001836020036101000a0380198251168184511680821785525050505050509050019150506000604051808303816000865af19150503d8060008114613bcb576040519150601f19603f3d011682016040523d82523d6000602084013e613bd0565b606091505b5091509150818015613bfe575080511580613bfe5750808060200190516020811015613bfb57600080fd5b50515b61222b576040805162461bcd60e51b815260206004820152601860248201527f4552525f5452414e534645525f46524f4d5f4641494c45440000000000000000604482015290519081900360640190fd5b6001600160a01b038082166000818152600b6020908152604091829020548251908152908101869052815192938716927f77f29993cf2c084e726f7e802da0719d6a0ade3e204badc7a3ffd57ecb768c24929181900390910190a3505050565b6000613cba85613839565b90506000613cc785613839565b905063ffffffff8416613cf9576001600160a01b03861660009081526007602052604090206001015463ffffffff1693505b63ffffffff8316613d0d5783620f42400392505b6001600160a01b038086169087167f77f29993cf2c084e726f7e802da0719d6a0ade3e204badc7a3ffd57ecb768c24613d4f8463ffffffff808a169061387316565b613d628663ffffffff808a169061387316565b6040805192835260208301919091528051918290030190a3505050505050565b613d8a61326a565b82613d9481613358565b82613d9e81613358565b83613da881613304565b61222b868686614481565b80613dbd816131fd565b6001600160a01b038216600080516020614ad68339815191521415613dfc576001600160a01b0382166000908152600760205260409020479055612506565b604080516370a0823160e01b815230600482015290516001600160a01b038416916370a08231916024808301926020929190829003018186803b158015613e4257600080fd5b505afa158015613e56573d6000803e3d6000fd5b505050506040513d6020811015613e6c57600080fd5b50516001600160a01b0383166000908152600760205260409020555050565b613e94816133a9565b6001600160a01b0316336001600160a01b031614611676576040805162461bcd60e51b815260206004820152601160248201527011549497d050d0d154d4d7d11153925151607a1b604482015290519081900360640190fd5b613ef561326a565b613efd6132bd565b81613f0781613358565b82613f1181613304565b82613f1b81614989565b6004546001600160a01b03868116911614801590613f5c57506001600160a01b038516600090815260076020526040902060010154600160301b900460ff16155b613fa3576040805162461bcd60e51b81526020600482015260136024820152724552525f494e56414c49445f5245534552564560681b604482015290519081900360640190fd5b60085463ffffffff908116620f4240038116908516111561400b576040805162461bcd60e51b815260206004820152601a60248201527f4552525f494e56414c49445f524553455256455f574549474854000000000000604482015290519081900360640190fd5b61ffff61401661260f565b61ffff1610614068576040805162461bcd60e51b815260206004820152601960248201527811549497d253959053125117d49154d154959157d0d3d55395603a1b604482015290519081900360640190fd5b5050506001600160a01b0390911660008181526007602052604081208181556001908101805466ff0000000000001963ffffffff80881663ffffffff199384161791909116600160301b179092556006805493840181559093527ff652222313e28459528d920b65115c16c04f3efc82aaedc97be59f3f377c0d3f90910180546001600160a01b031916909317909255600880548084169094019092169216919091179055565b6009546001600160a01b03166000818152600b60205260408120549091829190829061413a90613839565b600a54909150600090614155906001600160a01b0316613839565b90506141706c42616e636f72466f726d756c6160981b6133a9565b6001600160a01b031663a11aa1b4614189856014613873565b885160208a0151604080516001600160e01b031960e087901b1681526004810194909452602484018890526044840187905260648401929092526084830152805160a480840193829003018186803b1580156141e457600080fd5b505afa1580156141f8573d6000803e3d6000fd5b505050506040513d604081101561420e57600080fd5b5080516020909101519095509350505050915091565b60008060008061423389613839565b9050600061424089613839565b9050600061425d6c42616e636f72466f726d756c6160981b6133a9565b6001600160a01b03166394491fab848b858c8c6040518663ffffffff1660e01b8152600401808681526020018563ffffffff1681526020018481526020018363ffffffff1681526020018281526020019550505050505060206040518083038186803b1580156142cc57600080fd5b505afa1580156142e0573d6000803e3d6000fd5b505050506040513d60208110156142f657600080fd5b505190506000614305826149f9565b60125490915060009061433790839061386d90620f424090611792908890610100900463ffffffff9081169061387316565b90506143438382613a4e565b9d919c509a5098505050505050505050565b61435d61326a565b600061436761260f565b61ffff16116143b9576040805162461bcd60e51b815260206004820152601960248201527811549497d253959053125117d49154d154959157d0d3d55395603a1b604482015290519081900360640190fd5b60048054604080516379ba509760e01b815290516001600160a01b03909216926379ba509792828201926000929082900301818387803b1580156143fc57600080fd5b505af1158015614410573d6000803e3d6000fd5b505050506117d3613a0e565b6001600160a01b038181166000908152600d602052604090205416611676576040805162461bcd60e51b815260206004820152601660248201527522a9292fa4a72b20a624a22fa827a7a62faa27a5a2a760511b604482015290519081900360640190fd5b604080516001600160a01b038481166024830152604480830185905283518084039091018152606490920183526020820180516001600160e01b031663a9059cbb60e01b178152925182516000946060949389169392918291908083835b602083106144fe5780518252601f1990920191602091820191016144df565b6001836020036101000a0380198251168184511680821785525050505050509050019150506000604051808303816000865af19150503d8060008114614560576040519150601f19603f3d011682016040523d82523d6000602084013e614565565b606091505b5091509150818015614593575080511580614593575080806020019051602081101561459057600080fd5b50515b613682576040805162461bcd60e51b815260206004820152601360248201527211549497d514905394d1915497d19052531151606a1b604482015290519081900360640190fd5b60006145e4613980565b856145ee816131fd565b856145f8816131fd565b614600613741565b601054101561463057614611613741565b60105561461c613689565b8051600e5560200151600f55614630613745565b6001600160a01b03881660009081526007602052604081206001015463ffffffff1690620f424082900390808061466a8d8d87878f614224565b92509250925082600014156146bf576040805162461bcd60e51b815260206004820152601660248201527511549497d6915493d7d5105491d15517d05353d5539560521b604482015290519081900360640190fd5b6001600160a01b038d16600080516020614ad68339815191521415614731578a341461472c576040805162461bcd60e51b815260206004820152601760248201527608aa4a4be8aa890be829a9eaa9ca8be9a92a69a82a8869604b1b604482015290519081900360640190fd5b61480f565b341580156147c957508a6147c66147478f612a07565b8f6001600160a01b03166370a08231306040518263ffffffff1660e01b815260040180826001600160a01b0316815260200191505060206040518083038186803b15801561479457600080fd5b505afa1580156147a8573d6000803e3d6000fd5b505050506040513d60208110156147be57600080fd5b505190613a4e565b10155b61480f576040805162461bcd60e51b815260206004820152601260248201527111549497d253959053125117d05353d5539560721b604482015290519081900360640190fd5b6148188d613db3565b61482b836148258e612a07565b90613a4e565b6001600160a01b038d16600090815260076020908152604080832093909355600b9052205461485a9083613a9b565b6001600160a01b038d166000818152600b6020526040902091909155600080516020614ad683398151915214156148c7576040516001600160a01b038a169084156108fc029085906000818181858888f193505050501580156148c1573d6000803e3d6000fd5b506148d2565b6148d28c8a85614481565b6148e08d8d8c8e8786614a24565b6148ec8d8d8787613caf565b6001600160a01b03808d166000908152600c60209081526040918290205482516318160ddd60e01b8152925193169261497792849283926318160ddd926004808201939291829003018186803b15801561494557600080fd5b505afa158015614959573d6000803e3d6000fd5b505050506040513d602081101561496f57600080fd5b50518f613c4f565b50919c9b505050505050505050505050565b60008163ffffffff161180156149a85750620f424063ffffffff821611155b611676576040805162461bcd60e51b815260206004820152601a60248201527f4552525f494e56414c49445f524553455256455f574549474854000000000000604482015290519081900360640190fd5b6008546000906129cc90620f424090611792908590600160401b900463ffffffff9081169061387316565b600160ff1b8110614a3157fe5b604080518481526020810184905280820183905290516001600160a01b038087169288821692918a16917f276856b36cbc45526a0ba64f44611557a2a8b68662c5388e9fe6d72e86e1c8cb9181900360600190a4505050505050565b6040805160a08101825260008082526020820181905291810182905260608101829052608081019190915290565b60405180604001604052806000815260200160008152509056fe000000000000000000000000eeeeeeeeeeeeeeeeeeeeeeeeeeeeeeeeeeeeeeeea2646970667358221220ab264e1fed924691fd0f2a3f9bdc1b0e473332f2a35442af9e107888f6567ebe64736f6c634300060c0033",
  "immutableReferences": {},
  "source": "// SPDX-License-Identifier: SEE LICENSE IN LICENSE\r\npragma solidity 0.6.12;\r\nimport \"./PoolTokensContainer.sol\";\r\nimport \"./LiquidityPoolV2ConverterCustomFactory.sol\";\r\nimport \"../../LiquidityPoolConverter.sol\";\r\nimport \"../../interfaces/IConverterFactory.sol\";\r\nimport \"../../../utility/interfaces/IPriceOracle.sol\";\r\nimport \"../../../utility/Types.sol\";\r\n\r\n/**\r\n  * @dev Liquidity Pool v2 Converter\r\n  *\r\n  * The liquidity pool v2 converter is a specialized version of a converter that uses\r\n  * price oracles to rebalance the reserve weights in such a way that the primary token\r\n  * balance always strives to match the staked balance.\r\n  *\r\n  * This type of liquidity pool always has 2 reserves and the reserve weights are dynamic.\r\n*/\r\ncontract LiquidityPoolV2Converter is LiquidityPoolConverter {\r\n    uint8 internal constant AMPLIFICATION_FACTOR = 20;  // factor to use for conversion calculations (reduces slippage)\r\n\r\n    IPriceOracle public priceOracle;                                    // external price oracle\r\n    IERC20Token public primaryReserveToken;                             // primary reserve in the pool\r\n    IERC20Token public secondaryReserveToken;                           // secondary reserve in the pool (cache)\r\n    mapping (IERC20Token => uint256) private stakedBalances;            // tracks the staked liquidity in the pool plus the fees\r\n    mapping (IERC20Token => ISmartToken) private reservesToPoolTokens;  // maps each reserve to its pool token\r\n    mapping (ISmartToken => IERC20Token) private poolTokensToReserves;  // maps each pool token to its reserve\r\n\r\n    Fraction public externalRate;           // external rate of 1 primary token in secondary tokens\r\n    uint256 public externalRateUpdateTime;  // last time the external rate was updated (in seconds)\r\n\r\n    // used by the temp liquidity limit mechanism during the beta\r\n    mapping (IERC20Token => uint256) public maxStakedBalances;\r\n    bool public maxStakedBalanceEnabled = true;\r\n\r\n    uint32 public oracleDeviationFee = 10000; // oracle deviation fee, represented in ppm\r\n\r\n    /**\r\n      * @dev triggered when the oracle deviation fee is updated\r\n      *\r\n      * @param  _prevFee    previous fee percentage, represented in ppm\r\n      * @param  _newFee     new fee percentage, represented in ppm\r\n    */\r\n    event OracleDeviationFeeUpdate(uint32 _prevFee, uint32 _newFee);\r\n\r\n    /**\r\n      * @dev initializes a new LiquidityPoolV2Converter instance\r\n      *\r\n      * @param  _poolTokensContainer    pool tokens container governed by the converter\r\n      * @param  _registry               address of a contract registry contract\r\n      * @param  _maxConversionFee       maximum conversion fee, represented in ppm\r\n    */\r\n    constructor(IPoolTokensContainer _poolTokensContainer, IContractRegistry _registry, uint32 _maxConversionFee)\r\n        public LiquidityPoolConverter(_poolTokensContainer, _registry, _maxConversionFee)\r\n    {\r\n    }\r\n\r\n    // ensures the address is a pool token\r\n    modifier validPoolToken(ISmartToken _address) {\r\n        _validPoolToken(_address);\r\n        _;\r\n    }\r\n\r\n    // error message binary size optimization\r\n    function _validPoolToken(ISmartToken _address) internal view {\r\n        require(address(poolTokensToReserves[_address]) != address(0), \"ERR_INVALID_POOL_TOKEN\");\r\n    }\r\n\r\n    /**\r\n      * @dev returns the converter type\r\n      *\r\n      * @return see the converter types in the the main contract doc\r\n    */\r\n    function converterType() public pure override returns (uint16) {\r\n        return 2;\r\n    }\r\n\r\n    /**\r\n      * @dev returns true if the converter is active, false otherwise\r\n      *\r\n      * @return true if the converter is active, false otherwise\r\n    */\r\n    function isActive() public view override returns (bool) {\r\n        return super.isActive() && address(priceOracle) != address(0);\r\n    }\r\n\r\n    /**\r\n      * @dev sets the pool's primary reserve token / price oracles and activates the pool\r\n      * each oracle must be able to provide the rate for each reserve token\r\n      * note that the oracle must be whitelisted prior to the call\r\n      * can only be called by the owner while the pool is inactive\r\n      *\r\n      * @param _primaryReserveToken     address of the pool's primary reserve token\r\n      * @param _primaryReserveOracle    address of a chainlink price oracle for the primary reserve token\r\n      * @param _secondaryReserveOracle  address of a chainlink price oracle for the secondary reserve token\r\n    */\r\n    function activate(\r\n        IERC20Token _primaryReserveToken,\r\n        IChainlinkPriceOracle _primaryReserveOracle,\r\n        IChainlinkPriceOracle _secondaryReserveOracle)\r\n        public\r\n        inactive\r\n        ownerOnly\r\n        validReserve(_primaryReserveToken)\r\n        notThis(address(_primaryReserveOracle))\r\n        notThis(address(_secondaryReserveOracle))\r\n        validAddress(address(_primaryReserveOracle))\r\n        validAddress(address(_secondaryReserveOracle))\r\n    {\r\n        // validate anchor ownership\r\n        require(anchor.owner() == address(this), \"ERR_ANCHOR_NOT_OWNED\");\r\n\r\n        // validate oracles\r\n        IWhitelist oracleWhitelist = IWhitelist(addressOf(CHAINLINK_ORACLE_WHITELIST));\r\n        require(oracleWhitelist.isWhitelisted(address(_primaryReserveOracle)) &&\r\n                oracleWhitelist.isWhitelisted(address(_secondaryReserveOracle)), \"ERR_INVALID_ORACLE\");\r\n\r\n        // create the converter's pool tokens if they don't already exist\r\n        createPoolTokens();\r\n\r\n        // sets the primary & secondary reserve tokens\r\n        primaryReserveToken = _primaryReserveToken;\r\n        if (_primaryReserveToken == reserveTokens[0])\r\n            secondaryReserveToken = reserveTokens[1];\r\n        else\r\n            secondaryReserveToken = reserveTokens[0];\r\n\r\n        // creates and initalizes the price oracle and sets initial rates\r\n        LiquidityPoolV2ConverterCustomFactory customFactory =\r\n            LiquidityPoolV2ConverterCustomFactory(address(IConverterFactory(addressOf(CONVERTER_FACTORY)).customFactories(converterType())));\r\n        priceOracle = customFactory.createPriceOracle(\r\n            _primaryReserveToken,\r\n            secondaryReserveToken,\r\n            _primaryReserveOracle,\r\n            _secondaryReserveOracle);\r\n\r\n        externalRate = _effectiveTokensRate();\r\n        externalRateUpdateTime = time();\r\n\r\n        // if we are upgrading from an older converter, make sure that reserve balances are in-sync and rebalance\r\n        uint256 primaryReserveStakedBalance = reserveStakedBalance(primaryReserveToken);\r\n        uint256 primaryReserveBalance = reserveBalance(primaryReserveToken);\r\n        uint256 secondaryReserveBalance = reserveBalance(secondaryReserveToken);\r\n\r\n        if (primaryReserveStakedBalance == primaryReserveBalance) {\r\n            if (primaryReserveStakedBalance > 0 || secondaryReserveBalance > 0) {\r\n                rebalance();\r\n            }\r\n        }\r\n        else if (primaryReserveStakedBalance > 0 && primaryReserveBalance > 0 && secondaryReserveBalance > 0) {\r\n            rebalance();\r\n        }\r\n\r\n        emit Activation(converterType(), anchor, true);\r\n    }\r\n\r\n    /**\r\n      * @dev updates the current oracle deviation fee\r\n      * can only be called by the contract owner\r\n      *\r\n      * @param _oracleDeviationFee new oracle deviation fee, represented in ppm\r\n    */\r\n    function setOracleDeviationFee(uint32 _oracleDeviationFee) public ownerOnly {\r\n        require(_oracleDeviationFee <= PPM_RESOLUTION, \"ERR_INVALID_ORACLE_DEVIATION_FEE\");\r\n        emit OracleDeviationFeeUpdate(oracleDeviationFee, _oracleDeviationFee);\r\n        oracleDeviationFee = _oracleDeviationFee;\r\n    }\r\n\r\n    /**\r\n      * @dev returns the staked balance of a given reserve token\r\n      *\r\n      * @param _reserveToken    reserve token address\r\n      *\r\n      * @return staked balance\r\n    */\r\n    function reserveStakedBalance(IERC20Token _reserveToken)\r\n        public\r\n        view\r\n        validReserve(_reserveToken)\r\n        returns (uint256)\r\n    {\r\n        return stakedBalances[_reserveToken];\r\n    }\r\n\r\n    /**\r\n      * @dev returns the amplified balance of a given reserve token\r\n      *\r\n      * @param _reserveToken   reserve token address\r\n      *\r\n      * @return amplified balance\r\n    */\r\n    function reserveAmplifiedBalance(IERC20Token _reserveToken)\r\n        public\r\n        view\r\n        validReserve(_reserveToken)\r\n        returns (uint256)\r\n    {\r\n        return amplifiedBalance(_reserveToken);\r\n    }\r\n\r\n    /**\r\n      * @dev sets the reserve's staked balance\r\n      * can only be called by the upgrader contract while the upgrader is the owner\r\n      *\r\n      * @param _reserveToken    reserve token address\r\n      * @param _balance         new reserve staked balance\r\n    */\r\n    function setReserveStakedBalance(IERC20Token _reserveToken, uint256 _balance)\r\n        public\r\n        ownerOnly\r\n        only(CONVERTER_UPGRADER)\r\n        validReserve(_reserveToken)\r\n    {\r\n        stakedBalances[_reserveToken] = _balance;\r\n    }\r\n\r\n    /**\r\n      * @dev sets the max staked balance for both reserves\r\n      * available as a temporary mechanism during the beta\r\n      * can only be called by the owner\r\n      *\r\n      * @param _reserve1MaxStakedBalance    max staked balance for reserve 1\r\n      * @param _reserve2MaxStakedBalance    max staked balance for reserve 2\r\n    */\r\n    function setMaxStakedBalances(uint256 _reserve1MaxStakedBalance, uint256 _reserve2MaxStakedBalance) public ownerOnly {\r\n        maxStakedBalances[reserveTokens[0]] = _reserve1MaxStakedBalance;\r\n        maxStakedBalances[reserveTokens[1]] = _reserve2MaxStakedBalance;\r\n    }\r\n\r\n    /**\r\n      * @dev disables the max staked balance mechanism\r\n      * available as a temporary mechanism during the beta\r\n      * once disabled, it cannot be re-enabled\r\n      * can only be called by the owner\r\n    */\r\n    function disableMaxStakedBalances() public ownerOnly {\r\n        maxStakedBalanceEnabled = false;\r\n    }\r\n\r\n    /**\r\n      * @dev returns the pool token address by the reserve token address\r\n      *\r\n      * @param _reserveToken    reserve token address\r\n      *\r\n      * @return pool token address\r\n    */\r\n    function poolToken(IERC20Token _reserveToken) public view returns (ISmartToken) {\r\n        return reservesToPoolTokens[_reserveToken];\r\n    }\r\n\r\n    /**\r\n      * @dev returns the maximum number of pool tokens that can currently be liquidated\r\n      *\r\n      * @param _poolToken   address of the pool token\r\n      *\r\n      * @return liquidation limit\r\n    */\r\n    function liquidationLimit(ISmartToken _poolToken) public view returns (uint256) {\r\n        // get the pool token supply\r\n        uint256 poolTokenSupply = _poolToken.totalSupply();\r\n\r\n        // get the reserve token associated with the pool token and its balance / staked balance\r\n        IERC20Token reserveToken = poolTokensToReserves[_poolToken];\r\n        uint256 balance = reserveBalance(reserveToken);\r\n        uint256 stakedBalance = stakedBalances[reserveToken];\r\n\r\n        // calculate the amount that's available for liquidation\r\n        return balance.mul(poolTokenSupply).div(stakedBalance);\r\n    }\r\n\r\n    /**\r\n      * @dev defines a new reserve token for the converter\r\n      * can only be called by the owner while the converter is inactive and\r\n      * 2 reserves aren't defined yet\r\n      *\r\n      * @param _token   address of the reserve token\r\n      * @param _weight  reserve weight, represented in ppm, 1-1000000\r\n    */\r\n    function addReserve(IERC20Token _token, uint32 _weight) public override ownerOnly {\r\n        // verify that the converter doesn't have 2 reserves yet\r\n        require(reserveTokenCount() < 2, \"ERR_INVALID_RESERVE_COUNT\");\r\n        super.addReserve(_token, _weight);\r\n    }\r\n\r\n    /**\r\n      * @dev returns the effective rate of 1 primary token in secondary tokens\r\n      *\r\n      * @return rate of 1 primary token in secondary tokens (numerator)\r\n      * @return rate of 1 primary token in secondary tokens (denominator)\r\n    */\r\n    function effectiveTokensRate() public view returns (uint256, uint256) {\r\n        Fraction memory rate = _effectiveTokensRate();\r\n        return (rate.n, rate.d);\r\n    }\r\n\r\n    /**\r\n      * @dev returns the effective reserve tokens weights\r\n      *\r\n      * @return reserve1 weight\r\n      * @return reserve2 weight\r\n    */\r\n    function effectiveReserveWeights() public view returns (uint256, uint256) {\r\n        Fraction memory rate = _effectiveTokensRate();\r\n        (uint32 primaryReserveWeight, uint32 secondaryReserveWeight) = effectiveReserveWeights(rate);\r\n\r\n        if (primaryReserveToken == reserveTokens[0]) {\r\n            return (primaryReserveWeight, secondaryReserveWeight);\r\n        }\r\n\r\n        return (secondaryReserveWeight, primaryReserveWeight);\r\n    }\r\n\r\n    /**\r\n      * @dev returns the expected target amount of converting one reserve to another along with the fee\r\n      *\r\n      * @param _sourceToken contract address of the source reserve token\r\n      * @param _targetToken contract address of the target reserve token\r\n      * @param _amount      amount of tokens received from the user\r\n      *\r\n      * @return expected target amount\r\n      * @return expected fee\r\n    */\r\n    function targetAmountAndFee(IERC20Token _sourceToken, IERC20Token _targetToken, uint256 _amount)\r\n        public\r\n        view\r\n        override\r\n        active\r\n        validReserve(_sourceToken)\r\n        validReserve(_targetToken)\r\n        returns (uint256, uint256)\r\n    {\r\n        // validate input\r\n        require(_sourceToken != _targetToken, \"ERR_SAME_SOURCE_TARGET\");\r\n\r\n        uint32 sourceTokenWeight;\r\n        uint32 targetTokenWeight;\r\n\r\n        // if the rate was already checked in this block, use the current weights; otherwise, get the new weights\r\n        if (externalRateUpdateTime == time()) {\r\n            sourceTokenWeight = reserves[_sourceToken].weight;\r\n            targetTokenWeight = PPM_RESOLUTION - sourceTokenWeight;\r\n        }\r\n        else {\r\n            Fraction memory rate = _effectiveTokensRate();\r\n            (uint32 primaryReserveWeight, uint32 secondaryReserveWeight) = effectiveReserveWeights(rate);\r\n\r\n            if (_sourceToken == primaryReserveToken) {\r\n                sourceTokenWeight = primaryReserveWeight;\r\n                targetTokenWeight = secondaryReserveWeight;\r\n            }\r\n            else {\r\n                sourceTokenWeight = secondaryReserveWeight;\r\n                targetTokenWeight = primaryReserveWeight;\r\n            }\r\n        }\r\n\r\n        // return the target amount and the conversion fee using the updated reserve weights\r\n        (uint256 targetAmount, , uint256 fee) = targetAmountAndFees(_sourceToken, _targetToken, sourceTokenWeight, targetTokenWeight, _amount);\r\n        return (targetAmount, fee);\r\n    }\r\n\r\n    /**\r\n      * @dev converts a specific amount of source tokens to target tokens\r\n      * can only be called by the bancor network contract\r\n      *\r\n      * @param _sourceToken source ERC20 token\r\n      * @param _targetToken target ERC20 token\r\n      * @param _amount      amount of tokens to convert (in units of the source token)\r\n      * @param _trader      address of the caller who executed the conversion\r\n      * @param _beneficiary wallet to receive the conversion result\r\n      *\r\n      * @return amount of tokens received (in units of the target token)\r\n    */\r\n    function doConvert(IERC20Token _sourceToken, IERC20Token _targetToken, uint256 _amount, address _trader, address payable _beneficiary)\r\n        internal\r\n        override\r\n        active\r\n        validReserve(_sourceToken)\r\n        validReserve(_targetToken)\r\n        returns (uint256)\r\n    {\r\n        // avoid updating the rate more than once per block\r\n        if (externalRateUpdateTime < time()) {\r\n            externalRateUpdateTime = time();\r\n            externalRate = _effectiveTokensRate();\r\n            rebalance();\r\n        }\r\n\r\n        uint32 sourceTokenWeight = reserves[_sourceToken].weight;\r\n        uint32 targetTokenWeight = PPM_RESOLUTION - sourceTokenWeight;\r\n\r\n        // get expected target amount and fees\r\n        (uint256 amount, uint256 standardFee, uint256 totalFee) = targetAmountAndFees(_sourceToken, _targetToken, sourceTokenWeight, targetTokenWeight, _amount);\r\n\r\n        // ensure that the trade gives something in return\r\n        require(amount != 0, \"ERR_ZERO_TARGET_AMOUNT\");\r\n\r\n        // ensure that the input amount was already deposited\r\n        if (_sourceToken == ETH_RESERVE_ADDRESS)\r\n            require(msg.value == _amount, \"ERR_ETH_AMOUNT_MISMATCH\");\r\n        else\r\n            require(msg.value == 0 && _sourceToken.balanceOf(address(this)).sub(reserveBalance(_sourceToken)) >= _amount, \"ERR_INVALID_AMOUNT\");\r\n\r\n        // sync the reserve balances\r\n        syncReserveBalance(_sourceToken);\r\n        reserves[_targetToken].balance = reserveBalance(_targetToken).sub(amount);\r\n\r\n        // update the target staked balance with the fee\r\n        stakedBalances[_targetToken] = stakedBalances[_targetToken].add(standardFee);\r\n\r\n        // transfer funds to the beneficiary in the to reserve token\r\n        if (_targetToken == ETH_RESERVE_ADDRESS) {\r\n            _beneficiary.transfer(amount);\r\n        }\r\n        else {\r\n            safeTransfer(_targetToken, _beneficiary, amount);\r\n        }\r\n\r\n        // dispatch the conversion event\r\n        dispatchConversionEvent(_sourceToken, _targetToken, _trader, _amount, amount, totalFee);\r\n\r\n        // dispatch the rate event for the reserve tokens\r\n        dispatchTokenRateUpdateEvent(_sourceToken, _targetToken, sourceTokenWeight, targetTokenWeight);\r\n\r\n        // dispatch the rate event for the target reserve pool token\r\n        // the target reserve pool token rate is the only one that's affected\r\n        // by conversions since conversion fees are applied to the target reserve\r\n        ISmartToken targetPoolToken = reservesToPoolTokens[_targetToken];\r\n        dispatchPoolTokenRateUpdateEvent(targetPoolToken, targetPoolToken.totalSupply(), _targetToken);\r\n\r\n        // return the conversion result amount\r\n        return amount;\r\n    }\r\n\r\n    /**\r\n      * @dev increases the pool's liquidity and mints new shares in the pool to the caller\r\n      *\r\n      * @param _reserveToken    address of the reserve token to add liquidity to\r\n      * @param _amount          amount of liquidity to add\r\n      * @param _minReturn       minimum return-amount of pool tokens\r\n      *\r\n      * @return amount of pool tokens minted\r\n    */\r\n    function addLiquidity(IERC20Token _reserveToken, uint256 _amount, uint256 _minReturn)\r\n        public\r\n        payable\r\n        protected\r\n        active\r\n        validReserve(_reserveToken)\r\n        greaterThanZero(_amount)\r\n        greaterThanZero(_minReturn)\r\n        returns (uint256)\r\n    {\r\n        // verify that msg.value is identical to the provided amount for ETH reserve, or 0 otherwise\r\n        require(_reserveToken == ETH_RESERVE_ADDRESS ? msg.value == _amount : msg.value == 0, \"ERR_ETH_AMOUNT_MISMATCH\");\r\n\r\n        // sync the reserve balances just in case\r\n        syncReserveBalances();\r\n\r\n        // for ETH reserve, deduct the amount that was just synced (since it's already in the converter)\r\n        if (_reserveToken == ETH_RESERVE_ADDRESS) {\r\n            reserves[ETH_RESERVE_ADDRESS].balance = reserves[ETH_RESERVE_ADDRESS].balance.sub(msg.value);\r\n        }\r\n\r\n        // get the reserve staked balance before adding the liquidity to it\r\n        uint256 initialStakedBalance = stakedBalances[_reserveToken];\r\n\r\n        // during the beta, ensure that the new staked balance isn't greater than the max limit\r\n        if (maxStakedBalanceEnabled) {\r\n            require(maxStakedBalances[_reserveToken] == 0 || initialStakedBalance.add(_amount) <= maxStakedBalances[_reserveToken], \"ERR_MAX_STAKED_BALANCE_REACHED\");\r\n        }\r\n\r\n        // get the pool token associated with the reserve and its supply\r\n        ISmartToken reservePoolToken = reservesToPoolTokens[_reserveToken];\r\n        uint256 poolTokenSupply = reservePoolToken.totalSupply();\r\n\r\n        // for non ETH reserve, transfer the funds from the user to the pool\r\n        if (_reserveToken != ETH_RESERVE_ADDRESS)\r\n            safeTransferFrom(_reserveToken, msg.sender, address(this), _amount);\r\n\r\n        // sync the reserve balance / staked balance\r\n        reserves[_reserveToken].balance = reserves[_reserveToken].balance.add(_amount);\r\n        stakedBalances[_reserveToken] = initialStakedBalance.add(_amount);\r\n\r\n        // calculate how many pool tokens to mint\r\n        // for an empty pool, the price is 1:1, otherwise the price is based on the ratio\r\n        // between the pool token supply and the staked balance\r\n        uint256 poolTokenAmount = 0;\r\n        if (initialStakedBalance == 0 || poolTokenSupply == 0)\r\n            poolTokenAmount = _amount;\r\n        else\r\n            poolTokenAmount = _amount.mul(poolTokenSupply).div(initialStakedBalance);\r\n        require(poolTokenAmount >= _minReturn, \"ERR_RETURN_TOO_LOW\");\r\n\r\n        // mint new pool tokens to the caller\r\n        IPoolTokensContainer(address(anchor)).mint(reservePoolToken, msg.sender, poolTokenAmount);\r\n\r\n        // rebalance the pool's reserve weights\r\n        rebalance();\r\n\r\n        // dispatch the `LiquidityAdded` event\r\n        emit LiquidityAdded(msg.sender, _reserveToken, _amount, initialStakedBalance.add(_amount), poolTokenSupply.add(poolTokenAmount));\r\n\r\n        // dispatch the rate event for the relevant pool token\r\n        dispatchPoolTokenRateUpdateEvent(reservePoolToken, poolTokenSupply.add(poolTokenAmount), _reserveToken);\r\n\r\n        // dispatch the rate event for the reserve tokens\r\n        dispatchTokenRateUpdateEvent(reserveTokens[0], reserveTokens[1], 0, 0);\r\n\r\n        // return the amount of pool tokens minted\r\n        return poolTokenAmount;\r\n    }\r\n\r\n    /**\r\n      * @dev decreases the pool's liquidity and burns the caller's shares in the pool\r\n      *\r\n      * @param _poolToken   address of the pool token\r\n      * @param _amount      amount of pool tokens to burn\r\n      * @param _minReturn   minimum return-amount of reserve tokens\r\n      *\r\n      * @return amount of liquidity removed\r\n    */\r\n    function removeLiquidity(ISmartToken _poolToken, uint256 _amount, uint256 _minReturn)\r\n        public\r\n        protected\r\n        active\r\n        validPoolToken(_poolToken)\r\n        greaterThanZero(_amount)\r\n        greaterThanZero(_minReturn)\r\n        returns (uint256)\r\n    {\r\n        // sync the reserve balances just in case\r\n        syncReserveBalances();\r\n\r\n        // get the pool token supply before burning the caller's shares\r\n        uint256 initialPoolSupply = _poolToken.totalSupply();\r\n\r\n        // get the reserve token return before burning the caller's shares\r\n        (uint256 reserveAmount, ) = removeLiquidityReturnAndFee(_poolToken, _amount);\r\n        require(reserveAmount >= _minReturn, \"ERR_RETURN_TOO_LOW\");\r\n\r\n        // get the reserve token associated with the pool token\r\n        IERC20Token reserveToken = poolTokensToReserves[_poolToken];\r\n\r\n        // burn the caller's pool tokens\r\n        IPoolTokensContainer(address(anchor)).burn(_poolToken, msg.sender, _amount);\r\n\r\n        // sync the reserve balance / staked balance\r\n        reserves[reserveToken].balance = reserves[reserveToken].balance.sub(reserveAmount);\r\n        uint256 newStakedBalance = stakedBalances[reserveToken].sub(reserveAmount);\r\n        stakedBalances[reserveToken] = newStakedBalance;\r\n\r\n        // transfer the reserve amount to the caller\r\n        if (reserveToken == ETH_RESERVE_ADDRESS)\r\n            msg.sender.transfer(reserveAmount);\r\n        else\r\n            safeTransfer(reserveToken, msg.sender, reserveAmount);\r\n\r\n        // rebalance the pool's reserve weights\r\n        rebalance();\r\n\r\n        uint256 newPoolTokenSupply = initialPoolSupply.sub(_amount);\r\n\r\n        // dispatch the `LiquidityRemoved` event\r\n        emit LiquidityRemoved(msg.sender, reserveToken, reserveAmount, newStakedBalance, newPoolTokenSupply);\r\n\r\n        // dispatch the rate event for the relevant pool token\r\n        dispatchPoolTokenRateUpdateEvent(_poolToken, newPoolTokenSupply, reserveToken);\r\n\r\n        // dispatch the rate event for the reserve tokens\r\n        dispatchTokenRateUpdateEvent(reserveTokens[0], reserveTokens[1], 0, 0);\r\n\r\n        // return the amount of liquidity removed\r\n        return reserveAmount;\r\n    }\r\n\r\n    /**\r\n      * @dev calculates the amount of reserve tokens entitled for a given amount of pool tokens\r\n      * note that a fee is applied according to the equilibrium level of the primary reserve token\r\n      *\r\n      * @param _poolToken   address of the pool token\r\n      * @param _amount      amount of pool tokens\r\n      *\r\n      * @return amount after fee and fee, in reserve token units\r\n    */\r\n    function removeLiquidityReturnAndFee(ISmartToken _poolToken, uint256 _amount) public view returns (uint256, uint256) {\r\n        uint256 totalSupply = _poolToken.totalSupply();\r\n        uint256 stakedBalance = stakedBalances[poolTokensToReserves[_poolToken]];\r\n\r\n        if (_amount < totalSupply) {\r\n            uint256 x = stakedBalances[primaryReserveToken].mul(AMPLIFICATION_FACTOR);\r\n            uint256 y = amplifiedBalance(primaryReserveToken);\r\n            (uint256 min, uint256 max) = x < y ? (x, y) : (y, x);\r\n            uint256 amountBeforeFee = _amount.mul(stakedBalance).div(totalSupply);\r\n            uint256 amountAfterFee = amountBeforeFee.mul(min).div(max);\r\n            return (amountAfterFee, amountBeforeFee - amountAfterFee);\r\n        }\r\n        return (stakedBalance, 0);\r\n    }\r\n\r\n    /**\r\n      * @dev returns the expected target amount of converting one reserve to another along with the fees\r\n      * this version of the function expects the reserve weights as an input (gas optimization)\r\n      *\r\n      * @param _sourceToken     contract address of the source reserve token\r\n      * @param _targetToken     contract address of the target reserve token\r\n      * @param _sourceWeight    source reserve token weight\r\n      * @param _targetWeight    target reserve token weight\r\n      * @param _amount          amount of tokens received from the user\r\n      *\r\n      * @return expected target amount\r\n      * @return expected standard conversion fee\r\n      * @return expected total conversion fee\r\n    */\r\n    function targetAmountAndFees(\r\n        IERC20Token _sourceToken,\r\n        IERC20Token _targetToken,\r\n        uint32 _sourceWeight,\r\n        uint32 _targetWeight,\r\n        uint256 _amount)\r\n        private\r\n        view\r\n        returns (uint256, uint256, uint256)\r\n    {\r\n        // get the tokens amplified balances\r\n        uint256 sourceBalance = amplifiedBalance(_sourceToken);\r\n        uint256 targetBalance = amplifiedBalance(_targetToken);\r\n\r\n        // get the target amount\r\n        uint256 targetAmount = IBancorFormula(addressOf(BANCOR_FORMULA)).crossReserveTargetAmount(\r\n            sourceBalance,\r\n            _sourceWeight,\r\n            targetBalance,\r\n            _targetWeight,\r\n            _amount\r\n        );\r\n\r\n        uint256 standardFee = calculateFee(targetAmount);\r\n        uint256 totalFee = targetAmount.mul(oracleDeviationFee).div(PPM_RESOLUTION).add(standardFee);\r\n\r\n        // return a tuple of [target amount minus total conversion fee, standard conversion fee, total conversion fee]\r\n        return (targetAmount.sub(totalFee), standardFee, totalFee);\r\n    }\r\n\r\n    /**\r\n      * @dev creates the converter's pool tokens\r\n      * note that technically pool tokens can be created on deployment but gas limit\r\n      * might get too high for a block, so creating them on first activation\r\n      *\r\n    */\r\n    function createPoolTokens() internal {\r\n        IPoolTokensContainer container = IPoolTokensContainer(address(anchor));\r\n        ISmartToken[] memory poolTokens = container.poolTokens();\r\n        bool initialSetup = poolTokens.length == 0;\r\n\r\n        uint256 reserveCount = reserveTokens.length;\r\n        for (uint256 i = 0; i < reserveCount; i++) {\r\n            ISmartToken reservePoolToken;\r\n            if (initialSetup) {\r\n                reservePoolToken = container.createToken();\r\n            }\r\n            else {\r\n                reservePoolToken = poolTokens[i];\r\n            }\r\n\r\n            // cache the pool token address (gas optimization)\r\n            reservesToPoolTokens[reserveTokens[i]] = reservePoolToken;\r\n            poolTokensToReserves[reservePoolToken] = reserveTokens[i];\r\n        }\r\n    }\r\n\r\n    /**\r\n      * @dev returns the effective rate between the two reserve tokens\r\n      *\r\n      * @return rate\r\n    */\r\n    function _effectiveTokensRate() private view returns (Fraction memory) {\r\n        (uint256 latestRateN, uint256 latestRateD) = priceOracle.latestRate(primaryReserveToken, secondaryReserveToken);\r\n        return Fraction({ n: latestRateN, d: latestRateD });\r\n    }\r\n\r\n    /**\r\n      * @dev updates the pool's reserve weights with new values in order to push the current primary\r\n      * reserve token balance to its staked balance\r\n    */\r\n    function rebalance() private {\r\n        (reserves[primaryReserveToken].weight, reserves[secondaryReserveToken].weight) = effectiveReserveWeights(externalRate);\r\n    }\r\n\r\n    /**\r\n      * @dev returns the amplified balance of a given reserve token\r\n      * this version skips the input validation (gas optimization)\r\n      *\r\n      * @param _reserveToken   reserve token address\r\n      *\r\n      * @return amplified balance\r\n    */\r\n    function amplifiedBalance(IERC20Token _reserveToken) internal view returns (uint256) {\r\n        return stakedBalances[_reserveToken].mul(AMPLIFICATION_FACTOR - 1).add(reserves[_reserveToken].balance);\r\n    }\r\n\r\n    /**\r\n      * @dev returns the effective reserve weights based on the staked balance, current balance and oracle price\r\n      *\r\n      * @param _rate    rate between the reserve tokens\r\n      *\r\n      * @return new primary reserve weight\r\n      * @return new secondary reserve weight\r\n    */\r\n    function effectiveReserveWeights(Fraction memory _rate) private view returns (uint32, uint32) {\r\n        // get the primary reserve staked balance\r\n        uint256 primaryStakedBalance = stakedBalances[primaryReserveToken];\r\n\r\n        // get the tokens amplified balances\r\n        uint256 primaryBalance = amplifiedBalance(primaryReserveToken);\r\n        uint256 secondaryBalance = amplifiedBalance(secondaryReserveToken);\r\n\r\n        // get the new weights\r\n        return IBancorFormula(addressOf(BANCOR_FORMULA)).balancedWeights(\r\n            primaryStakedBalance.mul(AMPLIFICATION_FACTOR),\r\n            primaryBalance,\r\n            secondaryBalance,\r\n            _rate.n,\r\n            _rate.d);\r\n    }\r\n\r\n    /**\r\n      * @dev dispatches token rate update event for the reserve tokens\r\n      *\r\n      * @param _token1          contract address of the token to calculate the rate of one unit of\r\n      * @param _token2          contract address of the token to calculate the rate of one `_token1` unit in\r\n      * @param _token1Weight    reserve weight of token1\r\n      * @param _token2Weight    reserve weight of token2\r\n    */\r\n    function dispatchTokenRateUpdateEvent(IERC20Token _token1, IERC20Token _token2, uint32 _token1Weight, uint32 _token2Weight) private {\r\n        // get the amplified balances\r\n        uint256 token1Balance = amplifiedBalance(_token1);\r\n        uint256 token2Balance = amplifiedBalance(_token2);\r\n\r\n        // get the first token weight\r\n        if (_token1Weight == 0) {\r\n            _token1Weight = reserves[_token1].weight;\r\n        }\r\n\r\n        // get the second token weight\r\n        if (_token2Weight == 0) {\r\n            _token2Weight = PPM_RESOLUTION - _token1Weight;\r\n        }\r\n\r\n        emit TokenRateUpdate(_token1, _token2, token2Balance.mul(_token1Weight), token1Balance.mul(_token2Weight));\r\n    }\r\n\r\n    /**\r\n      * @dev dispatches token rate update event for one of the pool tokens\r\n      *\r\n      * @param _poolToken       address of the pool token\r\n      * @param _poolTokenSupply total pool token supply\r\n      * @param _reserveToken    address of the reserve token\r\n    */\r\n    function dispatchPoolTokenRateUpdateEvent(ISmartToken _poolToken, uint256 _poolTokenSupply, IERC20Token _reserveToken) private {\r\n        emit TokenRateUpdate(_poolToken, _reserveToken, stakedBalances[_reserveToken], _poolTokenSupply);\r\n    }\r\n\r\n    /**\r\n      * @dev returns the current time\r\n    */\r\n    function time() internal view virtual returns (uint256) {\r\n        return now;\r\n    }\r\n}\r\n",
  "sourcePath": "/home/lash/src/ext/cic/grassrootseconomics/bancor-contracts/solidity/contracts/converter/types/liquidity-pool-v2/LiquidityPoolV2Converter.sol",
  "compiler": {
    "name": "solc",
    "version": "0.6.12+commit.27d51765.Emscripten.clang"
  },
  "schemaVersion": "3.2.3",
  "updatedAt": "2020-11-10T14:20:35.956Z",
  "devdoc": {
    "details": "Liquidity Pool v2 Converter The liquidity pool v2 converter is a specialized version of a converter that uses price oracles to rebalance the reserve weights in such a way that the primary token balance always strives to match the staked balance. This type of liquidity pool always has 2 reserves and the reserve weights are dynamic.",
    "events": {
      "OracleDeviationFeeUpdate(uint32,uint32)": {
        "details": "triggered when the oracle deviation fee is updated",
        "params": {
          "_newFee": "new fee percentage, represented in ppm",
          "_prevFee": "previous fee percentage, represented in ppm"
        }
      }
    },
    "kind": "dev",
    "methods": {
      "acceptAnchorOwnership()": {
        "details": "accepts ownership of the anchor after an ownership transfer also activates the converter can only be called by the contract owner note that prior to version 28, you should use 'acceptTokenOwnership' instead"
      },
      "acceptOwnership()": {
        "details": "used by a new owner to accept an ownership transfer"
      },
      "acceptTokenOwnership()": {
        "details": "deprecated, backward compatibility"
      },
      "activate(address,address,address)": {
        "details": "sets the pool's primary reserve token / price oracles and activates the pool each oracle must be able to provide the rate for each reserve token note that the oracle must be whitelisted prior to the call can only be called by the owner while the pool is inactive",
        "params": {
          "_primaryReserveOracle": "address of a chainlink price oracle for the primary reserve token",
          "_primaryReserveToken": "address of the pool's primary reserve token",
          "_secondaryReserveOracle": "address of a chainlink price oracle for the secondary reserve token"
        }
      },
      "addLiquidity(address,uint256,uint256)": {
        "details": "increases the pool's liquidity and mints new shares in the pool to the caller",
        "params": {
          "_amount": "amount of liquidity to add",
          "_minReturn": "minimum return-amount of pool tokens",
          "_reserveToken": "address of the reserve token to add liquidity to"
        },
        "returns": {
          "_0": "amount of pool tokens minted"
        }
      },
      "addReserve(address,uint32)": {
        "details": "defines a new reserve token for the converter can only be called by the owner while the converter is inactive and 2 reserves aren't defined yet",
        "params": {
          "_token": "address of the reserve token",
          "_weight": "reserve weight, represented in ppm, 1-1000000"
        }
      },
      "connectorTokenCount()": {
        "details": "deprecated, backward compatibility"
      },
      "connectorTokens(uint256)": {
        "details": "deprecated, backward compatibility"
      },
      "connectors(address)": {
        "details": "deprecated, backward compatibility"
      },
      "constructor": {
        "details": "initializes a new LiquidityPoolV2Converter instance",
        "params": {
          "_maxConversionFee": "maximum conversion fee, represented in ppm",
          "_poolTokensContainer": "pool tokens container governed by the converter",
          "_registry": "address of a contract registry contract"
        }
      },
      "convert(address,address,uint256,address,address)": {
        "details": "converts a specific amount of source tokens to target tokens can only be called by the bancor network contract",
        "params": {
          "_amount": "amount of tokens to convert (in units of the source token)",
          "_beneficiary": "wallet to receive the conversion result",
          "_sourceToken": "source ERC20 token",
          "_targetToken": "target ERC20 token",
          "_trader": "address of the caller who executed the conversion"
        },
        "returns": {
          "_0": "amount of tokens received (in units of the target token)"
        }
      },
      "converterType()": {
        "details": "returns the converter type",
        "returns": {
          "_0": "see the converter types in the the main contract doc"
        }
      },
      "disableMaxStakedBalances()": {
        "details": "disables the max staked balance mechanism available as a temporary mechanism during the beta once disabled, it cannot be re-enabled can only be called by the owner"
      },
      "effectiveReserveWeights()": {
        "details": "returns the effective reserve tokens weights",
        "returns": {
          "_0": "reserve1 weight",
          "_1": "reserve2 weight"
        }
      },
      "effectiveTokensRate()": {
        "details": "returns the effective rate of 1 primary token in secondary tokens",
        "returns": {
          "_0": "rate of 1 primary token in secondary tokens (numerator)",
          "_1": "rate of 1 primary token in secondary tokens (denominator)"
        }
      },
      "getConnectorBalance(address)": {
        "details": "deprecated, backward compatibility"
      },
      "getReturn(address,address,uint256)": {
        "details": "deprecated, backward compatibility"
      },
      "hasETHReserve()": {
        "details": "checks whether or not the converter has an ETH reserve",
        "returns": {
          "_0": "true if the converter has an ETH reserve, false otherwise"
        }
      },
      "isActive()": {
        "details": "returns true if the converter is active, false otherwise",
        "returns": {
          "_0": "true if the converter is active, false otherwise"
        }
      },
      "isV28OrHigher()": {
        "details": "checks whether or not the converter version is 28 or higher",
        "returns": {
          "_0": "true, since the converter version is 28 or higher"
        }
      },
      "liquidationLimit(address)": {
        "details": "returns the maximum number of pool tokens that can currently be liquidated",
        "params": {
          "_poolToken": "address of the pool token"
        },
        "returns": {
          "_0": "liquidation limit"
        }
      },
      "poolToken(address)": {
        "details": "returns the pool token address by the reserve token address",
        "params": {
          "_reserveToken": "reserve token address"
        },
        "returns": {
          "_0": "pool token address"
        }
      },
      "removeLiquidity(address,uint256,uint256)": {
        "details": "decreases the pool's liquidity and burns the caller's shares in the pool",
        "params": {
          "_amount": "amount of pool tokens to burn",
          "_minReturn": "minimum return-amount of reserve tokens",
          "_poolToken": "address of the pool token"
        },
        "returns": {
          "_0": "amount of liquidity removed"
        }
      },
      "removeLiquidityReturnAndFee(address,uint256)": {
        "details": "calculates the amount of reserve tokens entitled for a given amount of pool tokens note that a fee is applied according to the equilibrium level of the primary reserve token",
        "params": {
          "_amount": "amount of pool tokens",
          "_poolToken": "address of the pool token"
        },
        "returns": {
          "_0": "amount after fee and fee, in reserve token units"
        }
      },
      "reserveAmplifiedBalance(address)": {
        "details": "returns the amplified balance of a given reserve token",
        "params": {
          "_reserveToken": "reserve token address"
        },
        "returns": {
          "_0": "amplified balance"
        }
      },
      "reserveBalance(address)": {
        "details": "returns the reserve's balance note that prior to version 17, you should use 'getConnectorBalance' instead",
        "params": {
          "_reserveToken": "reserve token contract address"
        },
        "returns": {
          "_0": "reserve balance"
        }
      },
      "reserveStakedBalance(address)": {
        "details": "returns the staked balance of a given reserve token",
        "params": {
          "_reserveToken": "reserve token address"
        },
        "returns": {
          "_0": "staked balance"
        }
      },
      "reserveTokenCount()": {
        "details": "returns the number of reserve tokens defined note that prior to version 17, you should use 'connectorTokenCount' instead",
        "returns": {
          "_0": "number of reserve tokens"
        }
      },
      "reserveWeight(address)": {
        "details": "returns the reserve's weight added in version 28",
        "params": {
          "_reserveToken": "reserve token contract address"
        },
        "returns": {
          "_0": "reserve weight"
        }
      },
      "restoreRegistry()": {
        "details": "restores the previous contract-registry"
      },
      "restrictRegistryUpdate(bool)": {
        "details": "restricts the permission to update the contract-registry",
        "params": {
          "_onlyOwnerCanUpdateRegistry": "indicates whether or not permission is restricted to owner only"
        }
      },
      "setConversionFee(uint32)": {
        "details": "updates the current conversion fee can only be called by the contract owner",
        "params": {
          "_conversionFee": "new conversion fee, represented in ppm"
        }
      },
      "setConversionWhitelist(address)": {
        "details": "allows the owner to update & enable the conversion whitelist contract address when set, only addresses that are whitelisted are actually allowed to use the converter note that the whitelist check is actually done by the BancorNetwork contract",
        "params": {
          "_whitelist": "address of a whitelist contract"
        }
      },
      "setMaxStakedBalances(uint256,uint256)": {
        "details": "sets the max staked balance for both reserves available as a temporary mechanism during the beta can only be called by the owner",
        "params": {
          "_reserve1MaxStakedBalance": "max staked balance for reserve 1",
          "_reserve2MaxStakedBalance": "max staked balance for reserve 2"
        }
      },
      "setOracleDeviationFee(uint32)": {
        "details": "updates the current oracle deviation fee can only be called by the contract owner",
        "params": {
          "_oracleDeviationFee": "new oracle deviation fee, represented in ppm"
        }
      },
      "setReserveStakedBalance(address,uint256)": {
        "details": "sets the reserve's staked balance can only be called by the upgrader contract while the upgrader is the owner",
        "params": {
          "_balance": "new reserve staked balance",
          "_reserveToken": "reserve token address"
        }
      },
      "targetAmountAndFee(address,address,uint256)": {
        "details": "returns the expected target amount of converting one reserve to another along with the fee",
        "params": {
          "_amount": "amount of tokens received from the user",
          "_sourceToken": "contract address of the source reserve token",
          "_targetToken": "contract address of the target reserve token"
        },
        "returns": {
          "_0": "expected target amount",
          "_1": "expected fee"
        }
      },
      "token()": {
        "details": "deprecated since version 28, backward compatibility - use only for earlier versions"
      },
      "transferAnchorOwnership(address)": {
        "details": "transfers the anchor ownership the new owner needs to accept the transfer can only be called by the converter upgrder while the upgrader is the owner note that prior to version 28, you should use 'transferAnchorOwnership' instead",
        "params": {
          "_newOwner": "new token owner"
        }
      },
      "transferOwnership(address)": {
        "details": "allows transferring the contract ownership the new owner still needs to accept the transfer can only be called by the contract owner",
        "params": {
          "_newOwner": "new contract owner"
        }
      },
      "transferTokenOwnership(address)": {
        "details": "deprecated, backward compatibility"
      },
      "updateRegistry()": {
        "details": "updates to the new contract-registry"
      },
      "upgrade()": {
        "details": "upgrades the converter to the latest version can only be called by the owner note that the owner needs to call acceptOwnership on the new converter after the upgrade"
      },
      "withdrawETH(address)": {
        "details": "withdraws ether can only be called by the owner if the converter is inactive or by upgrader contract can only be called after the upgrader contract has accepted the ownership of this contract can only be called if the converter has an ETH reserve",
        "params": {
          "_to": "address to send the ETH to"
        }
      },
      "withdrawFromAnchor(address,address,uint256)": {
        "details": "withdraws tokens held by the anchor and sends them to an account can only be called by the owner",
        "params": {
          "_amount": "amount to withdraw",
          "_to": "account to receive the new amount",
          "_token": "ERC20 token contract address"
        }
      },
      "withdrawTokens(address,address,uint256)": {
        "details": "withdraws tokens held by the converter and sends them to an account can only be called by the owner note that reserve tokens can only be withdrawn by the owner while the converter is inactive unless the owner is the converter upgrader contract",
        "params": {
          "_amount": "amount to withdraw",
          "_to": "account to receive the new amount",
          "_token": "ERC20 token contract address"
        }
      }
    },
    "version": 1
  },
  "userdoc": {
    "kind": "user",
    "methods": {},
    "version": 1
  }
}