{
  "contractName": "PoolTokensContainer",
  "abi": [
    {
      "inputs": [
        {
          "internalType": "string",
          "name": "_name",
          "type": "string"
        },
        {
          "internalType": "string",
          "name": "_symbol",
          "type": "string"
        },
        {
          "internalType": "uint8",
          "name": "_decimals",
          "type": "uint8"
        }
      ],
      "stateMutability": "nonpayable",
      "type": "constructor"
    },
    {
      "anonymous": false,
      "inputs": [
        {
          "indexed": true,
          "internalType": "address",
          "name": "_prevOwner",
          "type": "address"
        },
        {
          "indexed": true,
          "internalType": "address",
          "name": "_newOwner",
          "type": "address"
        }
      ],
      "name": "OwnerUpdate",
      "type": "event"
    },
    {
      "inputs": [],
      "name": "acceptOwnership",
      "outputs": [],
      "stateMutability": "nonpayable",
      "type": "function"
    },
    {
      "inputs": [],
      "name": "decimals",
      "outputs": [
        {
          "internalType": "uint8",
          "name": "",
          "type": "uint8"
        }
      ],
      "stateMutability": "view",
      "type": "function"
    },
    {
      "inputs": [],
      "name": "name",
      "outputs": [
        {
          "internalType": "string",
          "name": "",
          "type": "string"
        }
      ],
      "stateMutability": "view",
      "type": "function"
    },
    {
      "inputs": [],
      "name": "newOwner",
      "outputs": [
        {
          "internalType": "address",
          "name": "",
          "type": "address"
        }
      ],
      "stateMutability": "view",
      "type": "function"
    },
    {
      "inputs": [],
      "name": "owner",
      "outputs": [
        {
          "internalType": "address",
          "name": "",
          "type": "address"
        }
      ],
      "stateMutability": "view",
      "type": "function"
    },
    {
      "inputs": [],
      "name": "symbol",
      "outputs": [
        {
          "internalType": "string",
          "name": "",
          "type": "string"
        }
      ],
      "stateMutability": "view",
      "type": "function"
    },
    {
      "inputs": [
        {
          "internalType": "address",
          "name": "_newOwner",
          "type": "address"
        }
      ],
      "name": "transferOwnership",
      "outputs": [],
      "stateMutability": "nonpayable",
      "type": "function"
    },
    {
      "inputs": [
        {
          "internalType": "contract IERC20Token",
          "name": "_token",
          "type": "address"
        },
        {
          "internalType": "address",
          "name": "_to",
          "type": "address"
        },
        {
          "internalType": "uint256",
          "name": "_amount",
          "type": "uint256"
        }
      ],
      "name": "withdrawTokens",
      "outputs": [],
      "stateMutability": "nonpayable",
      "type": "function"
    },
    {
      "inputs": [],
      "name": "poolTokens",
      "outputs": [
        {
          "internalType": "contract ISmartToken[]",
          "name": "",
          "type": "address[]"
        }
      ],
      "stateMutability": "view",
      "type": "function"
    },
    {
      "inputs": [],
      "name": "createToken",
      "outputs": [
        {
          "internalType": "contract ISmartToken",
          "name": "",
          "type": "address"
        }
      ],
      "stateMutability": "nonpayable",
      "type": "function"
    },
    {
      "inputs": [
        {
          "internalType": "contract ISmartToken",
          "name": "_token",
          "type": "address"
        },
        {
          "internalType": "address",
          "name": "_to",
          "type": "address"
        },
        {
          "internalType": "uint256",
          "name": "_amount",
          "type": "uint256"
        }
      ],
      "name": "mint",
      "outputs": [],
      "stateMutability": "nonpayable",
      "type": "function"
    },
    {
      "inputs": [
        {
          "internalType": "contract ISmartToken",
          "name": "_token",
          "type": "address"
        },
        {
          "internalType": "address",
          "name": "_from",
          "type": "address"
        },
        {
          "internalType": "uint256",
          "name": "_amount",
          "type": "uint256"
        }
      ],
      "name": "burn",
      "outputs": [],
      "stateMutability": "nonpayable",
      "type": "function"
    }
  ],
  "bytecode": "0x60806040523480156200001157600080fd5b506040516200224a3803806200224a833981810160405260608110156200003757600080fd5b81019080805160405193929190846401000000008211156200005857600080fd5b9083019060208201858111156200006e57600080fd5b82516401000000008111828201881017156200008957600080fd5b82525081516020918201929091019080838360005b83811015620000b85781810151838201526020016200009e565b50505050905090810190601f168015620000e65780820380516001836020036101000a031916815260200191505b50604052602001805160405193929190846401000000008211156200010a57600080fd5b9083019060208201858111156200012057600080fd5b82516401000000008111828201881017156200013b57600080fd5b82525081516020918201929091019080838360005b838110156200016a57818101518382015260200162000150565b50505050905090810190601f168015620001985780820380516001836020036101000a031916815260200191505b5060405260200151600080546001600160a01b0319163317905584519092501515905062000200576040805162461bcd60e51b815260206004820152601060248201526f4552525f494e56414c49445f4e414d4560801b604482015290519081900360640190fd5b60008251116200024c576040805162461bcd60e51b815260206004820152601260248201527111549497d253959053125117d4d6535093d360721b604482015290519081900360640190fd5b82516200026190600290602086019062000295565b5081516200027790600390602085019062000295565b506004805460ff191660ff9290921691909117905550620003319050565b828054600181600116156101000203166002900490600052602060002090601f016020900481019282601f10620002d857805160ff191683800117855562000308565b8280016001018555821562000308579182015b8281111562000308578251825591602001919060010190620002eb565b50620003169291506200031a565b5090565b5b808211156200031657600081556001016200031b565b611f0980620003416000396000f3fe60806040523480156200001157600080fd5b5060043610620000c45760003560e01c806395d89b41116200007b57806395d89b4114620002325780639cbf9e36146200023c578063c6c3bbe61462000246578063d4ee1d90146200027f578063f2fde38b1462000289578063f6b911bc14620002b257620000c4565b806306fdde0314620000c9578063313ce567146200014b5780635e35359e146200016b5780636d3e313e14620001a657806379ba509714620002025780638da5cb5b146200020c575b600080fd5b620000d3620002eb565b6040805160208082528351818301528351919283929083019185019080838360005b838110156200010f578181015183820152602001620000f5565b50505050905090810190601f1680156200013d5780820380516001836020036101000a031916815260200191505b509250505060405180910390f35b620001556200037a565b6040805160ff9092168252519081900360200190f35b620001a4600480360360608110156200018357600080fd5b506001600160a01b0381358116916020810135909116906040013562000383565b005b620001b0620003c6565b60408051602080825283518183015283519192839290830191858101910280838360005b83811015620001ee578181015183820152602001620001d4565b505050509050019250505060405180910390f35b620001a46200042a565b62000216620004e2565b604080516001600160a01b039092168252519081900360200190f35b620000d3620004f1565b620002166200054f565b620001a4600480360360608110156200025e57600080fd5b506001600160a01b038135811691602081013590911690604001356200082e565b62000216620008ae565b620001a460048036036020811015620002a157600080fd5b50356001600160a01b0316620008bd565b620001a460048036036060811015620002ca57600080fd5b506001600160a01b038135811691602081013590911690604001356200093e565b6002805460408051602060018416156101000260001901909316849004601f81018490048402820184019092528181529291830182828015620003725780601f10620003465761010080835404028352916020019162000372565b820191906000526020600020905b8154815290600101906020018083116200035457829003601f168201915b505050505081565b60045460ff1681565b6200038d620009a0565b826200039981620009f6565b82620003a581620009f6565b83620003b18162000a4b565b620003be86868662000aa0565b505050505050565b606060058054806020026020016040519081016040528092919081815260200182805480156200042057602002820191906000526020600020905b81546001600160a01b0316815260019091019060200180831162000401575b5050505050905090565b6001546001600160a01b031633146200047e576040805162461bcd60e51b815260206004820152601160248201527011549497d050d0d154d4d7d11153925151607a1b604482015290519081900360640190fd5b600154600080546040516001600160a01b0393841693909116917f343765429aea5a34b3ff6a3785a98a5abb2597aca87bfbb58632c173d585373a91a360018054600080546001600160a01b03199081166001600160a01b03841617909155169055565b6000546001600160a01b031681565b6003805460408051602060026001851615610100026000190190941693909304601f81018490048402820184019092528181529291830182828015620003725780601f10620003465761010080835404028352916020019162000372565b60006200055b620009a0565b6005805410620005aa576040805162461bcd60e51b815260206004820152601560248201527411549497d3505617d31253525517d4915050d21151605a1b604482015290519081900360640190fd5b6002805460408051602060018416156101000260001901909316849004601f81018490048402820184019092528181526060936200064e93919290918301828280156200063b5780601f106200060f576101008083540402835291602001916200063b565b820191906000526020600020905b8154815290600101906020018083116200061d57829003601f168201915b5050600554600101925062000c08915050565b60038054604080516020601f60026000196101006001881615020190951694909404938401819004810282018101909252828152939450606093620006ba93909290918301828280156200063b5780601f106200060f576101008083540402835291602001916200063b565b905060008282600460009054906101000a900460ff16604051620006de9062000c92565b60ff82166040820152606080825284519082015283518190602080830191608084019188019080838360005b83811015620007245781810151838201526020016200070a565b50505050905090810190601f168015620007525780820380516001836020036101000a031916815260200191505b50838103825285518152855160209182019187019080838360005b83811015620007875781810151838201526020016200076d565b50505050905090810190601f168015620007b55780820380516001836020036101000a031916815260200191505b5095505050505050604051809103906000f080158015620007da573d6000803e3d6000fd5b50600580546001810182556000919091527f036b6384b5eca791c62761152d0c79bb0604c104a5fb6f4eb0703f3154bb3db00180546001600160a01b0319166001600160a01b038316179055949350505050565b62000838620009a0565b826001600160a01b031663867904b483836040518363ffffffff1660e01b815260040180836001600160a01b0316815260200182815260200192505050600060405180830381600087803b1580156200089057600080fd5b505af1158015620008a5573d6000803e3d6000fd5b50505050505050565b6001546001600160a01b031681565b620008c7620009a0565b6000546001600160a01b03828116911614156200091c576040805162461bcd60e51b815260206004820152600e60248201526d22a9292fa9a0a6a2afa7aba722a960911b604482015290519081900360640190fd5b600180546001600160a01b0319166001600160a01b0392909216919091179055565b62000948620009a0565b826001600160a01b031663a24835d183836040518363ffffffff1660e01b815260040180836001600160a01b0316815260200182815260200192505050600060405180830381600087803b1580156200089057600080fd5b6000546001600160a01b03163314620009f4576040805162461bcd60e51b815260206004820152601160248201527011549497d050d0d154d4d7d11153925151607a1b604482015290519081900360640190fd5b565b6001600160a01b03811662000a48576040805162461bcd60e51b81526020600482015260136024820152724552525f494e56414c49445f4144445245535360681b604482015290519081900360640190fd5b50565b6001600160a01b03811630141562000a48576040805162461bcd60e51b815260206004820152601360248201527222a9292fa0a2222922a9a9afa4a9afa9a2a62360691b604482015290519081900360640190fd5b604080516001600160a01b038481166024830152604480830185905283518084039091018152606490920183526020820180516001600160e01b031663a9059cbb60e01b178152925182516000946060949389169392918291908083835b6020831062000b1f5780518252601f19909201916020918201910162000afe565b6001836020036101000a0380198251168184511680821785525050505050509050019150506000604051808303816000865af19150503d806000811462000b83576040519150601f19603f3d011682016040523d82523d6000602084013e62000b88565b606091505b509150915081801562000bb957508051158062000bb9575080806020019051602081101562000bb657600080fd5b50515b62000c01576040805162461bcd60e51b815260206004820152601360248201527211549497d514905394d1915497d19052531151606a1b604482015290519081900360640190fd5b5050505050565b60608282600360fc1b60f81c016040516020018083805190602001908083835b6020831062000c495780518252601f19909201916020918201910162000c28565b6001836020036101000a0380198251168184511680821785525050505050509050018260ff1660f81b815260010192505050604051602081830303815290604052905092915050565b6112338062000ca18339019056fe60806040526008805460ff191660011790553480156200001e57600080fd5b506040516200123338038062001233833981810160405260608110156200004457600080fd5b81019080805160405193929190846401000000008211156200006557600080fd5b9083019060208201858111156200007b57600080fd5b82516401000000008111828201881017156200009657600080fd5b82525081516020918201929091019080838360005b83811015620000c5578181015183820152602001620000ab565b50505050905090810190601f168015620000f35780820380516001836020036101000a031916815260200191505b50604052602001805160405193929190846401000000008211156200011757600080fd5b9083019060208201858111156200012d57600080fd5b82516401000000008111828201881017156200014857600080fd5b82525081516020918201929091019080838360005b83811015620001775781810151838201526020016200015d565b50505050905090810190601f168015620001a55780820380516001836020036101000a031916815260200191505b5060405260200151600080546001600160a01b031916331781558551919350859250849184919062000211576040805162461bcd60e51b815260206004820152601060248201526f4552525f494e56414c49445f4e414d4560801b604482015290519081900360640190fd5b60008351116200025d576040805162461bcd60e51b815260206004820152601260248201527111549497d253959053125117d4d6535093d360721b604482015290519081900360640190fd5b835162000272906002906020870190620002bf565b50825162000288906003906020860190620002bf565b506004805460ff191660ff9390931692909217909155600581905533600090815260066020526040902055506200035b9350505050565b828054600181600116156101000203166002900490600052602060002090601f016020900481019282601f106200030257805160ff191683800117855562000332565b8280016001018555821562000332579182015b828111156200033257825182559160200191906001019062000315565b506200034092915062000344565b5090565b5b8082111562000340576000815560010162000345565b610ec8806200036b6000396000f3fe608060405234801561001057600080fd5b50600436106101215760003560e01c806379ba5097116100ad578063a9059cbb11610071578063a9059cbb14610379578063bef97c87146103a5578063d4ee1d90146103ad578063dd62ed3e146103b5578063f2fde38b146103e357610121565b806379ba5097146102ed578063867904b4146102f55780638da5cb5b1461032157806395d89b4114610345578063a24835d11461034d57610121565b806323b872dd116100f457806323b872dd1461021e578063313ce5671461025457806354fd4d50146102725780635e35359e1461029157806370a08231146102c757610121565b806306fdde0314610126578063095ea7b3146101a35780631608f18f146101e357806318160ddd14610204575b600080fd5b61012e610409565b6040805160208082528351818301528351919283929083019185019080838360005b83811015610168578181015183820152602001610150565b50505050905090810190601f1680156101955780820380516001836020036101000a031916815260200191505b509250505060405180910390f35b6101cf600480360360408110156101b957600080fd5b506001600160a01b038135169060200135610494565b604080519115158252519081900360200190f35b610202600480360360208110156101f957600080fd5b5035151561057c565b005b61020c610596565b60408051918252519081900360200190f35b6101cf6004803603606081101561023457600080fd5b506001600160a01b0381358116916020810135909116906040013561059c565b61025c6105b9565b6040805160ff9092168252519081900360200190f35b61027a6105c2565b6040805161ffff9092168252519081900360200190f35b610202600480360360608110156102a757600080fd5b506001600160a01b038135811691602081013590911690604001356105c7565b61020c600480360360208110156102dd57600080fd5b50356001600160a01b0316610600565b610202610612565b6102026004803603604081101561030b57600080fd5b506001600160a01b0381351690602001356106c9565b61032961079f565b604080516001600160a01b039092168252519081900360200190f35b61012e6107ae565b6102026004803603604081101561036357600080fd5b506001600160a01b038135169060200135610809565b6101cf6004803603604081101561038f57600080fd5b506001600160a01b0381351690602001356108c3565b6101cf6108de565b6103296108e7565b61020c600480360360408110156103cb57600080fd5b506001600160a01b03813581169160200135166108f6565b610202600480360360208110156103f957600080fd5b50356001600160a01b0316610913565b6002805460408051602060018416156101000260001901909316849004601f8101849004840282018401909252818152929183018282801561048c5780601f106104615761010080835404028352916020019161048c565b820191906000526020600020905b81548152906001019060200180831161046f57829003601f168201915b505050505081565b6000826104a081610991565b8215806104ce57503360009081526007602090815260408083206001600160a01b0388168452909152902054155b610514576040805162461bcd60e51b815260206004820152601260248201527111549497d253959053125117d05353d5539560721b604482015290519081900360640190fd5b3360008181526007602090815260408083206001600160a01b03891680855290835292819020879055805187815290519293927f8c5be1e5ebec7d5bd14f71427d1e84f3dd0314c0f7b2291e5b200ac8c7c3b925929181900390910190a35060019392505050565b6105846109e5565b6008805460ff19169115919091179055565b60055481565b60006105a6610a3a565b6105b1848484610a8a565b949350505050565b60045460ff1681565b600481565b6105cf6109e5565b826105d981610991565b826105e381610991565b836105ed81610b89565b6105f8868686610bdd565b505050505050565b60066020526000908152604090205481565b6001546001600160a01b03163314610665576040805162461bcd60e51b815260206004820152601160248201527011549497d050d0d154d4d7d11153925151607a1b604482015290519081900360640190fd5b600154600080546040516001600160a01b0393841693909116917f343765429aea5a34b3ff6a3785a98a5abb2597aca87bfbb58632c173d585373a91a360018054600080546001600160a01b03199081166001600160a01b03841617909155169055565b6106d16109e5565b816106db81610991565b826106e581610b89565b6005546106f29084610d3d565b6005556001600160a01b0384166000908152600660205260409020546107189084610d3d565b6001600160a01b03851660009081526006602090815260409182902092909255805185815290517f9386c90217c323f58030f9dadcbc938f807a940f4ff41cd4cead9562f5da7dc3929181900390910190a16040805184815290516001600160a01b03861691600091600080516020610e738339815191529181900360200190a350505050565b6000546001600160a01b031681565b6003805460408051602060026001851615610100026000190190941693909304601f8101849004840282018401909252818152929183018282801561048c5780601f106104615761010080835404028352916020019161048c565b6108116109e5565b6001600160a01b0382166000908152600660205260409020546108349082610d86565b6001600160a01b03831660009081526006602052604090205560055461085a9082610d86565b6005556040805182815290516000916001600160a01b03851691600080516020610e738339815191529181900360200190a36040805182815290517f9a1b418bc061a5d80270261562e6986a35d995f8051145f277be16103abd34539181900360200190a15050565b60006108cd610a3a565b6108d78383610dd3565b9392505050565b60085460ff1681565b6001546001600160a01b031681565b600760209081526000928352604080842090915290825290205481565b61091b6109e5565b6000546001600160a01b038281169116141561096f576040805162461bcd60e51b815260206004820152600e60248201526d22a9292fa9a0a6a2afa7aba722a960911b604482015290519081900360640190fd5b600180546001600160a01b0319166001600160a01b0392909216919091179055565b6001600160a01b0381166109e2576040805162461bcd60e51b81526020600482015260136024820152724552525f494e56414c49445f4144445245535360681b604482015290519081900360640190fd5b50565b6000546001600160a01b03163314610a38576040805162461bcd60e51b815260206004820152601160248201527011549497d050d0d154d4d7d11153925151607a1b604482015290519081900360640190fd5b565b60085460ff16610a38576040805162461bcd60e51b815260206004820152601660248201527511549497d514905394d1915494d7d11254d05093115160521b604482015290519081900360640190fd5b600083610a9681610991565b83610aa081610991565b6001600160a01b0386166000908152600760209081526040808320338452909152902054610ace9085610d86565b6001600160a01b038716600081815260076020908152604080832033845282528083209490945591815260069091522054610b099085610d86565b6001600160a01b038088166000908152600660205260408082209390935590871681522054610b389085610d3d565b6001600160a01b0380871660008181526006602090815260409182902094909455805188815290519193928a1692600080516020610e7383398151915292918290030190a350600195945050505050565b6001600160a01b0381163014156109e2576040805162461bcd60e51b815260206004820152601360248201527222a9292fa0a2222922a9a9afa4a9afa9a2a62360691b604482015290519081900360640190fd5b604080516001600160a01b038481166024830152604480830185905283518084039091018152606490920183526020820180516001600160e01b031663a9059cbb60e01b178152925182516000946060949389169392918291908083835b60208310610c5a5780518252601f199092019160209182019101610c3b565b6001836020036101000a0380198251168184511680821785525050505050509050019150506000604051808303816000865af19150503d8060008114610cbc576040519150601f19603f3d011682016040523d82523d6000602084013e610cc1565b606091505b5091509150818015610cef575080511580610cef5750808060200190516020811015610cec57600080fd5b50515b610d36576040805162461bcd60e51b815260206004820152601360248201527211549497d514905394d1915497d19052531151606a1b604482015290519081900360640190fd5b5050505050565b6000828201838110156108d7576040805162461bcd60e51b815260206004820152600c60248201526b4552525f4f564552464c4f5760a01b604482015290519081900360640190fd5b600081831015610dcd576040805162461bcd60e51b815260206004820152600d60248201526c4552525f554e444552464c4f5760981b604482015290519081900360640190fd5b50900390565b600082610ddf81610991565b33600090815260066020526040902054610df99084610d86565b33600090815260066020526040808220929092556001600160a01b03861681522054610e259084610d3d565b6001600160a01b038516600081815260066020908152604091829020939093558051868152905191923392600080516020610e738339815191529281900390910190a3506001939250505056feddf252ad1be2c89b69c2b068fc378daa952ba7f163c4a11628f55a4df523b3efa2646970667358221220d062eb319db2db22c11903c935b69a66b9513479c3c65c965f0b19eb73aa4f9464736f6c634300060c0033a26469706673582212204f09fb1778cc831abb7f873219dbed978e552fc8cd81237b1adc3e5d9ff2530f64736f6c634300060c0033",
  "immutableReferences": {},
  "source": "// SPDX-License-Identifier: SEE LICENSE IN LICENSE\r\npragma solidity 0.6.12;\r\nimport \"./interfaces/IPoolTokensContainer.sol\";\r\nimport \"../../../utility/Owned.sol\";\r\nimport \"../../../utility/TokenHolder.sol\";\r\nimport \"../../../token/SmartToken.sol\";\r\n\r\n/**\r\n  * @dev The PoolTokensContainer contract serves as a container for multiple pool tokens.\r\n  * It is used by specific liquidity pool types that require more than a single pool token,\r\n  * while still maintaining the single converter / anchor relationship.\r\n  *\r\n  * It maintains and provides a list of the underlying pool tokens.\r\n */\r\ncontract PoolTokensContainer is IPoolTokensContainer, Owned, TokenHolder {\r\n    uint8 internal constant MAX_POOL_TOKENS = 5;    // maximum pool tokens in the container\r\n\r\n    string public name;                 // pool name\r\n    string public symbol;               // pool symbol\r\n    uint8 public decimals;              // underlying pool tokens decimals\r\n    ISmartToken[] private _poolTokens;  // underlying pool tokens\r\n\r\n    /**\r\n      * @dev initializes a new PoolTokensContainer instance\r\n      *\r\n      * @param  _name       pool name, also used as a prefix for the underlying pool token names\r\n      * @param  _symbol     pool symbol, also used as a prefix for the underlying pool token symbols\r\n      * @param  _decimals   used for the underlying pool token decimals\r\n    */\r\n    constructor(string memory _name, string memory _symbol, uint8 _decimals) public {\r\n         // validate input\r\n        require(bytes(_name).length > 0, \"ERR_INVALID_NAME\");\r\n        require(bytes(_symbol).length > 0, \"ERR_INVALID_SYMBOL\");\r\n\r\n        name = _name;\r\n        symbol = _symbol;\r\n        decimals = _decimals;\r\n    }\r\n\r\n    /**\r\n      * @dev returns the list of pool tokens\r\n      *\r\n      * @return list of pool tokens\r\n    */\r\n    function poolTokens() external view override returns (ISmartToken[] memory) {\r\n        return _poolTokens;\r\n    }\r\n\r\n    /**\r\n      * @dev creates a new pool token and adds it to the list\r\n      *\r\n      * @return new pool token address\r\n    */\r\n    function createToken() external override ownerOnly returns (ISmartToken) {\r\n        // verify that the max limit wasn't reached\r\n        require(_poolTokens.length < MAX_POOL_TOKENS, \"ERR_MAX_LIMIT_REACHED\");\r\n\r\n        string memory poolName = concatStrDigit(name, uint8(_poolTokens.length + 1));\r\n        string memory poolSymbol = concatStrDigit(symbol, uint8(_poolTokens.length + 1));\r\n\r\n        SmartToken token = new SmartToken(poolName, poolSymbol, decimals);\r\n        _poolTokens.push(token);\r\n        return token;\r\n    }\r\n\r\n    /**\r\n      * @dev increases the pool token supply and sends the new tokens to the given account\r\n      * can only be called by the contract owner\r\n      *\r\n      * @param _token   pool token address\r\n      * @param _to      account to receive the newly minted tokens\r\n      * @param _amount  amount to mint\r\n    */\r\n    function mint(ISmartToken _token, address _to, uint256 _amount) external override ownerOnly {\r\n        _token.issue(_to, _amount);\r\n    }\r\n\r\n    /**\r\n      * @dev removes tokens from the given account and decreases the pool token supply\r\n      * can only be called by the contract owner\r\n      *\r\n      * @param _token   pool token address\r\n      * @param _from    account to remove the tokens from\r\n      * @param _amount  amount to burn\r\n    */\r\n    function burn(ISmartToken _token, address _from, uint256 _amount) external override ownerOnly {\r\n        _token.destroy(_from, _amount);\r\n    }\r\n\r\n    /**\r\n      * @dev concatenates a string and a digit (single only) and returns the result string\r\n      *\r\n      * @param _str     string\r\n      * @param _digit   digit\r\n      * @return concatenated string\r\n    */\r\n    function concatStrDigit(string memory _str, uint8 _digit) private pure returns (string memory) {\r\n        return string(abi.encodePacked(_str, uint8(bytes1('0')) + _digit));\r\n    }\r\n}\r\n",
  "sourcePath": "/home/lash/src/ext/cic/grassrootseconomics/bancor-contracts/solidity/contracts/converter/types/liquidity-pool-v2/PoolTokensContainer.sol",
  "compiler": {
    "name": "solc",
    "version": "0.6.12+commit.27d51765.Emscripten.clang"
  },
  "schemaVersion": "3.2.3",
  "updatedAt": "2020-11-09T23:40:29.187Z",
  "devdoc": {
    "details": "The PoolTokensContainer contract serves as a container for multiple pool tokens. It is used by specific liquidity pool types that require more than a single pool token, while still maintaining the single converter / anchor relationship. It maintains and provides a list of the underlying pool tokens.",
    "kind": "dev",
    "methods": {
      "acceptOwnership()": {
        "details": "used by a new owner to accept an ownership transfer"
      },
      "burn(address,address,uint256)": {
        "details": "removes tokens from the given account and decreases the pool token supply can only be called by the contract owner",
        "params": {
          "_amount": "amount to burn",
          "_from": "account to remove the tokens from",
          "_token": "pool token address"
        }
      },
      "constructor": {
        "details": "initializes a new PoolTokensContainer instance",
        "params": {
          "_decimals": "used for the underlying pool token decimals",
          "_name": "pool name, also used as a prefix for the underlying pool token names",
          "_symbol": "pool symbol, also used as a prefix for the underlying pool token symbols"
        }
      },
      "createToken()": {
        "details": "creates a new pool token and adds it to the list",
        "returns": {
          "_0": "new pool token address"
        }
      },
      "mint(address,address,uint256)": {
        "details": "increases the pool token supply and sends the new tokens to the given account can only be called by the contract owner",
        "params": {
          "_amount": "amount to mint",
          "_to": "account to receive the newly minted tokens",
          "_token": "pool token address"
        }
      },
      "poolTokens()": {
        "details": "returns the list of pool tokens",
        "returns": {
          "_0": "list of pool tokens"
        }
      },
      "transferOwnership(address)": {
        "details": "allows transferring the contract ownership the new owner still needs to accept the transfer can only be called by the contract owner",
        "params": {
          "_newOwner": "new contract owner"
        }
      },
      "withdrawTokens(address,address,uint256)": {
        "details": "withdraws tokens held by the contract and sends them to an account can only be called by the owner",
        "params": {
          "_amount": "amount to withdraw",
          "_to": "account to receive the new amount",
          "_token": "ERC20 token contract address"
        }
      }
    },
    "version": 1
  },
  "userdoc": {
    "kind": "user",
    "methods": {},
    "version": 1
  }
}