{
  "contractName": "TestConverterRegistry",
  "abi": [
    {
      "inputs": [
        {
          "internalType": "contract IContractRegistry",
          "name": "_registry",
          "type": "address"
        }
      ],
      "stateMutability": "nonpayable",
      "type": "constructor"
    },
    {
      "anonymous": false,
      "inputs": [
        {
          "indexed": true,
          "internalType": "contract IConverterAnchor",
          "name": "_anchor",
          "type": "address"
        }
      ],
      "name": "ConverterAnchorAdded",
      "type": "event"
    },
    {
      "anonymous": false,
      "inputs": [
        {
          "indexed": true,
          "internalType": "contract IConverterAnchor",
          "name": "_anchor",
          "type": "address"
        }
      ],
      "name": "ConverterAnchorRemoved",
      "type": "event"
    },
    {
      "anonymous": false,
      "inputs": [
        {
          "indexed": true,
          "internalType": "contract IERC20Token",
          "name": "_convertibleToken",
          "type": "address"
        },
        {
          "indexed": true,
          "internalType": "contract IConverterAnchor",
          "name": "_smartToken",
          "type": "address"
        }
      ],
      "name": "ConvertibleTokenAdded",
      "type": "event"
    },
    {
      "anonymous": false,
      "inputs": [
        {
          "indexed": true,
          "internalType": "contract IERC20Token",
          "name": "_convertibleToken",
          "type": "address"
        },
        {
          "indexed": true,
          "internalType": "contract IConverterAnchor",
          "name": "_smartToken",
          "type": "address"
        }
      ],
      "name": "ConvertibleTokenRemoved",
      "type": "event"
    },
    {
      "anonymous": false,
      "inputs": [
        {
          "indexed": true,
          "internalType": "contract IConverterAnchor",
          "name": "_liquidityPool",
          "type": "address"
        }
      ],
      "name": "LiquidityPoolAdded",
      "type": "event"
    },
    {
      "anonymous": false,
      "inputs": [
        {
          "indexed": true,
          "internalType": "contract IConverterAnchor",
          "name": "_liquidityPool",
          "type": "address"
        }
      ],
      "name": "LiquidityPoolRemoved",
      "type": "event"
    },
    {
      "anonymous": false,
      "inputs": [
        {
          "indexed": true,
          "internalType": "address",
          "name": "_prevOwner",
          "type": "address"
        },
        {
          "indexed": true,
          "internalType": "address",
          "name": "_newOwner",
          "type": "address"
        }
      ],
      "name": "OwnerUpdate",
      "type": "event"
    },
    {
      "anonymous": false,
      "inputs": [
        {
          "indexed": true,
          "internalType": "contract IConverterAnchor",
          "name": "_smartToken",
          "type": "address"
        }
      ],
      "name": "SmartTokenAdded",
      "type": "event"
    },
    {
      "anonymous": false,
      "inputs": [
        {
          "indexed": true,
          "internalType": "contract IConverterAnchor",
          "name": "_smartToken",
          "type": "address"
        }
      ],
      "name": "SmartTokenRemoved",
      "type": "event"
    },
    {
      "inputs": [],
      "name": "acceptOwnership",
      "outputs": [],
      "stateMutability": "nonpayable",
      "type": "function"
    },
    {
      "inputs": [
        {
          "internalType": "contract IConverter",
          "name": "_converter",
          "type": "address"
        }
      ],
      "name": "addConverter",
      "outputs": [],
      "stateMutability": "nonpayable",
      "type": "function"
    },
    {
      "inputs": [],
      "name": "createdConverter",
      "outputs": [
        {
          "internalType": "contract IConverter",
          "name": "",
          "type": "address"
        }
      ],
      "stateMutability": "view",
      "type": "function"
    },
    {
      "inputs": [
        {
          "internalType": "uint256",
          "name": "_index",
          "type": "uint256"
        }
      ],
      "name": "getAnchor",
      "outputs": [
        {
          "internalType": "contract IConverterAnchor",
          "name": "",
          "type": "address"
        }
      ],
      "stateMutability": "view",
      "type": "function"
    },
    {
      "inputs": [],
      "name": "getAnchorCount",
      "outputs": [
        {
          "internalType": "uint256",
          "name": "",
          "type": "uint256"
        }
      ],
      "stateMutability": "view",
      "type": "function"
    },
    {
      "inputs": [],
      "name": "getAnchors",
      "outputs": [
        {
          "internalType": "address[]",
          "name": "",
          "type": "address[]"
        }
      ],
      "stateMutability": "view",
      "type": "function"
    },
    {
      "inputs": [
        {
          "internalType": "address[]",
          "name": "_anchors",
          "type": "address[]"
        }
      ],
      "name": "getConvertersByAnchors",
      "outputs": [
        {
          "internalType": "contract IConverter[]",
          "name": "",
          "type": "address[]"
        }
      ],
      "stateMutability": "view",
      "type": "function"
    },
    {
      "inputs": [
        {
          "internalType": "address[]",
          "name": "_smartTokens",
          "type": "address[]"
        }
      ],
      "name": "getConvertersBySmartTokens",
      "outputs": [
        {
          "internalType": "contract IConverter[]",
          "name": "",
          "type": "address[]"
        }
      ],
      "stateMutability": "view",
      "type": "function"
    },
    {
      "inputs": [
        {
          "internalType": "uint256",
          "name": "_index",
          "type": "uint256"
        }
      ],
      "name": "getConvertibleToken",
      "outputs": [
        {
          "internalType": "contract IERC20Token",
          "name": "",
          "type": "address"
        }
      ],
      "stateMutability": "view",
      "type": "function"
    },
    {
      "inputs": [
        {
          "internalType": "contract IERC20Token",
          "name": "_convertibleToken",
          "type": "address"
        },
        {
          "internalType": "uint256",
          "name": "_index",
          "type": "uint256"
        }
      ],
      "name": "getConvertibleTokenAnchor",
      "outputs": [
        {
          "internalType": "contract IConverterAnchor",
          "name": "",
          "type": "address"
        }
      ],
      "stateMutability": "view",
      "type": "function"
    },
    {
      "inputs": [
        {
          "internalType": "contract IERC20Token",
          "name": "_convertibleToken",
          "type": "address"
        }
      ],
      "name": "getConvertibleTokenAnchorCount",
      "outputs": [
        {
          "internalType": "uint256",
          "name": "",
          "type": "uint256"
        }
      ],
      "stateMutability": "view",
      "type": "function"
    },
    {
      "inputs": [
        {
          "internalType": "contract IERC20Token",
          "name": "_convertibleToken",
          "type": "address"
        }
      ],
      "name": "getConvertibleTokenAnchors",
      "outputs": [
        {
          "internalType": "address[]",
          "name": "",
          "type": "address[]"
        }
      ],
      "stateMutability": "view",
      "type": "function"
    },
    {
      "inputs": [],
      "name": "getConvertibleTokenCount",
      "outputs": [
        {
          "internalType": "uint256",
          "name": "",
          "type": "uint256"
        }
      ],
      "stateMutability": "view",
      "type": "function"
    },
    {
      "inputs": [
        {
          "internalType": "contract IERC20Token",
          "name": "_convertibleToken",
          "type": "address"
        },
        {
          "internalType": "uint256",
          "name": "_index",
          "type": "uint256"
        }
      ],
      "name": "getConvertibleTokenSmartToken",
      "outputs": [
        {
          "internalType": "contract IConverterAnchor",
          "name": "",
          "type": "address"
        }
      ],
      "stateMutability": "view",
      "type": "function"
    },
    {
      "inputs": [
        {
          "internalType": "contract IERC20Token",
          "name": "_convertibleToken",
          "type": "address"
        }
      ],
      "name": "getConvertibleTokenSmartTokenCount",
      "outputs": [
        {
          "internalType": "uint256",
          "name": "",
          "type": "uint256"
        }
      ],
      "stateMutability": "view",
      "type": "function"
    },
    {
      "inputs": [
        {
          "internalType": "contract IERC20Token",
          "name": "_convertibleToken",
          "type": "address"
        }
      ],
      "name": "getConvertibleTokenSmartTokens",
      "outputs": [
        {
          "internalType": "address[]",
          "name": "",
          "type": "address[]"
        }
      ],
      "stateMutability": "view",
      "type": "function"
    },
    {
      "inputs": [],
      "name": "getConvertibleTokens",
      "outputs": [
        {
          "internalType": "address[]",
          "name": "",
          "type": "address[]"
        }
      ],
      "stateMutability": "view",
      "type": "function"
    },
    {
      "inputs": [
        {
          "internalType": "uint256",
          "name": "_index",
          "type": "uint256"
        }
      ],
      "name": "getLiquidityPool",
      "outputs": [
        {
          "internalType": "contract IConverterAnchor",
          "name": "",
          "type": "address"
        }
      ],
      "stateMutability": "view",
      "type": "function"
    },
    {
      "inputs": [
        {
          "internalType": "uint16",
          "name": "_type",
          "type": "uint16"
        },
        {
          "internalType": "contract IERC20Token[]",
          "name": "_reserveTokens",
          "type": "address[]"
        },
        {
          "internalType": "uint32[]",
          "name": "_reserveWeights",
          "type": "uint32[]"
        }
      ],
      "name": "getLiquidityPoolByConfig",
      "outputs": [
        {
          "internalType": "contract IConverterAnchor",
          "name": "",
          "type": "address"
        }
      ],
      "stateMutability": "view",
      "type": "function"
    },
    {
      "inputs": [
        {
          "internalType": "contract IERC20Token[]",
          "name": "_reserveTokens",
          "type": "address[]"
        },
        {
          "internalType": "uint32[]",
          "name": "_reserveWeights",
          "type": "uint32[]"
        }
      ],
      "name": "getLiquidityPoolByReserveConfig",
      "outputs": [
        {
          "internalType": "contract IConverterAnchor",
          "name": "",
          "type": "address"
        }
      ],
      "stateMutability": "view",
      "type": "function"
    },
    {
      "inputs": [],
      "name": "getLiquidityPoolCount",
      "outputs": [
        {
          "internalType": "uint256",
          "name": "",
          "type": "uint256"
        }
      ],
      "stateMutability": "view",
      "type": "function"
    },
    {
      "inputs": [],
      "name": "getLiquidityPools",
      "outputs": [
        {
          "internalType": "address[]",
          "name": "",
          "type": "address[]"
        }
      ],
      "stateMutability": "view",
      "type": "function"
    },
    {
      "inputs": [
        {
          "internalType": "uint256",
          "name": "_index",
          "type": "uint256"
        }
      ],
      "name": "getSmartToken",
      "outputs": [
        {
          "internalType": "contract IConverterAnchor",
          "name": "",
          "type": "address"
        }
      ],
      "stateMutability": "view",
      "type": "function"
    },
    {
      "inputs": [],
      "name": "getSmartTokenCount",
      "outputs": [
        {
          "internalType": "uint256",
          "name": "",
          "type": "uint256"
        }
      ],
      "stateMutability": "view",
      "type": "function"
    },
    {
      "inputs": [],
      "name": "getSmartTokens",
      "outputs": [
        {
          "internalType": "address[]",
          "name": "",
          "type": "address[]"
        }
      ],
      "stateMutability": "view",
      "type": "function"
    },
    {
      "inputs": [
        {
          "internalType": "address",
          "name": "_value",
          "type": "address"
        }
      ],
      "name": "isAnchor",
      "outputs": [
        {
          "internalType": "bool",
          "name": "",
          "type": "bool"
        }
      ],
      "stateMutability": "view",
      "type": "function"
    },
    {
      "inputs": [
        {
          "internalType": "contract IConverter",
          "name": "_converter",
          "type": "address"
        }
      ],
      "name": "isConverterValid",
      "outputs": [
        {
          "internalType": "bool",
          "name": "",
          "type": "bool"
        }
      ],
      "stateMutability": "view",
      "type": "function"
    },
    {
      "inputs": [
        {
          "internalType": "address",
          "name": "_value",
          "type": "address"
        }
      ],
      "name": "isConvertibleToken",
      "outputs": [
        {
          "internalType": "bool",
          "name": "",
          "type": "bool"
        }
      ],
      "stateMutability": "view",
      "type": "function"
    },
    {
      "inputs": [
        {
          "internalType": "contract IERC20Token",
          "name": "_convertibleToken",
          "type": "address"
        },
        {
          "internalType": "address",
          "name": "_value",
          "type": "address"
        }
      ],
      "name": "isConvertibleTokenAnchor",
      "outputs": [
        {
          "internalType": "bool",
          "name": "",
          "type": "bool"
        }
      ],
      "stateMutability": "view",
      "type": "function"
    },
    {
      "inputs": [
        {
          "internalType": "contract IERC20Token",
          "name": "_convertibleToken",
          "type": "address"
        },
        {
          "internalType": "address",
          "name": "_value",
          "type": "address"
        }
      ],
      "name": "isConvertibleTokenSmartToken",
      "outputs": [
        {
          "internalType": "bool",
          "name": "",
          "type": "bool"
        }
      ],
      "stateMutability": "view",
      "type": "function"
    },
    {
      "inputs": [
        {
          "internalType": "address",
          "name": "_value",
          "type": "address"
        }
      ],
      "name": "isLiquidityPool",
      "outputs": [
        {
          "internalType": "bool",
          "name": "",
          "type": "bool"
        }
      ],
      "stateMutability": "view",
      "type": "function"
    },
    {
      "inputs": [
        {
          "internalType": "contract IConverter",
          "name": "_converter",
          "type": "address"
        }
      ],
      "name": "isSimilarLiquidityPoolRegistered",
      "outputs": [
        {
          "internalType": "bool",
          "name": "",
          "type": "bool"
        }
      ],
      "stateMutability": "view",
      "type": "function"
    },
    {
      "inputs": [
        {
          "internalType": "address",
          "name": "_value",
          "type": "address"
        }
      ],
      "name": "isSmartToken",
      "outputs": [
        {
          "internalType": "bool",
          "name": "",
          "type": "bool"
        }
      ],
      "stateMutability": "view",
      "type": "function"
    },
    {
      "inputs": [],
      "name": "newOwner",
      "outputs": [
        {
          "internalType": "address",
          "name": "",
          "type": "address"
        }
      ],
      "stateMutability": "view",
      "type": "function"
    },
    {
      "inputs": [],
      "name": "onlyOwnerCanUpdateRegistry",
      "outputs": [
        {
          "internalType": "bool",
          "name": "",
          "type": "bool"
        }
      ],
      "stateMutability": "view",
      "type": "function"
    },
    {
      "inputs": [],
      "name": "owner",
      "outputs": [
        {
          "internalType": "address",
          "name": "",
          "type": "address"
        }
      ],
      "stateMutability": "view",
      "type": "function"
    },
    {
      "inputs": [],
      "name": "prevRegistry",
      "outputs": [
        {
          "internalType": "contract IContractRegistry",
          "name": "",
          "type": "address"
        }
      ],
      "stateMutability": "view",
      "type": "function"
    },
    {
      "inputs": [],
      "name": "registry",
      "outputs": [
        {
          "internalType": "contract IContractRegistry",
          "name": "",
          "type": "address"
        }
      ],
      "stateMutability": "view",
      "type": "function"
    },
    {
      "inputs": [
        {
          "internalType": "contract IConverter",
          "name": "_converter",
          "type": "address"
        }
      ],
      "name": "removeConverter",
      "outputs": [],
      "stateMutability": "nonpayable",
      "type": "function"
    },
    {
      "inputs": [],
      "name": "restoreRegistry",
      "outputs": [],
      "stateMutability": "nonpayable",
      "type": "function"
    },
    {
      "inputs": [
        {
          "internalType": "bool",
          "name": "_onlyOwnerCanUpdateRegistry",
          "type": "bool"
        }
      ],
      "name": "restrictRegistryUpdate",
      "outputs": [],
      "stateMutability": "nonpayable",
      "type": "function"
    },
    {
      "inputs": [
        {
          "internalType": "address",
          "name": "_newOwner",
          "type": "address"
        }
      ],
      "name": "transferOwnership",
      "outputs": [],
      "stateMutability": "nonpayable",
      "type": "function"
    },
    {
      "inputs": [],
      "name": "updateRegistry",
      "outputs": [],
      "stateMutability": "nonpayable",
      "type": "function"
    },
    {
      "inputs": [
        {
          "internalType": "uint16",
          "name": "_type",
          "type": "uint16"
        },
        {
          "internalType": "string",
          "name": "_name",
          "type": "string"
        },
        {
          "internalType": "string",
          "name": "_symbol",
          "type": "string"
        },
        {
          "internalType": "uint8",
          "name": "_decimals",
          "type": "uint8"
        },
        {
          "internalType": "uint32",
          "name": "_maxConversionFee",
          "type": "uint32"
        },
        {
          "internalType": "contract IERC20Token[]",
          "name": "_reserveTokens",
          "type": "address[]"
        },
        {
          "internalType": "uint32[]",
          "name": "_reserveWeights",
          "type": "uint32[]"
        }
      ],
      "name": "newConverter",
      "outputs": [
        {
          "internalType": "contract IConverter",
          "name": "",
          "type": "address"
        }
      ],
      "stateMutability": "nonpayable",
      "type": "function"
    }
  ],
  "bytecode": "0x60806040523480156200001157600080fd5b506040516200337238038062003372833981810160405260208110156200003757600080fd5b5051600080546001600160a01b0319163317905580808062000059816200008d565b50600280546001600160a01b039092166001600160a01b031992831681179091556003805490921617905550620000ec9050565b6001600160a01b038116620000e9576040805162461bcd60e51b815260206004820152601360248201527f4552525f494e56414c49445f4144445245535300000000000000000000000000604482015290519081900360640190fd5b50565b61327680620000fc6000396000f3fe608060405234801561001057600080fd5b50600436106102745760003560e01c80637b10399911610151578063b4c4197a116100c3578063d8cced2a11610087578063d8cced2a14610c02578063e571049b14610c28578063e85455d714610c30578063effb3c6e14610c56578063f2fde38b14610c5e578063f4fb86c014610c8457610274565b8063b4c4197a14610a75578063c22b82f014610aa3578063d3182bed14610bc6578063d4ee1d9014610bce578063d6c4b5b214610bd657610274565b8063954254f511610115578063954254f5146109c15780639e76a007146109e7578063a109d21414610a0d578063a43d5e9414610a2a578063a74498aa14610a50578063b4a176d314610a6d57610274565b80637b103999146109665780637f45c4c31461096e578063865cf194146109765780638da5cb5b146109935780638f1d0e1a1461099b57610274565b80634c7df18f116101ea57806361cd756e116101ae57806361cd756e146108f257806369be4784146108fa5780636ce1c4dc14610902578063725b87861461092857806379ba5097146109565780637a5f0ffd1461095e57610274565b80634c7df18f146105b35780635a0a6618146105d05780635f1b50fe1461081d578063603f51e414610825578063610c0b051461085157610274565b80631f8e26201161023c5780631f8e26201461046a5780632fe8a6ad1461050b5780633ab8857c146105275780634123ef601461054d57806349c5f32b1461057357806349d10b64146105ab57610274565b8063024c7ec71461027957806304ceaf411461029a57806311839064146102f25780631814f2d2146103185780631d3fccd51461033c575b600080fd5b6102986004803603602081101561028f57600080fd5b50351515610caa565b005b6102a2610cd0565b60408051602080825283518183015283519192839290830191858101910280838360005b838110156102de5781810151838201526020016102c6565b505050509050019250505060405180910390f35b6102a26004803603602081101561030857600080fd5b50356001600160a01b0316610cdf565b610320610e12565b604080516001600160a01b039092168252519081900360200190f35b6103206004803603606081101561035257600080fd5b61ffff8235169190810190604081016020820135600160201b81111561037757600080fd5b82018360208201111561038957600080fd5b803590602001918460208302840111600160201b831117156103aa57600080fd5b9190808060200260200160405190810160405280939291908181526020018383602002808284376000920191909152509295949360208101935035915050600160201b8111156103f957600080fd5b82018360208201111561040b57600080fd5b803590602001918460208302840111600160201b8311171561042c57600080fd5b919080806020026020016040519081016040528093929190818152602001838360200280828437600092019190915250929550610e21945050505050565b6102a26004803603602081101561048057600080fd5b810190602081018135600160201b81111561049a57600080fd5b8201836020820111156104ac57600080fd5b803590602001918460208302840111600160201b831117156104cd57600080fd5b919080806020026020016040519081016040528093929190818152602001838360200280828437600092019190915250929550610f08945050505050565b610513610f19565b604080519115158252519081900360200190f35b6105136004803603602081101561053d57600080fd5b50356001600160a01b0316610f29565b6105136004803603602081101561056357600080fd5b50356001600160a01b0316610fc0565b6105996004803603602081101561058957600080fd5b50356001600160a01b0316610fcb565b60408051918252519081900360200190f35b610298611030565b610320600480360360208110156105c957600080fd5b5035611238565b610320600480360360e08110156105e657600080fd5b61ffff8235169190810190604081016020820135600160201b81111561060b57600080fd5b82018360208201111561061d57600080fd5b803590602001918460018302840111600160201b8311171561063e57600080fd5b91908080601f0160208091040260200160405190810160405280939291908181526020018383808284376000920191909152509295949360208101935035915050600160201b81111561069057600080fd5b8201836020820111156106a257600080fd5b803590602001918460018302840111600160201b831117156106c357600080fd5b91908080601f016020809104026020016040519081016040528093929190818152602001838380828437600092019190915250929560ff8535169563ffffffff60208701351695919450925060608101915060400135600160201b81111561072a57600080fd5b82018360208201111561073c57600080fd5b803590602001918460208302840111600160201b8311171561075d57600080fd5b9190808060200260200160405190810160405280939291908181526020018383602002808284376000920191909152509295949360208101935035915050600160201b8111156107ac57600080fd5b8201836020820111156107be57600080fd5b803590602001918460208302840111600160201b831117156107df57600080fd5b919080806020026020016040519081016040528093929190818152602001838360200280828437600092019190915250929550611294945050505050565b6102a26112d0565b6103206004803603604081101561083b57600080fd5b506001600160a01b0381351690602001356113ed565b6102a26004803603602081101561086757600080fd5b810190602081018135600160201b81111561088157600080fd5b82018360208201111561089357600080fd5b803590602001918460208302840111600160201b831117156108b457600080fd5b91908080602002602001604051908101604052809392919081815260200183836020028082843760009201919091525092955061148d945050505050565b61032061158e565b61059961159d565b6102986004803603602081101561091857600080fd5b50356001600160a01b031661161f565b6105136004803603604081101561093e57600080fd5b506001600160a01b0381358116916020013516611685565b610298611691565b610599611748565b610320611799565b6102a26117a8565b6103206004803603602081101561098c57600080fd5b50356117f9565b610320611855565b610513600480360360208110156109b157600080fd5b50356001600160a01b0316611864565b610513600480360360208110156109d757600080fd5b50356001600160a01b0316611a6d565b610298600480360360208110156109fd57600080fd5b50356001600160a01b0316611b5c565b61032060048036036020811015610a2357600080fd5b5035611bc9565b61059960048036036020811015610a4057600080fd5b50356001600160a01b0316611bd4565b61032060048036036020811015610a6657600080fd5b5035611bdf565b610298611c3b565b61051360048036036040811015610a8b57600080fd5b506001600160a01b0381358116916020013516611c67565b61032060048036036040811015610ab957600080fd5b810190602081018135600160201b811115610ad357600080fd5b820183602082011115610ae557600080fd5b803590602001918460208302840111600160201b83111715610b0657600080fd5b9190808060200260200160405190810160405280939291908181526020018383602002808284376000920191909152509295949360208101935035915050600160201b811115610b5557600080fd5b820183602082011115610b6757600080fd5b803590602001918460208302840111600160201b83111715610b8857600080fd5b919080806020026020016040519081016040528093929190818152602001838360200280828437600092019190915250929550611cdd945050505050565b610599611cff565b610320611d50565b61032060048036036040811015610bec57600080fd5b506001600160a01b038135169060200135611d5f565b61051360048036036020811015610c1857600080fd5b50356001600160a01b0316611d6b565b610599611dd0565b61051360048036036020811015610c4657600080fd5b50356001600160a01b0316611dda565b6102a2611e3f565b61029860048036036020811015610c7457600080fd5b50356001600160a01b0316611e90565b6102a260048036036020811015610c9a57600080fd5b50356001600160a01b0316611f0e565b610cb2611f19565b60038054911515600160a01b0260ff60a01b19909216919091179055565b6060610cda611e3f565b905090565b6060610cf8600080516020613221833981519152611f6e565b6001600160a01b031663f4fb86c0836040518263ffffffff1660e01b815260040180826001600160a01b0316815260200191505060006040518083038186803b158015610d4457600080fd5b505afa158015610d58573d6000803e3d6000fd5b505050506040513d6000823e601f3d908101601f191682016040526020811015610d8157600080fd5b8101908080516040519392919084600160201b821115610da057600080fd5b908301906020820185811115610db557600080fd5b82518660208202830111600160201b82111715610dd157600080fd5b82525081516020918201928201910280838360005b83811015610dfe578181015183820152602001610de6565b505050509050016040525050509050919050565b6004546001600160a01b031681565b600081518351148015610e35575060018351115b15610efd576060610e4584611fba565b905060005b8151811015610efa576000828281518110610e6157fe5b602002602001015190506000816001600160a01b0316638da5cb5b6040518163ffffffff1660e01b815260040160206040518083038186803b158015610ea657600080fd5b505afa158015610eba573d6000803e3d6000fd5b505050506040513d6020811015610ed057600080fd5b50519050610ee081898989612250565b15610ef057509250610f01915050565b5050600101610e4a565b50505b5060005b9392505050565b6060610f138261148d565b92915050565b600354600160a01b900460ff1681565b6000610f42600080516020613221833981519152611f6e565b6001600160a01b0316633ab8857c836040518263ffffffff1660e01b815260040180826001600160a01b0316815260200191505060206040518083038186803b158015610f8e57600080fd5b505afa158015610fa2573d6000803e3d6000fd5b505050506040513d6020811015610fb857600080fd5b505192915050565b6000610f1382611d6b565b6000610fe4600080516020613221833981519152611f6e565b6001600160a01b031663a43d5e94836040518263ffffffff1660e01b815260040180826001600160a01b0316815260200191505060206040518083038186803b158015610f8e57600080fd5b6000546001600160a01b03163314806110535750600354600160a01b900460ff16155b611098576040805162461bcd60e51b815260206004820152601160248201527011549497d050d0d154d4d7d11153925151607a1b604482015290519081900360640190fd5b60006110b66f436f6e7472616374526567697374727960801b611f6e565b6002549091506001600160a01b038083169116148015906110df57506001600160a01b03811615155b611127576040805162461bcd60e51b81526020600482015260146024820152734552525f494e56414c49445f524547495354525960601b604482015290519081900360640190fd5b60006001600160a01b0316816001600160a01b031663bb34534c6f436f6e7472616374526567697374727960801b6040518263ffffffff1660e01b81526004018082815260200191505060206040518083038186803b15801561118957600080fd5b505afa15801561119d573d6000803e3d6000fd5b505050506040513d60208110156111b357600080fd5b50516001600160a01b03161415611208576040805162461bcd60e51b81526020600482015260146024820152734552525f494e56414c49445f524547495354525960601b604482015290519081900360640190fd5b60028054600380546001600160a01b038084166001600160a01b0319928316179092559091169216919091179055565b6000611251600080516020613221833981519152611f6e565b6001600160a01b031663a109d214836040518263ffffffff1660e01b81526004018082815260200191505060206040518083038186803b158015610f8e57600080fd5b60006112a588888888888888612362565b600480546001600160a01b0319166001600160a01b0392831617908190551698975050505050505050565b60606112e9600080516020613221833981519152611f6e565b6001600160a01b0316635f1b50fe6040518163ffffffff1660e01b815260040160006040518083038186803b15801561132157600080fd5b505afa158015611335573d6000803e3d6000fd5b505050506040513d6000823e601f3d908101601f19168201604052602081101561135e57600080fd5b8101908080516040519392919084600160201b82111561137d57600080fd5b90830190602082018581111561139257600080fd5b82518660208202830111600160201b821117156113ae57600080fd5b82525081516020918201928201910280838360005b838110156113db5781810151838201526020016113c3565b50505050905001604052505050905090565b6000611406600080516020613221833981519152611f6e565b6001600160a01b031663d6c4b5b284846040518363ffffffff1660e01b815260040180836001600160a01b031681526020018281526020019250505060206040518083038186803b15801561145a57600080fd5b505afa15801561146e573d6000803e3d6000fd5b505050506040513d602081101561148457600080fd5b50519392505050565b606080825167ffffffffffffffff811180156114a857600080fd5b506040519080825280602002602001820160405280156114d2578160200160208202803683370190505b50905060005b8351811015611587578381815181106114ed57fe5b60200260200101516001600160a01b0316638da5cb5b6040518163ffffffff1660e01b815260040160206040518083038186803b15801561152d57600080fd5b505afa158015611541573d6000803e3d6000fd5b505050506040513d602081101561155757600080fd5b5051825183908390811061156757fe5b6001600160a01b03909216602092830291909101909101526001016114d8565b5092915050565b6003546001600160a01b031681565b60006115b6600080516020613221833981519152611f6e565b6001600160a01b03166369be47846040518163ffffffff1660e01b815260040160206040518083038186803b1580156115ee57600080fd5b505afa158015611602573d6000803e3d6000fd5b505050506040513d602081101561161857600080fd5b5051905090565b611627611f19565b61163081611a6d565b611679576040805162461bcd60e51b815260206004820152601560248201527422a9292fa4a72b20a624a22fa1a7a72b22a92a22a960591b604482015290519081900360640190fd5b611682816128b7565b50565b6000610f018383611c67565b6001546001600160a01b031633146116e4576040805162461bcd60e51b815260206004820152601160248201527011549497d050d0d154d4d7d11153925151607a1b604482015290519081900360640190fd5b600154600080546040516001600160a01b0393841693909116917f343765429aea5a34b3ff6a3785a98a5abb2597aca87bfbb58632c173d585373a91a360018054600080546001600160a01b03199081166001600160a01b03841617909155169055565b6000611761600080516020613221833981519152611f6e565b6001600160a01b0316637a5f0ffd6040518163ffffffff1660e01b815260040160206040518083038186803b1580156115ee57600080fd5b6002546001600160a01b031681565b60606117c1600080516020613221833981519152611f6e565b6001600160a01b0316637f45c4c36040518163ffffffff1660e01b815260040160006040518083038186803b15801561132157600080fd5b6000611812600080516020613221833981519152611f6e565b6001600160a01b031663865cf194836040518263ffffffff1660e01b81526004018082815260200191505060206040518083038186803b158015610f8e57600080fd5b6000546001600160a01b031681565b600080826001600160a01b03166371f52bf36040518163ffffffff1660e01b815260040160206040518083038186803b1580156118a057600080fd5b505afa1580156118b4573d6000803e3d6000fd5b505050506040513d60208110156118ca57600080fd5b505161ffff16905060608167ffffffffffffffff811180156118eb57600080fd5b50604051908082528060200260200182016040528015611915578160200160208202803683370190505b50905060608267ffffffffffffffff8111801561193157600080fd5b5060405190808252806020026020018201604052801561195b578160200160208202803683370190505b50905060005b83811015611a42576000866001600160a01b03166319b64015836040518263ffffffff1660e01b81526004018082815260200191505060206040518083038186803b1580156119af57600080fd5b505afa1580156119c3573d6000803e3d6000fd5b505050506040513d60208110156119d957600080fd5b5051845190915081908590849081106119ee57fe5b60200260200101906001600160a01b031690816001600160a01b031681525050611a188782612a72565b838381518110611a2457fe5b63ffffffff9092166020928302919091019091015250600101611961565b506000611a59611a528786612af9565b8484610e21565b6001600160a01b0316141595945050505050565b6000816001600160a01b0316826001600160a01b031663fc0c546a6040518163ffffffff1660e01b815260040160206040518083038186803b158015611ab257600080fd5b505afa158015611ac6573d6000803e3d6000fd5b505050506040513d6020811015611adc57600080fd5b505160408051638da5cb5b60e01b815290516001600160a01b0390921691638da5cb5b91600480820192602092909190829003018186803b158015611b2057600080fd5b505afa158015611b34573d6000803e3d6000fd5b505050506040513d6020811015611b4a57600080fd5b50516001600160a01b03161492915050565b6000546001600160a01b0316331480611b7b5750611b7981611a6d565b155b611bc0576040805162461bcd60e51b815260206004820152601160248201527011549497d050d0d154d4d7d11153925151607a1b604482015290519081900360640190fd5b61168281612c1e565b6000610f1382611238565b6000610f1382610fcb565b6000611bf8600080516020613221833981519152611f6e565b6001600160a01b031663a74498aa836040518263ffffffff1660e01b81526004018082815260200191505060206040518083038186803b158015610f8e57600080fd5b611c43611f19565b600354600280546001600160a01b0319166001600160a01b03909216919091179055565b6000611c80600080516020613221833981519152611f6e565b6001600160a01b031663725b878684846040518363ffffffff1660e01b815260040180836001600160a01b03168152602001826001600160a01b031681526020019250505060206040518083038186803b15801561145a57600080fd5b6000610f016001845111611cf2576000611cf5565b60015b60ff168484610e21565b6000611d18600080516020613221833981519152611f6e565b6001600160a01b031663e571049b6040518163ffffffff1660e01b815260040160206040518083038186803b1580156115ee57600080fd5b6001546001600160a01b031681565b6000610f0183836113ed565b6000611d84600080516020613221833981519152611f6e565b6001600160a01b0316634123ef60836040518263ffffffff1660e01b815260040180826001600160a01b0316815260200191505060206040518083038186803b158015610f8e57600080fd5b6000610cda611cff565b6000611df3600080516020613221833981519152611f6e565b6001600160a01b031663e85455d7836040518263ffffffff1660e01b815260040180826001600160a01b0316815260200191505060206040518083038186803b158015610f8e57600080fd5b6060611e58600080516020613221833981519152611f6e565b6001600160a01b03166304ceaf416040518163ffffffff1660e01b815260040160006040518083038186803b15801561132157600080fd5b611e98611f19565b6000546001600160a01b0382811691161415611eec576040805162461bcd60e51b815260206004820152600e60248201526d22a9292fa9a0a6a2afa7aba722a960911b604482015290519081900360640190fd5b600180546001600160a01b0319166001600160a01b0392909216919091179055565b6060610f1382610cdf565b6000546001600160a01b03163314611f6c576040805162461bcd60e51b815260206004820152601160248201527011549497d050d0d154d4d7d11153925151607a1b604482015290519081900360640190fd5b565b60025460408051632ecd14d360e21b81526004810184905290516000926001600160a01b03169163bb34534c916024808301926020929190829003018186803b158015610f8e57600080fd5b60606000611fd5600080516020613221833981519152611f6e565b90506000816001600160a01b031663a43d5e9485600081518110611ff557fe5b60200260200101516040518263ffffffff1660e01b815260040180826001600160a01b0316815260200191505060206040518083038186803b15801561203a57600080fd5b505afa15801561204e573d6000803e3d6000fd5b505050506040513d602081101561206457600080fd5b50519050600060015b855181101561211e576000846001600160a01b031663a43d5e9488848151811061209357fe5b60200260200101516040518263ffffffff1660e01b815260040180826001600160a01b0316815260200191505060206040518083038186803b1580156120d857600080fd5b505afa1580156120ec573d6000803e3d6000fd5b505050506040513d602081101561210257600080fd5b5051905080841115612115578093508192505b5060010161206d565b50826001600160a01b031663f4fb86c086838151811061213a57fe5b60200260200101516040518263ffffffff1660e01b815260040180826001600160a01b0316815260200191505060006040518083038186803b15801561217f57600080fd5b505afa158015612193573d6000803e3d6000fd5b505050506040513d6000823e601f3d908101601f1916820160405260208110156121bc57600080fd5b8101908080516040519392919084600160201b8211156121db57600080fd5b9083019060208201858111156121f057600080fd5b82518660208202830111600160201b8211171561220c57600080fd5b82525081516020918201928201910280838360005b83811015612239578181015183820152602001612221565b505050509050016040525050509350505050919050565b600080856001600160a01b03166371f52bf36040518163ffffffff1660e01b815260040160206040518083038186803b15801561228c57600080fd5b505afa1580156122a0573d6000803e3d6000fd5b505050506040513d60208110156122b657600080fd5b505161ffff1690506122c88682612af9565b61ffff168561ffff16146122e057600091505061235a565b808451146122f257600091505061235a565b60005b84518110156123535761231b8786838151811061230e57fe5b6020026020010151612a72565b63ffffffff1684828151811061232d57fe5b602002602001015163ffffffff161461234b5760009250505061235a565b6001016122f5565b5060019150505b949350505050565b815181516000919081146123b4576040805162461bcd60e51b81526020600482015260146024820152734552525f494e56414c49445f524553455256455360601b604482015290519081900360640190fd5b60006123c18a8686610e21565b6001600160a01b031614612411576040805162461bcd60e51b81526020600482015260126024820152714552525f414c52454144595f45584953545360701b604482015290519081900360640190fd5b600061242f6f436f6e766572746572466163746f727960801b611f6e565b90506000816001600160a01b0316632e9ab7b38c8c8c8c6040518563ffffffff1660e01b8152600401808561ffff16815260200180602001806020018460ff168152602001838103835286818151815260200191508051906020019080838360005b838110156124a9578181015183820152602001612491565b50505050905090810190601f1680156124d65780820380516001836020036101000a031916815260200191505b50838103825285518152855160209182019187019080838360005b838110156125095781810151838201526020016124f1565b50505050905090810190601f1680156125365780820380516001836020036101000a031916815260200191505b509650505050505050602060405180830381600087803b15801561255957600080fd5b505af115801561256d573d6000803e3d6000fd5b505050506040513d602081101561258357600080fd5b505160025460408051630afb25b560e11b815261ffff8f1660048201526001600160a01b038085166024830152928316604482015263ffffffff8b1660648201529051929350600092918516916315f64b6a9160848082019260209290919082900301818787803b1580156125f757600080fd5b505af115801561260b573d6000803e3d6000fd5b505050506040513d602081101561262157600080fd5b5051604080516379ba509760e01b815290519192506001600160a01b038416916379ba50979160048082019260009290919082900301818387803b15801561266857600080fd5b505af115801561267c573d6000803e3d6000fd5b50505050806001600160a01b03166379ba50976040518163ffffffff1660e01b8152600401600060405180830381600087803b1580156126bb57600080fd5b505af11580156126cf573d6000803e3d6000fd5b5050505060005b8481101561278557816001600160a01b0316636a49d2c48983815181106126f957fe5b602002602001015189848151811061270d57fe5b60200260200101516040518363ffffffff1660e01b815260040180836001600160a01b031681526020018263ffffffff16815260200192505050600060405180830381600087803b15801561276157600080fd5b505af1158015612775573d6000803e3d6000fd5b5050600190920191506126d69050565b50816001600160a01b031663f2fde38b826040518263ffffffff1660e01b815260040180826001600160a01b03168152602001915050600060405180830381600087803b1580156127d557600080fd5b505af11580156127e9573d6000803e3d6000fd5b50505050806001600160a01b031663cdc91c696040518163ffffffff1660e01b8152600401600060405180830381600087803b15801561282857600080fd5b505af115801561283c573d6000803e3d6000fd5b50506040805163f2fde38b60e01b815233600482015290516001600160a01b038516935063f2fde38b9250602480830192600092919082900301818387803b15801561288757600080fd5b505af115801561289b573d6000803e3d6000fd5b505050506128a8816128b7565b9b9a5050505050505050505050565b60006128d0600080516020613221833981519152611f6e565b90506000826001600160a01b031663fc0c546a6040518163ffffffff1660e01b815260040160206040518083038186803b15801561290d57600080fd5b505afa158015612921573d6000803e3d6000fd5b505050506040513d602081101561293757600080fd5b5051604080516371f52bf360e01b815290519192506000916001600160a01b038616916371f52bf3916004808301926020929190829003018186803b15801561297f57600080fd5b505afa158015612993573d6000803e3d6000fd5b505050506040513d60208110156129a957600080fd5b505161ffff1690506129bb8383612dd2565b60018111156129d3576129ce8383612ea5565b6129de565b6129de838384612f44565b60005b81811015612a6b57612a6384866001600160a01b03166319b64015846040518263ffffffff1660e01b81526004018082815260200191505060206040518083038186803b158015612a3157600080fd5b505afa158015612a45573d6000803e3d6000fd5b505050506040513d6020811015612a5b57600080fd5b505185612f44565b6001016129e1565b5050505050565b600080836001600160a01b0316630e53aae9846040518263ffffffff1660e01b815260040180826001600160a01b0316815260200191505060a06040518083038186803b158015612ac257600080fd5b505afa158015612ad6573d6000803e3d6000fd5b505050506040513d60a0811015612aec57600080fd5b5060200151949350505050565b60408051600481526024810182526020810180516001600160e01b0316633e8ff43f60e01b1781529151815160009384936060936001600160a01b03891693919290918291908083835b60208310612b625780518252601f199092019160209182019101612b43565b6001836020036101000a038019825116818451168082178552505050505050905001915050600060405180830381855afa9150503d8060008114612bc2576040519150601f19603f3d011682016040523d82523d6000602084013e612bc7565b606091505b5091509150818015612bda575080516020145b15612c0057808060200190516020811015612bf457600080fd5b50519250610f13915050565b60018411612c0f576000612c12565b60015b60ff1695945050505050565b6000612c37600080516020613221833981519152611f6e565b90506000826001600160a01b031663fc0c546a6040518163ffffffff1660e01b815260040160206040518083038186803b158015612c7457600080fd5b505afa158015612c88573d6000803e3d6000fd5b505050506040513d6020811015612c9e57600080fd5b5051604080516371f52bf360e01b815290519192506000916001600160a01b038616916371f52bf3916004808301926020929190829003018186803b158015612ce657600080fd5b505afa158015612cfa573d6000803e3d6000fd5b505050506040513d6020811015612d1057600080fd5b505161ffff169050612d228383612ff9565b6001811115612d3a57612d3583836130cc565b612d45565b612d4583838461316b565b60005b81811015612a6b57612dca84866001600160a01b03166319b64015846040518263ffffffff1660e01b81526004018082815260200191505060206040518083038186803b158015612d9857600080fd5b505afa158015612dac573d6000803e3d6000fd5b505050506040513d6020811015612dc257600080fd5b50518561316b565b600101612d48565b816001600160a01b0316638de6c3eb826040518263ffffffff1660e01b815260040180826001600160a01b03168152602001915050600060405180830381600087803b158015612e2157600080fd5b505af1158015612e35573d6000803e3d6000fd5b50506040516001600160a01b03841692507fc0a6d303d67b7ed9fa0abae1c48878df32acc0e7ca4334c7dad2bceeee5956fd9150600090a26040516001600160a01b038216907f88881feecdf61136ac4bdb1f681f2f3746a82910263d21ffea94750d2a78c0ab90600090a25050565b816001600160a01b031663ee6a934c826040518263ffffffff1660e01b815260040180826001600160a01b03168152602001915050600060405180830381600087803b158015612ef457600080fd5b505af1158015612f08573d6000803e3d6000fd5b50506040516001600160a01b03841692507fb893f883ef734b712208a877459424ee509832c57e0461fb1ac99ed4d42f2d899150600090a25050565b826001600160a01b03166336900c1183836040518363ffffffff1660e01b815260040180836001600160a01b03168152602001826001600160a01b0316815260200192505050600060405180830381600087803b158015612fa457600080fd5b505af1158015612fb8573d6000803e3d6000fd5b50506040516001600160a01b038085169350851691507ff2e7cf6d6ed3f77039511409a43d4fa5108f09ab71d72b014380364c910233a590600090a3505050565b816001600160a01b031663ceb9838c826040518263ffffffff1660e01b815260040180826001600160a01b03168152602001915050600060405180830381600087803b15801561304857600080fd5b505af115801561305c573d6000803e3d6000fd5b50506040516001600160a01b03841692507fbfdf1baaa7e4871111360083540f067050014f651c9e4610a2a4a4bdf8bfab5d9150600090a26040516001600160a01b038216907f2aff63790c7da80d1c50ede92d23bc841c384837735c92c184331f3d7b91e5bf90600090a25050565b816001600160a01b031663ae22107f826040518263ffffffff1660e01b815260040180826001600160a01b03168152602001915050600060405180830381600087803b15801561311b57600080fd5b505af115801561312f573d6000803e3d6000fd5b50506040516001600160a01b03841692507f59c3fbcae88f30e9b0e35c132a7f68c53231dffa4722f197c7ecb0ee013eee609150600090a25050565b826001600160a01b031663fba8f03183836040518363ffffffff1660e01b815260040180836001600160a01b03168152602001826001600160a01b0316815260200192505050600060405180830381600087803b1580156131cb57600080fd5b505af11580156131df573d6000803e3d6000fd5b50506040516001600160a01b038085169350851691507f9430ad6ff45d6c3e126c7711bf0036bd9bc6b202fa19628abd88e59cf43ced4390600090a350505056fe42616e636f72436f6e7665727465725265676973747279446174610000000000a2646970667358221220f18e7b2a58ad0e4b8a03736e0f6ae0e4277fb1fb6282c5f4f8b7824083465cbd64736f6c634300060c0033",
  "immutableReferences": {},
  "source": "// SPDX-License-Identifier: SEE LICENSE IN LICENSE\npragma solidity 0.6.12;\nimport \"../converter/ConverterRegistry.sol\";\n\n/*\n    Utils test helper that exposes the converter registry functions\n*/\ncontract TestConverterRegistry is ConverterRegistry {\n    IConverter public createdConverter;\n\n    constructor(IContractRegistry _registry) public ConverterRegistry(_registry) {\n    }\n\n    function newConverter(\n        uint16 _type,\n        string memory _name,\n        string memory _symbol,\n        uint8 _decimals,\n        uint32 _maxConversionFee,\n        IERC20Token[] memory _reserveTokens,\n        uint32[] memory _reserveWeights\n    )\n    public override returns (IConverter) {\n        createdConverter = super.newConverter(_type, _name, _symbol, _decimals, _maxConversionFee, _reserveTokens,\n            _reserveWeights);\n\n        return createdConverter;\n    }\n}\n",
  "sourcePath": "/home/lash/src/ext/cic/grassrootseconomics/bancor-contracts/solidity/contracts/helpers/TestConverterRegistry.sol",
  "compiler": {
    "name": "solc",
    "version": "0.6.12+commit.27d51765.Emscripten.clang"
  },
  "schemaVersion": "3.2.3",
  "updatedAt": "2020-10-20T08:24:47.806Z",
  "devdoc": {
    "kind": "dev",
    "methods": {
      "acceptOwnership()": {
        "details": "used by a new owner to accept an ownership transfer"
      },
      "addConverter(address)": {
        "details": "adds an existing converter to the registry can only be called by the owner",
        "params": {
          "_converter": "converter"
        }
      },
      "getAnchor(uint256)": {
        "details": "returns the converter anchor at a given index",
        "params": {
          "_index": "index"
        },
        "returns": {
          "_0": "anchor at the given index"
        }
      },
      "getAnchorCount()": {
        "details": "returns the number of converter anchors in the registry",
        "returns": {
          "_0": "number of anchors"
        }
      },
      "getAnchors()": {
        "details": "returns the list of converter anchors in the registry",
        "returns": {
          "_0": "list of anchors"
        }
      },
      "getConvertersByAnchors(address[])": {
        "details": "returns a list of converters for a given list of anchors this is a utility function that can be used to reduce the number of calls to the contract",
        "params": {
          "_anchors": "list of converter anchors"
        },
        "returns": {
          "_0": "list of converters"
        }
      },
      "getConvertersBySmartTokens(address[])": {
        "details": "deprecated, backward compatibility, use `getConvertersByAnchors`"
      },
      "getConvertibleToken(uint256)": {
        "details": "returns the convertible token at a given index",
        "params": {
          "_index": "index"
        },
        "returns": {
          "_0": "convertible token at the given index"
        }
      },
      "getConvertibleTokenAnchor(address,uint256)": {
        "details": "returns the converter anchor associated with a given convertible token at a given index",
        "params": {
          "_index": "index"
        },
        "returns": {
          "_0": "anchor associated with the given convertible token at the given index"
        }
      },
      "getConvertibleTokenAnchorCount(address)": {
        "details": "returns the number of converter anchors associated with a given convertible token",
        "params": {
          "_convertibleToken": "convertible token"
        },
        "returns": {
          "_0": "number of anchors associated with the given convertible token"
        }
      },
      "getConvertibleTokenAnchors(address)": {
        "details": "returns the list of aoncerter anchors associated with a given convertible token",
        "params": {
          "_convertibleToken": "convertible token"
        },
        "returns": {
          "_0": "list of anchors associated with the given convertible token"
        }
      },
      "getConvertibleTokenCount()": {
        "details": "returns the number of convertible tokens in the registry",
        "returns": {
          "_0": "number of convertible tokens"
        }
      },
      "getConvertibleTokenSmartToken(address,uint256)": {
        "details": "deprecated, backward compatibility, use `getConvertibleTokenAnchor`"
      },
      "getConvertibleTokenSmartTokenCount(address)": {
        "details": "deprecated, backward compatibility, use `getConvertibleTokenAnchorCount`"
      },
      "getConvertibleTokenSmartTokens(address)": {
        "details": "deprecated, backward compatibility, use `getConvertibleTokenAnchors`"
      },
      "getConvertibleTokens()": {
        "details": "returns the list of convertible tokens in the registry",
        "returns": {
          "_0": "list of convertible tokens"
        }
      },
      "getLiquidityPool(uint256)": {
        "details": "returns the liquidity pool at a given index",
        "params": {
          "_index": "index"
        },
        "returns": {
          "_0": "liquidity pool at the given index"
        }
      },
      "getLiquidityPoolByConfig(uint16,address[],uint32[])": {
        "details": "searches for a liquidity pool with specific configuration",
        "params": {
          "_reserveTokens": "reserve tokens",
          "_reserveWeights": "reserve weights",
          "_type": "converter type, see ConverterBase contract main doc"
        },
        "returns": {
          "_0": "the liquidity pool, or zero if no such liquidity pool exists"
        }
      },
      "getLiquidityPoolByReserveConfig(address[],uint32[])": {
        "details": "deprecated, backward compatibility, use `getLiquidityPoolByConfig`"
      },
      "getLiquidityPoolCount()": {
        "details": "returns the number of liquidity pools in the registry",
        "returns": {
          "_0": "number of liquidity pools"
        }
      },
      "getLiquidityPools()": {
        "details": "returns the list of liquidity pools in the registry",
        "returns": {
          "_0": "list of liquidity pools"
        }
      },
      "getSmartToken(uint256)": {
        "details": "deprecated, backward compatibility, use `getAnchor`"
      },
      "getSmartTokenCount()": {
        "details": "deprecated, backward compatibility, use `getAnchorCount`"
      },
      "getSmartTokens()": {
        "details": "deprecated, backward compatibility, use `getAnchors`"
      },
      "isAnchor(address)": {
        "details": "checks whether or not a given value is a converter anchor",
        "params": {
          "_value": "value"
        },
        "returns": {
          "_0": "true if the given value is an anchor, false if not"
        }
      },
      "isConverterValid(address)": {
        "details": "checks whether or not a given converter is valid",
        "params": {
          "_converter": "converter"
        },
        "returns": {
          "_0": "true if the given converter is valid, false if not"
        }
      },
      "isConvertibleToken(address)": {
        "details": "checks whether or not a given value is a convertible token",
        "params": {
          "_value": "value"
        },
        "returns": {
          "_0": "true if the given value is a convertible token, false if not"
        }
      },
      "isConvertibleTokenAnchor(address,address)": {
        "details": "checks whether or not a given value is a converter anchor of a given convertible token",
        "params": {
          "_convertibleToken": "convertible token",
          "_value": "value"
        },
        "returns": {
          "_0": "true if the given value is an anchor of the given convertible token, false if not"
        }
      },
      "isConvertibleTokenSmartToken(address,address)": {
        "details": "deprecated, backward compatibility, use `isConvertibleTokenAnchor`"
      },
      "isLiquidityPool(address)": {
        "details": "checks whether or not a given value is a liquidity pool",
        "params": {
          "_value": "value"
        },
        "returns": {
          "_0": "true if the given value is a liquidity pool, false if not"
        }
      },
      "isSimilarLiquidityPoolRegistered(address)": {
        "details": "checks if a liquidity pool with given configuration is already registered",
        "params": {
          "_converter": "converter with specific configuration"
        },
        "returns": {
          "_0": "if a liquidity pool with the same configuration is already registered"
        }
      },
      "isSmartToken(address)": {
        "details": "deprecated, backward compatibility, use `isAnchor`"
      },
      "newConverter(uint16,string,string,uint8,uint32,address[],uint32[])": {
        "details": "creates a zero supply liquid token / empty liquidity pool and adds its converter to the registry",
        "params": {
          "_decimals": "token / pool decimals",
          "_maxConversionFee": "maximum conversion-fee",
          "_name": "token / pool name",
          "_reserveTokens": "reserve tokens",
          "_reserveWeights": "reserve weights",
          "_symbol": "token / pool symbol",
          "_type": "converter type, see ConverterBase contract main doc"
        },
        "returns": {
          "_0": "new converter"
        }
      },
      "removeConverter(address)": {
        "details": "removes a converter from the registry anyone can remove an existing converter from the registry, as long as the converter is invalid note that the owner can also remove valid converters",
        "params": {
          "_converter": "converter"
        }
      },
      "restoreRegistry()": {
        "details": "restores the previous contract-registry"
      },
      "restrictRegistryUpdate(bool)": {
        "details": "restricts the permission to update the contract-registry",
        "params": {
          "_onlyOwnerCanUpdateRegistry": "indicates whether or not permission is restricted to owner only"
        }
      },
      "transferOwnership(address)": {
        "details": "allows transferring the contract ownership the new owner still needs to accept the transfer can only be called by the contract owner",
        "params": {
          "_newOwner": "new contract owner"
        }
      },
      "updateRegistry()": {
        "details": "updates to the new contract-registry"
      }
    },
    "version": 1
  },
  "userdoc": {
    "kind": "user",
    "methods": {},
    "version": 1
  }
}