{
  "contractName": "TestLiquidityPoolV2Converter",
  "abi": [
    {
      "inputs": [
        {
          "internalType": "contract IPoolTokensContainer",
          "name": "_token",
          "type": "address"
        },
        {
          "internalType": "contract IContractRegistry",
          "name": "_registry",
          "type": "address"
        },
        {
          "internalType": "uint32",
          "name": "_maxConversionFee",
          "type": "uint32"
        }
      ],
      "stateMutability": "nonpayable",
      "type": "constructor"
    },
    {
      "anonymous": false,
      "inputs": [
        {
          "indexed": true,
          "internalType": "uint16",
          "name": "_type",
          "type": "uint16"
        },
        {
          "indexed": true,
          "internalType": "contract IConverterAnchor",
          "name": "_anchor",
          "type": "address"
        },
        {
          "indexed": true,
          "internalType": "bool",
          "name": "_activated",
          "type": "bool"
        }
      ],
      "name": "Activation",
      "type": "event"
    },
    {
      "anonymous": false,
      "inputs": [
        {
          "indexed": true,
          "internalType": "contract IERC20Token",
          "name": "_fromToken",
          "type": "address"
        },
        {
          "indexed": true,
          "internalType": "contract IERC20Token",
          "name": "_toToken",
          "type": "address"
        },
        {
          "indexed": true,
          "internalType": "address",
          "name": "_trader",
          "type": "address"
        },
        {
          "indexed": false,
          "internalType": "uint256",
          "name": "_amount",
          "type": "uint256"
        },
        {
          "indexed": false,
          "internalType": "uint256",
          "name": "_return",
          "type": "uint256"
        },
        {
          "indexed": false,
          "internalType": "int256",
          "name": "_conversionFee",
          "type": "int256"
        }
      ],
      "name": "Conversion",
      "type": "event"
    },
    {
      "anonymous": false,
      "inputs": [
        {
          "indexed": false,
          "internalType": "uint32",
          "name": "_prevFee",
          "type": "uint32"
        },
        {
          "indexed": false,
          "internalType": "uint32",
          "name": "_newFee",
          "type": "uint32"
        }
      ],
      "name": "ConversionFeeUpdate",
      "type": "event"
    },
    {
      "anonymous": false,
      "inputs": [
        {
          "indexed": true,
          "internalType": "address",
          "name": "_provider",
          "type": "address"
        },
        {
          "indexed": true,
          "internalType": "contract IERC20Token",
          "name": "_reserveToken",
          "type": "address"
        },
        {
          "indexed": false,
          "internalType": "uint256",
          "name": "_amount",
          "type": "uint256"
        },
        {
          "indexed": false,
          "internalType": "uint256",
          "name": "_newBalance",
          "type": "uint256"
        },
        {
          "indexed": false,
          "internalType": "uint256",
          "name": "_newSupply",
          "type": "uint256"
        }
      ],
      "name": "LiquidityAdded",
      "type": "event"
    },
    {
      "anonymous": false,
      "inputs": [
        {
          "indexed": true,
          "internalType": "address",
          "name": "_provider",
          "type": "address"
        },
        {
          "indexed": true,
          "internalType": "contract IERC20Token",
          "name": "_reserveToken",
          "type": "address"
        },
        {
          "indexed": false,
          "internalType": "uint256",
          "name": "_amount",
          "type": "uint256"
        },
        {
          "indexed": false,
          "internalType": "uint256",
          "name": "_newBalance",
          "type": "uint256"
        },
        {
          "indexed": false,
          "internalType": "uint256",
          "name": "_newSupply",
          "type": "uint256"
        }
      ],
      "name": "LiquidityRemoved",
      "type": "event"
    },
    {
      "anonymous": false,
      "inputs": [
        {
          "indexed": false,
          "internalType": "uint32",
          "name": "_prevFee",
          "type": "uint32"
        },
        {
          "indexed": false,
          "internalType": "uint32",
          "name": "_newFee",
          "type": "uint32"
        }
      ],
      "name": "OracleDeviationFeeUpdate",
      "type": "event"
    },
    {
      "anonymous": false,
      "inputs": [
        {
          "indexed": true,
          "internalType": "address",
          "name": "_prevOwner",
          "type": "address"
        },
        {
          "indexed": true,
          "internalType": "address",
          "name": "_newOwner",
          "type": "address"
        }
      ],
      "name": "OwnerUpdate",
      "type": "event"
    },
    {
      "anonymous": false,
      "inputs": [
        {
          "indexed": true,
          "internalType": "contract IERC20Token",
          "name": "_token1",
          "type": "address"
        },
        {
          "indexed": true,
          "internalType": "contract IERC20Token",
          "name": "_token2",
          "type": "address"
        },
        {
          "indexed": false,
          "internalType": "uint256",
          "name": "_rateN",
          "type": "uint256"
        },
        {
          "indexed": false,
          "internalType": "uint256",
          "name": "_rateD",
          "type": "uint256"
        }
      ],
      "name": "TokenRateUpdate",
      "type": "event"
    },
    {
      "inputs": [],
      "name": "acceptAnchorOwnership",
      "outputs": [],
      "stateMutability": "nonpayable",
      "type": "function"
    },
    {
      "inputs": [],
      "name": "acceptOwnership",
      "outputs": [],
      "stateMutability": "nonpayable",
      "type": "function"
    },
    {
      "inputs": [],
      "name": "acceptTokenOwnership",
      "outputs": [],
      "stateMutability": "nonpayable",
      "type": "function"
    },
    {
      "inputs": [
        {
          "internalType": "contract IERC20Token",
          "name": "_primaryReserveToken",
          "type": "address"
        },
        {
          "internalType": "contract IChainlinkPriceOracle",
          "name": "_primaryReserveOracle",
          "type": "address"
        },
        {
          "internalType": "contract IChainlinkPriceOracle",
          "name": "_secondaryReserveOracle",
          "type": "address"
        }
      ],
      "name": "activate",
      "outputs": [],
      "stateMutability": "nonpayable",
      "type": "function"
    },
    {
      "inputs": [
        {
          "internalType": "contract IERC20Token",
          "name": "_reserveToken",
          "type": "address"
        },
        {
          "internalType": "uint256",
          "name": "_amount",
          "type": "uint256"
        },
        {
          "internalType": "uint256",
          "name": "_minReturn",
          "type": "uint256"
        }
      ],
      "name": "addLiquidity",
      "outputs": [
        {
          "internalType": "uint256",
          "name": "",
          "type": "uint256"
        }
      ],
      "stateMutability": "payable",
      "type": "function"
    },
    {
      "inputs": [
        {
          "internalType": "contract IERC20Token",
          "name": "_token",
          "type": "address"
        },
        {
          "internalType": "uint32",
          "name": "_weight",
          "type": "uint32"
        }
      ],
      "name": "addReserve",
      "outputs": [],
      "stateMutability": "nonpayable",
      "type": "function"
    },
    {
      "inputs": [],
      "name": "anchor",
      "outputs": [
        {
          "internalType": "contract IConverterAnchor",
          "name": "",
          "type": "address"
        }
      ],
      "stateMutability": "view",
      "type": "function"
    },
    {
      "inputs": [],
      "name": "connectorTokenCount",
      "outputs": [
        {
          "internalType": "uint16",
          "name": "",
          "type": "uint16"
        }
      ],
      "stateMutability": "view",
      "type": "function"
    },
    {
      "inputs": [
        {
          "internalType": "uint256",
          "name": "_index",
          "type": "uint256"
        }
      ],
      "name": "connectorTokens",
      "outputs": [
        {
          "internalType": "contract IERC20Token",
          "name": "",
          "type": "address"
        }
      ],
      "stateMutability": "view",
      "type": "function"
    },
    {
      "inputs": [
        {
          "internalType": "contract IERC20Token",
          "name": "_address",
          "type": "address"
        }
      ],
      "name": "connectors",
      "outputs": [
        {
          "internalType": "uint256",
          "name": "",
          "type": "uint256"
        },
        {
          "internalType": "uint32",
          "name": "",
          "type": "uint32"
        },
        {
          "internalType": "bool",
          "name": "",
          "type": "bool"
        },
        {
          "internalType": "bool",
          "name": "",
          "type": "bool"
        },
        {
          "internalType": "bool",
          "name": "",
          "type": "bool"
        }
      ],
      "stateMutability": "view",
      "type": "function"
    },
    {
      "inputs": [],
      "name": "conversionFee",
      "outputs": [
        {
          "internalType": "uint32",
          "name": "",
          "type": "uint32"
        }
      ],
      "stateMutability": "view",
      "type": "function"
    },
    {
      "inputs": [],
      "name": "conversionWhitelist",
      "outputs": [
        {
          "internalType": "contract IWhitelist",
          "name": "",
          "type": "address"
        }
      ],
      "stateMutability": "view",
      "type": "function"
    },
    {
      "inputs": [],
      "name": "conversionsEnabled",
      "outputs": [
        {
          "internalType": "bool",
          "name": "",
          "type": "bool"
        }
      ],
      "stateMutability": "view",
      "type": "function"
    },
    {
      "inputs": [
        {
          "internalType": "contract IERC20Token",
          "name": "_sourceToken",
          "type": "address"
        },
        {
          "internalType": "contract IERC20Token",
          "name": "_targetToken",
          "type": "address"
        },
        {
          "internalType": "uint256",
          "name": "_amount",
          "type": "uint256"
        },
        {
          "internalType": "address",
          "name": "_trader",
          "type": "address"
        },
        {
          "internalType": "address payable",
          "name": "_beneficiary",
          "type": "address"
        }
      ],
      "name": "convert",
      "outputs": [
        {
          "internalType": "uint256",
          "name": "",
          "type": "uint256"
        }
      ],
      "stateMutability": "payable",
      "type": "function"
    },
    {
      "inputs": [],
      "name": "converterType",
      "outputs": [
        {
          "internalType": "uint16",
          "name": "",
          "type": "uint16"
        }
      ],
      "stateMutability": "pure",
      "type": "function"
    },
    {
      "inputs": [],
      "name": "currentTime",
      "outputs": [
        {
          "internalType": "uint256",
          "name": "",
          "type": "uint256"
        }
      ],
      "stateMutability": "view",
      "type": "function"
    },
    {
      "inputs": [],
      "name": "disableMaxStakedBalances",
      "outputs": [],
      "stateMutability": "nonpayable",
      "type": "function"
    },
    {
      "inputs": [],
      "name": "effectiveReserveWeights",
      "outputs": [
        {
          "internalType": "uint256",
          "name": "",
          "type": "uint256"
        },
        {
          "internalType": "uint256",
          "name": "",
          "type": "uint256"
        }
      ],
      "stateMutability": "view",
      "type": "function"
    },
    {
      "inputs": [],
      "name": "effectiveTokensRate",
      "outputs": [
        {
          "internalType": "uint256",
          "name": "",
          "type": "uint256"
        },
        {
          "internalType": "uint256",
          "name": "",
          "type": "uint256"
        }
      ],
      "stateMutability": "view",
      "type": "function"
    },
    {
      "inputs": [],
      "name": "externalRate",
      "outputs": [
        {
          "internalType": "uint256",
          "name": "n",
          "type": "uint256"
        },
        {
          "internalType": "uint256",
          "name": "d",
          "type": "uint256"
        }
      ],
      "stateMutability": "view",
      "type": "function"
    },
    {
      "inputs": [],
      "name": "externalRateUpdateTime",
      "outputs": [
        {
          "internalType": "uint256",
          "name": "",
          "type": "uint256"
        }
      ],
      "stateMutability": "view",
      "type": "function"
    },
    {
      "inputs": [
        {
          "internalType": "contract IERC20Token",
          "name": "_connectorToken",
          "type": "address"
        }
      ],
      "name": "getConnectorBalance",
      "outputs": [
        {
          "internalType": "uint256",
          "name": "",
          "type": "uint256"
        }
      ],
      "stateMutability": "view",
      "type": "function"
    },
    {
      "inputs": [
        {
          "internalType": "contract IERC20Token",
          "name": "_sourceToken",
          "type": "address"
        },
        {
          "internalType": "contract IERC20Token",
          "name": "_targetToken",
          "type": "address"
        },
        {
          "internalType": "uint256",
          "name": "_amount",
          "type": "uint256"
        }
      ],
      "name": "getReturn",
      "outputs": [
        {
          "internalType": "uint256",
          "name": "",
          "type": "uint256"
        },
        {
          "internalType": "uint256",
          "name": "",
          "type": "uint256"
        }
      ],
      "stateMutability": "view",
      "type": "function"
    },
    {
      "inputs": [],
      "name": "hasETHReserve",
      "outputs": [
        {
          "internalType": "bool",
          "name": "",
          "type": "bool"
        }
      ],
      "stateMutability": "view",
      "type": "function"
    },
    {
      "inputs": [],
      "name": "isActive",
      "outputs": [
        {
          "internalType": "bool",
          "name": "",
          "type": "bool"
        }
      ],
      "stateMutability": "view",
      "type": "function"
    },
    {
      "inputs": [],
      "name": "isV28OrHigher",
      "outputs": [
        {
          "internalType": "bool",
          "name": "",
          "type": "bool"
        }
      ],
      "stateMutability": "pure",
      "type": "function"
    },
    {
      "inputs": [
        {
          "internalType": "contract ISmartToken",
          "name": "_poolToken",
          "type": "address"
        }
      ],
      "name": "liquidationLimit",
      "outputs": [
        {
          "internalType": "uint256",
          "name": "",
          "type": "uint256"
        }
      ],
      "stateMutability": "view",
      "type": "function"
    },
    {
      "inputs": [],
      "name": "maxConversionFee",
      "outputs": [
        {
          "internalType": "uint32",
          "name": "",
          "type": "uint32"
        }
      ],
      "stateMutability": "view",
      "type": "function"
    },
    {
      "inputs": [],
      "name": "maxStakedBalanceEnabled",
      "outputs": [
        {
          "internalType": "bool",
          "name": "",
          "type": "bool"
        }
      ],
      "stateMutability": "view",
      "type": "function"
    },
    {
      "inputs": [
        {
          "internalType": "contract IERC20Token",
          "name": "",
          "type": "address"
        }
      ],
      "name": "maxStakedBalances",
      "outputs": [
        {
          "internalType": "uint256",
          "name": "",
          "type": "uint256"
        }
      ],
      "stateMutability": "view",
      "type": "function"
    },
    {
      "inputs": [],
      "name": "newOwner",
      "outputs": [
        {
          "internalType": "address",
          "name": "",
          "type": "address"
        }
      ],
      "stateMutability": "view",
      "type": "function"
    },
    {
      "inputs": [],
      "name": "onlyOwnerCanUpdateRegistry",
      "outputs": [
        {
          "internalType": "bool",
          "name": "",
          "type": "bool"
        }
      ],
      "stateMutability": "view",
      "type": "function"
    },
    {
      "inputs": [],
      "name": "oracleDeviationFee",
      "outputs": [
        {
          "internalType": "uint32",
          "name": "",
          "type": "uint32"
        }
      ],
      "stateMutability": "view",
      "type": "function"
    },
    {
      "inputs": [],
      "name": "owner",
      "outputs": [
        {
          "internalType": "address",
          "name": "",
          "type": "address"
        }
      ],
      "stateMutability": "view",
      "type": "function"
    },
    {
      "inputs": [
        {
          "internalType": "contract IERC20Token",
          "name": "_reserveToken",
          "type": "address"
        }
      ],
      "name": "poolToken",
      "outputs": [
        {
          "internalType": "contract ISmartToken",
          "name": "",
          "type": "address"
        }
      ],
      "stateMutability": "view",
      "type": "function"
    },
    {
      "inputs": [],
      "name": "prevRegistry",
      "outputs": [
        {
          "internalType": "contract IContractRegistry",
          "name": "",
          "type": "address"
        }
      ],
      "stateMutability": "view",
      "type": "function"
    },
    {
      "inputs": [],
      "name": "priceOracle",
      "outputs": [
        {
          "internalType": "contract IPriceOracle",
          "name": "",
          "type": "address"
        }
      ],
      "stateMutability": "view",
      "type": "function"
    },
    {
      "inputs": [],
      "name": "primaryReserveToken",
      "outputs": [
        {
          "internalType": "contract IERC20Token",
          "name": "",
          "type": "address"
        }
      ],
      "stateMutability": "view",
      "type": "function"
    },
    {
      "inputs": [],
      "name": "registry",
      "outputs": [
        {
          "internalType": "contract IContractRegistry",
          "name": "",
          "type": "address"
        }
      ],
      "stateMutability": "view",
      "type": "function"
    },
    {
      "inputs": [
        {
          "internalType": "contract ISmartToken",
          "name": "_poolToken",
          "type": "address"
        },
        {
          "internalType": "uint256",
          "name": "_amount",
          "type": "uint256"
        },
        {
          "internalType": "uint256",
          "name": "_minReturn",
          "type": "uint256"
        }
      ],
      "name": "removeLiquidity",
      "outputs": [
        {
          "internalType": "uint256",
          "name": "",
          "type": "uint256"
        }
      ],
      "stateMutability": "nonpayable",
      "type": "function"
    },
    {
      "inputs": [
        {
          "internalType": "contract ISmartToken",
          "name": "_poolToken",
          "type": "address"
        },
        {
          "internalType": "uint256",
          "name": "_amount",
          "type": "uint256"
        }
      ],
      "name": "removeLiquidityReturnAndFee",
      "outputs": [
        {
          "internalType": "uint256",
          "name": "",
          "type": "uint256"
        },
        {
          "internalType": "uint256",
          "name": "",
          "type": "uint256"
        }
      ],
      "stateMutability": "view",
      "type": "function"
    },
    {
      "inputs": [
        {
          "internalType": "contract IERC20Token",
          "name": "_reserveToken",
          "type": "address"
        }
      ],
      "name": "reserveAmplifiedBalance",
      "outputs": [
        {
          "internalType": "uint256",
          "name": "",
          "type": "uint256"
        }
      ],
      "stateMutability": "view",
      "type": "function"
    },
    {
      "inputs": [
        {
          "internalType": "contract IERC20Token",
          "name": "_reserveToken",
          "type": "address"
        }
      ],
      "name": "reserveBalance",
      "outputs": [
        {
          "internalType": "uint256",
          "name": "",
          "type": "uint256"
        }
      ],
      "stateMutability": "view",
      "type": "function"
    },
    {
      "inputs": [],
      "name": "reserveRatio",
      "outputs": [
        {
          "internalType": "uint32",
          "name": "",
          "type": "uint32"
        }
      ],
      "stateMutability": "view",
      "type": "function"
    },
    {
      "inputs": [
        {
          "internalType": "contract IERC20Token",
          "name": "_reserveToken",
          "type": "address"
        }
      ],
      "name": "reserveStakedBalance",
      "outputs": [
        {
          "internalType": "uint256",
          "name": "",
          "type": "uint256"
        }
      ],
      "stateMutability": "view",
      "type": "function"
    },
    {
      "inputs": [],
      "name": "reserveTokenCount",
      "outputs": [
        {
          "internalType": "uint16",
          "name": "",
          "type": "uint16"
        }
      ],
      "stateMutability": "view",
      "type": "function"
    },
    {
      "inputs": [
        {
          "internalType": "uint256",
          "name": "",
          "type": "uint256"
        }
      ],
      "name": "reserveTokens",
      "outputs": [
        {
          "internalType": "contract IERC20Token",
          "name": "",
          "type": "address"
        }
      ],
      "stateMutability": "view",
      "type": "function"
    },
    {
      "inputs": [
        {
          "internalType": "contract IERC20Token",
          "name": "_reserveToken",
          "type": "address"
        }
      ],
      "name": "reserveWeight",
      "outputs": [
        {
          "internalType": "uint32",
          "name": "",
          "type": "uint32"
        }
      ],
      "stateMutability": "view",
      "type": "function"
    },
    {
      "inputs": [
        {
          "internalType": "contract IERC20Token",
          "name": "",
          "type": "address"
        }
      ],
      "name": "reserves",
      "outputs": [
        {
          "internalType": "uint256",
          "name": "balance",
          "type": "uint256"
        },
        {
          "internalType": "uint32",
          "name": "weight",
          "type": "uint32"
        },
        {
          "internalType": "bool",
          "name": "deprecated1",
          "type": "bool"
        },
        {
          "internalType": "bool",
          "name": "deprecated2",
          "type": "bool"
        },
        {
          "internalType": "bool",
          "name": "isSet",
          "type": "bool"
        }
      ],
      "stateMutability": "view",
      "type": "function"
    },
    {
      "inputs": [],
      "name": "restoreRegistry",
      "outputs": [],
      "stateMutability": "nonpayable",
      "type": "function"
    },
    {
      "inputs": [
        {
          "internalType": "bool",
          "name": "_onlyOwnerCanUpdateRegistry",
          "type": "bool"
        }
      ],
      "name": "restrictRegistryUpdate",
      "outputs": [],
      "stateMutability": "nonpayable",
      "type": "function"
    },
    {
      "inputs": [],
      "name": "secondaryReserveToken",
      "outputs": [
        {
          "internalType": "contract IERC20Token",
          "name": "",
          "type": "address"
        }
      ],
      "stateMutability": "view",
      "type": "function"
    },
    {
      "inputs": [
        {
          "internalType": "uint32",
          "name": "_conversionFee",
          "type": "uint32"
        }
      ],
      "name": "setConversionFee",
      "outputs": [],
      "stateMutability": "nonpayable",
      "type": "function"
    },
    {
      "inputs": [
        {
          "internalType": "contract IWhitelist",
          "name": "_whitelist",
          "type": "address"
        }
      ],
      "name": "setConversionWhitelist",
      "outputs": [],
      "stateMutability": "nonpayable",
      "type": "function"
    },
    {
      "inputs": [
        {
          "internalType": "uint256",
          "name": "_reserve1MaxStakedBalance",
          "type": "uint256"
        },
        {
          "internalType": "uint256",
          "name": "_reserve2MaxStakedBalance",
          "type": "uint256"
        }
      ],
      "name": "setMaxStakedBalances",
      "outputs": [],
      "stateMutability": "nonpayable",
      "type": "function"
    },
    {
      "inputs": [
        {
          "internalType": "uint32",
          "name": "_oracleDeviationFee",
          "type": "uint32"
        }
      ],
      "name": "setOracleDeviationFee",
      "outputs": [],
      "stateMutability": "nonpayable",
      "type": "function"
    },
    {
      "inputs": [
        {
          "internalType": "contract IERC20Token",
          "name": "_reserveToken",
          "type": "address"
        },
        {
          "internalType": "uint256",
          "name": "_balance",
          "type": "uint256"
        }
      ],
      "name": "setReserveStakedBalance",
      "outputs": [],
      "stateMutability": "nonpayable",
      "type": "function"
    },
    {
      "inputs": [
        {
          "internalType": "contract IERC20Token",
          "name": "_sourceToken",
          "type": "address"
        },
        {
          "internalType": "contract IERC20Token",
          "name": "_targetToken",
          "type": "address"
        },
        {
          "internalType": "uint256",
          "name": "_amount",
          "type": "uint256"
        }
      ],
      "name": "targetAmountAndFee",
      "outputs": [
        {
          "internalType": "uint256",
          "name": "",
          "type": "uint256"
        },
        {
          "internalType": "uint256",
          "name": "",
          "type": "uint256"
        }
      ],
      "stateMutability": "view",
      "type": "function"
    },
    {
      "inputs": [],
      "name": "token",
      "outputs": [
        {
          "internalType": "contract IConverterAnchor",
          "name": "",
          "type": "address"
        }
      ],
      "stateMutability": "view",
      "type": "function"
    },
    {
      "inputs": [
        {
          "internalType": "address",
          "name": "_newOwner",
          "type": "address"
        }
      ],
      "name": "transferAnchorOwnership",
      "outputs": [],
      "stateMutability": "nonpayable",
      "type": "function"
    },
    {
      "inputs": [
        {
          "internalType": "address",
          "name": "_newOwner",
          "type": "address"
        }
      ],
      "name": "transferOwnership",
      "outputs": [],
      "stateMutability": "nonpayable",
      "type": "function"
    },
    {
      "inputs": [
        {
          "internalType": "address",
          "name": "_newOwner",
          "type": "address"
        }
      ],
      "name": "transferTokenOwnership",
      "outputs": [],
      "stateMutability": "nonpayable",
      "type": "function"
    },
    {
      "inputs": [],
      "name": "updateRegistry",
      "outputs": [],
      "stateMutability": "nonpayable",
      "type": "function"
    },
    {
      "inputs": [],
      "name": "upgrade",
      "outputs": [],
      "stateMutability": "nonpayable",
      "type": "function"
    },
    {
      "inputs": [],
      "name": "version",
      "outputs": [
        {
          "internalType": "uint16",
          "name": "",
          "type": "uint16"
        }
      ],
      "stateMutability": "view",
      "type": "function"
    },
    {
      "inputs": [
        {
          "internalType": "address payable",
          "name": "_to",
          "type": "address"
        }
      ],
      "name": "withdrawETH",
      "outputs": [],
      "stateMutability": "nonpayable",
      "type": "function"
    },
    {
      "inputs": [
        {
          "internalType": "contract IERC20Token",
          "name": "_token",
          "type": "address"
        },
        {
          "internalType": "address",
          "name": "_to",
          "type": "address"
        },
        {
          "internalType": "uint256",
          "name": "_amount",
          "type": "uint256"
        }
      ],
      "name": "withdrawFromAnchor",
      "outputs": [],
      "stateMutability": "nonpayable",
      "type": "function"
    },
    {
      "inputs": [
        {
          "internalType": "contract IERC20Token",
          "name": "_token",
          "type": "address"
        },
        {
          "internalType": "address",
          "name": "_to",
          "type": "address"
        },
        {
          "internalType": "uint256",
          "name": "_amount",
          "type": "uint256"
        }
      ],
      "name": "withdrawTokens",
      "outputs": [],
      "stateMutability": "nonpayable",
      "type": "function"
    },
    {
      "stateMutability": "payable",
      "type": "receive"
    },
    {
      "inputs": [
        {
          "internalType": "uint256",
          "name": "_externalRateUpdateTime",
          "type": "uint256"
        }
      ],
      "name": "setExternalRateUpdateTime",
      "outputs": [],
      "stateMutability": "nonpayable",
      "type": "function"
    },
    {
      "inputs": [
        {
          "internalType": "uint256",
          "name": "_currentTime",
          "type": "uint256"
        }
      ],
      "name": "setTime",
      "outputs": [],
      "stateMutability": "nonpayable",
      "type": "function"
    },
    {
      "inputs": [
        {
          "internalType": "contract IERC20Token",
          "name": "_reserveToken",
          "type": "address"
        },
        {
          "internalType": "uint32",
          "name": "_weight",
          "type": "uint32"
        }
      ],
      "name": "setReserveWeight",
      "outputs": [],
      "stateMutability": "nonpayable",
      "type": "function"
    }
  ],
  "bytecode": "0x60806040526003805460ff60a81b19169055600880546001600160601b03191690556012805460ff191660011764ffffffff001916622710001790553480156200004857600080fd5b5060405162004ef338038062004ef3833981810160405260608110156200006e57600080fd5b5080516020820151604090920151600080546001600160a01b031916331790559091908282828282828282828180620000a78162000144565b50600280546001600160a01b039092166001600160a01b031992831681179091556003805490921617905582620000de8162000144565b81620000ea81620001a3565b5050600480546001600160a01b039094166001600160a01b031990941693909317909255506008805463ffffffff9092166401000000000263ffffffff60201b199092169190911790555062000202975050505050505050565b6001600160a01b038116620001a0576040805162461bcd60e51b815260206004820152601360248201527f4552525f494e56414c49445f4144445245535300000000000000000000000000604482015290519081900360640190fd5b50565b620f424063ffffffff82161115620001a0576040805162461bcd60e51b815260206004820152601a60248201527f4552525f494e56414c49445f434f4e56455253494f4e5f464545000000000000604482015290519081900360640190fd5b614ce180620002126000396000f3fe6080604052600436106104135760003560e01c8063690d83201161021e578063d260529c11610123578063ddd9abbf116100ab578063ecbca55d1161007a578063ecbca55d14610efe578063f2fde38b14610f2e578063f64ccbfb14610f61578063fc0c546a14610f8b578063fd2d6c7c14610fa0576104a4565b8063ddd9abbf14610e34578063e38192e314610e64578063e8dc12ff14610ea3578063ec2240f514610ee9576104a4565b8063d66bd524116100f2578063d66bd52414610d71578063d895951214610da4578063db2830a414610dd7578063dc75eb9a14610dec578063dc8de37914610e01576104a4565b8063d260529c14610d1d578063d3fb73b414610d32578063d4ee1d9014610d47578063d55ec69714610d5c576104a4565b8063ab28b174116101a6578063bf7da6ba11610175578063bf7da6ba14610c7b578063c45d3d9214610cb4578063cdc91c6914610cc9578063d031370b14610cde578063d18e81b314610d08576104a4565b8063ab28b17414610bf9578063af94b8d814610c0e578063b4a176d314610c51578063bf75455814610c66576104a4565b80637b103999116101ed5780637b10399914610b725780638da5cb5b14610b8757806394c275ad14610b9c57806398a71dcb14610bb15780639b99a8e214610be4576104a4565b8063690d832014610ad65780636a49d2c414610b0957806371f52bf314610b4857806379ba509714610b5d576104a4565b80632fe8a6ad1161032457806354fd4d50116102ac57806359cd4eec1161027b57806359cd4eec146109d35780635e35359e14610a1257806361cd756e14610a5557806367b6d57c14610a6a57806369067d9514610a9d576104a4565b806354fd4d501461094457806355776b77146109595780635768adcf1461098b578063579cd3ca146109be576104a4565b80633beb26c4116102f35780633beb26c4146108765780633e8ff43f146108a057806346749468146108cc57806349d10b64146108fc5780634af80f0e14610911576104a4565b80632fe8a6ad146107f457806334d084b91461080957806338a5e0161461081e578063395900d414610833576104a4565b806316912f96116103a757806321e6b53d1161037657806321e6b53d1461073157806322f3e2d4146107645780632630c12f146107795780632bd3c1071461078e5780632bf0c985146107c1576104a4565b806316912f961461066357806319b64015146106785780631cfab290146106a25780631e1401f8146106d5576104a4565b80630c7d5cd8116103e35780630c7d5cd8146105745780630e53aae9146105a2578063119b90cd1461060957806312c2aca41461064e576104a4565b80625e319c146104a9578063024c7ec7146104ee5780630337e3fb1461051a5780630a55fb3d1461054b576104a4565b366104a457600080516020614c8c83398151915260005260076020527fb2084a3e4595ccf007fb44245853374aaf0de960074375e8e0fb334712e94d0f54600160301b900460ff166104a2576040805162461bcd60e51b81526020600482015260136024820152724552525f494e56414c49445f5245534552564560681b604482015290519081900360640190fd5b005b600080fd5b3480156104b557600080fd5b506104dc600480360360208110156104cc57600080fd5b50356001600160a01b0316610fb5565b60408051918252519081900360200190f35b3480156104fa57600080fd5b506104a26004803603602081101561051157600080fd5b50351515610fde565b34801561052657600080fd5b5061052f611004565b604080516001600160a01b039092168252519081900360200190f35b34801561055757600080fd5b50610560611013565b604080519115158252519081900360200190f35b34801561058057600080fd5b5061058961101c565b6040805163ffffffff9092168252519081900360200190f35b3480156105ae57600080fd5b506105d5600480360360208110156105c557600080fd5b50356001600160a01b0316611028565b6040805195865263ffffffff9094166020860152911515848401521515606084015215156080830152519081900360a00190f35b34801561061557600080fd5b506104a26004803603606081101561062c57600080fd5b506001600160a01b0381358116916020810135821691604090910135166110c0565b34801561065a57600080fd5b50610560611669565b34801561066f57600080fd5b506104a26116af565b34801561068457600080fd5b5061052f6004803603602081101561069b57600080fd5b50356116c3565b3480156106ae57600080fd5b50610589600480360360208110156106c557600080fd5b50356001600160a01b03166116ed565b3480156106e157600080fd5b50610718600480360360608110156106f857600080fd5b506001600160a01b0381358116916020810135909116906040013561171f565b6040805192835260208301919091528051918290030190f35b34801561073d57600080fd5b506104a26004803603602081101561075457600080fd5b50356001600160a01b0316611739565b34801561077057600080fd5b5061056061174d565b34801561078557600080fd5b5061052f611779565b34801561079a57600080fd5b506104dc600480360360208110156107b157600080fd5b50356001600160a01b031661178f565b3480156107cd57600080fd5b506104dc600480360360208110156107e457600080fd5b50356001600160a01b03166117ab565b34801561080057600080fd5b50610560611876565b34801561081557600080fd5b50610589611886565b34801561082a57600080fd5b506104a2611897565b34801561083f57600080fd5b506104a26004803603606081101561085657600080fd5b506001600160a01b038135811691602081013590911690604001356118a9565b34801561088257600080fd5b506104a26004803603602081101561089957600080fd5b503561192f565b3480156108ac57600080fd5b506108b5611934565b6040805161ffff9092168252519081900360200190f35b3480156108d857600080fd5b506104a2600480360360408110156108ef57600080fd5b5080359060200135611939565b34801561090857600080fd5b506104a26119bb565b34801561091d57600080fd5b506104a26004803603602081101561093457600080fd5b50356001600160a01b0316611bc3565b34801561095057600080fd5b506108b5611bf8565b6104dc6004803603606081101561096f57600080fd5b506001600160a01b038135169060208101359060400135611bfd565b34801561099757600080fd5b5061052f600480360360208110156109ae57600080fd5b50356001600160a01b03166120ef565b3480156109ca57600080fd5b5061058961210d565b3480156109df57600080fd5b506104a2600480360360408110156109f657600080fd5b5080356001600160a01b0316906020013563ffffffff16612120565b348015610a1e57600080fd5b506104a260048036036060811015610a3557600080fd5b506001600160a01b038135811691602081013590911690604001356121dc565b348015610a6157600080fd5b5061052f61230d565b348015610a7657600080fd5b506104a260048036036020811015610a8d57600080fd5b50356001600160a01b031661231c565b348015610aa957600080fd5b5061071860048036036040811015610ac057600080fd5b506001600160a01b0381351690602001356123c8565b348015610ae257600080fd5b506104a260048036036020811015610af957600080fd5b50356001600160a01b0316612506565b348015610b1557600080fd5b506104a260048036036040811015610b2c57600080fd5b5080356001600160a01b0316906020013563ffffffff1661262d565b348015610b5457600080fd5b506108b561269f565b348015610b6957600080fd5b506104a26126a9565b348015610b7e57600080fd5b5061052f612760565b348015610b9357600080fd5b5061052f61276f565b348015610ba857600080fd5b5061058961277e565b348015610bbd57600080fd5b506104dc60048036036020811015610bd457600080fd5b50356001600160a01b0316612792565b348015610bf057600080fd5b506108b56127a4565b348015610c0557600080fd5b506107186127aa565b348015610c1a57600080fd5b5061071860048036036060811015610c3157600080fd5b506001600160a01b038135811691602081013590911690604001356127b3565b348015610c5d57600080fd5b506104a26128e9565b348015610c7257600080fd5b50610560612915565b348015610c8757600080fd5b506104a260048036036040811015610c9e57600080fd5b506001600160a01b03813516906020013561291a565b348015610cc057600080fd5b5061052f61296e565b348015610cd557600080fd5b506104a261297d565b348015610cea57600080fd5b5061052f60048036036020811015610d0157600080fd5b50356129e1565b348015610d1457600080fd5b506104dc612a08565b348015610d2957600080fd5b50610560612a0e565b348015610d3e57600080fd5b5061052f612a13565b348015610d5357600080fd5b5061052f612a22565b348015610d6857600080fd5b506104a2612a31565b348015610d7d57600080fd5b506105d560048036036020811015610d9457600080fd5b50356001600160a01b0316612b19565b348015610db057600080fd5b506104dc60048036036020811015610dc757600080fd5b50356001600160a01b0316612b5c565b348015610de357600080fd5b50610718612b6d565b348015610df857600080fd5b5061052f612b93565b348015610e0d57600080fd5b506104dc60048036036020811015610e2457600080fd5b50356001600160a01b0316612ba2565b348015610e4057600080fd5b506104a260048036036020811015610e5757600080fd5b503563ffffffff16612bcb565b348015610e7057600080fd5b506104dc60048036036060811015610e8757600080fd5b506001600160a01b038135169060208101359060400135612c9d565b6104dc600480360360a0811015610eb957600080fd5b506001600160a01b0381358116916020810135821691604082013591606081013582169160809091013516612f92565b348015610ef557600080fd5b506107186131a2565b348015610f0a57600080fd5b506104a260048036036020811015610f2157600080fd5b503563ffffffff1661321d565b348015610f3a57600080fd5b506104a260048036036020811015610f5157600080fd5b50356001600160a01b0316613305565b348015610f6d57600080fd5b506104a260048036036020811015610f8457600080fd5b5035613383565b348015610f9757600080fd5b5061052f613388565b348015610fac57600080fd5b506104dc613397565b600081610fc18161339d565b50506001600160a01b03166000908152600b602052604090205490565b610fe661340a565b60038054911515600160a01b0260ff60a01b19909216919091179055565b6009546001600160a01b031681565b60125460ff1681565b60085463ffffffff1681565b6000806000806000611038614c43565b505050506001600160a01b03929092166000908152600760209081526040808320815160a081018352815480825260019092015463ffffffff811694820185905260ff64010000000082048116151594830194909452650100000000008104841615156060830152600160301b90049092161515608090920182905295919450919250829190565b6110c861345d565b6110d061340a565b826110da8161339d565b826110e4816134a4565b826110ee816134a4565b846110f8816134f8565b84611102816134f8565b6004805460408051638da5cb5b60e01b8152905130936001600160a01b0390931692638da5cb5b92808201926020929091829003018186803b15801561114757600080fd5b505afa15801561115b573d6000803e3d6000fd5b505050506040513d602081101561117157600080fd5b50516001600160a01b0316146111c5576040805162461bcd60e51b815260206004820152601460248201527311549497d05390d213d497d393d517d3d5d3915160621b604482015290519081900360640190fd5b60006111f07f436861696e6c696e6b4f7261636c6557686974656c6973740000000000000000613549565b9050806001600160a01b0316633af32abf896040518263ffffffff1660e01b815260040180826001600160a01b0316815260200191505060206040518083038186803b15801561123f57600080fd5b505afa158015611253573d6000803e3d6000fd5b505050506040513d602081101561126957600080fd5b505180156112ec5750806001600160a01b0316633af32abf886040518263ffffffff1660e01b815260040180826001600160a01b0316815260200191505060206040518083038186803b1580156112bf57600080fd5b505afa1580156112d3573d6000803e3d6000fd5b505050506040513d60208110156112e957600080fd5b50515b611332576040805162461bcd60e51b81526020600482015260126024820152714552525f494e56414c49445f4f5241434c4560701b604482015290519081900360640190fd5b61133a6135c7565b600980546001600160a01b0319166001600160a01b038b161790556006805460009061136257fe5b6000918252602090912001546001600160a01b038a8116911614156113bf57600660018154811061138f57fe5b600091825260209091200154600a80546001600160a01b0319166001600160a01b039092169190911790556113f9565b60066000815481106113cd57fe5b600091825260209091200154600a80546001600160a01b0319166001600160a01b039092169190911790555b60006114176f436f6e766572746572466163746f727960801b613549565b6001600160a01b031663c977aed261142d611934565b6040518263ffffffff1660e01b8152600401808261ffff16815260200191505060206040518083038186803b15801561146557600080fd5b505afa158015611479573d6000803e3d6000fd5b505050506040513d602081101561148f57600080fd5b5051600a5460408051630d93a22760e11b81526001600160a01b038e8116600483015292831660248201528c831660448201528b83166064820152905192935090831691631b27444e916084808201926020929091908290030181600087803b1580156114fb57600080fd5b505af115801561150f573d6000803e3d6000fd5b505050506040513d602081101561152557600080fd5b5051600880546001600160a01b03909216600160601b026bffffffffffffffffffffffff90921691909117905561155a613829565b8051600e5560200151600f5561156e6138e1565b601055600954600090611589906001600160a01b0316610fb5565b6009549091506000906115a4906001600160a01b0316612ba2565b600a549091506000906115bf906001600160a01b0316612ba2565b9050818314156115ea5760008311806115d85750600081115b156115e5576115e56138fb565b611613565b6000831180156115fa5750600082115b80156116065750600081115b15611613576116136138fb565b6004546001906001600160a01b031661162a611934565b61ffff167f6b08c2e2c9969e55a647a764db9b554d64dc42f1a704da11a6d5b129ad163f2c60405160405180910390a450505050505050505050505050565b600080516020614c8c83398151915260005260076020527fb2084a3e4595ccf007fb44245853374aaf0de960074375e8e0fb334712e94d0f54600160301b900460ff1690565b6116b761340a565b6012805460ff19169055565b6000600682815481106116d257fe5b6000918252602090912001546001600160a01b031692915050565b6000816116f98161339d565b50506001600160a01b031660009081526007602052604090206001015463ffffffff1690565b60008061172d8585856127b3565b91509150935093915050565b61174161340a565b61174a8161231c565b50565b6000611757613970565b80156117745750600854600160601b90046001600160a01b031615155b905090565b600854600160601b90046001600160a01b031681565b60008161179b8161339d565b6117a4836139ef565b9392505050565b600080826001600160a01b03166318160ddd6040518163ffffffff1660e01b815260040160206040518083038186803b1580156117e757600080fd5b505afa1580156117fb573d6000803e3d6000fd5b505050506040513d602081101561181157600080fd5b50516001600160a01b038085166000908152600d602052604081205492935091169061183c82612ba2565b6001600160a01b0383166000908152600b602052604090205490915061186c816118668487613a29565b90613a87565b9695505050505050565b600354600160a01b900460ff1681565b601254610100900463ffffffff1681565b61189f61340a565b6118a761297d565b565b6118b161340a565b6004805460408051632f1a9acf60e11b81526001600160a01b038781169482019490945285841660248201526044810185905290519290911691635e35359e9160648082019260009290919082900301818387803b15801561191257600080fd5b505af1158015611926573d6000803e3d6000fd5b50505050505050565b601355565b600290565b61194161340a565b8160116000600660008154811061195457fe5b60009182526020808320909101546001600160a01b031683528201929092526040018120919091556006805483926011929091600190811061199257fe5b60009182526020808320909101546001600160a01b031683528201929092526040019020555050565b6000546001600160a01b03163314806119de5750600354600160a01b900460ff16155b611a23576040805162461bcd60e51b815260206004820152601160248201527011549497d050d0d154d4d7d11153925151607a1b604482015290519081900360640190fd5b6000611a416f436f6e7472616374526567697374727960801b613549565b6002549091506001600160a01b03808316911614801590611a6a57506001600160a01b03811615155b611ab2576040805162461bcd60e51b81526020600482015260146024820152734552525f494e56414c49445f524547495354525960601b604482015290519081900360640190fd5b60006001600160a01b0316816001600160a01b031663bb34534c6f436f6e7472616374526567697374727960801b6040518263ffffffff1660e01b81526004018082815260200191505060206040518083038186803b158015611b1457600080fd5b505afa158015611b28573d6000803e3d6000fd5b505050506040513d6020811015611b3e57600080fd5b50516001600160a01b03161415611b93576040805162461bcd60e51b81526020600482015260146024820152734552525f494e56414c49445f524547495354525960601b604482015290519081900360640190fd5b60028054600380546001600160a01b038084166001600160a01b0319928316179092559091169216919091179055565b611bcb61340a565b80611bd5816134a4565b50600580546001600160a01b0319166001600160a01b0392909216919091179055565b602781565b6000611c07613ae6565b6003805460ff60a81b1916600160a81b179055611c22613b36565b83611c2c8161339d565b83611c3681613b7e565b83611c4081613b7e565b6001600160a01b038716600080516020614c8c83398151915214611c65573415611c69565b8534145b611cb4576040805162461bcd60e51b815260206004820152601760248201527608aa4a4be8aa890be829a9eaa9ca8be9a92a69a82a8869604b1b604482015290519081900360640190fd5b611cbc613bc4565b6001600160a01b038716600080516020614c8c8339815191521415611d5857600080516020614c8c83398151915260005260076020527fb2084a3e4595ccf007fb44245853374aaf0de960074375e8e0fb334712e94d0e54611d1e9034613c04565b600080516020614c8c83398151915260005260076020527fb2084a3e4595ccf007fb44245853374aaf0de960074375e8e0fb334712e94d0e555b6001600160a01b0387166000908152600b602052604090205460125460ff1615611e13576001600160a01b0388166000908152601160205260409020541580611dc257506001600160a01b038816600090815260116020526040902054611dbf8289613c51565b11155b611e13576040805162461bcd60e51b815260206004820152601e60248201527f4552525f4d41585f5354414b45445f42414c414e43455f524541434845440000604482015290519081900360640190fd5b6001600160a01b038089166000908152600c602090815260408083205481516318160ddd60e01b8152915194169384926318160ddd9260048082019391829003018186803b158015611e6457600080fd5b505afa158015611e78573d6000803e3d6000fd5b505050506040513d6020811015611e8e57600080fd5b505190506001600160a01b038a16600080516020614c8c83398151915214611ebc57611ebc8a33308c613c9a565b6001600160a01b038a16600090815260076020526040902054611edf908a613c51565b6001600160a01b038b16600090815260076020526040902055611f02838a613c51565b6001600160a01b038b166000908152600b6020526040812091909155831580611f29575081155b15611f35575088611f46565b611f43846118668c85613a29565b90505b88811015611f90576040805162461bcd60e51b81526020600482015260126024820152714552525f52455455524e5f544f4f5f4c4f5760701b604482015290519081900360640190fd5b6004805460408051636361ddf360e11b81526001600160a01b0387811694820194909452336024820152604481018590529051929091169163c6c3bbe69160648082019260009290919082900301818387803b158015611fef57600080fd5b505af1158015612003573d6000803e3d6000fd5b5050505061200f6138fb565b6001600160a01b038b16337f4a1a2a6176e9646d9e3157f7c2ab3c499f18337c0b0828cfb28e0a61de4a11f78c6120468882613c51565b6120508787613c51565b60408051938452602084019290925282820152519081900360600190a36120818361207b8484613c51565b8d613e05565b6120d4600660008154811061209257fe5b600091825260209091200154600680546001600160a01b039092169160019081106120b957fe5b60009182526020822001546001600160a01b03169080613e65565b6003805460ff60a81b191690559a9950505050505050505050565b6001600160a01b039081166000908152600c60205260409020541690565b600854600160401b900463ffffffff1681565b8161212a8161339d565b6001600160a01b038381166000818152600760205260409020600101805463ffffffff191663ffffffff861617905560095490911614156121a057600a546001600160a01b03166000908152600760205260409020600101805463ffffffff1916620f424084900363ffffffff161790556121d7565b6009546001600160a01b03166000908152600760205260409020600101805463ffffffff1916620f424084900363ffffffff161790555b505050565b6121e4613ae6565b6003805460ff60a81b1916600160a81b1790556121ff61340a565b6000612224762130b731b7b921b7b73b32b93a32b92ab833b930b232b960491b613549565b6001600160a01b038516600090815260076020526040902060010154909150600160301b900460ff16158061225e575061225c61174d565b155b8061227657506000546001600160a01b038281169116145b6122bb576040805162461bcd60e51b815260206004820152601160248201527011549497d050d0d154d4d7d11153925151607a1b604482015290519081900360640190fd5b6122c6848484613f38565b6001600160a01b038416600090815260076020526040902060010154600160301b900460ff16156122fa576122fa84613f69565b50506003805460ff60a81b191690555050565b6003546001600160a01b031681565b61232461340a565b762130b731b7b921b7b73b32b93a32b92ab833b930b232b960491b61234881614041565b600460009054906101000a90046001600160a01b03166001600160a01b031663f2fde38b836040518263ffffffff1660e01b815260040180826001600160a01b03168152602001915050600060405180830381600087803b1580156123ac57600080fd5b505af11580156123c0573d6000803e3d6000fd5b505050505050565b6000806000846001600160a01b03166318160ddd6040518163ffffffff1660e01b815260040160206040518083038186803b15801561240657600080fd5b505afa15801561241a573d6000803e3d6000fd5b505050506040513d602081101561243057600080fd5b50516001600160a01b038087166000908152600d60209081526040808320549093168252600b90522054909150818510156124f7576009546001600160a01b03166000908152600b602052604081205461248b906014613a29565b6009549091506000906124a6906001600160a01b03166139ef565b90506000808284106124b95782846124bc565b83835b909250905060006124d1876118668c89613a29565b905060006124e3836118668487613a29565b99505088900396506124ff95505050505050565b925060009150505b9250929050565b61250e613ae6565b6003805460ff60a81b1916600160a81b17905561252961340a565b600080516020614c8c8339815191526125418161339d565b6000612566762130b731b7b921b7b73b32b93a32b92ab833b930b232b960491b613549565b905061257061174d565b158061258957506000546001600160a01b038281169116145b6125ce576040805162461bcd60e51b815260206004820152601160248201527011549497d050d0d154d4d7d11153925151607a1b604482015290519081900360640190fd5b6040516001600160a01b038416904780156108fc02916000818181858888f19350505050158015612603573d6000803e3d6000fd5b5061261b600080516020614c8c833981519152613f69565b50506003805460ff60a81b1916905550565b61263561340a565b600261263f6127a4565b61ffff1610612691576040805162461bcd60e51b815260206004820152601960248201527811549497d253959053125117d49154d154959157d0d3d55395603a1b604482015290519081900360640190fd5b61269b82826140a3565b5050565b60006117746127a4565b6001546001600160a01b031633146126fc576040805162461bcd60e51b815260206004820152601160248201527011549497d050d0d154d4d7d11153925151607a1b604482015290519081900360640190fd5b600154600080546040516001600160a01b0393841693909116917f343765429aea5a34b3ff6a3785a98a5abb2597aca87bfbb58632c173d585373a91a360018054600080546001600160a01b03199081166001600160a01b03841617909155169055565b6002546001600160a01b031681565b6000546001600160a01b031681565b600854640100000000900463ffffffff1681565b60116020526000908152604090205481565b60065490565b600e54600f5482565b6000806127be613b36565b846127c88161339d565b846127d28161339d565b856001600160a01b0316876001600160a01b03161415612832576040805162461bcd60e51b815260206004820152601660248201527511549497d4d0535157d4d3d55490d157d5105491d15560521b604482015290519081900360640190fd5b60008061283d6138e1565b60105414156128765750506001600160a01b03871660009081526007602052604090206001015463ffffffff16620f42408190036128c5565b61287e614c71565b612886613829565b9050600080612894836142c5565b60095491935091506001600160a01b038d8116911614156128ba578194508093506128c1565b8094508193505b5050505b6000806128d58b8b86868d6143da565b919d919c50909a5050505050505050505050565b6128f161340a565b600354600280546001600160a01b0319166001600160a01b03909216919091179055565b600181565b61292261340a565b762130b731b7b921b7b73b32b93a32b92ab833b930b232b960491b61294681614041565b826129508161339d565b50506001600160a01b039091166000908152600b6020526040902055565b6005546001600160a01b031681565b60016129876127a4565b61ffff16116129d9576040805162461bcd60e51b815260206004820152601960248201527811549497d253959053125117d49154d154959157d0d3d55395603a1b604482015290519081900360640190fd5b6118a761450b565b600681815481106129ee57fe5b6000918252602090912001546001600160a01b0316905081565b60135481565b600190565b6004546001600160a01b031681565b6001546001600160a01b031681565b612a3961340a565b6000612a5e762130b731b7b921b7b73b32b93a32b92ab833b930b232b960491b613549565b6004549091506000906001600160a01b0316612a78611934565b61ffff167f6b08c2e2c9969e55a647a764db9b554d64dc42f1a704da11a6d5b129ad163f2c60405160405180910390a4612ab181613305565b6040805163487ac64b60e11b81526027600482015290516001600160a01b038316916390f58c9691602480830192600092919082900301818387803b158015612af957600080fd5b505af1158015612b0d573d6000803e3d6000fd5b5050505061174a6126a9565b6007602052600090815260409020805460019091015463ffffffff81169060ff6401000000008204811691650100000000008104821691600160301b9091041685565b6000612b6782612ba2565b92915050565b600080612b78614c71565b612b80613829565b80516020909101519093509150505b9091565b600a546001600160a01b031681565b600081612bae8161339d565b50506001600160a01b031660009081526007602052604090205490565b612bd361340a565b620f424063ffffffff82161115612c31576040805162461bcd60e51b815260206004820181905260248201527f4552525f494e56414c49445f4f5241434c455f444556494154494f4e5f464545604482015290519081900360640190fd5b6012546040805163ffffffff61010090930483168152918316602083015280517f4f6fed4838e1f48d74a10449b9152126aae795e67e8eba0fedacdeefdf19a8de9281900390910190a16012805463ffffffff9092166101000264ffffffff0019909216919091179055565b6000612ca7613ae6565b6003805460ff60a81b1916600160a81b179055612cc2613b36565b83612ccc816145d2565b83612cd681613b7e565b83612ce081613b7e565b612ce8613bc4565b6000876001600160a01b03166318160ddd6040518163ffffffff1660e01b815260040160206040518083038186803b158015612d2357600080fd5b505afa158015612d37573d6000803e3d6000fd5b505050506040513d6020811015612d4d57600080fd5b505190506000612d5d89896123c8565b50905086811015612daa576040805162461bcd60e51b81526020600482015260126024820152714552525f52455455524e5f544f4f5f4c4f5760701b604482015290519081900360640190fd5b6001600160a01b03808a166000818152600d602052604080822054600480548351633dae446f60e21b815291820195909552336024820152604481018e9052915190851694939093169263f6b911bc9260648084019391929182900301818387803b158015612e1857600080fd5b505af1158015612e2c573d6000803e3d6000fd5b5050506001600160a01b038216600090815260076020526040902054612e53915083613c04565b6001600160a01b038216600090815260076020908152604080832093909355600b905290812054612e849084613c04565b6001600160a01b0383166000818152600b60205260409020829055909150600080516020614c8c8339815191521415612eea57604051339084156108fc029085906000818181858888f19350505050158015612ee4573d6000803e3d6000fd5b50612ef5565b612ef5823385614637565b612efd6138fb565b6000612f09858c613c04565b604080518681526020810185905280820183905290519192506001600160a01b0385169133917fbc7d19d505c7ec4db83f3b51f19fb98c4c8a99922e7839d1ee608dfbee29501b919081900360600190a3612f658c8285613e05565b612f76600660008154811061209257fe5b50506003805460ff60a81b191690555098975050505050505050565b6000612f9c613ae6565b6003805460ff60a81b1916600160a81b1790556c42616e636f724e6574776f726b60981b612fc981614041565b856001600160a01b0316876001600160a01b03161415613029576040805162461bcd60e51b815260206004820152601660248201527511549497d4d0535157d4d3d55490d157d5105491d15560521b604482015290519081900360640190fd5b6005546001600160a01b03161580613136575060055460408051633af32abf60e01b81526001600160a01b03878116600483015291519190921691633af32abf916024808301926020929190829003018186803b15801561308957600080fd5b505afa15801561309d573d6000803e3d6000fd5b505050506040513d60208110156130b357600080fd5b50518015613136575060055460408051633af32abf60e01b81526001600160a01b03868116600483015291519190921691633af32abf916024808301926020929190829003018186803b15801561310957600080fd5b505afa15801561311d573d6000803e3d6000fd5b505050506040513d602081101561313357600080fd5b50515b61317d576040805162461bcd60e51b815260206004820152601360248201527211549497d393d517d5d2125511531254d51151606a1b604482015290519081900360640190fd5b61318a8787878787614790565b6003805460ff60a81b19169055979650505050505050565b6000806131ad614c71565b6131b5613829565b90506000806131c3836142c5565b9150915060066000815481106131d557fe5b6000918252602090912001546009546001600160a01b039081169116141561320b5763ffffffff9182169450169150612b8f9050565b63ffffffff9081169450169150509091565b61322561340a565b60085463ffffffff6401000000009091048116908216111561328e576040805162461bcd60e51b815260206004820152601a60248201527f4552525f494e56414c49445f434f4e56455253494f4e5f464545000000000000604482015290519081900360640190fd5b6008546040805163ffffffff600160401b90930483168152918316602083015280517f81cd2ffb37dd237c0e4e2a3de5265fcf9deb43d3e7801e80db9f1ccfba7ee6009281900390910190a16008805463ffffffff909216600160401b026bffffffff000000000000000019909216919091179055565b61330d61340a565b6000546001600160a01b0382811691161415613361576040805162461bcd60e51b815260206004820152600e60248201526d22a9292fa9a0a6a2afa7aba722a960911b604482015290519081900360640190fd5b600180546001600160a01b0319166001600160a01b0392909216919091179055565b601055565b6004546001600160a01b031690565b60105481565b6001600160a01b038116600090815260076020526040902060010154600160301b900460ff1661174a576040805162461bcd60e51b81526020600482015260136024820152724552525f494e56414c49445f5245534552564560681b604482015290519081900360640190fd5b6000546001600160a01b031633146118a7576040805162461bcd60e51b815260206004820152601160248201527011549497d050d0d154d4d7d11153925151607a1b604482015290519081900360640190fd5b61346561174d565b156118a7576040805162461bcd60e51b815260206004820152600a6024820152694552525f41435449564560b01b604482015290519081900360640190fd5b6001600160a01b03811630141561174a576040805162461bcd60e51b815260206004820152601360248201527222a9292fa0a2222922a9a9afa4a9afa9a2a62360691b604482015290519081900360640190fd5b6001600160a01b03811661174a576040805162461bcd60e51b81526020600482015260136024820152724552525f494e56414c49445f4144445245535360681b604482015290519081900360640190fd5b60025460408051632ecd14d360e21b81526004810184905290516000926001600160a01b03169163bb34534c916024808301926020929190829003018186803b15801561359557600080fd5b505afa1580156135a9573d6000803e3d6000fd5b505050506040513d60208110156135bf57600080fd5b505192915050565b600480546040805163369f189f60e11b815290516001600160a01b03909216926060928492636d3e313e9281810192600092909190829003018186803b15801561361057600080fd5b505afa158015613624573d6000803e3d6000fd5b505050506040513d6000823e601f3d908101601f19168201604052602081101561364d57600080fd5b810190808051604051939291908464010000000082111561366d57600080fd5b90830190602082018581111561368257600080fd5b825186602082028301116401000000008211171561369f57600080fd5b82525081516020918201928201910280838360005b838110156136cc5781810151838201526020016136b4565b50505050919091016040525050825160065493945015929150600090505b81811015613822576000831561376857856001600160a01b0316639cbf9e366040518163ffffffff1660e01b8152600401602060405180830381600087803b15801561373557600080fd5b505af1158015613749573d6000803e3d6000fd5b505050506040513d602081101561375f57600080fd5b5051905061377f565b84828151811061377457fe5b602002602001015190505b80600c60006006858154811061379157fe5b6000918252602080832091909101546001600160a01b039081168452908301939093526040909101902080546001600160a01b0319169290911691909117905560068054839081106137df57fe5b60009182526020808320909101546001600160a01b039384168352600d909152604090912080546001600160a01b031916929091169190911790556001016136ea565b5050505050565b613831614c71565b600854600954600a5460408051632ba0600160e21b81526001600160a01b039384166004820152918316602483015280516000948594600160601b909104169263ae818004926044808301939192829003018186803b15801561389357600080fd5b505afa1580156138a7573d6000803e3d6000fd5b505050506040513d60408110156138bd57600080fd5b50805160209182015160408051808201909152918252918101919091529250505090565b6000601354600014156138f45742611774565b5060135490565b60408051808201909152600e548152600f54602082015261391b906142c5565b6009546001600160a01b03908116600090815260076020526040808220600a54909316825290206001908101805463ffffffff94851663ffffffff199182161790915591018054939092169216919091179055565b6004805460408051638da5cb5b60e01b8152905160009330936001600160a01b031692638da5cb5b9281830192602092829003018186803b1580156139b457600080fd5b505afa1580156139c8573d6000803e3d6000fd5b505050506040513d60208110156139de57600080fd5b50516001600160a01b031614905090565b6001600160a01b038116600090815260076020908152604080832054600b909252822054612b679190613a23906013613a29565b90613c51565b600082613a3857506000612b67565b82820282848281613a4557fe5b04146117a4576040805162461bcd60e51b815260206004820152600c60248201526b4552525f4f564552464c4f5760a01b604482015290519081900360640190fd5b6000808211613ad2576040805162461bcd60e51b81526020600482015260126024820152714552525f4449564944455f42595f5a45524f60701b604482015290519081900360640190fd5b6000828481613add57fe5b04949350505050565b600354600160a81b900460ff16156118a7576040805162461bcd60e51b815260206004820152600e60248201526d4552525f5245454e5452414e435960901b604482015290519081900360640190fd5b613b3e61174d565b6118a7576040805162461bcd60e51b815260206004820152600c60248201526b4552525f494e41435449564560a01b604482015290519081900360640190fd5b6000811161174a576040805162461bcd60e51b815260206004820152600e60248201526d4552525f5a45524f5f56414c554560901b604482015290519081900360640190fd5b60065460005b8181101561269b57613bfc60068281548110613be257fe5b6000918252602090912001546001600160a01b0316613f69565b600101613bca565b600081831015613c4b576040805162461bcd60e51b815260206004820152600d60248201526c4552525f554e444552464c4f5760981b604482015290519081900360640190fd5b50900390565b6000828201838110156117a4576040805162461bcd60e51b815260206004820152600c60248201526b4552525f4f564552464c4f5760a01b604482015290519081900360640190fd5b604080516001600160a01b0385811660248301528481166044830152606480830185905283518084039091018152608490920183526020820180516001600160e01b03166323b872dd60e01b17815292518251600094606094938a169392918291908083835b60208310613d1f5780518252601f199092019160209182019101613d00565b6001836020036101000a0380198251168184511680821785525050505050509050019150506000604051808303816000865af19150503d8060008114613d81576040519150601f19603f3d011682016040523d82523d6000602084013e613d86565b606091505b5091509150818015613db4575080511580613db45750808060200190516020811015613db157600080fd5b50515b6123c0576040805162461bcd60e51b815260206004820152601860248201527f4552525f5452414e534645525f46524f4d5f4641494c45440000000000000000604482015290519081900360640190fd5b6001600160a01b038082166000818152600b6020908152604091829020548251908152908101869052815192938716927f77f29993cf2c084e726f7e802da0719d6a0ade3e204badc7a3ffd57ecb768c24929181900390910190a3505050565b6000613e70856139ef565b90506000613e7d856139ef565b905063ffffffff8416613eaf576001600160a01b03861660009081526007602052604090206001015463ffffffff1693505b63ffffffff8316613ec35783620f42400392505b6001600160a01b038086169087167f77f29993cf2c084e726f7e802da0719d6a0ade3e204badc7a3ffd57ecb768c24613f058463ffffffff808a1690613a2916565b613f188663ffffffff808a1690613a2916565b6040805192835260208301919091528051918290030190a3505050505050565b613f4061340a565b82613f4a816134f8565b82613f54816134f8565b83613f5e816134a4565b6123c0868686614637565b80613f738161339d565b6001600160a01b038216600080516020614c8c8339815191521415613fb2576001600160a01b038216600090815260076020526040902047905561269b565b604080516370a0823160e01b815230600482015290516001600160a01b038416916370a08231916024808301926020929190829003018186803b158015613ff857600080fd5b505afa15801561400c573d6000803e3d6000fd5b505050506040513d602081101561402257600080fd5b50516001600160a01b0383166000908152600760205260409020555050565b61404a81613549565b6001600160a01b0316336001600160a01b03161461174a576040805162461bcd60e51b815260206004820152601160248201527011549497d050d0d154d4d7d11153925151607a1b604482015290519081900360640190fd5b6140ab61340a565b6140b361345d565b816140bd816134f8565b826140c7816134a4565b826140d181614b3f565b6004546001600160a01b0386811691161480159061411257506001600160a01b038516600090815260076020526040902060010154600160301b900460ff16155b614159576040805162461bcd60e51b81526020600482015260136024820152724552525f494e56414c49445f5245534552564560681b604482015290519081900360640190fd5b60085463ffffffff908116620f424003811690851611156141c1576040805162461bcd60e51b815260206004820152601a60248201527f4552525f494e56414c49445f524553455256455f574549474854000000000000604482015290519081900360640190fd5b61ffff6141cc6127a4565b61ffff161061421e576040805162461bcd60e51b815260206004820152601960248201527811549497d253959053125117d49154d154959157d0d3d55395603a1b604482015290519081900360640190fd5b5050506001600160a01b0390911660008181526007602052604081208181556001908101805466ff0000000000001963ffffffff80881663ffffffff199384161791909116600160301b179092556006805493840181559093527ff652222313e28459528d920b65115c16c04f3efc82aaedc97be59f3f377c0d3f90910180546001600160a01b031916909317909255600880548084169094019092169216919091179055565b6009546001600160a01b03166000818152600b6020526040812054909182919082906142f0906139ef565b600a5490915060009061430b906001600160a01b03166139ef565b90506143266c42616e636f72466f726d756c6160981b613549565b6001600160a01b031663a11aa1b461433f856014613a29565b885160208a0151604080516001600160e01b031960e087901b1681526004810194909452602484018890526044840187905260648401929092526084830152805160a480840193829003018186803b15801561439a57600080fd5b505afa1580156143ae573d6000803e3d6000fd5b505050506040513d60408110156143c457600080fd5b5080516020909101519095509350505050915091565b6000806000806143e9896139ef565b905060006143f6896139ef565b905060006144136c42616e636f72466f726d756c6160981b613549565b6001600160a01b03166394491fab848b858c8c6040518663ffffffff1660e01b8152600401808681526020018563ffffffff1681526020018481526020018363ffffffff1681526020018281526020019550505050505060206040518083038186803b15801561448257600080fd5b505afa158015614496573d6000803e3d6000fd5b505050506040513d60208110156144ac57600080fd5b5051905060006144bb82614baf565b6012549091506000906144ed908390613a2390620f424090611866908890610100900463ffffffff90811690613a2916565b90506144f98382613c04565b9d919c509a5098505050505050505050565b61451361340a565b600061451d6127a4565b61ffff161161456f576040805162461bcd60e51b815260206004820152601960248201527811549497d253959053125117d49154d154959157d0d3d55395603a1b604482015290519081900360640190fd5b60048054604080516379ba509760e01b815290516001600160a01b03909216926379ba509792828201926000929082900301818387803b1580156145b257600080fd5b505af11580156145c6573d6000803e3d6000fd5b505050506118a7613bc4565b6001600160a01b038181166000908152600d60205260409020541661174a576040805162461bcd60e51b815260206004820152601660248201527522a9292fa4a72b20a624a22fa827a7a62faa27a5a2a760511b604482015290519081900360640190fd5b604080516001600160a01b038481166024830152604480830185905283518084039091018152606490920183526020820180516001600160e01b031663a9059cbb60e01b178152925182516000946060949389169392918291908083835b602083106146b45780518252601f199092019160209182019101614695565b6001836020036101000a0380198251168184511680821785525050505050509050019150506000604051808303816000865af19150503d8060008114614716576040519150601f19603f3d011682016040523d82523d6000602084013e61471b565b606091505b5091509150818015614749575080511580614749575080806020019051602081101561474657600080fd5b50515b613822576040805162461bcd60e51b815260206004820152601360248201527211549497d514905394d1915497d19052531151606a1b604482015290519081900360640190fd5b600061479a613b36565b856147a48161339d565b856147ae8161339d565b6147b66138e1565b60105410156147e6576147c76138e1565b6010556147d2613829565b8051600e5560200151600f556147e66138fb565b6001600160a01b03881660009081526007602052604081206001015463ffffffff1690620f42408290039080806148208d8d87878f6143da565b9250925092508260001415614875576040805162461bcd60e51b815260206004820152601660248201527511549497d6915493d7d5105491d15517d05353d5539560521b604482015290519081900360640190fd5b6001600160a01b038d16600080516020614c8c83398151915214156148e7578a34146148e2576040805162461bcd60e51b815260206004820152601760248201527608aa4a4be8aa890be829a9eaa9ca8be9a92a69a82a8869604b1b604482015290519081900360640190fd5b6149c5565b3415801561497f57508a61497c6148fd8f612ba2565b8f6001600160a01b03166370a08231306040518263ffffffff1660e01b815260040180826001600160a01b0316815260200191505060206040518083038186803b15801561494a57600080fd5b505afa15801561495e573d6000803e3d6000fd5b505050506040513d602081101561497457600080fd5b505190613c04565b10155b6149c5576040805162461bcd60e51b815260206004820152601260248201527111549497d253959053125117d05353d5539560721b604482015290519081900360640190fd5b6149ce8d613f69565b6149e1836149db8e612ba2565b90613c04565b6001600160a01b038d16600090815260076020908152604080832093909355600b90522054614a109083613c51565b6001600160a01b038d166000818152600b6020526040902091909155600080516020614c8c8339815191521415614a7d576040516001600160a01b038a169084156108fc029085906000818181858888f19350505050158015614a77573d6000803e3d6000fd5b50614a88565b614a888c8a85614637565b614a968d8d8c8e8786614bda565b614aa28d8d8787613e65565b6001600160a01b03808d166000908152600c60209081526040918290205482516318160ddd60e01b81529251931692614b2d92849283926318160ddd926004808201939291829003018186803b158015614afb57600080fd5b505afa158015614b0f573d6000803e3d6000fd5b505050506040513d6020811015614b2557600080fd5b50518f613e05565b50919c9b505050505050505050505050565b60008163ffffffff16118015614b5e5750620f424063ffffffff821611155b61174a576040805162461bcd60e51b815260206004820152601a60248201527f4552525f494e56414c49445f524553455256455f574549474854000000000000604482015290519081900360640190fd5b600854600090612b6790620f424090611866908590600160401b900463ffffffff90811690613a2916565b600160ff1b8110614be757fe5b604080518481526020810184905280820183905290516001600160a01b038087169288821692918a16917f276856b36cbc45526a0ba64f44611557a2a8b68662c5388e9fe6d72e86e1c8cb9181900360600190a4505050505050565b6040805160a08101825260008082526020820181905291810182905260608101829052608081019190915290565b60405180604001604052806000815260200160008152509056fe000000000000000000000000eeeeeeeeeeeeeeeeeeeeeeeeeeeeeeeeeeeeeeeea264697066735822122018869570e7a407a21bc424dc9c3f79c1d3084a9f5d11b23a4e4da6b5bf7806cd64736f6c634300060c0033",
  "immutableReferences": {},
  "source": "// SPDX-License-Identifier: SEE LICENSE IN LICENSE\npragma solidity 0.6.12;\nimport \"../converter/types/liquidity-pool-v2/LiquidityPoolV2Converter.sol\";\n\ncontract TestLiquidityPoolV2Converter is LiquidityPoolV2Converter {\n    uint256 public currentTime;\n\n    constructor(IPoolTokensContainer _token, IContractRegistry _registry, uint32 _maxConversionFee)\n        public LiquidityPoolV2Converter(_token, _registry, _maxConversionFee) {\n    }\n\n    function setExternalRateUpdateTime(uint256 _externalRateUpdateTime) public {\n        externalRateUpdateTime = _externalRateUpdateTime;\n    }\n\n    function time() internal view override returns (uint256) {\n        return currentTime != 0 ? currentTime : now;\n    }\n\n    function setTime(uint256 _currentTime) public {\n        currentTime = _currentTime;\n    }\n\n    function setReserveWeight(IERC20Token _reserveToken, uint32 _weight)\n        public\n        validReserve(_reserveToken)\n    {\n        reserves[_reserveToken].weight = _weight;\n\n        if (_reserveToken == primaryReserveToken) {\n            reserves[secondaryReserveToken].weight = PPM_RESOLUTION - _weight;\n        }\n        else {\n            reserves[primaryReserveToken].weight = PPM_RESOLUTION - _weight;\n        }\n    }\n}\n",
  "sourcePath": "/home/lash/src/ext/cic/grassrootseconomics/bancor-contracts/solidity/contracts/helpers/TestLiquidityPoolV2Converter.sol",
  "compiler": {
    "name": "solc",
    "version": "0.6.12+commit.27d51765.Emscripten.clang"
  },
  "schemaVersion": "3.2.3",
  "updatedAt": "2020-11-10T14:20:35.978Z",
  "devdoc": {
    "kind": "dev",
    "methods": {
      "acceptAnchorOwnership()": {
        "details": "accepts ownership of the anchor after an ownership transfer also activates the converter can only be called by the contract owner note that prior to version 28, you should use 'acceptTokenOwnership' instead"
      },
      "acceptOwnership()": {
        "details": "used by a new owner to accept an ownership transfer"
      },
      "acceptTokenOwnership()": {
        "details": "deprecated, backward compatibility"
      },
      "activate(address,address,address)": {
        "details": "sets the pool's primary reserve token / price oracles and activates the pool each oracle must be able to provide the rate for each reserve token note that the oracle must be whitelisted prior to the call can only be called by the owner while the pool is inactive",
        "params": {
          "_primaryReserveOracle": "address of a chainlink price oracle for the primary reserve token",
          "_primaryReserveToken": "address of the pool's primary reserve token",
          "_secondaryReserveOracle": "address of a chainlink price oracle for the secondary reserve token"
        }
      },
      "addLiquidity(address,uint256,uint256)": {
        "details": "increases the pool's liquidity and mints new shares in the pool to the caller",
        "params": {
          "_amount": "amount of liquidity to add",
          "_minReturn": "minimum return-amount of pool tokens",
          "_reserveToken": "address of the reserve token to add liquidity to"
        },
        "returns": {
          "_0": "amount of pool tokens minted"
        }
      },
      "addReserve(address,uint32)": {
        "details": "defines a new reserve token for the converter can only be called by the owner while the converter is inactive and 2 reserves aren't defined yet",
        "params": {
          "_token": "address of the reserve token",
          "_weight": "reserve weight, represented in ppm, 1-1000000"
        }
      },
      "connectorTokenCount()": {
        "details": "deprecated, backward compatibility"
      },
      "connectorTokens(uint256)": {
        "details": "deprecated, backward compatibility"
      },
      "connectors(address)": {
        "details": "deprecated, backward compatibility"
      },
      "convert(address,address,uint256,address,address)": {
        "details": "converts a specific amount of source tokens to target tokens can only be called by the bancor network contract",
        "params": {
          "_amount": "amount of tokens to convert (in units of the source token)",
          "_beneficiary": "wallet to receive the conversion result",
          "_sourceToken": "source ERC20 token",
          "_targetToken": "target ERC20 token",
          "_trader": "address of the caller who executed the conversion"
        },
        "returns": {
          "_0": "amount of tokens received (in units of the target token)"
        }
      },
      "converterType()": {
        "details": "returns the converter type",
        "returns": {
          "_0": "see the converter types in the the main contract doc"
        }
      },
      "disableMaxStakedBalances()": {
        "details": "disables the max staked balance mechanism available as a temporary mechanism during the beta once disabled, it cannot be re-enabled can only be called by the owner"
      },
      "effectiveReserveWeights()": {
        "details": "returns the effective reserve tokens weights",
        "returns": {
          "_0": "reserve1 weight",
          "_1": "reserve2 weight"
        }
      },
      "effectiveTokensRate()": {
        "details": "returns the effective rate of 1 primary token in secondary tokens",
        "returns": {
          "_0": "rate of 1 primary token in secondary tokens (numerator)",
          "_1": "rate of 1 primary token in secondary tokens (denominator)"
        }
      },
      "getConnectorBalance(address)": {
        "details": "deprecated, backward compatibility"
      },
      "getReturn(address,address,uint256)": {
        "details": "deprecated, backward compatibility"
      },
      "hasETHReserve()": {
        "details": "checks whether or not the converter has an ETH reserve",
        "returns": {
          "_0": "true if the converter has an ETH reserve, false otherwise"
        }
      },
      "isActive()": {
        "details": "returns true if the converter is active, false otherwise",
        "returns": {
          "_0": "true if the converter is active, false otherwise"
        }
      },
      "isV28OrHigher()": {
        "details": "checks whether or not the converter version is 28 or higher",
        "returns": {
          "_0": "true, since the converter version is 28 or higher"
        }
      },
      "liquidationLimit(address)": {
        "details": "returns the maximum number of pool tokens that can currently be liquidated",
        "params": {
          "_poolToken": "address of the pool token"
        },
        "returns": {
          "_0": "liquidation limit"
        }
      },
      "poolToken(address)": {
        "details": "returns the pool token address by the reserve token address",
        "params": {
          "_reserveToken": "reserve token address"
        },
        "returns": {
          "_0": "pool token address"
        }
      },
      "removeLiquidity(address,uint256,uint256)": {
        "details": "decreases the pool's liquidity and burns the caller's shares in the pool",
        "params": {
          "_amount": "amount of pool tokens to burn",
          "_minReturn": "minimum return-amount of reserve tokens",
          "_poolToken": "address of the pool token"
        },
        "returns": {
          "_0": "amount of liquidity removed"
        }
      },
      "removeLiquidityReturnAndFee(address,uint256)": {
        "details": "calculates the amount of reserve tokens entitled for a given amount of pool tokens note that a fee is applied according to the equilibrium level of the primary reserve token",
        "params": {
          "_amount": "amount of pool tokens",
          "_poolToken": "address of the pool token"
        },
        "returns": {
          "_0": "amount after fee and fee, in reserve token units"
        }
      },
      "reserveAmplifiedBalance(address)": {
        "details": "returns the amplified balance of a given reserve token",
        "params": {
          "_reserveToken": "reserve token address"
        },
        "returns": {
          "_0": "amplified balance"
        }
      },
      "reserveBalance(address)": {
        "details": "returns the reserve's balance note that prior to version 17, you should use 'getConnectorBalance' instead",
        "params": {
          "_reserveToken": "reserve token contract address"
        },
        "returns": {
          "_0": "reserve balance"
        }
      },
      "reserveStakedBalance(address)": {
        "details": "returns the staked balance of a given reserve token",
        "params": {
          "_reserveToken": "reserve token address"
        },
        "returns": {
          "_0": "staked balance"
        }
      },
      "reserveTokenCount()": {
        "details": "returns the number of reserve tokens defined note that prior to version 17, you should use 'connectorTokenCount' instead",
        "returns": {
          "_0": "number of reserve tokens"
        }
      },
      "reserveWeight(address)": {
        "details": "returns the reserve's weight added in version 28",
        "params": {
          "_reserveToken": "reserve token contract address"
        },
        "returns": {
          "_0": "reserve weight"
        }
      },
      "restoreRegistry()": {
        "details": "restores the previous contract-registry"
      },
      "restrictRegistryUpdate(bool)": {
        "details": "restricts the permission to update the contract-registry",
        "params": {
          "_onlyOwnerCanUpdateRegistry": "indicates whether or not permission is restricted to owner only"
        }
      },
      "setConversionFee(uint32)": {
        "details": "updates the current conversion fee can only be called by the contract owner",
        "params": {
          "_conversionFee": "new conversion fee, represented in ppm"
        }
      },
      "setConversionWhitelist(address)": {
        "details": "allows the owner to update & enable the conversion whitelist contract address when set, only addresses that are whitelisted are actually allowed to use the converter note that the whitelist check is actually done by the BancorNetwork contract",
        "params": {
          "_whitelist": "address of a whitelist contract"
        }
      },
      "setMaxStakedBalances(uint256,uint256)": {
        "details": "sets the max staked balance for both reserves available as a temporary mechanism during the beta can only be called by the owner",
        "params": {
          "_reserve1MaxStakedBalance": "max staked balance for reserve 1",
          "_reserve2MaxStakedBalance": "max staked balance for reserve 2"
        }
      },
      "setOracleDeviationFee(uint32)": {
        "details": "updates the current oracle deviation fee can only be called by the contract owner",
        "params": {
          "_oracleDeviationFee": "new oracle deviation fee, represented in ppm"
        }
      },
      "setReserveStakedBalance(address,uint256)": {
        "details": "sets the reserve's staked balance can only be called by the upgrader contract while the upgrader is the owner",
        "params": {
          "_balance": "new reserve staked balance",
          "_reserveToken": "reserve token address"
        }
      },
      "targetAmountAndFee(address,address,uint256)": {
        "details": "returns the expected target amount of converting one reserve to another along with the fee",
        "params": {
          "_amount": "amount of tokens received from the user",
          "_sourceToken": "contract address of the source reserve token",
          "_targetToken": "contract address of the target reserve token"
        },
        "returns": {
          "_0": "expected target amount",
          "_1": "expected fee"
        }
      },
      "token()": {
        "details": "deprecated since version 28, backward compatibility - use only for earlier versions"
      },
      "transferAnchorOwnership(address)": {
        "details": "transfers the anchor ownership the new owner needs to accept the transfer can only be called by the converter upgrder while the upgrader is the owner note that prior to version 28, you should use 'transferAnchorOwnership' instead",
        "params": {
          "_newOwner": "new token owner"
        }
      },
      "transferOwnership(address)": {
        "details": "allows transferring the contract ownership the new owner still needs to accept the transfer can only be called by the contract owner",
        "params": {
          "_newOwner": "new contract owner"
        }
      },
      "transferTokenOwnership(address)": {
        "details": "deprecated, backward compatibility"
      },
      "updateRegistry()": {
        "details": "updates to the new contract-registry"
      },
      "upgrade()": {
        "details": "upgrades the converter to the latest version can only be called by the owner note that the owner needs to call acceptOwnership on the new converter after the upgrade"
      },
      "withdrawETH(address)": {
        "details": "withdraws ether can only be called by the owner if the converter is inactive or by upgrader contract can only be called after the upgrader contract has accepted the ownership of this contract can only be called if the converter has an ETH reserve",
        "params": {
          "_to": "address to send the ETH to"
        }
      },
      "withdrawFromAnchor(address,address,uint256)": {
        "details": "withdraws tokens held by the anchor and sends them to an account can only be called by the owner",
        "params": {
          "_amount": "amount to withdraw",
          "_to": "account to receive the new amount",
          "_token": "ERC20 token contract address"
        }
      },
      "withdrawTokens(address,address,uint256)": {
        "details": "withdraws tokens held by the converter and sends them to an account can only be called by the owner note that reserve tokens can only be withdrawn by the owner while the converter is inactive unless the owner is the converter upgrader contract",
        "params": {
          "_amount": "amount to withdraw",
          "_to": "account to receive the new amount",
          "_token": "ERC20 token contract address"
        }
      }
    },
    "version": 1
  },
  "userdoc": {
    "kind": "user",
    "methods": {},
    "version": 1
  }
}