{
  "contractName": "TestLiquidityPoolV1Converter",
  "abi": [
    {
      "inputs": [
        {
          "internalType": "contract ISmartToken",
          "name": "_token",
          "type": "address"
        },
        {
          "internalType": "contract IContractRegistry",
          "name": "_registry",
          "type": "address"
        },
        {
          "internalType": "uint32",
          "name": "_maxConversionFee",
          "type": "uint32"
        }
      ],
      "stateMutability": "nonpayable",
      "type": "constructor"
    },
    {
      "anonymous": false,
      "inputs": [
        {
          "indexed": true,
          "internalType": "uint16",
          "name": "_type",
          "type": "uint16"
        },
        {
          "indexed": true,
          "internalType": "contract IConverterAnchor",
          "name": "_anchor",
          "type": "address"
        },
        {
          "indexed": true,
          "internalType": "bool",
          "name": "_activated",
          "type": "bool"
        }
      ],
      "name": "Activation",
      "type": "event"
    },
    {
      "anonymous": false,
      "inputs": [
        {
          "indexed": true,
          "internalType": "contract IERC20Token",
          "name": "_fromToken",
          "type": "address"
        },
        {
          "indexed": true,
          "internalType": "contract IERC20Token",
          "name": "_toToken",
          "type": "address"
        },
        {
          "indexed": true,
          "internalType": "address",
          "name": "_trader",
          "type": "address"
        },
        {
          "indexed": false,
          "internalType": "uint256",
          "name": "_amount",
          "type": "uint256"
        },
        {
          "indexed": false,
          "internalType": "uint256",
          "name": "_return",
          "type": "uint256"
        },
        {
          "indexed": false,
          "internalType": "int256",
          "name": "_conversionFee",
          "type": "int256"
        }
      ],
      "name": "Conversion",
      "type": "event"
    },
    {
      "anonymous": false,
      "inputs": [
        {
          "indexed": false,
          "internalType": "uint32",
          "name": "_prevFee",
          "type": "uint32"
        },
        {
          "indexed": false,
          "internalType": "uint32",
          "name": "_newFee",
          "type": "uint32"
        }
      ],
      "name": "ConversionFeeUpdate",
      "type": "event"
    },
    {
      "anonymous": false,
      "inputs": [
        {
          "indexed": true,
          "internalType": "address",
          "name": "_provider",
          "type": "address"
        },
        {
          "indexed": true,
          "internalType": "contract IERC20Token",
          "name": "_reserveToken",
          "type": "address"
        },
        {
          "indexed": false,
          "internalType": "uint256",
          "name": "_amount",
          "type": "uint256"
        },
        {
          "indexed": false,
          "internalType": "uint256",
          "name": "_newBalance",
          "type": "uint256"
        },
        {
          "indexed": false,
          "internalType": "uint256",
          "name": "_newSupply",
          "type": "uint256"
        }
      ],
      "name": "LiquidityAdded",
      "type": "event"
    },
    {
      "anonymous": false,
      "inputs": [
        {
          "indexed": true,
          "internalType": "address",
          "name": "_provider",
          "type": "address"
        },
        {
          "indexed": true,
          "internalType": "contract IERC20Token",
          "name": "_reserveToken",
          "type": "address"
        },
        {
          "indexed": false,
          "internalType": "uint256",
          "name": "_amount",
          "type": "uint256"
        },
        {
          "indexed": false,
          "internalType": "uint256",
          "name": "_newBalance",
          "type": "uint256"
        },
        {
          "indexed": false,
          "internalType": "uint256",
          "name": "_newSupply",
          "type": "uint256"
        }
      ],
      "name": "LiquidityRemoved",
      "type": "event"
    },
    {
      "anonymous": false,
      "inputs": [
        {
          "indexed": true,
          "internalType": "address",
          "name": "_prevOwner",
          "type": "address"
        },
        {
          "indexed": true,
          "internalType": "address",
          "name": "_newOwner",
          "type": "address"
        }
      ],
      "name": "OwnerUpdate",
      "type": "event"
    },
    {
      "anonymous": false,
      "inputs": [
        {
          "indexed": true,
          "internalType": "contract IERC20Token",
          "name": "_connectorToken",
          "type": "address"
        },
        {
          "indexed": false,
          "internalType": "uint256",
          "name": "_tokenSupply",
          "type": "uint256"
        },
        {
          "indexed": false,
          "internalType": "uint256",
          "name": "_connectorBalance",
          "type": "uint256"
        },
        {
          "indexed": false,
          "internalType": "uint32",
          "name": "_connectorWeight",
          "type": "uint32"
        }
      ],
      "name": "PriceDataUpdate",
      "type": "event"
    },
    {
      "anonymous": false,
      "inputs": [
        {
          "indexed": true,
          "internalType": "contract IERC20Token",
          "name": "_token1",
          "type": "address"
        },
        {
          "indexed": true,
          "internalType": "contract IERC20Token",
          "name": "_token2",
          "type": "address"
        },
        {
          "indexed": false,
          "internalType": "uint256",
          "name": "_rateN",
          "type": "uint256"
        },
        {
          "indexed": false,
          "internalType": "uint256",
          "name": "_rateD",
          "type": "uint256"
        }
      ],
      "name": "TokenRateUpdate",
      "type": "event"
    },
    {
      "inputs": [],
      "name": "acceptAnchorOwnership",
      "outputs": [],
      "stateMutability": "nonpayable",
      "type": "function"
    },
    {
      "inputs": [],
      "name": "acceptOwnership",
      "outputs": [],
      "stateMutability": "nonpayable",
      "type": "function"
    },
    {
      "inputs": [],
      "name": "acceptTokenOwnership",
      "outputs": [],
      "stateMutability": "nonpayable",
      "type": "function"
    },
    {
      "inputs": [
        {
          "internalType": "contract IERC20Token[]",
          "name": "_reserveTokens",
          "type": "address[]"
        },
        {
          "internalType": "uint256[]",
          "name": "_reserveAmounts",
          "type": "uint256[]"
        },
        {
          "internalType": "uint256",
          "name": "_minReturn",
          "type": "uint256"
        }
      ],
      "name": "addLiquidity",
      "outputs": [
        {
          "internalType": "uint256",
          "name": "",
          "type": "uint256"
        }
      ],
      "stateMutability": "payable",
      "type": "function"
    },
    {
      "inputs": [
        {
          "internalType": "contract IERC20Token[]",
          "name": "_reserveTokens",
          "type": "address[]"
        },
        {
          "internalType": "uint256",
          "name": "_reserveTokenIndex",
          "type": "uint256"
        },
        {
          "internalType": "uint256",
          "name": "_reserveAmount",
          "type": "uint256"
        }
      ],
      "name": "addLiquidityCost",
      "outputs": [
        {
          "internalType": "uint256[]",
          "name": "",
          "type": "uint256[]"
        }
      ],
      "stateMutability": "view",
      "type": "function"
    },
    {
      "inputs": [
        {
          "internalType": "contract IERC20Token",
          "name": "_reserveToken",
          "type": "address"
        },
        {
          "internalType": "uint256",
          "name": "_reserveAmount",
          "type": "uint256"
        }
      ],
      "name": "addLiquidityReturn",
      "outputs": [
        {
          "internalType": "uint256",
          "name": "",
          "type": "uint256"
        }
      ],
      "stateMutability": "view",
      "type": "function"
    },
    {
      "inputs": [
        {
          "internalType": "contract IERC20Token",
          "name": "_token",
          "type": "address"
        },
        {
          "internalType": "uint32",
          "name": "_weight",
          "type": "uint32"
        }
      ],
      "name": "addReserve",
      "outputs": [],
      "stateMutability": "nonpayable",
      "type": "function"
    },
    {
      "inputs": [],
      "name": "anchor",
      "outputs": [
        {
          "internalType": "contract IConverterAnchor",
          "name": "",
          "type": "address"
        }
      ],
      "stateMutability": "view",
      "type": "function"
    },
    {
      "inputs": [],
      "name": "connectorTokenCount",
      "outputs": [
        {
          "internalType": "uint16",
          "name": "",
          "type": "uint16"
        }
      ],
      "stateMutability": "view",
      "type": "function"
    },
    {
      "inputs": [
        {
          "internalType": "uint256",
          "name": "_index",
          "type": "uint256"
        }
      ],
      "name": "connectorTokens",
      "outputs": [
        {
          "internalType": "contract IERC20Token",
          "name": "",
          "type": "address"
        }
      ],
      "stateMutability": "view",
      "type": "function"
    },
    {
      "inputs": [
        {
          "internalType": "contract IERC20Token",
          "name": "_address",
          "type": "address"
        }
      ],
      "name": "connectors",
      "outputs": [
        {
          "internalType": "uint256",
          "name": "",
          "type": "uint256"
        },
        {
          "internalType": "uint32",
          "name": "",
          "type": "uint32"
        },
        {
          "internalType": "bool",
          "name": "",
          "type": "bool"
        },
        {
          "internalType": "bool",
          "name": "",
          "type": "bool"
        },
        {
          "internalType": "bool",
          "name": "",
          "type": "bool"
        }
      ],
      "stateMutability": "view",
      "type": "function"
    },
    {
      "inputs": [],
      "name": "conversionFee",
      "outputs": [
        {
          "internalType": "uint32",
          "name": "",
          "type": "uint32"
        }
      ],
      "stateMutability": "view",
      "type": "function"
    },
    {
      "inputs": [],
      "name": "conversionWhitelist",
      "outputs": [
        {
          "internalType": "contract IWhitelist",
          "name": "",
          "type": "address"
        }
      ],
      "stateMutability": "view",
      "type": "function"
    },
    {
      "inputs": [],
      "name": "conversionsEnabled",
      "outputs": [
        {
          "internalType": "bool",
          "name": "",
          "type": "bool"
        }
      ],
      "stateMutability": "view",
      "type": "function"
    },
    {
      "inputs": [
        {
          "internalType": "contract IERC20Token",
          "name": "_sourceToken",
          "type": "address"
        },
        {
          "internalType": "contract IERC20Token",
          "name": "_targetToken",
          "type": "address"
        },
        {
          "internalType": "uint256",
          "name": "_amount",
          "type": "uint256"
        },
        {
          "internalType": "address",
          "name": "_trader",
          "type": "address"
        },
        {
          "internalType": "address payable",
          "name": "_beneficiary",
          "type": "address"
        }
      ],
      "name": "convert",
      "outputs": [
        {
          "internalType": "uint256",
          "name": "",
          "type": "uint256"
        }
      ],
      "stateMutability": "payable",
      "type": "function"
    },
    {
      "inputs": [],
      "name": "converterType",
      "outputs": [
        {
          "internalType": "uint16",
          "name": "",
          "type": "uint16"
        }
      ],
      "stateMutability": "pure",
      "type": "function"
    },
    {
      "inputs": [],
      "name": "currentTime",
      "outputs": [
        {
          "internalType": "uint256",
          "name": "",
          "type": "uint256"
        }
      ],
      "stateMutability": "view",
      "type": "function"
    },
    {
      "inputs": [
        {
          "internalType": "uint256",
          "name": "_x",
          "type": "uint256"
        }
      ],
      "name": "decimalLength",
      "outputs": [
        {
          "internalType": "uint256",
          "name": "",
          "type": "uint256"
        }
      ],
      "stateMutability": "pure",
      "type": "function"
    },
    {
      "inputs": [
        {
          "internalType": "uint256",
          "name": "_amount",
          "type": "uint256"
        }
      ],
      "name": "fund",
      "outputs": [
        {
          "internalType": "uint256",
          "name": "",
          "type": "uint256"
        }
      ],
      "stateMutability": "payable",
      "type": "function"
    },
    {
      "inputs": [
        {
          "internalType": "uint256[]",
          "name": "_values",
          "type": "uint256[]"
        }
      ],
      "name": "geometricMean",
      "outputs": [
        {
          "internalType": "uint256",
          "name": "",
          "type": "uint256"
        }
      ],
      "stateMutability": "pure",
      "type": "function"
    },
    {
      "inputs": [
        {
          "internalType": "contract IERC20Token",
          "name": "_connectorToken",
          "type": "address"
        }
      ],
      "name": "getConnectorBalance",
      "outputs": [
        {
          "internalType": "uint256",
          "name": "",
          "type": "uint256"
        }
      ],
      "stateMutability": "view",
      "type": "function"
    },
    {
      "inputs": [
        {
          "internalType": "contract IERC20Token",
          "name": "_sourceToken",
          "type": "address"
        },
        {
          "internalType": "contract IERC20Token",
          "name": "_targetToken",
          "type": "address"
        },
        {
          "internalType": "uint256",
          "name": "_amount",
          "type": "uint256"
        }
      ],
      "name": "getReturn",
      "outputs": [
        {
          "internalType": "uint256",
          "name": "",
          "type": "uint256"
        },
        {
          "internalType": "uint256",
          "name": "",
          "type": "uint256"
        }
      ],
      "stateMutability": "view",
      "type": "function"
    },
    {
      "inputs": [],
      "name": "hasETHReserve",
      "outputs": [
        {
          "internalType": "bool",
          "name": "",
          "type": "bool"
        }
      ],
      "stateMutability": "view",
      "type": "function"
    },
    {
      "inputs": [],
      "name": "isActive",
      "outputs": [
        {
          "internalType": "bool",
          "name": "",
          "type": "bool"
        }
      ],
      "stateMutability": "view",
      "type": "function"
    },
    {
      "inputs": [],
      "name": "isStandardPool",
      "outputs": [
        {
          "internalType": "bool",
          "name": "",
          "type": "bool"
        }
      ],
      "stateMutability": "view",
      "type": "function"
    },
    {
      "inputs": [],
      "name": "isV28OrHigher",
      "outputs": [
        {
          "internalType": "bool",
          "name": "",
          "type": "bool"
        }
      ],
      "stateMutability": "pure",
      "type": "function"
    },
    {
      "inputs": [
        {
          "internalType": "uint256",
          "name": "_amount",
          "type": "uint256"
        }
      ],
      "name": "liquidate",
      "outputs": [
        {
          "internalType": "uint256[]",
          "name": "",
          "type": "uint256[]"
        }
      ],
      "stateMutability": "nonpayable",
      "type": "function"
    },
    {
      "inputs": [],
      "name": "maxConversionFee",
      "outputs": [
        {
          "internalType": "uint32",
          "name": "",
          "type": "uint32"
        }
      ],
      "stateMutability": "view",
      "type": "function"
    },
    {
      "inputs": [],
      "name": "newOwner",
      "outputs": [
        {
          "internalType": "address",
          "name": "",
          "type": "address"
        }
      ],
      "stateMutability": "view",
      "type": "function"
    },
    {
      "inputs": [],
      "name": "onlyOwnerCanUpdateRegistry",
      "outputs": [
        {
          "internalType": "bool",
          "name": "",
          "type": "bool"
        }
      ],
      "stateMutability": "view",
      "type": "function"
    },
    {
      "inputs": [],
      "name": "owner",
      "outputs": [
        {
          "internalType": "address",
          "name": "",
          "type": "address"
        }
      ],
      "stateMutability": "view",
      "type": "function"
    },
    {
      "inputs": [],
      "name": "prevAverageRate",
      "outputs": [
        {
          "internalType": "uint256",
          "name": "n",
          "type": "uint256"
        },
        {
          "internalType": "uint256",
          "name": "d",
          "type": "uint256"
        }
      ],
      "stateMutability": "view",
      "type": "function"
    },
    {
      "inputs": [],
      "name": "prevAverageRateUpdateTime",
      "outputs": [
        {
          "internalType": "uint256",
          "name": "",
          "type": "uint256"
        }
      ],
      "stateMutability": "view",
      "type": "function"
    },
    {
      "inputs": [],
      "name": "prevRegistry",
      "outputs": [
        {
          "internalType": "contract IContractRegistry",
          "name": "",
          "type": "address"
        }
      ],
      "stateMutability": "view",
      "type": "function"
    },
    {
      "inputs": [
        {
          "internalType": "contract IERC20Token",
          "name": "_token",
          "type": "address"
        }
      ],
      "name": "recentAverageRate",
      "outputs": [
        {
          "internalType": "uint256",
          "name": "",
          "type": "uint256"
        },
        {
          "internalType": "uint256",
          "name": "",
          "type": "uint256"
        }
      ],
      "stateMutability": "view",
      "type": "function"
    },
    {
      "inputs": [],
      "name": "registry",
      "outputs": [
        {
          "internalType": "contract IContractRegistry",
          "name": "",
          "type": "address"
        }
      ],
      "stateMutability": "view",
      "type": "function"
    },
    {
      "inputs": [
        {
          "internalType": "uint256",
          "name": "_amount",
          "type": "uint256"
        },
        {
          "internalType": "contract IERC20Token[]",
          "name": "_reserveTokens",
          "type": "address[]"
        },
        {
          "internalType": "uint256[]",
          "name": "_reserveMinReturnAmounts",
          "type": "uint256[]"
        }
      ],
      "name": "removeLiquidity",
      "outputs": [
        {
          "internalType": "uint256[]",
          "name": "",
          "type": "uint256[]"
        }
      ],
      "stateMutability": "nonpayable",
      "type": "function"
    },
    {
      "inputs": [
        {
          "internalType": "uint256",
          "name": "_amount",
          "type": "uint256"
        },
        {
          "internalType": "contract IERC20Token[]",
          "name": "_reserveTokens",
          "type": "address[]"
        }
      ],
      "name": "removeLiquidityReturn",
      "outputs": [
        {
          "internalType": "uint256[]",
          "name": "",
          "type": "uint256[]"
        }
      ],
      "stateMutability": "view",
      "type": "function"
    },
    {
      "inputs": [
        {
          "internalType": "contract IERC20Token",
          "name": "_reserveToken",
          "type": "address"
        }
      ],
      "name": "reserveBalance",
      "outputs": [
        {
          "internalType": "uint256",
          "name": "",
          "type": "uint256"
        }
      ],
      "stateMutability": "view",
      "type": "function"
    },
    {
      "inputs": [],
      "name": "reserveRatio",
      "outputs": [
        {
          "internalType": "uint32",
          "name": "",
          "type": "uint32"
        }
      ],
      "stateMutability": "view",
      "type": "function"
    },
    {
      "inputs": [],
      "name": "reserveTokenCount",
      "outputs": [
        {
          "internalType": "uint16",
          "name": "",
          "type": "uint16"
        }
      ],
      "stateMutability": "view",
      "type": "function"
    },
    {
      "inputs": [
        {
          "internalType": "uint256",
          "name": "",
          "type": "uint256"
        }
      ],
      "name": "reserveTokens",
      "outputs": [
        {
          "internalType": "contract IERC20Token",
          "name": "",
          "type": "address"
        }
      ],
      "stateMutability": "view",
      "type": "function"
    },
    {
      "inputs": [
        {
          "internalType": "contract IERC20Token",
          "name": "_reserveToken",
          "type": "address"
        }
      ],
      "name": "reserveWeight",
      "outputs": [
        {
          "internalType": "uint32",
          "name": "",
          "type": "uint32"
        }
      ],
      "stateMutability": "view",
      "type": "function"
    },
    {
      "inputs": [
        {
          "internalType": "contract IERC20Token",
          "name": "",
          "type": "address"
        }
      ],
      "name": "reserves",
      "outputs": [
        {
          "internalType": "uint256",
          "name": "balance",
          "type": "uint256"
        },
        {
          "internalType": "uint32",
          "name": "weight",
          "type": "uint32"
        },
        {
          "internalType": "bool",
          "name": "deprecated1",
          "type": "bool"
        },
        {
          "internalType": "bool",
          "name": "deprecated2",
          "type": "bool"
        },
        {
          "internalType": "bool",
          "name": "isSet",
          "type": "bool"
        }
      ],
      "stateMutability": "view",
      "type": "function"
    },
    {
      "inputs": [],
      "name": "restoreRegistry",
      "outputs": [],
      "stateMutability": "nonpayable",
      "type": "function"
    },
    {
      "inputs": [
        {
          "internalType": "bool",
          "name": "_onlyOwnerCanUpdateRegistry",
          "type": "bool"
        }
      ],
      "name": "restrictRegistryUpdate",
      "outputs": [],
      "stateMutability": "nonpayable",
      "type": "function"
    },
    {
      "inputs": [
        {
          "internalType": "uint256",
          "name": "_n",
          "type": "uint256"
        },
        {
          "internalType": "uint256",
          "name": "_d",
          "type": "uint256"
        }
      ],
      "name": "roundDiv",
      "outputs": [
        {
          "internalType": "uint256",
          "name": "",
          "type": "uint256"
        }
      ],
      "stateMutability": "pure",
      "type": "function"
    },
    {
      "inputs": [
        {
          "internalType": "uint32",
          "name": "_conversionFee",
          "type": "uint32"
        }
      ],
      "name": "setConversionFee",
      "outputs": [],
      "stateMutability": "nonpayable",
      "type": "function"
    },
    {
      "inputs": [
        {
          "internalType": "contract IWhitelist",
          "name": "_whitelist",
          "type": "address"
        }
      ],
      "name": "setConversionWhitelist",
      "outputs": [],
      "stateMutability": "nonpayable",
      "type": "function"
    },
    {
      "inputs": [
        {
          "internalType": "contract IERC20Token",
          "name": "_sourceToken",
          "type": "address"
        },
        {
          "internalType": "contract IERC20Token",
          "name": "_targetToken",
          "type": "address"
        },
        {
          "internalType": "uint256",
          "name": "_amount",
          "type": "uint256"
        }
      ],
      "name": "targetAmountAndFee",
      "outputs": [
        {
          "internalType": "uint256",
          "name": "",
          "type": "uint256"
        },
        {
          "internalType": "uint256",
          "name": "",
          "type": "uint256"
        }
      ],
      "stateMutability": "view",
      "type": "function"
    },
    {
      "inputs": [],
      "name": "token",
      "outputs": [
        {
          "internalType": "contract IConverterAnchor",
          "name": "",
          "type": "address"
        }
      ],
      "stateMutability": "view",
      "type": "function"
    },
    {
      "inputs": [
        {
          "internalType": "address",
          "name": "_newOwner",
          "type": "address"
        }
      ],
      "name": "transferAnchorOwnership",
      "outputs": [],
      "stateMutability": "nonpayable",
      "type": "function"
    },
    {
      "inputs": [
        {
          "internalType": "address",
          "name": "_newOwner",
          "type": "address"
        }
      ],
      "name": "transferOwnership",
      "outputs": [],
      "stateMutability": "nonpayable",
      "type": "function"
    },
    {
      "inputs": [
        {
          "internalType": "address",
          "name": "_newOwner",
          "type": "address"
        }
      ],
      "name": "transferTokenOwnership",
      "outputs": [],
      "stateMutability": "nonpayable",
      "type": "function"
    },
    {
      "inputs": [],
      "name": "updateRegistry",
      "outputs": [],
      "stateMutability": "nonpayable",
      "type": "function"
    },
    {
      "inputs": [],
      "name": "upgrade",
      "outputs": [],
      "stateMutability": "nonpayable",
      "type": "function"
    },
    {
      "inputs": [],
      "name": "version",
      "outputs": [
        {
          "internalType": "uint16",
          "name": "",
          "type": "uint16"
        }
      ],
      "stateMutability": "view",
      "type": "function"
    },
    {
      "inputs": [
        {
          "internalType": "address payable",
          "name": "_to",
          "type": "address"
        }
      ],
      "name": "withdrawETH",
      "outputs": [],
      "stateMutability": "nonpayable",
      "type": "function"
    },
    {
      "inputs": [
        {
          "internalType": "contract IERC20Token",
          "name": "_token",
          "type": "address"
        },
        {
          "internalType": "address",
          "name": "_to",
          "type": "address"
        },
        {
          "internalType": "uint256",
          "name": "_amount",
          "type": "uint256"
        }
      ],
      "name": "withdrawFromAnchor",
      "outputs": [],
      "stateMutability": "nonpayable",
      "type": "function"
    },
    {
      "inputs": [
        {
          "internalType": "contract IERC20Token",
          "name": "_token",
          "type": "address"
        },
        {
          "internalType": "address",
          "name": "_to",
          "type": "address"
        },
        {
          "internalType": "uint256",
          "name": "_amount",
          "type": "uint256"
        }
      ],
      "name": "withdrawTokens",
      "outputs": [],
      "stateMutability": "nonpayable",
      "type": "function"
    },
    {
      "stateMutability": "payable",
      "type": "receive"
    },
    {
      "inputs": [
        {
          "internalType": "contract IEtherToken",
          "name": "_etherToken",
          "type": "address"
        }
      ],
      "name": "setEtherToken",
      "outputs": [],
      "stateMutability": "nonpayable",
      "type": "function"
    },
    {
      "inputs": [
        {
          "internalType": "uint256",
          "name": "_currentTime",
          "type": "uint256"
        }
      ],
      "name": "setTime",
      "outputs": [],
      "stateMutability": "nonpayable",
      "type": "function"
    }
  ],
  "bytecode": "0x60806040526003805460ff60a81b191690557fc0829421c1d260bd3cb3e0f06cfe2d52db2ce3150000000000000000000000006008556009805460ff191690553480156200004c57600080fd5b50604051620057b5380380620057b5833981810160405260608110156200007257600080fd5b5080516020820151604090920151600080546001600160a01b031916331790559091908282828282828282828180620000ab8162000148565b50600280546001600160a01b039092166001600160a01b031992831681179091556003805490921617905582620000e28162000148565b81620000ee81620001a7565b5050600480546001600160a01b039094166001600160a01b031990941693909317909255506008805463ffffffff9092166401000000000263ffffffff60201b199092169190911790555062000206975050505050505050565b6001600160a01b038116620001a4576040805162461bcd60e51b815260206004820152601360248201527f4552525f494e56414c49445f4144445245535300000000000000000000000000604482015290519081900360640190fd5b50565b620f424063ffffffff82161115620001a4576040805162461bcd60e51b815260206004820152601a60248201527f4552525f494e56414c49445f434f4e56455253494f4e5f464545000000000000604482015290519081900360640190fd5b61559f80620002166000396000f3fe6080604052600436106103b15760003560e01c806371f52bf3116101e7578063ca1d209d1161010d578063d66bd524116100a0578063e8dc12ff1161006f578063e8dc12ff14611114578063ecbca55d1461115a578063f2fde38b1461118a578063fc0c546a146111bd57610442565b8063d66bd52414611066578063d895951214611099578063dc8de379146110cc578063e2c52468146110ff57610442565b8063d260529c116100dc578063d260529c14611012578063d3fb73b414611027578063d4ee1d901461103c578063d55ec6971461105157610442565b8063ca1d209d14610fa1578063cdc91c6914610fbe578063d031370b14610fd3578063d18e81b314610ffd57610442565b80639b99a8e211610185578063b4a176d311610154578063b4a176d314610f32578063bbb7e5d814610f47578063bf75455814610f77578063c45d3d9214610f8c57610442565b80639b99a8e214610cf5578063a60e772414610d0a578063af94b8d814610db8578063b127c0a514610dfb57610442565b80637d8916bd116101c15780637d8916bd14610af357806380d9416d14610c185780638da5cb5b14610ccb57806394c275ad14610ce057610442565b806371f52bf314610ab457806379ba509714610ac95780637b10399914610ade57610442565b8063395900d4116102d7578063579cd3ca1161026a578063690d832011610239578063690d8320146109e55780636a49d2c414610a185780636aa5332c14610a575780636ad419a814610a8157610442565b8063579cd3ca146109455780635e35359e1461095a57806361cd756e1461099d57806367b6d57c146109b257610442565b806349d10b64116102a657806349d10b64146108af5780634af80f0e146108c45780634e40c260146108f757806354fd4d501461093057610442565b8063395900d4146107ec5780633beb26c41461082f5780633e8ff43f14610859578063415f12401461088557610442565b80631d4db7911161034f57806322f3e2d41161031e57806322f3e2d4146107985780632fe8a6ad146107ad57806338a5e016146107c257806338e9f27a146107d757610442565b80631d4db791146106af5780631e1401f8146106d65780631f0181bc1461073257806321e6b53d1461076557610442565b806312c2aca41161038b57806312c2aca414610508578063154588371461053157806319b64015146106365780631cfab2901461067c57610442565b8063024c7ec7146104475780630c7d5cd8146104735780630e53aae9146104a157610442565b366104425760008051602061552a83398151915260005260076020527fb2084a3e4595ccf007fb44245853374aaf0de960074375e8e0fb334712e94d0f54600160301b900460ff16610440576040805162461bcd60e51b81526020600482015260136024820152724552525f494e56414c49445f5245534552564560681b604482015290519081900360640190fd5b005b600080fd5b34801561045357600080fd5b506104406004803603602081101561046a57600080fd5b503515156111d2565b34801561047f57600080fd5b506104886111f8565b6040805163ffffffff9092168252519081900360200190f35b3480156104ad57600080fd5b506104d4600480360360208110156104c457600080fd5b50356001600160a01b0316611204565b6040805195865263ffffffff9094166020860152911515848401521515606084015215156080830152519081900360a00190f35b34801561051457600080fd5b5061051d61129b565b604080519115158252519081900360200190f35b34801561053d57600080fd5b506105e66004803603604081101561055457600080fd5b81359190810190604081016020820135600160201b81111561057557600080fd5b82018360208201111561058757600080fd5b803590602001918460208302840111600160201b831117156105a857600080fd5b9190808060200260200160405190810160405280939291908181526020018383602002808284376000920191909152509295506112e2945050505050565b60408051602080825283518183015283519192839290830191858101910280838360005b8381101561062257818101518382015260200161060a565b505050509050019250505060405180910390f35b34801561064257600080fd5b506106606004803603602081101561065957600080fd5b5035611389565b604080516001600160a01b039092168252519081900360200190f35b34801561068857600080fd5b506104886004803603602081101561069f57600080fd5b50356001600160a01b03166113b3565b3480156106bb57600080fd5b506106c46113e5565b60408051918252519081900360200190f35b3480156106e257600080fd5b50610719600480360360608110156106f957600080fd5b506001600160a01b038135811691602081013590911690604001356113eb565b6040805192835260208301919091528051918290030190f35b34801561073e57600080fd5b506107196004803603602081101561075557600080fd5b50356001600160a01b0316611406565b34801561077157600080fd5b506104406004803603602081101561078857600080fd5b50356001600160a01b03166114bd565b3480156107a457600080fd5b5061051d6114d1565b3480156107b957600080fd5b5061051d611550565b3480156107ce57600080fd5b50610440611560565b3480156107e357600080fd5b5061051d611572565b3480156107f857600080fd5b506104406004803603606081101561080f57600080fd5b506001600160a01b0381358116916020810135909116906040013561157b565b34801561083b57600080fd5b506104406004803603602081101561085257600080fd5b5035611601565b34801561086557600080fd5b5061086e611606565b6040805161ffff9092168252519081900360200190f35b34801561089157600080fd5b506105e6600480360360208110156108a857600080fd5b503561160b565b3480156108bb57600080fd5b50610440611849565b3480156108d057600080fd5b50610440600480360360208110156108e757600080fd5b50356001600160a01b0316611a51565b34801561090357600080fd5b506106c46004803603604081101561091a57600080fd5b506001600160a01b038135169060200135611a86565b34801561093c57600080fd5b5061086e611bc2565b34801561095157600080fd5b50610488611bc7565b34801561096657600080fd5b506104406004803603606081101561097d57600080fd5b506001600160a01b03813581169160208101359091169060400135611bda565b3480156109a957600080fd5b50610660611d0b565b3480156109be57600080fd5b50610440600480360360208110156109d557600080fd5b50356001600160a01b0316611d1a565b3480156109f157600080fd5b5061044060048036036020811015610a0857600080fd5b50356001600160a01b0316611dc6565b348015610a2457600080fd5b5061044060048036036040811015610a3b57600080fd5b5080356001600160a01b0316906020013563ffffffff16611eed565b348015610a6357600080fd5b506106c460048036036020811015610a7a57600080fd5b5035611fb6565b348015610a8d57600080fd5b5061044060048036036020811015610aa457600080fd5b50356001600160a01b0316611fd8565b348015610ac057600080fd5b5061086e612005565b348015610ad557600080fd5b50610440612014565b348015610aea57600080fd5b506106606120cb565b6106c460048036036060811015610b0957600080fd5b810190602081018135600160201b811115610b2357600080fd5b820183602082011115610b3557600080fd5b803590602001918460208302840111600160201b83111715610b5657600080fd5b9190808060200260200160405190810160405280939291908181526020018383602002808284376000920191909152509295949360208101935035915050600160201b811115610ba557600080fd5b820183602082011115610bb757600080fd5b803590602001918460208302840111600160201b83111715610bd857600080fd5b91908080602002602001604051908101604052809392919081815260200183836020028082843760009201919091525092955050913592506120da915050565b348015610c2457600080fd5b506105e660048036036060811015610c3b57600080fd5b810190602081018135600160201b811115610c5557600080fd5b820183602082011115610c6757600080fd5b803590602001918460208302840111600160201b83111715610c8857600080fd5b91908080602002602001604051908101604052809392919081815260200183836020028082843760009201919091525092955050823593505050602001356123a4565b348015610cd757600080fd5b50610660612653565b348015610cec57600080fd5b50610488612662565b348015610d0157600080fd5b5061086e612675565b348015610d1657600080fd5b506106c460048036036020811015610d2d57600080fd5b810190602081018135600160201b811115610d4757600080fd5b820183602082011115610d5957600080fd5b803590602001918460208302840111600160201b83111715610d7a57600080fd5b91908080602002602001604051908101604052809392919081815260200183836020028082843760009201919091525092955061267b945050505050565b348015610dc457600080fd5b5061071960048036036060811015610ddb57600080fd5b506001600160a01b038135811691602081013590911690604001356126cd565b348015610e0757600080fd5b506105e660048036036060811015610e1e57600080fd5b81359190810190604081016020820135600160201b811115610e3f57600080fd5b820183602082011115610e5157600080fd5b803590602001918460208302840111600160201b83111715610e7257600080fd5b9190808060200260200160405190810160405280939291908181526020018383602002808284376000920191909152509295949360208101935035915050600160201b811115610ec157600080fd5b820183602082011115610ed357600080fd5b803590602001918460208302840111600160201b83111715610ef457600080fd5b919080806020026020016040519081016040528093929190818152602001838360200280828437600092019190915250929550612870945050505050565b348015610f3e57600080fd5b506104406129ac565b348015610f5357600080fd5b506106c460048036036040811015610f6a57600080fd5b50803590602001356129d8565b348015610f8357600080fd5b5061051d6129f0565b348015610f9857600080fd5b506106606129f5565b6106c460048036036020811015610fb757600080fd5b5035612a04565b348015610fca57600080fd5b50610440612e7f565b348015610fdf57600080fd5b5061066060048036036020811015610ff657600080fd5b5035612ed8565b34801561100957600080fd5b506106c4612eff565b34801561101e57600080fd5b5061051d611606565b34801561103357600080fd5b50610660612f05565b34801561104857600080fd5b50610660612f14565b34801561105d57600080fd5b50610440612f23565b34801561107257600080fd5b506104d46004803603602081101561108957600080fd5b50356001600160a01b031661300b565b3480156110a557600080fd5b506106c4600480360360208110156110bc57600080fd5b50356001600160a01b031661304d565b3480156110d857600080fd5b506106c4600480360360208110156110ef57600080fd5b50356001600160a01b0316613054565b34801561110b57600080fd5b5061071961307d565b6106c4600480360360a081101561112a57600080fd5b506001600160a01b0381358116916020810135821691604082013591606081013582169160809091013516613086565b34801561116657600080fd5b506104406004803603602081101561117d57600080fd5b503563ffffffff16613296565b34801561119657600080fd5b50610440600480360360208110156111ad57600080fd5b50356001600160a01b031661337d565b3480156111c957600080fd5b506106606133fb565b6111da61340a565b60038054911515600160a01b0260ff60a01b19909216919091179055565b60085463ffffffff1681565b60008060008060006112146154e1565b505050506001600160a01b03929092166000908152600760209081526040808320815160a081018352815480825260019092015463ffffffff811694820185905260ff600160201b82048116151594830194909452650100000000008104841615156060830152600160301b90049092161515608090920182905295919450919250829190565b60008051602061552a83398151915260005260076020527fb2084a3e4595ccf007fb44245853374aaf0de960074375e8e0fb334712e94d0f54600160301b900460ff165b90565b60048054604080516318160ddd60e01b815290516060936000936001600160a01b0316926318160ddd9281830192602092829003018186803b15801561132757600080fd5b505afa15801561133b573d6000803e3d6000fd5b505050506040513d602081101561135157600080fd5b5051905060006113706c42616e636f72466f726d756c6160981b61345d565b905061137e858584846134db565b925050505b92915050565b60006006828154811061139857fe5b6000918252602090912001546001600160a01b031692915050565b6000816113bf81613620565b50506001600160a01b031660009081526007602052604090206001015463ffffffff1690565b600c5481565b6000806113f98585856126cd565b915091505b935093915050565b600954600090819060ff1661145a576040805162461bcd60e51b815260206004820152601560248201527411549497d393d397d4d510539110549117d413d3d3605a1b604482015290519081900360640190fd5b61146261550f565b61146a61368d565b9050600660008154811061147a57fe5b6000918252602090912001546001600160a01b03858116911614156114ab57805160209091015190925090506114b8565b6020810151905190925090505b915091565b6114c561340a565b6114ce81611d1a565b50565b6004805460408051638da5cb5b60e01b8152905160009330936001600160a01b031692638da5cb5b9281830192602092829003018186803b15801561151557600080fd5b505afa158015611529573d6000803e3d6000fd5b505050506040513d602081101561153f57600080fd5b50516001600160a01b031614905090565b600354600160a01b900460ff1681565b61156861340a565b611570612e7f565b565b60095460ff1681565b61158361340a565b6004805460408051632f1a9acf60e11b81526001600160a01b038781169482019490945285841660248201526044810185905290519290911691635e35359e9160648082019260009290919082900301818387803b1580156115e457600080fd5b505af11580156115f8573d6000803e3d6000fd5b50505050505050565b600d55565b600190565b6060611615613828565b6003805460ff60a81b1916600160a81b1790558161166c576040805162461bcd60e51b815260206004820152600f60248201526e11549497d6915493d7d05353d55395608a1b604482015290519081900360640190fd5b6000600460009054906101000a90046001600160a01b03166001600160a01b03166318160ddd6040518163ffffffff1660e01b815260040160206040518083038186803b1580156116bc57600080fd5b505afa1580156116d0573d6000803e3d6000fd5b505050506040513d60208110156116e657600080fd5b5051600480546040805163a24835d160e01b8152339381019390935260248301879052519293506001600160a01b03169163a24835d19160448082019260009290919082900301818387803b15801561173e57600080fd5b505af1158015611752573d6000803e3d6000fd5b505060065460609250905067ffffffffffffffff8111801561177357600080fd5b5060405190808252806020026020018201604052801561179d578160200160208202803683370190505b50905060005b81518110156117cd5760018282815181106117ba57fe5b60209081029190910101526001016117a3565b50611834600680548060200260200160405190810160405280929190818152602001828054801561182757602002820191906000526020600020905b81546001600160a01b03168152600190910190602001808311611809575b5050505050828487613878565b6003805460ff60a81b19169055949350505050565b6000546001600160a01b031633148061186c5750600354600160a01b900460ff16155b6118b1576040805162461bcd60e51b815260206004820152601160248201527011549497d050d0d154d4d7d11153925151607a1b604482015290519081900360640190fd5b60006118cf6f436f6e7472616374526567697374727960801b61345d565b6002549091506001600160a01b038083169116148015906118f857506001600160a01b03811615155b611940576040805162461bcd60e51b81526020600482015260146024820152734552525f494e56414c49445f524547495354525960601b604482015290519081900360640190fd5b60006001600160a01b0316816001600160a01b031663bb34534c6f436f6e7472616374526567697374727960801b6040518263ffffffff1660e01b81526004018082815260200191505060206040518083038186803b1580156119a257600080fd5b505afa1580156119b6573d6000803e3d6000fd5b505050506040513d60208110156119cc57600080fd5b50516001600160a01b03161415611a21576040805162461bcd60e51b81526020600482015260146024820152734552525f494e56414c49445f524547495354525960601b604482015290519081900360640190fd5b60028054600380546001600160a01b038084166001600160a01b0319928316179092559091169216919091179055565b611a5961340a565b80611a6381613a83565b50600580546001600160a01b0319166001600160a01b0392909216919091179055565b60048054604080516318160ddd60e01b8152905160009384936001600160a01b0316926318160ddd9281830192602092829003018186803b158015611aca57600080fd5b505afa158015611ade573d6000803e3d6000fd5b505050506040513d6020811015611af457600080fd5b505190506000611b136c42616e636f72466f726d756c6160981b61345d565b6001600160a01b03868116600090815260076020908152604091829020546008548351632f55bdb560e01b815260048101899052602481019290925263ffffffff16604482015260648101899052915193945091841692632f55bdb592608480840193919291829003018186803b158015611b8d57600080fd5b505afa158015611ba1573d6000803e3d6000fd5b505050506040513d6020811015611bb757600080fd5b505195945050505050565b602781565b600854600160401b900463ffffffff1681565b611be2613828565b6003805460ff60a81b1916600160a81b179055611bfd61340a565b6000611c22762130b731b7b921b7b73b32b93a32b92ab833b930b232b960491b61345d565b6001600160a01b038516600090815260076020526040902060010154909150600160301b900460ff161580611c5c5750611c5a6114d1565b155b80611c7457506000546001600160a01b038281169116145b611cb9576040805162461bcd60e51b815260206004820152601160248201527011549497d050d0d154d4d7d11153925151607a1b604482015290519081900360640190fd5b611cc4848484613ad7565b6001600160a01b038416600090815260076020526040902060010154600160301b900460ff1615611cf857611cf884613b08565b50506003805460ff60a81b191690555050565b6003546001600160a01b031681565b611d2261340a565b762130b731b7b921b7b73b32b93a32b92ab833b930b232b960491b611d4681613be1565b600460009054906101000a90046001600160a01b03166001600160a01b031663f2fde38b836040518263ffffffff1660e01b815260040180826001600160a01b03168152602001915050600060405180830381600087803b158015611daa57600080fd5b505af1158015611dbe573d6000803e3d6000fd5b505050505050565b611dce613828565b6003805460ff60a81b1916600160a81b179055611de961340a565b60008051602061552a833981519152611e0181613620565b6000611e26762130b731b7b921b7b73b32b93a32b92ab833b930b232b960491b61345d565b9050611e306114d1565b1580611e4957506000546001600160a01b038281169116145b611e8e576040805162461bcd60e51b815260206004820152601160248201527011549497d050d0d154d4d7d11153925151607a1b604482015290519081900360640190fd5b6040516001600160a01b038416904780156108fc02916000818181858888f19350505050158015611ec3573d6000803e3d6000fd5b50611edb60008051602061552a833981519152613b08565b50506003805460ff60a81b1916905550565b611ef561340a565b611eff8282613c43565b6006546002148015611f535750600760006006600081548110611f1e57fe5b6000918252602080832091909101546001600160a01b0316835282019290925260400190206001015463ffffffff166207a120145b8015611fa15750600760006006600181548110611f6c57fe5b6000918252602080832091909101546001600160a01b0316835282019290925260400190206001015463ffffffff166207a120145b6009805460ff19169115159190911790555050565b600080825b8015611fd15760019190910190600a9004611fbb565b5092915050565b600880546001600160a01b03909216600160601b026bffffffffffffffffffffffff909216919091179055565b600061200f612675565b905090565b6001546001600160a01b03163314612067576040805162461bcd60e51b815260206004820152601160248201527011549497d050d0d154d4d7d11153925151607a1b604482015290519081900360640190fd5b600154600080546040516001600160a01b0393841693909116917f343765429aea5a34b3ff6a3785a98a5abb2597aca87bfbb58632c173d585373a91a360018054600080546001600160a01b03199081166001600160a01b03841617909155169055565b6002546001600160a01b031681565b60006120e4613828565b6003805460ff60a81b1916600160a81b1790556120ff613e65565b61210a848484613ead565b60005b84518110156121ba5760008051602061552a8339815191526001600160a01b031685828151811061213a57fe5b60200260200101516001600160a01b031614156121b2573484828151811061215e57fe5b6020026020010151146121b2576040805162461bcd60e51b815260206004820152601760248201527608aa4a4be8aa890be829a9eaa9ca8be9a92a69a82a8869604b1b604482015290519081900360640190fd5b60010161210d565b50341561224a5760008051602061552a83398151915260005260076020527fb2084a3e4595ccf007fb44245853374aaf0de960074375e8e0fb334712e94d0f54600160301b900460ff1661224a576040805162461bcd60e51b81526020600482015260126024820152714552525f4e4f5f4554485f5245534552564560701b604482015290519081900360640190fd5b6000600460009054906101000a90046001600160a01b03166001600160a01b03166318160ddd6040518163ffffffff1660e01b815260040160206040518083038186803b15801561229a57600080fd5b505afa1580156122ae573d6000803e3d6000fd5b505050506040513d60208110156122c457600080fd5b5051905060006122d5868684614142565b905083811015612321576040805162461bcd60e51b81526020600482015260126024820152714552525f52455455524e5f544f4f5f4c4f5760701b604482015290519081900360640190fd5b600480546040805163219e412d60e21b8152339381019390935260248301849052516001600160a01b039091169163867904b491604480830192600092919082900301818387803b15801561237557600080fd5b505af1158015612389573d6000803e3d6000fd5b50506003805460ff60a81b1916905550909695505050505050565b606080845167ffffffffffffffff811180156123bf57600080fd5b506040519080825280602002602001820160405280156123e9578160200160208202803683370190505b5090506000600460009054906101000a90046001600160a01b03166001600160a01b03166318160ddd6040518163ffffffff1660e01b815260040160206040518083038186803b15801561243c57600080fd5b505afa158015612450573d6000803e3d6000fd5b505050506040513d602081101561246657600080fd5b5051905060006124856c42616e636f72466f726d756c6160981b61345d565b90506000816001600160a01b0316632f55bdb584600760008c8c815181106124a957fe5b6020908102919091018101516001600160a01b031682528181019290925260409081016000205460085482516001600160e01b031960e088901b1681526004810195909552602485019190915263ffffffff166044840152606483018b905251608480840193829003018186803b15801561252357600080fd5b505afa158015612537573d6000803e3d6000fd5b505050506040513d602081101561254d57600080fd5b5051905060005b845181101561264457826001600160a01b031663ebbb215885600760008d868151811061257d57fe5b6020908102919091018101516001600160a01b031682528181019290925260409081016000205460085482516001600160e01b031960e088901b1681526004810195909552602485019190915263ffffffff1660448401526064830187905251608480840193829003018186803b1580156125f757600080fd5b505afa15801561260b573d6000803e3d6000fd5b505050506040513d602081101561262157600080fd5b5051855186908390811061263157fe5b6020908102919091010152600101612554565b509293505050505b9392505050565b6000546001600160a01b031681565b600854600160201b900463ffffffff1681565b60065490565b80516000908190815b818110156126b4576126a885828151811061269b57fe5b6020026020010151611fb6565b90920191600101612684565b5060016126c183836129d8565b03600a0a949350505050565b6000806126d8613e65565b846126e281613620565b846126ec81613620565b856001600160a01b0316876001600160a01b0316141561274c576040805162461bcd60e51b815260206004820152601660248201527511549497d4d0535157d4d3d55490d157d5105491d15560521b604482015290519081900360640190fd5b60006127676c42616e636f72466f726d756c6160981b61345d565b6001600160a01b03166394491fab61277e8a613054565b6001600160a01b038b1660009081526007602052604090206001015463ffffffff166127a98b613054565b6001600160a01b038c166000908152600760209081526040918290206001015482516001600160e01b031960e089901b168152600481019690965263ffffffff94851660248701526044860193909352929091166064840152608483018b90525160a480840193829003018186803b15801561282457600080fd5b505afa158015612838573d6000803e3d6000fd5b505050506040513d602081101561284e57600080fd5b50519050600061285d8261416d565b9182900399919850909650505050505050565b606061287a613828565b6003805460ff60a81b1916600160a81b179055612895613e65565b6128a0838386613ead565b6000600460009054906101000a90046001600160a01b03166001600160a01b03166318160ddd6040518163ffffffff1660e01b815260040160206040518083038186803b1580156128f057600080fd5b505afa158015612904573d6000803e3d6000fd5b505050506040513d602081101561291a57600080fd5b5051600480546040805163a24835d160e01b8152339381019390935260248301899052519293506001600160a01b03169163a24835d19160448082019260009290919082900301818387803b15801561297257600080fd5b505af1158015612986573d6000803e3d6000fd5b5050505061299684848388613878565b6003805460ff60a81b1916905595945050505050565b6129b461340a565b600354600280546001600160a01b0319166001600160a01b03909216919091179055565b600081600281048401816129e857fe5b049392505050565b600181565b6005546001600160a01b031681565b6000612a0e613828565b6003805460ff60a81b1916600160a81b179055612a2961419e565b60008051602061552a833981519152600052600760205260008051602061554a83398151915254612a5a90346141de565b60008051602061552a83398151915260009081526007602090815260008051602061554a8339815191529290925560048054604080516318160ddd60e01b8152905193946001600160a01b03909216936318160ddd938281019392829003018186803b158015612ac957600080fd5b505afa158015612add573d6000803e3d6000fd5b505050506040513d6020811015612af357600080fd5b505190506000612b126c42616e636f72466f726d756c6160981b61345d565b60065490915060005b81811015612dfc57600060068281548110612b3257fe5b60009182526020808320909101546001600160a01b03908116808452600783526040808520546008548251631d77642b60e31b8152600481018d90526024810183905263ffffffff9091166044820152606481018e9052915192965094939289169263ebbb215892608480840193829003018186803b158015612bb457600080fd5b505afa158015612bc8573d6000803e3d6000fd5b505050506040513d6020811015612bde57600080fd5b505190506001600160a01b03831660008051602061552a8339815191521415612d295780341115612c3e5760405133903483900380156108fc02916000818181858888f19350505050158015612c38573d6000803e3d6000fd5b50612d24565b80341015612d24573415612c91576040805162461bcd60e51b81526020600482015260156024820152744552525f494e56414c49445f4554485f56414c554560581b604482015290519081900360640190fd5b600854612cb090600160601b90046001600160a01b031633308461422b565b6008600c9054906101000a90046001600160a01b03166001600160a01b0316632e1a7d4d826040518263ffffffff1660e01b815260040180828152602001915050600060405180830381600087803b158015612d0b57600080fd5b505af1158015612d1f573d6000803e3d6000fd5b505050505b612d35565b612d358333308461422b565b6000612d418383614396565b6001600160a01b0385166000908152600760205260408120829055909150612d69898c614396565b604080518581526020810185905280820183905290519192506001600160a01b0387169133917f4a1a2a6176e9646d9e3157f7c2ab3c499f18337c0b0828cfb28e0a61de4a11f7919081900360600190a36001600160a01b038516600090815260076020526040902060010154612deb9082908790859063ffffffff166143df565b505060019093019250612b1b915050565b50600480546040805163219e412d60e21b8152339381019390935260248301889052516001600160a01b039091169163867904b491604480830192600092919082900301818387803b158015612e5157600080fd5b505af1158015612e65573d6000803e3d6000fd5b50506003805460ff60a81b19169055509495945050505050565b612e8761340a565b612e8f61444e565b6004546001906001600160a01b0316612ea6611606565b61ffff167f6b08c2e2c9969e55a647a764db9b554d64dc42f1a704da11a6d5b129ad163f2c60405160405180910390a4565b60068181548110612ee557fe5b6000918252602090912001546001600160a01b0316905081565b600d5481565b6004546001600160a01b031681565b6001546001600160a01b031681565b612f2b61340a565b6000612f50762130b731b7b921b7b73b32b93a32b92ab833b930b232b960491b61345d565b6004549091506000906001600160a01b0316612f6a611606565b61ffff167f6b08c2e2c9969e55a647a764db9b554d64dc42f1a704da11a6d5b129ad163f2c60405160405180910390a4612fa38161337d565b6040805163487ac64b60e11b81526027600482015290516001600160a01b038316916390f58c9691602480830192600092919082900301818387803b158015612feb57600080fd5b505af1158015612fff573d6000803e3d6000fd5b505050506114ce612014565b6007602052600090815260409020805460019091015463ffffffff81169060ff600160201b8204811691650100000000008104821691600160301b9091041685565b6000611383825b60008161306081613620565b50506001600160a01b031660009081526007602052604090205490565b600a54600b5482565b6000613090613828565b6003805460ff60a81b1916600160a81b1790556c42616e636f724e6574776f726b60981b6130bd81613be1565b856001600160a01b0316876001600160a01b0316141561311d576040805162461bcd60e51b815260206004820152601660248201527511549497d4d0535157d4d3d55490d157d5105491d15560521b604482015290519081900360640190fd5b6005546001600160a01b0316158061322a575060055460408051633af32abf60e01b81526001600160a01b03878116600483015291519190921691633af32abf916024808301926020929190829003018186803b15801561317d57600080fd5b505afa158015613191573d6000803e3d6000fd5b505050506040513d60208110156131a757600080fd5b5051801561322a575060055460408051633af32abf60e01b81526001600160a01b03868116600483015291519190921691633af32abf916024808301926020929190829003018186803b1580156131fd57600080fd5b505afa158015613211573d6000803e3d6000fd5b505050506040513d602081101561322757600080fd5b50515b613271576040805162461bcd60e51b815260206004820152601360248201527211549497d393d517d5d2125511531254d51151606a1b604482015290519081900360640190fd5b61327e87878787876144b2565b6003805460ff60a81b19169055979650505050505050565b61329e61340a565b60085463ffffffff600160201b90910481169082161115613306576040805162461bcd60e51b815260206004820152601a60248201527f4552525f494e56414c49445f434f4e56455253494f4e5f464545000000000000604482015290519081900360640190fd5b6008546040805163ffffffff600160401b90930483168152918316602083015280517f81cd2ffb37dd237c0e4e2a3de5265fcf9deb43d3e7801e80db9f1ccfba7ee6009281900390910190a16008805463ffffffff909216600160401b026bffffffff000000000000000019909216919091179055565b61338561340a565b6000546001600160a01b03828116911614156133d9576040805162461bcd60e51b815260206004820152600e60248201526d22a9292fa9a0a6a2afa7aba722a960911b604482015290519081900360640190fd5b600180546001600160a01b0319166001600160a01b0392909216919091179055565b6004546001600160a01b031690565b6000546001600160a01b03163314611570576040805162461bcd60e51b815260206004820152601160248201527011549497d050d0d154d4d7d11153925151607a1b604482015290519081900360640190fd5b60025460408051632ecd14d360e21b81526004810184905290516000926001600160a01b03169163bb34534c916024808301926020929190829003018186803b1580156134a957600080fd5b505afa1580156134bd573d6000803e3d6000fd5b505050506040513d60208110156134d357600080fd5b505192915050565b606080845167ffffffffffffffff811180156134f657600080fd5b50604051908082528060200260200182016040528015613520578160200160208202803683370190505b50905060005b815181101561361657836001600160a01b0316638074590a86600760008a868151811061354f57fe5b6020908102919091018101516001600160a01b031682528181019290925260409081016000205460085482516001600160e01b031960e088901b1681526004810195909552602485019190915263ffffffff166044840152606483018c905251608480840193829003018186803b1580156135c957600080fd5b505afa1580156135dd573d6000803e3d6000fd5b505050506040513d60208110156135f357600080fd5b5051825183908390811061360357fe5b6020908102919091010152600101613526565b5095945050505050565b6001600160a01b038116600090815260076020526040902060010154600160301b900460ff166114ce576040805162461bcd60e51b81526020600482015260136024820152724552525f494e56414c49445f5245534552564560681b604482015290519081900360640190fd5b61369561550f565b6000600c546136a2614775565b039050806136c857505060408051808201909152600a548152600b5460208201526112df565b60006007600060066001815481106136dc57fe5b60009182526020808320909101546001600160a01b0316835282019290925260400181205460068054919350600791839190829061371657fe5b60009182526020808320909101546001600160a01b03168352820192909252604001902054905061025883106137615760408051808201909152918252602082015291506112df9050565b61376961550f565b5060408051808201909152600a548152600b5460208201819052600090613790908561478f565b82519091506000906137a2908561478f565b905060006137c86137b3848961478f565b6137c2846102588b900361478f565b90614396565b905060006137ef6102586137e988886020015161478f90919063ffffffff16565b9061478f565b905061380982826c0c9f2c9cd04674edea400000006147ed565b6040805180820190915291825260208201529850505050505050505090565b600354600160a81b900460ff1615611570576040805162461bcd60e51b815260206004820152600e60248201526d4552525f5245454e5452414e435960901b604482015290519081900360640190fd5b606061388261419e565b600061389d6c42616e636f72466f726d756c6160981b61345d565b905060006138ab85856141de565b905060606138bb858988866134db565b905060005b8851811015613a775760008982815181106138d757fe5b6020026020010151905060008383815181106138ef57fe5b6020026020010151905089838151811061390557fe5b602002602001015181101561395a576040805162461bcd60e51b815260206004820152601660248201527511549497d6915493d7d5105491d15517d05353d5539560521b604482015290519081900360640190fd5b6001600160a01b03821660009081526007602052604081205461397d90836141de565b6001600160a01b038416600081815260076020526040902082905590915060008051602061552a83398151915214156139e357604051339083156108fc029084906000818181858888f193505050501580156139dd573d6000803e3d6000fd5b506139ee565b6139ee83338461481f565b604080518381526020810183905280820188905290516001600160a01b0385169133917fbc7d19d505c7ec4db83f3b51f19fb98c4c8a99922e7839d1ee608dfbee29501b9181900360600190a36001600160a01b038316600090815260076020526040902060010154613a6c9087908590849063ffffffff166143df565b5050506001016138c0565b50979650505050505050565b6001600160a01b0381163014156114ce576040805162461bcd60e51b815260206004820152601360248201527222a9292fa0a2222922a9a9afa4a9afa9a2a62360691b604482015290519081900360640190fd5b613adf61340a565b82613ae98161497f565b82613af38161497f565b83613afd81613a83565b611dbe86868661481f565b80613b1281613620565b6001600160a01b03821660008051602061552a8339815191521415613b51576001600160a01b0382166000908152600760205260409020479055613bdd565b604080516370a0823160e01b815230600482015290516001600160a01b038416916370a08231916024808301926020929190829003018186803b158015613b9757600080fd5b505afa158015613bab573d6000803e3d6000fd5b505050506040513d6020811015613bc157600080fd5b50516001600160a01b0383166000908152600760205260409020555b5050565b613bea8161345d565b6001600160a01b0316336001600160a01b0316146114ce576040805162461bcd60e51b815260206004820152601160248201527011549497d050d0d154d4d7d11153925151607a1b604482015290519081900360640190fd5b613c4b61340a565b613c536149d0565b81613c5d8161497f565b82613c6781613a83565b82613c7181614a17565b6004546001600160a01b03868116911614801590613cb257506001600160a01b038516600090815260076020526040902060010154600160301b900460ff16155b613cf9576040805162461bcd60e51b81526020600482015260136024820152724552525f494e56414c49445f5245534552564560681b604482015290519081900360640190fd5b60085463ffffffff908116620f42400381169085161115613d61576040805162461bcd60e51b815260206004820152601a60248201527f4552525f494e56414c49445f524553455256455f574549474854000000000000604482015290519081900360640190fd5b61ffff613d6c612675565b61ffff1610613dbe576040805162461bcd60e51b815260206004820152601960248201527811549497d253959053125117d49154d154959157d0d3d55395603a1b604482015290519081900360640190fd5b5050506001600160a01b0390911660008181526007602052604081208181556001908101805466ff0000000000001963ffffffff80881663ffffffff199384161791909116600160301b179092556006805493840181559093527ff652222313e28459528d920b65115c16c04f3efc82aaedc97be59f3f377c0d3f90910180546001600160a01b031916909317909255600880548084169094019092169216919091179055565b613e6d6114d1565b611570576040805162461bcd60e51b815260206004820152600c60248201526b4552525f494e41435449564560a01b604482015290519081900360640190fd5b600654835160009182918114613f00576040805162461bcd60e51b81526020600482015260136024820152724552525f494e56414c49445f5245534552564560681b604482015290519081900360640190fd5b84518114613f4a576040805162461bcd60e51b815260206004820152601260248201527111549497d253959053125117d05353d5539560721b604482015290519081900360640190fd5b600092505b808310156140fb5760076000878581518110613f6757fe5b60200260200101516001600160a01b03166001600160a01b0316815260200190815260200160002060010160069054906101000a900460ff16613fe7576040805162461bcd60e51b81526020600482015260136024820152724552525f494e56414c49445f5245534552564560681b604482015290519081900360640190fd5b600091505b808210156140495785828151811061400057fe5b60200260200101516001600160a01b03166006848154811061401e57fe5b6000918252602090912001546001600160a01b0316141561403e57614049565b600190910190613fec565b808210614093576040805162461bcd60e51b81526020600482015260136024820152724552525f494e56414c49445f5245534552564560681b604482015290519081900360640190fd5b60008584815181106140a157fe5b6020026020010151116140f0576040805162461bcd60e51b815260206004820152601260248201527111549497d253959053125117d05353d5539560721b604482015290519081900360640190fd5b600190920191613f4f565b60008411611dbe576040805162461bcd60e51b815260206004820152600f60248201526e11549497d6915493d7d05353d55395608a1b604482015290519081900360640190fd5b60008161415a576141538484614a87565b905061264c565b614165848484614ba6565b949350505050565b60085460009061138390620f424090614198908590600160401b900463ffffffff9081169061478f16565b90614ed3565b60065460005b81811015613bdd576141d6600682815481106141bc57fe5b6000918252602090912001546001600160a01b0316613b08565b6001016141a4565b600081831015614225576040805162461bcd60e51b815260206004820152600d60248201526c4552525f554e444552464c4f5760981b604482015290519081900360640190fd5b50900390565b604080516001600160a01b0385811660248301528481166044830152606480830185905283518084039091018152608490920183526020820180516001600160e01b03166323b872dd60e01b17815292518251600094606094938a169392918291908083835b602083106142b05780518252601f199092019160209182019101614291565b6001836020036101000a0380198251168184511680821785525050505050509050019150506000604051808303816000865af19150503d8060008114614312576040519150601f19603f3d011682016040523d82523d6000602084013e614317565b606091505b5091509150818015614345575080511580614345575080806020019051602081101561434257600080fd5b50515b611dbe576040805162461bcd60e51b815260206004820152601860248201527f4552525f5452414e534645525f46524f4d5f4641494c45440000000000000000604482015290519081900360640190fd5b60008282018381101561264c576040805162461bcd60e51b815260206004820152600c60248201526b4552525f4f564552464c4f5760a01b604482015290519081900360640190fd5b6004546001600160a01b0380851691167f77f29993cf2c084e726f7e802da0719d6a0ade3e204badc7a3ffd57ecb768c2461441d85620f424061478f565b6144308863ffffffff8088169061478f16565b6040805192835260208301919091528051918290030190a350505050565b6001614458612675565b61ffff16116144aa576040805162461bcd60e51b815260206004820152601960248201527811549497d253959053125117d49154d154959157d0d3d55395603a1b604482015290519081900360640190fd5b611570614f32565b60008060006144c28888886126cd565b915091508160001415614515576040805162461bcd60e51b815260206004820152601660248201527511549497d6915493d7d5105491d15517d05353d5539560521b604482015290519081900360640190fd5b61451e87613054565b821061452657fe5b6001600160a01b03881660008051602061552a833981519152141561459857853414614593576040805162461bcd60e51b815260206004820152601760248201527608aa4a4be8aa890be829a9eaa9ca8be9a92a69a82a8869604b1b604482015290519081900360640190fd5b61466f565b341580156146295750856146266145ae8a613054565b604080516370a0823160e01b815230600482015290516001600160a01b038d16916370a08231916024808301926020929190829003018186803b1580156145f457600080fd5b505afa158015614608573d6000803e3d6000fd5b505050506040513d602081101561461e57600080fd5b5051906141de565b10155b61466f576040805162461bcd60e51b815260206004820152601260248201527111549497d253959053125117d05353d5539560721b604482015290519081900360640190fd5b61467888613b08565b6001600160a01b03871660009081526007602052604090205461469b90836141de565b6001600160a01b03881660008181526007602052604090209190915560008051602061552a8339815191521415614708576040516001600160a01b0385169083156108fc029084906000818181858888f19350505050158015614702573d6000803e3d6000fd5b50614713565b61471387858461481f565b60095460ff16801561472d5750614728614775565b600c54105b156147525761473a61368d565b8051600a5560200151600b5561474e614775565b600c555b614760888887898686614ff9565b61476a8888615062565b509695505050505050565b6000600d5460001415614788574261200f565b50600d5490565b60008261479e57506000611383565b828202828482816147ab57fe5b041461264c576040805162461bcd60e51b815260206004820152600c60248201526b4552525f4f564552464c4f5760a01b604482015290519081900360640190fd5b600080828511806147fd57508284115b156148165761480d858585615266565b915091506113fe565b50929391925050565b604080516001600160a01b038481166024830152604480830185905283518084039091018152606490920183526020820180516001600160e01b031663a9059cbb60e01b178152925182516000946060949389169392918291908083835b6020831061489c5780518252601f19909201916020918201910161487d565b6001836020036101000a0380198251168184511680821785525050505050509050019150506000604051808303816000865af19150503d80600081146148fe576040519150601f19603f3d011682016040523d82523d6000602084013e614903565b606091505b5091509150818015614931575080511580614931575080806020019051602081101561492e57600080fd5b50515b614978576040805162461bcd60e51b815260206004820152601360248201527211549497d514905394d1915497d19052531151606a1b604482015290519081900360640190fd5b5050505050565b6001600160a01b0381166114ce576040805162461bcd60e51b81526020600482015260136024820152724552525f494e56414c49445f4144445245535360681b604482015290519081900360640190fd5b6149d86114d1565b15611570576040805162461bcd60e51b815260206004820152600a6024820152694552525f41435449564560b01b604482015290519081900360640190fd5b60008163ffffffff16118015614a365750620f424063ffffffff821611155b6114ce576040805162461bcd60e51b815260206004820152601a60248201527f4552525f494e56414c49445f524553455256455f574549474854000000000000604482015290519081900360640190fd5b600080614a938361267b565b905060005b8451811015614b9e576000858281518110614aaf57fe5b602002602001015190506000858381518110614ac757fe5b6020026020010151905060008051602061552a8339815191526001600160a01b0316826001600160a01b031614614b0457614b048233308461422b565b6001600160a01b0382166000818152600760209081526040918290208490558151848152908101849052808201879052905133917f4a1a2a6176e9646d9e3157f7c2ab3c499f18337c0b0828cfb28e0a61de4a11f7919081900360600190a36001600160a01b038216600090815260076020526040902060010154614b949085908490849063ffffffff166143df565b5050600101614a98565b509392505050565b6000614bb061419e565b60008051602061552a833981519152600052600760205260008051602061554a83398151915254614be190346141de565b60008051602061552a8339815191526000908152600760205260008051602061554a83398151915291909155614c266c42616e636f72466f726d756c6160981b61345d565b90506000614c36828588886152ab565b90506000614c448583614396565b905060005b8751811015614ec7576000888281518110614c6057fe5b6020908102919091018101516001600160a01b038082166000908152600784526040808220546008548251631d77642b60e31b8152600481018f90526024810183905263ffffffff9091166044820152606481018b90529151949650949193928a169263ebbb215892608480840193919291829003018186803b158015614ce657600080fd5b505afa158015614cfa573d6000803e3d6000fd5b505050506040513d6020811015614d1057600080fd5b5051905080614d5f576040805162461bcd60e51b815260206004820152601660248201527511549497d6915493d7d5105491d15517d05353d5539560521b604482015290519081900360640190fd5b898481518110614d6b57fe5b6020026020010151811115614d7c57fe5b6001600160a01b03831660008051602061552a83398151915214614dab57614da68333308461422b565b614e16565b808a8581518110614db857fe5b60200260200101511115614e1657336001600160a01b03166108fc828c8781518110614de057fe5b6020026020010151039081150290604051600060405180830381858888f19350505050158015614e14573d6000803e3d6000fd5b505b6000614e228383614396565b6001600160a01b03851660008181526007602090815260409182902084905581518681529081018490528082018a90529051929350909133917f4a1a2a6176e9646d9e3157f7c2ab3c499f18337c0b0828cfb28e0a61de4a11f7919081900360600190a36001600160a01b038416600090815260076020526040902060010154614eb79087908690849063ffffffff166143df565b505060019092019150614c499050565b50909695505050505050565b6000808211614f1e576040805162461bcd60e51b81526020600482015260126024820152714552525f4449564944455f42595f5a45524f60701b604482015290519081900360640190fd5b6000828481614f2957fe5b04949350505050565b614f3a61340a565b6000614f44612675565b61ffff1611614f96576040805162461bcd60e51b815260206004820152601960248201527811549497d253959053125117d49154d154959157d0d3d55395603a1b604482015290519081900360640190fd5b60048054604080516379ba509760e01b815290516001600160a01b03909216926379ba509792828201926000929082900301818387803b158015614fd957600080fd5b505af1158015614fed573d6000803e3d6000fd5b5050505061157061419e565b600160ff1b811061500657fe5b604080518481526020810184905280820183905290516001600160a01b038087169288821692918a16917f276856b36cbc45526a0ba64f44611557a2a8b68662c5388e9fe6d72e86e1c8cb9181900360600190a4505050505050565b6000600460009054906101000a90046001600160a01b03166001600160a01b03166318160ddd6040518163ffffffff1660e01b815260040160206040518083038186803b1580156150b257600080fd5b505afa1580156150c6573d6000803e3d6000fd5b505050506040513d60208110156150dc57600080fd5b5051905060006150eb84613054565b905060006150f884613054565b6001600160a01b038087166000908152600760205260408082206001908101549389168352908220015492935063ffffffff9182169282169161513f908590859061478f16565b905060006151568663ffffffff8086169061478f16565b604080518481526020810183905281519293506001600160a01b03808c1693908d16927f77f29993cf2c084e726f7e802da0719d6a0ade3e204badc7a3ffd57ecb768c24928290030190a36151ad878a88876143df565b6151b9878987866143df565b604080518881526020810188905263ffffffff86168183015290516001600160a01b038b16917f8a6a7f53b3c8fa1dc4b83e3f1be668c1b251ff8d44cdcb83eb3acec3fec6a788919081900360600190a2604080518881526020810187905263ffffffff85168183015290516001600160a01b038a16917f8a6a7f53b3c8fa1dc4b83e3f1be668c1b251ff8d44cdcb83eb3acec3fec6a788919081900360600190a2505050505050505050565b6000808385141561527d57505060028104806113fe565b838510156152905761480d858585615471565b60008061529e868887615471565b9890975095505050505050565b60008060015b84518110156153785761531b600760008784815181106152cd57fe5b60200260200101516001600160a01b03166001600160a01b031681526020019081526020016000206000015485848151811061530557fe5b602002602001015161478f90919063ffffffff16565b6153666007600088868151811061532e57fe5b60200260200101516001600160a01b03166001600160a01b031681526020019081526020016000206000015486848151811061530557fe5b1015615370578091505b6001016152b1565b50856001600160a01b0316632f55bdb5866007600088868151811061539957fe5b60200260200101516001600160a01b03166001600160a01b0316815260200190815260200160002060000154600860009054906101000a900463ffffffff168786815181106153e457fe5b60200260200101516040518563ffffffff1660e01b8152600401808581526020018481526020018363ffffffff16815260200182815260200194505050505060206040518083038186803b15801561543b57600080fd5b505afa15801561544f573d6000803e3d6000fd5b505050506040513d602081101561546557600080fd5b50519695505050505050565b6000806000836000198161548157fe5b049050808611156154ba57600081600101878161549a57fe5b0460010190508087816154a957fe5b0496508086816154b557fe5b049550505b60006154d18786026154cc8989614396565b6129d8565b9794889003965093945050505050565b6040805160a08101825260008082526020820181905291810182905260608101829052608081019190915290565b60405180604001604052806000815260200160008152509056fe000000000000000000000000eeeeeeeeeeeeeeeeeeeeeeeeeeeeeeeeeeeeeeeeb2084a3e4595ccf007fb44245853374aaf0de960074375e8e0fb334712e94d0ea264697066735822122089c0c3358ca8c545b32bb44e5b659e8ecd8dc9cf301a41360cca2d8fe72d849b64736f6c634300060c0033",
  "immutableReferences": {},
  "source": "// SPDX-License-Identifier: SEE LICENSE IN LICENSE\npragma solidity 0.6.12;\nimport \"../converter/types/liquidity-pool-v1/LiquidityPoolV1Converter.sol\";\n\ncontract TestLiquidityPoolV1Converter is LiquidityPoolV1Converter {\n    uint256 public currentTime;\n\n    constructor(\n        ISmartToken _token,\n        IContractRegistry _registry,\n        uint32 _maxConversionFee\n    )\n        LiquidityPoolV1Converter(_token, _registry, _maxConversionFee)\n        public\n    {\n    }\n\n    function setEtherToken(IEtherToken _etherToken) public {\n        etherToken = _etherToken;\n    }\n\n    function time() internal view override returns (uint256) {\n        return currentTime != 0 ? currentTime : now;\n    }\n\n    function setTime(uint256 _currentTime) public {\n        currentTime = _currentTime;\n    }\n}\n",
  "sourcePath": "/home/lash/src/ext/cic/grassrootseconomics/bancor-contracts/solidity/contracts/helpers/TestLiquidityPoolV1Converter.sol",
  "compiler": {
    "name": "solc",
    "version": "0.6.12+commit.27d51765.Emscripten.clang"
  },
  "schemaVersion": "3.2.3",
  "updatedAt": "2020-11-10T14:20:35.975Z",
  "devdoc": {
    "kind": "dev",
    "methods": {
      "acceptAnchorOwnership()": {
        "details": "accepts ownership of the anchor after an ownership transfer also activates the converter can only be called by the contract owner note that prior to version 28, you should use 'acceptTokenOwnership' instead"
      },
      "acceptOwnership()": {
        "details": "used by a new owner to accept an ownership transfer"
      },
      "acceptTokenOwnership()": {
        "details": "deprecated, backward compatibility"
      },
      "addLiquidity(address[],uint256[],uint256)": {
        "details": "increases the pool's liquidity and mints new shares in the pool to the caller note that prior to version 28, you should use 'fund' instead",
        "params": {
          "_minReturn": "token minimum return-amount",
          "_reserveAmounts": "amount of each reserve token",
          "_reserveTokens": "address of each reserve token"
        },
        "returns": {
          "_0": "amount of pool tokens issued"
        }
      },
      "addLiquidityCost(address[],uint256,uint256)": {
        "details": "given the amount of one of the reserve tokens to add liquidity of, returns the required amount of each one of the other reserve tokens since an empty pool can be funded with any list of non-zero input amounts, this function assumes that the pool is not empty (has already been funded)",
        "params": {
          "_reserveAmount": "amount of the relevant reserve token",
          "_reserveTokenIndex": "index of the relevant reserve token",
          "_reserveTokens": "address of each reserve token"
        },
        "returns": {
          "_0": "the required amount of each one of the reserve tokens"
        }
      },
      "addLiquidityReturn(address,uint256)": {
        "details": "given the amount of one of the reserve tokens to add liquidity of, returns the amount of pool tokens entitled for it since an empty pool can be funded with any list of non-zero input amounts, this function assumes that the pool is not empty (has already been funded)",
        "params": {
          "_reserveAmount": "amount of the reserve token",
          "_reserveToken": "address of the reserve token"
        },
        "returns": {
          "_0": "the amount of pool tokens entitled"
        }
      },
      "addReserve(address,uint32)": {
        "details": "defines a new reserve token for the converter can only be called by the owner while the converter is inactive",
        "params": {
          "_token": "address of the reserve token",
          "_weight": "reserve weight, represented in ppm, 1-1000000"
        }
      },
      "connectorTokenCount()": {
        "details": "deprecated, backward compatibility"
      },
      "connectorTokens(uint256)": {
        "details": "deprecated, backward compatibility"
      },
      "connectors(address)": {
        "details": "deprecated, backward compatibility"
      },
      "convert(address,address,uint256,address,address)": {
        "details": "converts a specific amount of source tokens to target tokens can only be called by the bancor network contract",
        "params": {
          "_amount": "amount of tokens to convert (in units of the source token)",
          "_beneficiary": "wallet to receive the conversion result",
          "_sourceToken": "source ERC20 token",
          "_targetToken": "target ERC20 token",
          "_trader": "address of the caller who executed the conversion"
        },
        "returns": {
          "_0": "amount of tokens received (in units of the target token)"
        }
      },
      "converterType()": {
        "details": "returns the converter type",
        "returns": {
          "_0": "see the converter types in the the main contract doc"
        }
      },
      "decimalLength(uint256)": {
        "details": "returns the number of decimal digits in a given value",
        "params": {
          "_x": "value (assumed positive)"
        },
        "returns": {
          "_0": "the number of decimal digits in the given value"
        }
      },
      "fund(uint256)": {
        "details": "increases the pool's liquidity and mints new shares in the pool to the caller for example, if the caller increases the supply by 10%, then it will cost an amount equal to 10% of each reserve token balance note that starting from version 28, you should use 'addLiquidity' instead",
        "params": {
          "_amount": "amount to increase the supply by (in the pool token)"
        },
        "returns": {
          "_0": "amount of pool tokens issued"
        }
      },
      "geometricMean(uint256[])": {
        "details": "returns the average number of decimal digits in a given list of values",
        "params": {
          "_values": "list of values (each of which assumed positive)"
        },
        "returns": {
          "_0": "the average number of decimal digits in the given list of values"
        }
      },
      "getConnectorBalance(address)": {
        "details": "deprecated, backward compatibility"
      },
      "getReturn(address,address,uint256)": {
        "details": "deprecated, backward compatibility"
      },
      "hasETHReserve()": {
        "details": "checks whether or not the converter has an ETH reserve",
        "returns": {
          "_0": "true if the converter has an ETH reserve, false otherwise"
        }
      },
      "isActive()": {
        "details": "returns true if the converter is active, false otherwise",
        "returns": {
          "_0": "true if the converter is active, false otherwise"
        }
      },
      "isV28OrHigher()": {
        "details": "checks whether or not the converter version is 28 or higher",
        "returns": {
          "_0": "true, since the converter version is 28 or higher"
        }
      },
      "liquidate(uint256)": {
        "details": "decreases the pool's liquidity and burns the caller's shares in the pool for example, if the holder sells 10% of the supply, then they will receive 10% of each reserve token balance in return note that starting from version 28, you should use 'removeLiquidity' instead",
        "params": {
          "_amount": "amount to liquidate (in the pool token)"
        },
        "returns": {
          "_0": "the amount of each reserve token granted for the given amount of pool tokens"
        }
      },
      "recentAverageRate(address)": {
        "details": "returns the recent average rate of 1 `_token` in the other reserve token units note that the rate can only be queried for reserves in a standard pool",
        "params": {
          "_token": "token to get the rate for"
        },
        "returns": {
          "_0": "recent average rate between the reserves (numerator)",
          "_1": "recent average rate between the reserves (denominator)"
        }
      },
      "removeLiquidity(uint256,address[],uint256[])": {
        "details": "decreases the pool's liquidity and burns the caller's shares in the pool note that prior to version 28, you should use 'liquidate' instead",
        "params": {
          "_amount": "token amount",
          "_reserveMinReturnAmounts": "minimum return-amount of each reserve token",
          "_reserveTokens": "address of each reserve token"
        },
        "returns": {
          "_0": "the amount of each reserve token granted for the given amount of pool tokens"
        }
      },
      "removeLiquidityReturn(uint256,address[])": {
        "details": "returns the amount of each reserve token entitled for a given amount of pool tokens",
        "params": {
          "_amount": "amount of pool tokens",
          "_reserveTokens": "address of each reserve token"
        },
        "returns": {
          "_0": "the amount of each reserve token entitled for the given amount of pool tokens"
        }
      },
      "reserveBalance(address)": {
        "details": "returns the reserve's balance note that prior to version 17, you should use 'getConnectorBalance' instead",
        "params": {
          "_reserveToken": "reserve token contract address"
        },
        "returns": {
          "_0": "reserve balance"
        }
      },
      "reserveTokenCount()": {
        "details": "returns the number of reserve tokens defined note that prior to version 17, you should use 'connectorTokenCount' instead",
        "returns": {
          "_0": "number of reserve tokens"
        }
      },
      "reserveWeight(address)": {
        "details": "returns the reserve's weight added in version 28",
        "params": {
          "_reserveToken": "reserve token contract address"
        },
        "returns": {
          "_0": "reserve weight"
        }
      },
      "restoreRegistry()": {
        "details": "restores the previous contract-registry"
      },
      "restrictRegistryUpdate(bool)": {
        "details": "restricts the permission to update the contract-registry",
        "params": {
          "_onlyOwnerCanUpdateRegistry": "indicates whether or not permission is restricted to owner only"
        }
      },
      "roundDiv(uint256,uint256)": {
        "details": "returns the nearest integer to a given quotient",
        "params": {
          "_d": "quotient denominator",
          "_n": "quotient numerator"
        },
        "returns": {
          "_0": "the nearest integer to the given quotient"
        }
      },
      "setConversionFee(uint32)": {
        "details": "updates the current conversion fee can only be called by the contract owner",
        "params": {
          "_conversionFee": "new conversion fee, represented in ppm"
        }
      },
      "setConversionWhitelist(address)": {
        "details": "allows the owner to update & enable the conversion whitelist contract address when set, only addresses that are whitelisted are actually allowed to use the converter note that the whitelist check is actually done by the BancorNetwork contract",
        "params": {
          "_whitelist": "address of a whitelist contract"
        }
      },
      "targetAmountAndFee(address,address,uint256)": {
        "details": "returns the expected target amount of converting one reserve to another along with the fee",
        "params": {
          "_amount": "amount of tokens received from the user",
          "_sourceToken": "contract address of the source reserve token",
          "_targetToken": "contract address of the target reserve token"
        },
        "returns": {
          "_0": "expected target amount",
          "_1": "expected fee"
        }
      },
      "token()": {
        "details": "deprecated since version 28, backward compatibility - use only for earlier versions"
      },
      "transferAnchorOwnership(address)": {
        "details": "transfers the anchor ownership the new owner needs to accept the transfer can only be called by the converter upgrder while the upgrader is the owner note that prior to version 28, you should use 'transferAnchorOwnership' instead",
        "params": {
          "_newOwner": "new token owner"
        }
      },
      "transferOwnership(address)": {
        "details": "allows transferring the contract ownership the new owner still needs to accept the transfer can only be called by the contract owner",
        "params": {
          "_newOwner": "new contract owner"
        }
      },
      "transferTokenOwnership(address)": {
        "details": "deprecated, backward compatibility"
      },
      "updateRegistry()": {
        "details": "updates to the new contract-registry"
      },
      "upgrade()": {
        "details": "upgrades the converter to the latest version can only be called by the owner note that the owner needs to call acceptOwnership on the new converter after the upgrade"
      },
      "withdrawETH(address)": {
        "details": "withdraws ether can only be called by the owner if the converter is inactive or by upgrader contract can only be called after the upgrader contract has accepted the ownership of this contract can only be called if the converter has an ETH reserve",
        "params": {
          "_to": "address to send the ETH to"
        }
      },
      "withdrawFromAnchor(address,address,uint256)": {
        "details": "withdraws tokens held by the anchor and sends them to an account can only be called by the owner",
        "params": {
          "_amount": "amount to withdraw",
          "_to": "account to receive the new amount",
          "_token": "ERC20 token contract address"
        }
      },
      "withdrawTokens(address,address,uint256)": {
        "details": "withdraws tokens held by the converter and sends them to an account can only be called by the owner note that reserve tokens can only be withdrawn by the owner while the converter is inactive unless the owner is the converter upgrader contract",
        "params": {
          "_amount": "amount to withdraw",
          "_to": "account to receive the new amount",
          "_token": "ERC20 token contract address"
        }
      }
    },
    "version": 1
  },
  "userdoc": {
    "kind": "user",
    "methods": {},
    "version": 1
  }
}