{
  "contractName": "TestBancorNetwork",
  "abi": [
    {
      "inputs": [
        {
          "internalType": "uint256",
          "name": "_amount",
          "type": "uint256"
        },
        {
          "internalType": "uint256",
          "name": "_fee",
          "type": "uint256"
        }
      ],
      "stateMutability": "nonpayable",
      "type": "constructor"
    },
    {
      "anonymous": false,
      "inputs": [
        {
          "indexed": true,
          "internalType": "contract IConverterAnchor",
          "name": "_smartToken",
          "type": "address"
        },
        {
          "indexed": true,
          "internalType": "contract IERC20Token",
          "name": "_fromToken",
          "type": "address"
        },
        {
          "indexed": true,
          "internalType": "contract IERC20Token",
          "name": "_toToken",
          "type": "address"
        },
        {
          "indexed": false,
          "internalType": "uint256",
          "name": "_fromAmount",
          "type": "uint256"
        },
        {
          "indexed": false,
          "internalType": "uint256",
          "name": "_toAmount",
          "type": "uint256"
        },
        {
          "indexed": false,
          "internalType": "address",
          "name": "_trader",
          "type": "address"
        }
      ],
      "name": "Conversion",
      "type": "event"
    },
    {
      "anonymous": false,
      "inputs": [
        {
          "indexed": true,
          "internalType": "address",
          "name": "_prevOwner",
          "type": "address"
        },
        {
          "indexed": true,
          "internalType": "address",
          "name": "_newOwner",
          "type": "address"
        }
      ],
      "name": "OwnerUpdate",
      "type": "event"
    },
    {
      "inputs": [],
      "name": "acceptOwnership",
      "outputs": [],
      "stateMutability": "nonpayable",
      "type": "function"
    },
    {
      "inputs": [
        {
          "internalType": "address[]",
          "name": "_path",
          "type": "address[]"
        },
        {
          "internalType": "uint256",
          "name": "_amount",
          "type": "uint256"
        },
        {
          "internalType": "uint256",
          "name": "_minReturn",
          "type": "uint256"
        }
      ],
      "name": "claimAndConvert",
      "outputs": [
        {
          "internalType": "uint256",
          "name": "",
          "type": "uint256"
        }
      ],
      "stateMutability": "nonpayable",
      "type": "function"
    },
    {
      "inputs": [
        {
          "internalType": "address[]",
          "name": "_path",
          "type": "address[]"
        },
        {
          "internalType": "uint256",
          "name": "_amount",
          "type": "uint256"
        },
        {
          "internalType": "uint256",
          "name": "_minReturn",
          "type": "uint256"
        },
        {
          "internalType": "address",
          "name": "_affiliateAccount",
          "type": "address"
        },
        {
          "internalType": "uint256",
          "name": "_affiliateFee",
          "type": "uint256"
        }
      ],
      "name": "claimAndConvert2",
      "outputs": [
        {
          "internalType": "uint256",
          "name": "",
          "type": "uint256"
        }
      ],
      "stateMutability": "nonpayable",
      "type": "function"
    },
    {
      "inputs": [
        {
          "internalType": "address[]",
          "name": "_path",
          "type": "address[]"
        },
        {
          "internalType": "uint256",
          "name": "_amount",
          "type": "uint256"
        },
        {
          "internalType": "uint256",
          "name": "_minReturn",
          "type": "uint256"
        },
        {
          "internalType": "address payable",
          "name": "_beneficiary",
          "type": "address"
        }
      ],
      "name": "claimAndConvertFor",
      "outputs": [
        {
          "internalType": "uint256",
          "name": "",
          "type": "uint256"
        }
      ],
      "stateMutability": "nonpayable",
      "type": "function"
    },
    {
      "inputs": [
        {
          "internalType": "address[]",
          "name": "_path",
          "type": "address[]"
        },
        {
          "internalType": "uint256",
          "name": "_amount",
          "type": "uint256"
        },
        {
          "internalType": "uint256",
          "name": "_minReturn",
          "type": "uint256"
        },
        {
          "internalType": "address payable",
          "name": "_beneficiary",
          "type": "address"
        },
        {
          "internalType": "address",
          "name": "_affiliateAccount",
          "type": "address"
        },
        {
          "internalType": "uint256",
          "name": "_affiliateFee",
          "type": "uint256"
        }
      ],
      "name": "claimAndConvertFor2",
      "outputs": [
        {
          "internalType": "uint256",
          "name": "",
          "type": "uint256"
        }
      ],
      "stateMutability": "nonpayable",
      "type": "function"
    },
    {
      "inputs": [
        {
          "internalType": "address[]",
          "name": "_path",
          "type": "address[]"
        },
        {
          "internalType": "contract IBancorX",
          "name": "_bancorX",
          "type": "address"
        },
        {
          "internalType": "uint256",
          "name": "_conversionId",
          "type": "uint256"
        },
        {
          "internalType": "uint256",
          "name": "_minReturn",
          "type": "uint256"
        },
        {
          "internalType": "address payable",
          "name": "_beneficiary",
          "type": "address"
        }
      ],
      "name": "completeXConversion",
      "outputs": [
        {
          "internalType": "uint256",
          "name": "",
          "type": "uint256"
        }
      ],
      "stateMutability": "nonpayable",
      "type": "function"
    },
    {
      "inputs": [
        {
          "internalType": "contract IERC20Token",
          "name": "_sourceToken",
          "type": "address"
        },
        {
          "internalType": "contract IERC20Token",
          "name": "_targetToken",
          "type": "address"
        }
      ],
      "name": "conversionPath",
      "outputs": [
        {
          "internalType": "address[]",
          "name": "",
          "type": "address[]"
        }
      ],
      "stateMutability": "view",
      "type": "function"
    },
    {
      "inputs": [
        {
          "internalType": "address[]",
          "name": "_path",
          "type": "address[]"
        },
        {
          "internalType": "uint256",
          "name": "_amount",
          "type": "uint256"
        },
        {
          "internalType": "uint256",
          "name": "_minReturn",
          "type": "uint256"
        }
      ],
      "name": "convert",
      "outputs": [
        {
          "internalType": "uint256",
          "name": "",
          "type": "uint256"
        }
      ],
      "stateMutability": "payable",
      "type": "function"
    },
    {
      "inputs": [
        {
          "internalType": "address[]",
          "name": "_path",
          "type": "address[]"
        },
        {
          "internalType": "uint256",
          "name": "_amount",
          "type": "uint256"
        },
        {
          "internalType": "uint256",
          "name": "_minReturn",
          "type": "uint256"
        },
        {
          "internalType": "address",
          "name": "_affiliateAccount",
          "type": "address"
        },
        {
          "internalType": "uint256",
          "name": "_affiliateFee",
          "type": "uint256"
        }
      ],
      "name": "convert2",
      "outputs": [
        {
          "internalType": "uint256",
          "name": "",
          "type": "uint256"
        }
      ],
      "stateMutability": "payable",
      "type": "function"
    },
    {
      "inputs": [
        {
          "internalType": "address[]",
          "name": "_path",
          "type": "address[]"
        },
        {
          "internalType": "uint256",
          "name": "_amount",
          "type": "uint256"
        },
        {
          "internalType": "uint256",
          "name": "_minReturn",
          "type": "uint256"
        },
        {
          "internalType": "address payable",
          "name": "_beneficiary",
          "type": "address"
        },
        {
          "internalType": "address",
          "name": "_affiliateAccount",
          "type": "address"
        },
        {
          "internalType": "uint256",
          "name": "_affiliateFee",
          "type": "uint256"
        }
      ],
      "name": "convertByPath",
      "outputs": [
        {
          "internalType": "uint256",
          "name": "",
          "type": "uint256"
        }
      ],
      "stateMutability": "payable",
      "type": "function"
    },
    {
      "inputs": [
        {
          "internalType": "address[]",
          "name": "_path",
          "type": "address[]"
        },
        {
          "internalType": "uint256",
          "name": "_amount",
          "type": "uint256"
        },
        {
          "internalType": "uint256",
          "name": "_minReturn",
          "type": "uint256"
        },
        {
          "internalType": "address payable",
          "name": "_beneficiary",
          "type": "address"
        }
      ],
      "name": "convertFor",
      "outputs": [
        {
          "internalType": "uint256",
          "name": "",
          "type": "uint256"
        }
      ],
      "stateMutability": "payable",
      "type": "function"
    },
    {
      "inputs": [
        {
          "internalType": "address[]",
          "name": "_path",
          "type": "address[]"
        },
        {
          "internalType": "uint256",
          "name": "_amount",
          "type": "uint256"
        },
        {
          "internalType": "uint256",
          "name": "_minReturn",
          "type": "uint256"
        },
        {
          "internalType": "address payable",
          "name": "_beneficiary",
          "type": "address"
        },
        {
          "internalType": "address",
          "name": "_affiliateAccount",
          "type": "address"
        },
        {
          "internalType": "uint256",
          "name": "_affiliateFee",
          "type": "uint256"
        }
      ],
      "name": "convertFor2",
      "outputs": [
        {
          "internalType": "uint256",
          "name": "",
          "type": "uint256"
        }
      ],
      "stateMutability": "payable",
      "type": "function"
    },
    {
      "inputs": [
        {
          "internalType": "contract IERC20Token",
          "name": "",
          "type": "address"
        }
      ],
      "name": "etherTokens",
      "outputs": [
        {
          "internalType": "bool",
          "name": "",
          "type": "bool"
        }
      ],
      "stateMutability": "view",
      "type": "function"
    },
    {
      "inputs": [
        {
          "internalType": "address[]",
          "name": "_path",
          "type": "address[]"
        },
        {
          "internalType": "uint256",
          "name": "_amount",
          "type": "uint256"
        }
      ],
      "name": "getReturnByPath",
      "outputs": [
        {
          "internalType": "uint256",
          "name": "",
          "type": "uint256"
        },
        {
          "internalType": "uint256",
          "name": "",
          "type": "uint256"
        }
      ],
      "stateMutability": "view",
      "type": "function"
    },
    {
      "inputs": [],
      "name": "maxAffiliateFee",
      "outputs": [
        {
          "internalType": "uint256",
          "name": "",
          "type": "uint256"
        }
      ],
      "stateMutability": "view",
      "type": "function"
    },
    {
      "inputs": [],
      "name": "newOwner",
      "outputs": [
        {
          "internalType": "address",
          "name": "",
          "type": "address"
        }
      ],
      "stateMutability": "view",
      "type": "function"
    },
    {
      "inputs": [],
      "name": "onlyOwnerCanUpdateRegistry",
      "outputs": [
        {
          "internalType": "bool",
          "name": "",
          "type": "bool"
        }
      ],
      "stateMutability": "view",
      "type": "function"
    },
    {
      "inputs": [],
      "name": "owner",
      "outputs": [
        {
          "internalType": "address",
          "name": "",
          "type": "address"
        }
      ],
      "stateMutability": "view",
      "type": "function"
    },
    {
      "inputs": [],
      "name": "prevRegistry",
      "outputs": [
        {
          "internalType": "contract IContractRegistry",
          "name": "",
          "type": "address"
        }
      ],
      "stateMutability": "view",
      "type": "function"
    },
    {
      "inputs": [
        {
          "internalType": "address[]",
          "name": "_path",
          "type": "address[]"
        },
        {
          "internalType": "uint256",
          "name": "_amount",
          "type": "uint256"
        }
      ],
      "name": "rateByPath",
      "outputs": [
        {
          "internalType": "uint256",
          "name": "",
          "type": "uint256"
        }
      ],
      "stateMutability": "view",
      "type": "function"
    },
    {
      "inputs": [
        {
          "internalType": "contract IEtherToken",
          "name": "_token",
          "type": "address"
        },
        {
          "internalType": "bool",
          "name": "_register",
          "type": "bool"
        }
      ],
      "name": "registerEtherToken",
      "outputs": [],
      "stateMutability": "nonpayable",
      "type": "function"
    },
    {
      "inputs": [],
      "name": "registry",
      "outputs": [
        {
          "internalType": "contract IContractRegistry",
          "name": "",
          "type": "address"
        }
      ],
      "stateMutability": "view",
      "type": "function"
    },
    {
      "inputs": [],
      "name": "restoreRegistry",
      "outputs": [],
      "stateMutability": "nonpayable",
      "type": "function"
    },
    {
      "inputs": [
        {
          "internalType": "bool",
          "name": "_onlyOwnerCanUpdateRegistry",
          "type": "bool"
        }
      ],
      "name": "restrictRegistryUpdate",
      "outputs": [],
      "stateMutability": "nonpayable",
      "type": "function"
    },
    {
      "inputs": [
        {
          "internalType": "uint256",
          "name": "_maxAffiliateFee",
          "type": "uint256"
        }
      ],
      "name": "setMaxAffiliateFee",
      "outputs": [],
      "stateMutability": "nonpayable",
      "type": "function"
    },
    {
      "inputs": [
        {
          "internalType": "address",
          "name": "_newOwner",
          "type": "address"
        }
      ],
      "name": "transferOwnership",
      "outputs": [],
      "stateMutability": "nonpayable",
      "type": "function"
    },
    {
      "inputs": [],
      "name": "updateRegistry",
      "outputs": [],
      "stateMutability": "nonpayable",
      "type": "function"
    },
    {
      "inputs": [
        {
          "internalType": "contract IERC20Token",
          "name": "_token",
          "type": "address"
        },
        {
          "internalType": "address",
          "name": "_to",
          "type": "address"
        },
        {
          "internalType": "uint256",
          "name": "_amount",
          "type": "uint256"
        }
      ],
      "name": "withdrawTokens",
      "outputs": [],
      "stateMutability": "nonpayable",
      "type": "function"
    },
    {
      "inputs": [
        {
          "internalType": "address[]",
          "name": "_path",
          "type": "address[]"
        },
        {
          "internalType": "uint256",
          "name": "_amount",
          "type": "uint256"
        },
        {
          "internalType": "uint256",
          "name": "_minReturn",
          "type": "uint256"
        },
        {
          "internalType": "bytes32",
          "name": "_targetBlockchain",
          "type": "bytes32"
        },
        {
          "internalType": "bytes32",
          "name": "_targetAccount",
          "type": "bytes32"
        },
        {
          "internalType": "uint256",
          "name": "_conversionId",
          "type": "uint256"
        }
      ],
      "name": "xConvert",
      "outputs": [
        {
          "internalType": "uint256",
          "name": "",
          "type": "uint256"
        }
      ],
      "stateMutability": "payable",
      "type": "function"
    },
    {
      "inputs": [
        {
          "internalType": "address[]",
          "name": "_path",
          "type": "address[]"
        },
        {
          "internalType": "uint256",
          "name": "_amount",
          "type": "uint256"
        },
        {
          "internalType": "uint256",
          "name": "_minReturn",
          "type": "uint256"
        },
        {
          "internalType": "bytes32",
          "name": "_targetBlockchain",
          "type": "bytes32"
        },
        {
          "internalType": "bytes32",
          "name": "_targetAccount",
          "type": "bytes32"
        },
        {
          "internalType": "uint256",
          "name": "_conversionId",
          "type": "uint256"
        },
        {
          "internalType": "address",
          "name": "_affiliateAccount",
          "type": "address"
        },
        {
          "internalType": "uint256",
          "name": "_affiliateFee",
          "type": "uint256"
        }
      ],
      "name": "xConvert2",
      "outputs": [
        {
          "internalType": "uint256",
          "name": "",
          "type": "uint256"
        }
      ],
      "stateMutability": "payable",
      "type": "function"
    },
    {
      "inputs": [
        {
          "internalType": "contract IConverter",
          "name": "_converter",
          "type": "address"
        }
      ],
      "name": "isV28OrHigherConverterExternal",
      "outputs": [
        {
          "internalType": "bool",
          "name": "",
          "type": "bool"
        }
      ],
      "stateMutability": "view",
      "type": "function"
    },
    {
      "inputs": [],
      "name": "getReturnOld",
      "outputs": [
        {
          "internalType": "uint256",
          "name": "",
          "type": "uint256"
        },
        {
          "internalType": "uint256",
          "name": "",
          "type": "uint256"
        }
      ],
      "stateMutability": "view",
      "type": "function"
    },
    {
      "inputs": [],
      "name": "getReturnNew",
      "outputs": [
        {
          "internalType": "uint256",
          "name": "",
          "type": "uint256"
        },
        {
          "internalType": "uint256",
          "name": "",
          "type": "uint256"
        }
      ],
      "stateMutability": "view",
      "type": "function"
    }
  ],
  "bytecode": "0x60806040526003805460ff60a81b191690556175306004553480156200002457600080fd5b5060405162003d6138038062003d61833981810160405260408110156200004a57600080fd5b508051602090910151600080546001600160a01b03191633179055600180806200007481620001a6565b50600280546001600160a01b039092166001600160a01b03199283168117909155600380549092161790555073eeeeeeeeeeeeeeeeeeeeeeeeeeeeeeeeeeeeeeee60005260056020527fa1829a9003092132f585b6ccdd167c19fe9774dbdea4260287e8a8e8ca8185d7805460ff191660011790556040518290620000f99062000205565b90815260405190819003602001906000f0801580156200011d573d6000803e3d6000fd5b50600660006101000a8154816001600160a01b0302191690836001600160a01b031602179055508181604051620001549062000212565b9182526020820152604080519182900301906000f0801580156200017c573d6000803e3d6000fd5b50600780546001600160a01b0319166001600160a01b039290921691909117905550620002209050565b6001600160a01b03811662000202576040805162461bcd60e51b815260206004820152601360248201527f4552525f494e56414c49445f4144445245535300000000000000000000000000604482015290519081900360640190fd5b50565b60f88062003b5983390190565b6101108062003c5183390190565b61392980620002306000396000f3fe6080604052600436106101ee5760003560e01c806389f9cc611161010d578063c7ba24bc116100a0578063d734fa191161006f578063d734fa1914610c9a578063e57738e514610d25578063f2fde38b14610d48578063f3898a9714610d7b578063f3bc7d2a14610d91576101ee565b8063c7ba24bc14610aee578063c98fefed14610ba1578063cb32564e14610bb7578063d4ee1d9014610c85576101ee565b8063b1e9932b116100dc578063b1e9932b1461089a578063b4a176d31461095c578063b77d239b14610971578063c52173de14610a36576101ee565b806389f9cc61146106e05780638da5cb5b146107ab57806398e95740146107c0578063ab6214ce146107d5576101ee565b80635d732ff21161018557806379ba50971161015457806379ba5097146105d35780637b103999146105e85780637f9c0ecd146105fd5780638077ccf7146106ad576101ee565b80635d732ff2146105355780635e35359e1461054a57806361cd756e1461058d578063699e7546146105be576101ee565b80632978c10e116101c15780632978c10e1461036c5780632fe8a6ad1461045057806349d10b6414610465578063569706eb1461047a576101ee565b8063024c7ec7146101f357806302ef521e1461022157806303613f391461025c5780630c8496cc146102a3575b600080fd5b3480156101ff57600080fd5b5061021f6004803603602081101561021657600080fd5b50351515610dbb565b005b34801561022d57600080fd5b5061021f6004803603604081101561024457600080fd5b506001600160a01b0381351690602001351515610de1565b34801561026857600080fd5b5061028f6004803603602081101561027f57600080fd5b50356001600160a01b0316610e2a565b604080519115158252519081900360200190f35b3480156102af57600080fd5b50610353600480360360408110156102c657600080fd5b810190602081018135600160201b8111156102e057600080fd5b8201836020820111156102f257600080fd5b803590602001918460208302840111600160201b8311171561031357600080fd5b9190808060200260200160405190810160405280939291908181526020018383602002808284376000920191909152509295505091359250610e3d915050565b6040805192835260208301919091528051918290030190f35b34801561037857600080fd5b5061043e600480360360c081101561038f57600080fd5b810190602081018135600160201b8111156103a957600080fd5b8201836020820111156103bb57600080fd5b803590602001918460208302840111600160201b831117156103dc57600080fd5b919080806020026020016040519081016040528093929190818152602001838360200280828437600092019190915250929550508235935050506020810135906001600160a01b03604082013581169160608101359091169060800135610e55565b60408051918252519081900360200190f35b34801561045c57600080fd5b5061028f610e70565b34801561047157600080fd5b5061021f610e80565b61043e600480360360a081101561049057600080fd5b810190602081018135600160201b8111156104aa57600080fd5b8201836020820111156104bc57600080fd5b803590602001918460208302840111600160201b831117156104dd57600080fd5b919080806020026020016040519081016040528093929190818152602001838360200280828437600092019190915250929550508235935050506020810135906001600160a01b036040820135169060600135611088565b34801561054157600080fd5b5061043e6110a3565b34801561055657600080fd5b5061021f6004803603606081101561056d57600080fd5b506001600160a01b038135811691602081013590911690604001356110a9565b34801561059957600080fd5b506105a26110e2565b604080516001600160a01b039092168252519081900360200190f35b3480156105ca57600080fd5b506103536110f1565b3480156105df57600080fd5b5061021f611116565b3480156105f457600080fd5b506105a26111cd565b34801561060957600080fd5b5061043e6004803603604081101561062057600080fd5b810190602081018135600160201b81111561063a57600080fd5b82018360208201111561064c57600080fd5b803590602001918460208302840111600160201b8311171561066d57600080fd5b91908080602002602001604051908101604052809392919081815260200183836020028082843760009201919091525092955050913592506111dc915050565b3480156106b957600080fd5b5061028f600480360360208110156106d057600080fd5b50356001600160a01b03166118f9565b3480156106ec57600080fd5b5061043e600480360360a081101561070357600080fd5b810190602081018135600160201b81111561071d57600080fd5b82018360208201111561072f57600080fd5b803590602001918460208302840111600160201b8311171561075057600080fd5b919080806020026020016040519081016040528093929190818152602001838360200280828437600092019190915250929550506001600160a01b03833581169450602084013593604081013593506060013516905061190e565b3480156107b757600080fd5b506105a2611a85565b3480156107cc57600080fd5b50610353611a94565b61043e600480360360c08110156107eb57600080fd5b810190602081018135600160201b81111561080557600080fd5b82018360208201111561081757600080fd5b803590602001918460208302840111600160201b8311171561083857600080fd5b919080806020026020016040519081016040528093929190818152602001838360200280828437600092019190915250929550508235935050506020810135906001600160a01b03604082013581169160608101359091169060800135611ab1565b3480156108a657600080fd5b5061043e600480360360808110156108bd57600080fd5b810190602081018135600160201b8111156108d757600080fd5b8201836020820111156108e957600080fd5b803590602001918460208302840111600160201b8311171561090a57600080fd5b91908080602002602001604051908101604052809392919081815260200183836020028082843760009201919091525092955050823593505050602081013590604001356001600160a01b0316611ad7565b34801561096857600080fd5b5061021f611af1565b61043e600480360360c081101561098757600080fd5b810190602081018135600160201b8111156109a157600080fd5b8201836020820111156109b357600080fd5b803590602001918460208302840111600160201b831117156109d457600080fd5b919080806020026020016040519081016040528093929190818152602001838360200280828437600092019190915250929550508235935050506020810135906001600160a01b03604082013581169160608101359091169060800135611b1d565b61043e600480360360c0811015610a4c57600080fd5b810190602081018135600160201b811115610a6657600080fd5b820183602082011115610a7857600080fd5b803590602001918460208302840111600160201b83111715610a9957600080fd5b9190808060200260200160405190810160405280939291908181526020018383602002808284376000920191909152509295505082359350505060208101359060408101359060608101359060800135611cf8565b348015610afa57600080fd5b5061043e60048036036060811015610b1157600080fd5b810190602081018135600160201b811115610b2b57600080fd5b820183602082011115610b3d57600080fd5b803590602001918460208302840111600160201b83111715610b5e57600080fd5b9190808060200260200160405190810160405280939291908181526020018383602002808284376000920191909152509295505082359350505060200135611d0b565b61043e600480360360808110156108bd57600080fd5b61043e6004803603610100811015610bce57600080fd5b810190602081018135600160201b811115610be857600080fd5b820183602082011115610bfa57600080fd5b803590602001918460208302840111600160201b83111715610c1b57600080fd5b919080806020026020016040519081016040528093929190818152602001838360200280828437600092019190915250929550508235935050506020810135906040810135906060810135906080810135906001600160a01b0360a0820135169060c00135611d25565b348015610c9157600080fd5b506105a2611e80565b348015610ca657600080fd5b50610cd560048036036040811015610cbd57600080fd5b506001600160a01b0381358116916020013516611e8f565b60408051602080825283518183015283519192839290830191858101910280838360005b83811015610d11578181015183820152602001610cf9565b505050509050019250505060405180910390f35b348015610d3157600080fd5b5061043e600480360360a081101561049057600080fd5b348015610d5457600080fd5b5061021f60048036036020811015610d6b57600080fd5b50356001600160a01b0316611fe3565b61043e60048036036060811015610b1157600080fd5b348015610d9d57600080fd5b5061021f60048036036020811015610db457600080fd5b5035612061565b610dc36120c2565b60038054911515600160a01b0260ff60a01b19909216919091179055565b610de96120c2565b81610df381612117565b82610dfd8161216b565b50506001600160a01b03919091166000908152600560205260409020805460ff1916911515919091179055565b6000610e35826121bf565b90505b919050565b600080610e4a84846111dc565b946000945092505050565b6000610e65878787878787611b1d565b979650505050505050565b600354600160a01b900460ff1681565b6000546001600160a01b0316331480610ea35750600354600160a01b900460ff16155b610ee8576040805162461bcd60e51b815260206004820152601160248201527011549497d050d0d154d4d7d11153925151607a1b604482015290519081900360640190fd5b6000610f066f436f6e7472616374526567697374727960801b6122d6565b6002549091506001600160a01b03808316911614801590610f2f57506001600160a01b03811615155b610f77576040805162461bcd60e51b81526020600482015260146024820152734552525f494e56414c49445f524547495354525960601b604482015290519081900360640190fd5b60006001600160a01b0316816001600160a01b031663bb34534c6f436f6e7472616374526567697374727960801b6040518263ffffffff1660e01b81526004018082815260200191505060206040518083038186803b158015610fd957600080fd5b505afa158015610fed573d6000803e3d6000fd5b505050506040513d602081101561100357600080fd5b50516001600160a01b03161415611058576040805162461bcd60e51b81526020600482015260146024820152734552525f494e56414c49445f524547495354525960601b604482015290519081900360640190fd5b60028054600380546001600160a01b038084166001600160a01b0319928316179092559091169216919091179055565b600061109986868660008787611b1d565b9695505050505050565b60045481565b6110b16120c2565b826110bb81612117565b826110c581612117565b836110cf8161216b565b6110da868686612354565b505050505050565b6003546001600160a01b031681565b600754600090819061110e906001600160a01b03168280806124b4565b915091509091565b6001546001600160a01b03163314611169576040805162461bcd60e51b815260206004820152601160248201527011549497d050d0d154d4d7d11153925151607a1b604482015290519081900360640190fd5b600154600080546040516001600160a01b0393841693909116917f343765429aea5a34b3ff6a3785a98a5abb2597aca87bfbb58632c173d585373a91a360018054600080546001600160a01b03199081166001600160a01b03841617909155169055565b6002546001600160a01b031681565b6000806000806000806000806112016c42616e636f72466f726d756c6160981b6122d6565b905088965060028a51118015611222575060028a518161121d57fe5b066001145b611266576040805162461bcd60e51b815260206004820152601060248201526f08aa4a4be929cac82989288bea082a8960831b604482015290519081900360640190fd5b60025b8a518110156118e85760008b600283038151811061128357fe5b6020026020010151905060008c600184038151811061129e57fe5b6020026020010151905060008d84815181106112b657fe5b60200260200101519050816001600160a01b0316638da5cb5b6040518163ffffffff1660e01b815260040160206040518083038186803b1580156112f957600080fd5b505afa15801561130d573d6000803e3d6000fd5b505050506040513d602081101561132357600080fd5b505195506113318684612628565b925061133d8682612628565b9050816001600160a01b0316816001600160a01b0316141561162a57600384108061139057508d600385038151811061137257fe5b60200260200101516001600160a01b0316826001600160a01b031614155b156113fd57816001600160a01b03166318160ddd6040518163ffffffff1660e01b815260040160206040518083038186803b1580156113ce57600080fd5b505afa1580156113e2573d6000803e3d6000fd5b505050506040513d60208110156113f857600080fd5b505198505b856001600160a01b031663d8959512846040518263ffffffff1660e01b815260040180826001600160a01b0316815260200191505060206040518083038186803b15801561144a57600080fd5b505afa15801561145e573d6000803e3d6000fd5b505050506040513d602081101561147457600080fd5b505160408051630e53aae960e01b81526001600160a01b0386811660048301529151929a5090881691630e53aae99160248082019260a092909190829003018186803b1580156114c357600080fd5b505afa1580156114d7573d6000803e3d6000fd5b505050506040513d60a08110156114ed57600080fd5b506020908101516040805163799287f160e11b8152600481018d9052602481018c905263ffffffff83166044820152606481018f905290519199506001600160a01b0388169263f3250fe292608480840193829003018186803b15801561155357600080fd5b505afa158015611567573d6000803e3d6000fd5b505050506040513d602081101561157d57600080fd5b505160408051632bce69e560e11b81529051919c5061161291620f42409161160c916001600160a01b038b169163579cd3ca916004808301926020929190829003018186803b1580156115cf57600080fd5b505afa1580156115e3573d6000803e3d6000fd5b505050506040513d60208110156115f957600080fd5b50518e9063ffffffff9081169061268816565b906126e6565b9a8b90039a9950611623898c612745565b98506118dd565b816001600160a01b0316836001600160a01b031614156118cb57600384108061167b57508d600385038151811061165d57fe5b60200260200101516001600160a01b0316826001600160a01b031614155b156116e857816001600160a01b03166318160ddd6040518163ffffffff1660e01b815260040160206040518083038186803b1580156116b957600080fd5b505afa1580156116cd573d6000803e3d6000fd5b505050506040513d60208110156116e357600080fd5b505198505b856001600160a01b031663d8959512826040518263ffffffff1660e01b815260040180826001600160a01b0316815260200191505060206040518083038186803b15801561173557600080fd5b505afa158015611749573d6000803e3d6000fd5b505050506040513d602081101561175f57600080fd5b505160408051630e53aae960e01b81526001600160a01b0384811660048301529151929a5090881691630e53aae99160248082019260a092909190829003018186803b1580156117ae57600080fd5b505afa1580156117c2573d6000803e3d6000fd5b505050506040513d60a08110156117d857600080fd5b5060209081015160408051633b6785ab60e11b8152600481018d9052602481018c905263ffffffff83166044820152606481018f905290519199506001600160a01b038816926376cf0b5692608480840193829003018186803b15801561183e57600080fd5b505afa158015611852573d6000803e3d6000fd5b505050506040513d602081101561186857600080fd5b505160408051632bce69e560e11b81529051919c506118ba91620f42409161160c916001600160a01b038b169163579cd3ca916004808301926020929190829003018186803b1580156115cf57600080fd5b9a8b90039a9950611623898c61278e565b6118d78684838e6124b4565b909b5099505b505050600201611269565b509596505050505050505b92915050565b60056020526000908152604090205460ff1681565b6000846001600160a01b031663fc0c546a6040518163ffffffff1660e01b815260040160206040518083038186803b15801561194957600080fd5b505afa15801561195d573d6000803e3d6000fd5b505050506040513d602081101561197357600080fd5b505186516001600160a01b0390911690879060009061198e57fe5b60200260200101516001600160a01b0316146119f1576040805162461bcd60e51b815260206004820152601860248201527f4552525f494e56414c49445f534f555243455f544f4b454e0000000000000000604482015290519081900360640190fd5b6000856001600160a01b031663aafd6b7686336040518363ffffffff1660e01b815260040180838152602001826001600160a01b031681526020019250505060206040518083038186803b158015611a4857600080fd5b505afa158015611a5c573d6000803e3d6000fd5b505050506040513d6020811015611a7257600080fd5b50519050610e6587828686600080611b1d565b6000546001600160a01b031681565b600654600090819061110e906001600160a01b03168280806124b4565b600084611abd816127db565b611acb888888888888611b1d565b98975050505050505050565b6000611ae885858585600080611b1d565b95945050505050565b611af96120c2565b600354600280546001600160a01b0319166001600160a01b03909216919091179055565b6000611b27612821565b6003805460ff60a81b1916600160a81b17905584611b44816127db565b60028851118015611b6057506002885181611b5b57fe5b066001145b611ba4576040805162461bcd60e51b815260206004820152601060248201526f08aa4a4be929cac82989288bea082a8960831b604482015290519081900360640190fd5b611bd788600081518110611bb457fe5b602002602001015189600181518110611bc957fe5b602002602001015189612871565b60006001600160a01b038516611c3b578315611c36576040805162461bcd60e51b81526020600482015260196024820152784552525f494e56414c49445f414646494c494154455f46454560381b604482015290519081900360640190fd5b611c9e565b836000108015611c4d57506004548411155b611c9a576040805162461bcd60e51b81526020600482015260196024820152784552525f494e56414c49445f414646494c494154455f46454560381b604482015290519081900360640190fd5b5060015b336001600160a01b03871615611cb15750855b6060611cbe8b8385612a5c565b90506000611ccf828c8c8b8b612e59565b9050611cdc82828561332d565b6003805460ff60a81b191690559b9a5050505050505050505050565b6000610e65878787878787600080611d25565b6000611d1d8484846000806000611b1d565b949350505050565b600086611d31816127db565b60008a60018c510381518110611d4357fe5b602002602001015190506000611d6266084c2dcc6dee4b60cb1b6122d6565b9050611d786721272a2a37b5b2b760c11b6122d6565b6001600160a01b0316826001600160a01b031614611ddd576040805162461bcd60e51b815260206004820152601860248201527f4552525f494e56414c49445f5441524745545f544f4b454e0000000000000000604482015290519081900360640190fd5b6000611ded8d8d8d308b8b611b1d565b9050611dfa83838361340b565b6040805163109f00dd60e21b8152600481018c9052602481018b905260448101839052606481018a905290516001600160a01b0384169163427c037491608480830192600092919082900301818387803b158015611e5757600080fd5b505af1158015611e6b573d6000803e3d6000fd5b50929f9e505050505050505050505050505050565b6001546001600160a01b031681565b60606000611eb37321b7b73b32b939b4b7b72830ba342334b73232b960611b6122d6565b9050806001600160a01b031663a1c421cd85856040518363ffffffff1660e01b815260040180836001600160a01b03168152602001826001600160a01b031681526020019250505060006040518083038186803b158015611f1357600080fd5b505afa158015611f27573d6000803e3d6000fd5b505050506040513d6000823e601f3d908101601f191682016040526020811015611f5057600080fd5b8101908080516040519392919084600160201b821115611f6f57600080fd5b908301906020820185811115611f8457600080fd5b82518660208202830111600160201b82111715611fa057600080fd5b82525081516020918201928201910280838360005b83811015611fcd578181015183820152602001611fb5565b5050505090500160405250505091505092915050565b611feb6120c2565b6000546001600160a01b038281169116141561203f576040805162461bcd60e51b815260206004820152600e60248201526d22a9292fa9a0a6a2afa7aba722a960911b604482015290519081900360640190fd5b600180546001600160a01b0319166001600160a01b0392909216919091179055565b6120696120c2565b620f42408111156120bd576040805162461bcd60e51b81526020600482015260196024820152784552525f494e56414c49445f414646494c494154455f46454560381b604482015290519081900360640190fd5b600455565b6000546001600160a01b03163314612115576040805162461bcd60e51b815260206004820152601160248201527011549497d050d0d154d4d7d11153925151607a1b604482015290519081900360640190fd5b565b6001600160a01b038116612168576040805162461bcd60e51b81526020600482015260136024820152724552525f494e56414c49445f4144445245535360681b604482015290519081900360640190fd5b50565b6001600160a01b038116301415612168576040805162461bcd60e51b815260206004820152601360248201527222a9292fa0a2222922a9a9afa4a9afa9a2a62360691b604482015290519081900360640190fd5b60408051600481526024810182526020810180516001600160e01b031663349814a760e21b1781529151815160009384926060926001600160a01b03881692610fa0928792909182918083835b6020831061222b5780518252601f19909201916020918201910161220c565b6001836020036101000a0380198251168184511680821785525050505050509050019150506000604051808303818686fa925050503d806000811461228c576040519150601f19603f3d011682016040523d82523d6000602084013e612291565b606091505b50915091508180156122a4575080516020145b156122cb578080602001905160208110156122be57600080fd5b50519350610e3892505050565b506000949350505050565b60025460408051632ecd14d360e21b81526004810184905290516000926001600160a01b03169163bb34534c916024808301926020929190829003018186803b15801561232257600080fd5b505afa158015612336573d6000803e3d6000fd5b505050506040513d602081101561234c57600080fd5b505192915050565b604080516001600160a01b038481166024830152604480830185905283518084039091018152606490920183526020820180516001600160e01b031663a9059cbb60e01b178152925182516000946060949389169392918291908083835b602083106123d15780518252601f1990920191602091820191016123b2565b6001836020036101000a0380198251168184511680821785525050505050509050019150506000604051808303816000865af19150503d8060008114612433576040519150601f19603f3d011682016040523d82523d6000602084013e612438565b606091505b5091509150818015612466575080511580612466575080806020019051602081101561246357600080fd5b50515b6124ad576040805162461bcd60e51b815260206004820152601360248201527211549497d514905394d1915497d19052531151606a1b604482015290519081900360640190fd5b5050505050565b604080516001600160a01b0380861660248301528085166044830152606480830185905283518084039091018152608490920183526020820180516001600160e01b03166303c2803f60e31b178152925182516000948594938593606093918c169286928291908083835b6020831061253e5780518252601f19909201916020918201910161251f565b6001836020036101000a038019825116818451168082178552505050505050905001915050600060405180830381855afa9150503d806000811461259e576040519150601f19603f3d011682016040523d82523d6000602084013e6125a3565b606091505b50915091508115612614578051604014156125e4578080602001905160408110156125cd57600080fd5b508051602090910151909550935061261f92505050565b8051602014156126145780806020019051602081101561260357600080fd5b505194506000935061261f92505050565b600080945094505050505b94509492505050565b6001600160a01b03811660009081526005602052604081205460ff1661264f5750806118f3565b612658836121bf565b15612678575073eeeeeeeeeeeeeeeeeeeeeeeeeeeeeeeeeeeeeeee6118f3565b612681836134b5565b9392505050565b600082612697575060006118f3565b828202828482816126a457fe5b0414612681576040805162461bcd60e51b815260206004820152600c60248201526b4552525f4f564552464c4f5760a01b604482015290519081900360640190fd5b6000808211612731576040805162461bcd60e51b81526020600482015260126024820152714552525f4449564944455f42595f5a45524f60701b604482015290519081900360640190fd5b600082848161273c57fe5b04949350505050565b600082820183811015612681576040805162461bcd60e51b815260206004820152600c60248201526b4552525f4f564552464c4f5760a01b604482015290519081900360640190fd5b6000818310156127d5576040805162461bcd60e51b815260206004820152600d60248201526c4552525f554e444552464c4f5760981b604482015290519081900360640190fd5b50900390565b60008111612168576040805162461bcd60e51b815260206004820152600e60248201526d4552525f5a45524f5f56414c554560901b604482015290519081900360640190fd5b600354600160a81b900460ff1615612115576040805162461bcd60e51b815260206004820152600e60248201526d4552525f5245454e5452414e435960901b604482015290519081900360640190fd5b6000826001600160a01b0316638da5cb5b6040518163ffffffff1660e01b815260040160206040518083038186803b1580156128ac57600080fd5b505afa1580156128c0573d6000803e3d6000fd5b505050506040513d60208110156128d657600080fd5b5051905060006128e5826121bf565b905034156129a857823414612941576040805162461bcd60e51b815260206004820152601760248201527f4552525f4554485f414d4f554e545f4d49534d41544348000000000000000000604482015290519081900360640190fd5b806129a35761294f826134b5565b6001600160a01b031663d0e30db0346040518263ffffffff1660e01b81526004016000604051808303818588803b15801561298957600080fd5b505af115801561299d573d6000803e3d6000fd5b50505050505b6124ad565b6001600160a01b03851660009081526005602052604090205460ff1615612a3e576129d5853330866135f4565b80156129a357846001600160a01b0316632e1a7d4d846040518263ffffffff1660e01b815260040180828152602001915050600060405180830381600087803b158015612a2157600080fd5b505af1158015612a35573d6000803e3d6000fd5b505050506124ad565b8015612a50576129a3853384866135f4565b6124ad853330866135f4565b6060806002855181612a6a57fe5b0467ffffffffffffffff81118015612a8157600080fd5b50604051908082528060200260200182016040528015612abb57816020015b612aa86138b7565b815260200190600190039081612aa05790505b509050600080612ad56721272a2a37b5b2b760c11b6122d6565b905060005b6001885103811015612c69576000888260010181518110612af757fe5b602002602001015190506000816001600160a01b0316638da5cb5b6040518163ffffffff1660e01b815260040160206040518083038186803b158015612b3c57600080fd5b505afa158015612b50573d6000803e3d6000fd5b505050506040513d6020811015612b6657600080fd5b50518a519091506000908b9060028601908110612b7f57fe5b602002602001015190506000898015612b96575086155b8015612bb35750856001600160a01b0316826001600160a01b0316145b90508015612bc057600196505b6040518060e00160405280846001600160a01b03168152602001856001600160a01b031681526020018d8781518110612bf557fe5b60200260200101516001600160a01b03168152602001836001600160a01b0316815260200160006001600160a01b03168152602001612c33856121bf565b15158152821515602090910152886002870481518110612c4f57fe5b602002602001018190525050505050600281019050612ada565b612c716138b7565b84600081518110612c7e57fe5b6020908102919091018101516040808201516001600160a01b0316600090815260059093529091205490915060ff1615612cf5578060a0015115612cdb5773eeeeeeeeeeeeeeeeeeeeeeeeeeeeeeeeeeeeeeee6040820152612cf5565b8051612ce6906134b5565b6001600160a01b031660408201525b84600186510381518110612d0557fe5b60209081029190910181015160608101516001600160a01b03166000908152600590925260409091205490915060ff1615612d7d578060a0015115612d635773eeeeeeeeeeeeeeeeeeeeeeeeeeeeeeeeeeeeeeee6060820152612d7d565b8051612d6e906134b5565b6001600160a01b031660608201525b600091505b8451821015612e4c57848281518110612d9757fe5b602002602001015190508060a0015115612e3a578060c0015115612dc057306080820152612e35565b6001855103821415612de0576001600160a01b0388166080820152612e35565b848260010181518110612def57fe5b602002602001015160a0015115612e2e57848260010181518110612e0f57fe5b6020908102919091010151516001600160a01b03166080820152612e35565b3060808201525b612e41565b3060808201525b600190910190612d82565b5092979650505050505050565b60008085815b88518110156132d757612e706138b7565b898281518110612e7c57fe5b602002602001015190508060a0015115612f0e578115801590612eca5750306001600160a01b03168a6001840381518110612eb357fe5b6020026020010151608001516001600160a01b0316145b8015612ef157506040808201516001600160a01b031660009081526005602052205460ff16155b15612f0957612f098160400151826000015185612354565b612f42565b80602001516001600160a01b031681604001516001600160a01b031614612f4257612f42816040015182600001518561340b565b8060a00151612fea57805160408083015160608401518251635e5144eb60e01b81526001600160a01b039283166004820152908216602482015260448101879052600160648201529151921691635e5144eb916084808201926020929091908290030181600087803b158015612fb757600080fd5b505af1158015612fcb573d6000803e3d6000fd5b505050506040513d6020811015612fe157600080fd5b50519350613155565b6040808201516001600160a01b031660009081526005602052205460ff16156130af57805160408083015160608401516080850151835163e8dc12ff60e01b81526001600160a01b03938416600482015291831660248301526044820188905233606483015282166084820152915192169163e8dc12ff91349160a480830192602092919082900301818588803b15801561308457600080fd5b505af1158015613098573d6000803e3d6000fd5b50505050506040513d6020811015612fe157600080fd5b805160408083015160608401516080850151835163e8dc12ff60e01b81526001600160a01b03938416600482015291831660248301526044820188905233606483015282166084820152915192169163e8dc12ff9160a4808201926020929091908290030181600087803b15801561312657600080fd5b505af115801561313a573d6000803e3d6000fd5b505050506040513d602081101561315057600080fd5b505193505b8060c0015115613251576000613172620f424061160c878a612688565b905081606001516001600160a01b031663a9059cbb89836040518363ffffffff1660e01b815260040180836001600160a01b0316815260200182815260200192505050602060405180830381600087803b1580156131cf57600080fd5b505af11580156131e3573d6000803e3d6000fd5b505050506040513d60208110156131f957600080fd5b505161324c576040805162461bcd60e51b815260206004820152601760248201527f4552525f4645455f5452414e534645525f4641494c4544000000000000000000604482015290519081900360640190fd5b909303925b80606001516001600160a01b031681604001516001600160a01b031682602001516001600160a01b03167f7154b38b5dd31bb3122436a96d4e09aba5b323ae1fd580025fab55074334c09586883360405180848152602001838152602001826001600160a01b03168152602001935050505060405180910390a450829150600101612e5f565b5085821015613322576040805162461bcd60e51b81526020600482015260126024820152714552525f52455455524e5f544f4f5f4c4f5760701b604482015290519081900360640190fd5b509695505050505050565b6133356138b7565b8360018551038151811061334557fe5b60200260200101519050306001600160a01b031681608001516001600160a01b0316146133725750613406565b60608101516001600160a01b03811660009081526005602052604090205460ff16156133fb578160a00151156133a457fe5b806001600160a01b031663205c287884866040518363ffffffff1660e01b815260040180836001600160a01b0316815260200182815260200192505050600060405180830381600087803b158015612a2157600080fd5b6124ad818486612354565b505050565b60408051636eb1769f60e11b81523060048201526001600160a01b038481166024830152915160009286169163dd62ed3e916044808301926020929190829003018186803b15801561345c57600080fd5b505afa158015613470573d6000803e3d6000fd5b505050506040513d602081101561348657600080fd5b50519050818110156134af5780156134a4576134a48484600061375f565b6134af84848461375f565b50505050565b600080826001600160a01b03166371f52bf36040518163ffffffff1660e01b815260040160206040518083038186803b1580156134f157600080fd5b505afa158015613505573d6000803e3d6000fd5b505050506040513d602081101561351b57600080fd5b505161ffff16905060005b818110156135d7576000846001600160a01b03166319b64015836040518263ffffffff1660e01b81526004018082815260200191505060206040518083038186803b15801561357457600080fd5b505afa158015613588573d6000803e3d6000fd5b505050506040513d602081101561359e57600080fd5b50516001600160a01b03811660009081526005602052604090205490915060ff16156135ce579250610e38915050565b50600101613526565b5073eeeeeeeeeeeeeeeeeeeeeeeeeeeeeeeeeeeeeeee9392505050565b604080516001600160a01b0385811660248301528481166044830152606480830185905283518084039091018152608490920183526020820180516001600160e01b03166323b872dd60e01b17815292518251600094606094938a169392918291908083835b602083106136795780518252601f19909201916020918201910161365a565b6001836020036101000a0380198251168184511680821785525050505050509050019150506000604051808303816000865af19150503d80600081146136db576040519150601f19603f3d011682016040523d82523d6000602084013e6136e0565b606091505b509150915081801561370e57508051158061370e575080806020019051602081101561370b57600080fd5b50515b6110da576040805162461bcd60e51b815260206004820152601860248201527f4552525f5452414e534645525f46524f4d5f4641494c45440000000000000000604482015290519081900360640190fd5b604080516001600160a01b038481166024830152604480830185905283518084039091018152606490920183526020820180516001600160e01b031663095ea7b360e01b178152925182516000946060949389169392918291908083835b602083106137dc5780518252601f1990920191602091820191016137bd565b6001836020036101000a0380198251168184511680821785525050505050509050019150506000604051808303816000865af19150503d806000811461383e576040519150601f19603f3d011682016040523d82523d6000602084013e613843565b606091505b5091509150818015613871575080511580613871575080806020019051602081101561386e57600080fd5b50515b6124ad576040805162461bcd60e51b815260206004820152601260248201527111549497d054141493d59157d1905253115160721b604482015290519081900360640190fd5b6040805160e081018252600080825260208201819052918101829052606081018290526080810182905260a0810182905260c08101919091529056fea26469706673582212206bc632095120d9eab122409a35946a0da396e610939a22069cc1d4aacf0bf78e64736f6c634300060c0033608060405234801561001057600080fd5b506040516100f83803806100f88339818101604052602081101561003357600080fd5b505160005560b2806100466000396000f3fe6080604052348015600f57600080fd5b506004361060285760003560e01c80631e1401f814602d575b600080fd5b606060048036036060811015604157600080fd5b506001600160a01b038135811691602081013590911690604001356072565b60408051918252519081900360200190f35b600054939250505056fea26469706673582212207c43635e931afa21ef81297c792f7a4cc5aa436ebccb817a64a2497d123f8ef064736f6c634300060c0033608060405234801561001057600080fd5b506040516101103803806101108339818101604052604081101561003357600080fd5b50805160209091015160009190915560015560bd806100536000396000f3fe6080604052348015600f57600080fd5b506004361060285760003560e01c80631e1401f814602d575b600080fd5b606060048036036060811015604157600080fd5b506001600160a01b038135811691602081013590911690604001356079565b6040805192835260208301919091528051918290030190f35b60005460015493509391505056fea2646970667358221220fe4ef50b70249f4da4a3db7d08718bc5922920750927fef0c67f0f4fe0c95c3964736f6c634300060c0033",
  "immutableReferences": {},
  "source": "// SPDX-License-Identifier: SEE LICENSE IN LICENSE\npragma solidity 0.6.12;\nimport \"../BancorNetwork.sol\";\n\ncontract OldConverter {\n    uint256 private amount;\n\n    constructor(uint256 _amount) public {\n        amount = _amount;\n    }\n\n    function getReturn(IERC20Token _sourceToken, IERC20Token _targetToken, uint256 _amount) external view returns (uint256) {\n        _sourceToken;\n        _targetToken;\n        _amount;\n        return (amount);\n    }\n}\n\ncontract NewConverter {\n    uint256 private amount;\n    uint256 private fee;\n\n    constructor(uint256 _amount, uint256 _fee) public {\n        amount = _amount;\n        fee = _fee;\n    }\n\n    function getReturn(IERC20Token _sourceToken, IERC20Token _targetToken, uint256 _amount) external view returns (uint256, uint256) {\n        _sourceToken;\n        _targetToken;\n        _amount;\n        return (amount, fee);\n    }\n}\n\ncontract ConverterV27OrLowerWithoutFallback {\n}\n\ncontract ConverterV27OrLowerWithFallback {\n    receive() external payable {\n    }\n}\n\ncontract ConverterV28OrHigherWithoutFallback {\n    function isV28OrHigher() public pure returns (bool) {\n        return true;\n    }\n}\n\ncontract ConverterV28OrHigherWithFallback {\n    function isV28OrHigher() public pure returns (bool) {\n        return true;\n    }\n\n    receive() external payable {\n        revert();\n    }\n}\n\ncontract TestBancorNetwork is BancorNetwork {\n    OldConverter private oldConverter;\n    NewConverter private newConverter;\n\n    constructor(uint256 _amount, uint256 _fee) public BancorNetwork(IContractRegistry(address(1))) {\n        oldConverter = new OldConverter(_amount);\n        newConverter = new NewConverter(_amount, _fee);\n    }\n\n    function isV28OrHigherConverterExternal(IConverter _converter) external view returns (bool) {\n        return super.isV28OrHigherConverter(_converter);\n    }\n\n    function getReturnOld() external view returns (uint256, uint256) {\n        return getReturn(IConverter(payable(address(oldConverter))), IERC20Token(0), IERC20Token(0), uint256(0));\n    }\n\n    function getReturnNew() external view returns (uint256, uint256) {\n        return getReturn(IConverter(payable(address(newConverter))), IERC20Token(0), IERC20Token(0), uint256(0));\n    }\n}\n",
  "sourcePath": "/home/lash/src/ext/cic/grassrootseconomics/bancor-contracts/solidity/contracts/helpers/TestBancorNetwork.sol",
  "compiler": {
    "name": "solc",
    "version": "0.6.12+commit.27d51765.Emscripten.clang"
  },
  "schemaVersion": "3.2.3",
  "updatedAt": "2020-10-20T08:24:47.802Z",
  "devdoc": {
    "kind": "dev",
    "methods": {
      "acceptOwnership()": {
        "details": "used by a new owner to accept an ownership transfer"
      },
      "claimAndConvert(address[],uint256,uint256)": {
        "details": "deprecated, backward compatibility"
      },
      "claimAndConvert2(address[],uint256,uint256,address,uint256)": {
        "details": "deprecated, backward compatibility"
      },
      "claimAndConvertFor(address[],uint256,uint256,address)": {
        "details": "deprecated, backward compatibility"
      },
      "claimAndConvertFor2(address[],uint256,uint256,address,address,uint256)": {
        "details": "deprecated, backward compatibility"
      },
      "completeXConversion(address[],address,uint256,uint256,address)": {
        "details": "allows a user to convert a token that was sent from another blockchain into any other token on the BancorNetwork ideally this transaction is created before the previous conversion is even complete, so so the input amount isn't known at that point - the amount is actually take from the BancorX contract directly by specifying the conversion id",
        "params": {
          "_bancorX": "address of the BancorX contract for the source token",
          "_beneficiary": "wallet to receive the conversion result",
          "_conversionId": "pre-determined unique (if non zero) id which refers to this conversion",
          "_minReturn": "if the conversion results in an amount smaller than the minimum return - it is cancelled, must be nonzero",
          "_path": "conversion path"
        },
        "returns": {
          "_0": "amount of tokens received from the conversion"
        }
      },
      "conversionPath(address,address)": {
        "details": "returns the conversion path between two tokens in the network note that this method is quite expensive in terms of gas and should generally be called off-chain",
        "params": {
          "_sourceToken": "source token address",
          "_targetToken": "target token address"
        },
        "returns": {
          "_0": "conversion path between the two tokens"
        }
      },
      "convert(address[],uint256,uint256)": {
        "details": "deprecated, backward compatibility"
      },
      "convert2(address[],uint256,uint256,address,uint256)": {
        "details": "deprecated, backward compatibility"
      },
      "convertByPath(address[],uint256,uint256,address,address,uint256)": {
        "details": "converts the token to any other token in the bancor network by following a predefined conversion path and transfers the result tokens to a target account affiliate account/fee can also be passed in to receive a conversion fee (on top of the liquidity provider fees) note that the network should already have been given allowance of the source token (if not ETH)",
        "params": {
          "_affiliateAccount": "wallet address to receive the affiliate fee or 0x0 to disable affiliate fee",
          "_affiliateFee": "affiliate fee in PPM or 0 to disable affiliate fee",
          "_amount": "amount to convert from, in the source token",
          "_beneficiary": "account that will receive the conversion result or 0x0 to send the result to the sender account",
          "_minReturn": "if the conversion results in an amount smaller than the minimum return - it is cancelled, must be greater than zero",
          "_path": "conversion path, see conversion path format above"
        },
        "returns": {
          "_0": "amount of tokens received from the conversion"
        }
      },
      "convertFor(address[],uint256,uint256,address)": {
        "details": "deprecated, backward compatibility"
      },
      "convertFor2(address[],uint256,uint256,address,address,uint256)": {
        "details": "deprecated, backward compatibility"
      },
      "getReturnByPath(address[],uint256)": {
        "details": "deprecated, backward compatibility"
      },
      "rateByPath(address[],uint256)": {
        "details": "returns the expected target amount of converting a given amount on a given path note that there is no support for circular paths",
        "params": {
          "_amount": "amount of _path[0] tokens received from the sender",
          "_path": "conversion path (see conversion path format above)"
        },
        "returns": {
          "_0": "expected target amount"
        }
      },
      "registerEtherToken(address,bool)": {
        "details": "allows the owner to register/unregister ether tokens",
        "params": {
          "_register": "true to register, false to unregister",
          "_token": "ether token contract address"
        }
      },
      "restoreRegistry()": {
        "details": "restores the previous contract-registry"
      },
      "restrictRegistryUpdate(bool)": {
        "details": "restricts the permission to update the contract-registry",
        "params": {
          "_onlyOwnerCanUpdateRegistry": "indicates whether or not permission is restricted to owner only"
        }
      },
      "setMaxAffiliateFee(uint256)": {
        "details": "allows the owner to update the maximum affiliate-fee",
        "params": {
          "_maxAffiliateFee": "maximum affiliate-fee"
        }
      },
      "transferOwnership(address)": {
        "details": "allows transferring the contract ownership the new owner still needs to accept the transfer can only be called by the contract owner",
        "params": {
          "_newOwner": "new contract owner"
        }
      },
      "updateRegistry()": {
        "details": "updates to the new contract-registry"
      },
      "withdrawTokens(address,address,uint256)": {
        "details": "withdraws tokens held by the contract and sends them to an account can only be called by the owner",
        "params": {
          "_amount": "amount to withdraw",
          "_to": "account to receive the new amount",
          "_token": "ERC20 token contract address"
        }
      },
      "xConvert(address[],uint256,uint256,bytes32,bytes32,uint256)": {
        "details": "converts any other token to BNT in the bancor network by following a predefined conversion path and transfers the result to an account on a different blockchain note that the network should already have been given allowance of the source token (if not ETH)",
        "params": {
          "_amount": "amount to convert from, in the source token",
          "_conversionId": "pre-determined unique (if non zero) id which refers to this transaction",
          "_minReturn": "if the conversion results in an amount smaller than the minimum return - it is cancelled, must be greater than zero",
          "_path": "conversion path, see conversion path format above",
          "_targetAccount": "address/account on the target blockchain to send the BNT to",
          "_targetBlockchain": "blockchain BNT will be issued on"
        },
        "returns": {
          "_0": "the amount of BNT received from this conversion"
        }
      },
      "xConvert2(address[],uint256,uint256,bytes32,bytes32,uint256,address,uint256)": {
        "details": "converts any other token to BNT in the bancor network by following a predefined conversion path and transfers the result to an account on a different blockchain note that the network should already have been given allowance of the source token (if not ETH)",
        "params": {
          "_affiliateAccount": "affiliate account",
          "_affiliateFee": "affiliate fee in PPM",
          "_amount": "amount to convert from, in the source token",
          "_conversionId": "pre-determined unique (if non zero) id which refers to this transaction",
          "_minReturn": "if the conversion results in an amount smaller than the minimum return - it is cancelled, must be greater than zero",
          "_path": "conversion path, see conversion path format above",
          "_targetAccount": "address/account on the target blockchain to send the BNT to",
          "_targetBlockchain": "blockchain BNT will be issued on"
        },
        "returns": {
          "_0": "the amount of BNT received from this conversion"
        }
      }
    },
    "version": 1
  },
  "userdoc": {
    "kind": "user",
    "methods": {},
    "version": 1
  }
}