{
  "contractName": "TestChainlinkPriceOracle",
  "abi": [
    {
      "inputs": [
        {
          "internalType": "int256",
          "name": "_answer",
          "type": "int256"
        }
      ],
      "name": "setAnswer",
      "outputs": [],
      "stateMutability": "nonpayable",
      "type": "function"
    },
    {
      "inputs": [
        {
          "internalType": "uint256",
          "name": "_timestamp",
          "type": "uint256"
        }
      ],
      "name": "setTimestamp",
      "outputs": [],
      "stateMutability": "nonpayable",
      "type": "function"
    },
    {
      "inputs": [],
      "name": "latestAnswer",
      "outputs": [
        {
          "internalType": "int256",
          "name": "",
          "type": "int256"
        }
      ],
      "stateMutability": "view",
      "type": "function"
    },
    {
      "inputs": [],
      "name": "latestTimestamp",
      "outputs": [
        {
          "internalType": "uint256",
          "name": "",
          "type": "uint256"
        }
      ],
      "stateMutability": "view",
      "type": "function"
    }
  ],
  "bytecode": "0x608060405234801561001057600080fd5b5060eb8061001f6000396000f3fe6080604052348015600f57600080fd5b506004361060465760003560e01c806350d25bcd14604b5780638205bf6a14606357806399213cd8146069578063a0a2b573146085575b600080fd5b6051609f565b60408051918252519081900360200190f35b605160a5565b608360048036036020811015607d57600080fd5b503560ab565b005b608360048036036020811015609957600080fd5b503560b0565b60005490565b60015490565b600055565b60015556fea2646970667358221220b69ce5dd49de1b63092f81599fc7e55fa5c6251e1405618cd68e8ce77cce560464736f6c634300060c0033",
  "immutableReferences": {},
  "source": "// SPDX-License-Identifier: SEE LICENSE IN LICENSE\npragma solidity 0.6.12;\nimport \"../utility/interfaces/IChainlinkPriceOracle.sol\";\n\n/*\n    Chainlink price oracle mock\n*/\ncontract TestChainlinkPriceOracle is IChainlinkPriceOracle {\n    int256 private answer;\n    uint256 private timestamp;\n\n    function setAnswer(int256 _answer) public {\n        answer = _answer;\n    }\n\n    function setTimestamp(uint256 _timestamp) public {\n        timestamp = _timestamp;\n    }\n\n    function latestAnswer() external view override returns (int256) {\n        return answer;\n    }\n\n    function latestTimestamp() external view override returns (uint256) {\n        return timestamp;\n    }\n}\n",
  "sourcePath": "/home/lash/src/ext/cic/grassrootseconomics/bancor-contracts/solidity/contracts/helpers/TestChainlinkPriceOracle.sol",
  "compiler": {
    "name": "solc",
    "version": "0.6.12+commit.27d51765.Emscripten.clang"
  },
  "schemaVersion": "3.2.3",
  "updatedAt": "2020-10-20T08:24:47.805Z",
  "devdoc": {
    "kind": "dev",
    "methods": {},
    "version": 1
  },
  "userdoc": {
    "kind": "user",
    "methods": {},
    "version": 1
  }
}