{
  "contractName": "TestTokenHandler",
  "abi": [
    {
      "inputs": [
        {
          "internalType": "contract IERC20Token",
          "name": "_token",
          "type": "address"
        },
        {
          "internalType": "address",
          "name": "_spender",
          "type": "address"
        },
        {
          "internalType": "uint256",
          "name": "_value",
          "type": "uint256"
        }
      ],
      "name": "testSafeApprove",
      "outputs": [],
      "stateMutability": "nonpayable",
      "type": "function"
    },
    {
      "inputs": [
        {
          "internalType": "contract IERC20Token",
          "name": "_token",
          "type": "address"
        },
        {
          "internalType": "address",
          "name": "_to",
          "type": "address"
        },
        {
          "internalType": "uint256",
          "name": "_value",
          "type": "uint256"
        }
      ],
      "name": "testSafeTransfer",
      "outputs": [],
      "stateMutability": "nonpayable",
      "type": "function"
    },
    {
      "inputs": [
        {
          "internalType": "contract IERC20Token",
          "name": "_token",
          "type": "address"
        },
        {
          "internalType": "address",
          "name": "_from",
          "type": "address"
        },
        {
          "internalType": "address",
          "name": "_to",
          "type": "address"
        },
        {
          "internalType": "uint256",
          "name": "_value",
          "type": "uint256"
        }
      ],
      "name": "testSafeTransferFrom",
      "outputs": [],
      "stateMutability": "nonpayable",
      "type": "function"
    }
  ],
  "bytecode": "0x608060405234801561001057600080fd5b5061057e806100206000396000f3fe608060405234801561001057600080fd5b50600436106100415760003560e01c8063083153141461004657806375231e611461007e578063f705d961146100ba575b600080fd5b61007c6004803603606081101561005c57600080fd5b506001600160a01b038135811691602081013590911690604001356100f0565b005b61007c6004803603608081101561009457600080fd5b506001600160a01b03813581169160208101358216916040820135169060600135610100565b61007c600480360360608110156100d057600080fd5b506001600160a01b03813581169160208101359091169060400135610112565b6100fb83838361011d565b505050565b61010c8484848461027c565b50505050565b6100fb8383836103ef565b604080516001600160a01b038481166024830152604480830185905283518084039091018152606490920183526020820180516001600160e01b031663095ea7b360e01b178152925182516000946060949389169392918291908083835b6020831061019a5780518252601f19909201916020918201910161017b565b6001836020036101000a0380198251168184511680821785525050505050509050019150506000604051808303816000865af19150503d80600081146101fc576040519150601f19603f3d011682016040523d82523d6000602084013e610201565b606091505b509150915081801561022f57508051158061022f575080806020019051602081101561022c57600080fd5b50515b610275576040805162461bcd60e51b815260206004820152601260248201527111549497d054141493d59157d1905253115160721b604482015290519081900360640190fd5b5050505050565b604080516001600160a01b0385811660248301528481166044830152606480830185905283518084039091018152608490920183526020820180516001600160e01b03166323b872dd60e01b17815292518251600094606094938a169392918291908083835b602083106103015780518252601f1990920191602091820191016102e2565b6001836020036101000a0380198251168184511680821785525050505050509050019150506000604051808303816000865af19150503d8060008114610363576040519150601f19603f3d011682016040523d82523d6000602084013e610368565b606091505b5091509150818015610396575080511580610396575080806020019051602081101561039357600080fd5b50515b6103e7576040805162461bcd60e51b815260206004820152601860248201527f4552525f5452414e534645525f46524f4d5f4641494c45440000000000000000604482015290519081900360640190fd5b505050505050565b604080516001600160a01b038481166024830152604480830185905283518084039091018152606490920183526020820180516001600160e01b031663a9059cbb60e01b178152925182516000946060949389169392918291908083835b6020831061046c5780518252601f19909201916020918201910161044d565b6001836020036101000a0380198251168184511680821785525050505050509050019150506000604051808303816000865af19150503d80600081146104ce576040519150601f19603f3d011682016040523d82523d6000602084013e6104d3565b606091505b509150915081801561050157508051158061050157508080602001905160208110156104fe57600080fd5b50515b610275576040805162461bcd60e51b815260206004820152601360248201527211549497d514905394d1915497d19052531151606a1b604482015290519081900360640190fdfea26469706673582212202752e04fcc869371a5a3f84357fb2825cd19fbcf60c3b110a50e915e6145b38b64736f6c634300060c0033",
  "immutableReferences": {},
  "source": "// SPDX-License-Identifier: SEE LICENSE IN LICENSE\npragma solidity 0.6.12;\nimport \"../utility/TokenHandler.sol\";\n\n/*\n    Utils test helper that exposes the token handler functions\n*/\ncontract TestTokenHandler is TokenHandler {\n    function testSafeApprove(IERC20Token _token, address _spender, uint256 _value) public {\n        safeApprove(_token, _spender, _value);\n    }\n\n    function testSafeTransfer(IERC20Token _token, address _to, uint256 _value) public {\n        safeTransfer(_token, _to, _value);\n    }\n\n    function testSafeTransferFrom(IERC20Token _token, address _from, address _to, uint256 _value) public {\n        safeTransferFrom(_token, _from, _to, _value);\n    }\n}\n",
  "sourcePath": "/home/lash/src/ext/cic/grassrootseconomics/bancor-contracts/solidity/contracts/helpers/TestTokenHandler.sol",
  "compiler": {
    "name": "solc",
    "version": "0.6.12+commit.27d51765.Emscripten.clang"
  },
  "schemaVersion": "3.2.3",
  "updatedAt": "2020-10-20T08:24:47.813Z",
  "devdoc": {
    "kind": "dev",
    "methods": {},
    "version": 1
  },
  "userdoc": {
    "kind": "user",
    "methods": {},
    "version": 1
  }
}