{
  "contractName": "TestReentrancyGuardAttacker",
  "abi": [
    {
      "inputs": [
        {
          "internalType": "contract TestReentrancyGuard",
          "name": "_target",
          "type": "address"
        }
      ],
      "stateMutability": "nonpayable",
      "type": "constructor"
    },
    {
      "inputs": [],
      "name": "attacking",
      "outputs": [
        {
          "internalType": "bool",
          "name": "",
          "type": "bool"
        }
      ],
      "stateMutability": "view",
      "type": "function"
    },
    {
      "inputs": [],
      "name": "callProtectedMethod",
      "outputs": [
        {
          "internalType": "bool",
          "name": "",
          "type": "bool"
        }
      ],
      "stateMutability": "view",
      "type": "function"
    },
    {
      "inputs": [],
      "name": "reentrancy",
      "outputs": [
        {
          "internalType": "bool",
          "name": "",
          "type": "bool"
        }
      ],
      "stateMutability": "view",
      "type": "function"
    },
    {
      "inputs": [],
      "name": "target",
      "outputs": [
        {
          "internalType": "contract TestReentrancyGuard",
          "name": "",
          "type": "address"
        }
      ],
      "stateMutability": "view",
      "type": "function"
    },
    {
      "inputs": [
        {
          "internalType": "bool",
          "name": "_reentrancy",
          "type": "bool"
        }
      ],
      "name": "setReentrancy",
      "outputs": [],
      "stateMutability": "nonpayable",
      "type": "function"
    },
    {
      "inputs": [
        {
          "internalType": "bool",
          "name": "_callProtectedMethod",
          "type": "bool"
        }
      ],
      "name": "setCallProtectedMethod",
      "outputs": [],
      "stateMutability": "nonpayable",
      "type": "function"
    },
    {
      "inputs": [],
      "name": "run",
      "outputs": [],
      "stateMutability": "nonpayable",
      "type": "function"
    },
    {
      "inputs": [],
      "name": "callback",
      "outputs": [],
      "stateMutability": "nonpayable",
      "type": "function"
    }
  ],
  "bytecode": "0x608060405234801561001057600080fd5b5060405161035f38038061035f8339818101604052602081101561003357600080fd5b5051600080546001600160a01b039092166001600160a01b03199092169190911790556102fa806100656000396000f3fe608060405234801561001057600080fd5b50600436106100885760003560e01c806399563f101161005b57806399563f10146100da578063c0406226146100f9578063d4b8399214610101578063e11f493e1461012557610088565b8063083b27321461008d57806317846e3914610097578063322d5010146100b35780633c0bbcd9146100d2575b600080fd5b61009561012d565b005b61009f61017f565b604080519115158252519081900360200190f35b610095600480360360208110156100c957600080fd5b5035151561018f565b61009f6101ad565b610095600480360360208110156100f057600080fd5b503515156101bd565b6100956101db565b6101096102a5565b604080516001600160a01b039092168252519081900360200190f35b61009f6102b4565b600054600160a01b900460ff166101435761017d565b600054600160b01b900460ff1661016f576000805460ff60b01b1916600160b01b17905561016f6101db565b6000805460ff60b01b191690555b565b600054600160a81b900460ff1681565b60008054911515600160a01b0260ff60a01b19909216919091179055565b600054600160b01b900460ff1681565b60008054911515600160a81b0260ff60a81b19909216919091179055565b600054600160a81b900460ff1661024a57600080546040805163f86485d960e01b815290516001600160a01b039092169263f86485d99260048084019382900301818387803b15801561022d57600080fd5b505af1158015610241573d6000803e3d6000fd5b5050505061017d565b6000805460408051630b53600360e21b815290516001600160a01b0390921692632d4d800c9260048084019382900301818387803b15801561028b57600080fd5b505af115801561029f573d6000803e3d6000fd5b50505050565b6000546001600160a01b031681565b600054600160a01b900460ff168156fea26469706673582212208d7d98a2042522a18e2752b12a596016434ddc6a6041ef373551516b2e1dcc6464736f6c634300060c0033",
  "immutableReferences": {},
  "source": "// SPDX-License-Identifier: SEE LICENSE IN LICENSE\npragma solidity 0.6.12;\nimport \"../utility/ReentrancyGuard.sol\";\n\n\ncontract TestReentrancyGuardAttacker {\n    TestReentrancyGuard public target;\n    bool public reentrancy;\n    bool public callProtectedMethod;\n    bool public attacking;\n\n    constructor(TestReentrancyGuard _target) public {\n        target = _target;\n    }\n\n    function setReentrancy(bool _reentrancy) external {\n        reentrancy = _reentrancy;\n    }\n\n    function setCallProtectedMethod(bool _callProtectedMethod) external {\n        callProtectedMethod = _callProtectedMethod;\n    }\n\n    function run() public {\n        callProtectedMethod ? target.protectedMethod() : target.unprotectedMethod();\n    }\n\n    function callback() external {\n        if (!reentrancy) {\n            return;\n        }\n\n        if (!attacking) {\n            attacking = true;\n\n            run();\n        }\n\n        attacking = false;\n    }\n}\n\ncontract TestReentrancyGuard is ReentrancyGuard {\n    uint256 public calls;\n\n    function protectedMethod() external protected {\n        run();\n    }\n\n    function unprotectedMethod() external {\n        run();\n    }\n\n    function run() private {\n        calls++;\n\n        TestReentrancyGuardAttacker(msg.sender).callback();\n    }\n}\n",
  "sourcePath": "/home/lash/src/ext/cic/grassrootseconomics/bancor-contracts/solidity/contracts/helpers/TestReentrancyGuard.sol",
  "compiler": {
    "name": "solc",
    "version": "0.6.12+commit.27d51765.Emscripten.clang"
  },
  "schemaVersion": "3.2.3",
  "updatedAt": "2020-10-20T08:24:47.811Z",
  "devdoc": {
    "kind": "dev",
    "methods": {},
    "version": 1
  },
  "userdoc": {
    "kind": "user",
    "methods": {},
    "version": 1
  }
}