{
  "contractName": "TestTypedConverterAnchorFactory",
  "abi": [
    {
      "inputs": [
        {
          "internalType": "string",
          "name": "_name",
          "type": "string"
        }
      ],
      "stateMutability": "nonpayable",
      "type": "constructor"
    },
    {
      "inputs": [],
      "name": "name",
      "outputs": [
        {
          "internalType": "string",
          "name": "",
          "type": "string"
        }
      ],
      "stateMutability": "view",
      "type": "function"
    },
    {
      "inputs": [],
      "name": "converterType",
      "outputs": [
        {
          "internalType": "uint16",
          "name": "",
          "type": "uint16"
        }
      ],
      "stateMutability": "pure",
      "type": "function"
    },
    {
      "inputs": [
        {
          "internalType": "string",
          "name": "",
          "type": "string"
        },
        {
          "internalType": "string",
          "name": "_symbol",
          "type": "string"
        },
        {
          "internalType": "uint8",
          "name": "_decimals",
          "type": "uint8"
        }
      ],
      "name": "createAnchor",
      "outputs": [
        {
          "internalType": "contract IConverterAnchor",
          "name": "",
          "type": "address"
        }
      ],
      "stateMutability": "nonpayable",
      "type": "function"
    }
  ],
  "bytecode": "0x608060405234801561001057600080fd5b506040516118673803806118678339818101604052602081101561003357600080fd5b810190808051604051939291908464010000000082111561005357600080fd5b90830190602082018581111561006857600080fd5b825164010000000081118282018810171561008257600080fd5b82525081516020918201929091019080838360005b838110156100af578181015183820152602001610097565b50505050905090810190601f1680156100dc5780820380516001836020036101000a031916815260200191505b50604052505081516100f6915060009060208401906100fd565b5050610190565b828054600181600116156101000203166002900490600052602060002090601f016020900481019282601f1061013e57805160ff191683800117855561016b565b8280016001018555821561016b579182015b8281111561016b578251825591602001919060010190610150565b5061017792915061017b565b5090565b5b80821115610177576000815560010161017c565b6116c88061019f6000396000f3fe608060405234801561001057600080fd5b50600436106100415760003560e01c806306fdde03146100465780633e8ff43f146100c3578063a9fd4a2a146100e2575b600080fd5b61004e610230565b6040805160208082528351818301528351919283929083019185019080838360005b83811015610088578181015183820152602001610070565b50505050905090810190601f1680156100b55780820380516001836020036101000a031916815260200191505b509250505060405180910390f35b6100cb6102be565b6040805161ffff9092168252519081900360200190f35b610214600480360360608110156100f857600080fd5b81019060208101813564010000000081111561011357600080fd5b82018360208201111561012557600080fd5b8035906020019184600183028401116401000000008311171561014757600080fd5b91908080601f016020809104026020016040519081016040528093929190818152602001838380828437600092019190915250929594936020810193503591505064010000000081111561019a57600080fd5b8201836020820111156101ac57600080fd5b803590602001918460018302840111640100000000831117156101ce57600080fd5b91908080601f0160208091040260200160405190810160405280939291908181526020018383808284376000920191909152509295505050903560ff1691506102c39050565b604080516001600160a01b039092168252519081900360200190f35b6000805460408051602060026001851615610100026000190190941693909304601f810184900484028201840190925281815292918301828280156102b65780601f1061028b576101008083540402835291602001916102b6565b820191906000526020600020905b81548152906001019060200180831161029957829003601f168201915b505050505081565b600890565b600080600084846040516102d690610452565b60ff8216604082015260608082528454600260001961010060018416150201909116049082018190528190602082019060808301908790801561035a5780601f1061032f5761010080835404028352916020019161035a565b820191906000526020600020905b81548152906001019060200180831161033d57829003601f168201915b5050838103825285518152855160209182019187019080838360005b8381101561038e578181015183820152602001610376565b50505050905090810190601f1680156103bb5780820380516001836020036101000a031916815260200191505b5095505050505050604051809103906000f0801580156103df573d6000803e3d6000fd5b509050806001600160a01b031663f2fde38b336040518263ffffffff1660e01b815260040180826001600160a01b03168152602001915050600060405180830381600087803b15801561043157600080fd5b505af1158015610445573d6000803e3d6000fd5b5092979650505050505050565b611233806104608339019056fe60806040526008805460ff191660011790553480156200001e57600080fd5b506040516200123338038062001233833981810160405260608110156200004457600080fd5b81019080805160405193929190846401000000008211156200006557600080fd5b9083019060208201858111156200007b57600080fd5b82516401000000008111828201881017156200009657600080fd5b82525081516020918201929091019080838360005b83811015620000c5578181015183820152602001620000ab565b50505050905090810190601f168015620000f35780820380516001836020036101000a031916815260200191505b50604052602001805160405193929190846401000000008211156200011757600080fd5b9083019060208201858111156200012d57600080fd5b82516401000000008111828201881017156200014857600080fd5b82525081516020918201929091019080838360005b83811015620001775781810151838201526020016200015d565b50505050905090810190601f168015620001a55780820380516001836020036101000a031916815260200191505b5060405260200151600080546001600160a01b031916331781558551919350859250849184919062000211576040805162461bcd60e51b815260206004820152601060248201526f4552525f494e56414c49445f4e414d4560801b604482015290519081900360640190fd5b60008351116200025d576040805162461bcd60e51b815260206004820152601260248201527111549497d253959053125117d4d6535093d360721b604482015290519081900360640190fd5b835162000272906002906020870190620002bf565b50825162000288906003906020860190620002bf565b506004805460ff191660ff9390931692909217909155600581905533600090815260066020526040902055506200035b9350505050565b828054600181600116156101000203166002900490600052602060002090601f016020900481019282601f106200030257805160ff191683800117855562000332565b8280016001018555821562000332579182015b828111156200033257825182559160200191906001019062000315565b506200034092915062000344565b5090565b5b8082111562000340576000815560010162000345565b610ec8806200036b6000396000f3fe608060405234801561001057600080fd5b50600436106101215760003560e01c806379ba5097116100ad578063a9059cbb11610071578063a9059cbb14610379578063bef97c87146103a5578063d4ee1d90146103ad578063dd62ed3e146103b5578063f2fde38b146103e357610121565b806379ba5097146102ed578063867904b4146102f55780638da5cb5b1461032157806395d89b4114610345578063a24835d11461034d57610121565b806323b872dd116100f457806323b872dd1461021e578063313ce5671461025457806354fd4d50146102725780635e35359e1461029157806370a08231146102c757610121565b806306fdde0314610126578063095ea7b3146101a35780631608f18f146101e357806318160ddd14610204575b600080fd5b61012e610409565b6040805160208082528351818301528351919283929083019185019080838360005b83811015610168578181015183820152602001610150565b50505050905090810190601f1680156101955780820380516001836020036101000a031916815260200191505b509250505060405180910390f35b6101cf600480360360408110156101b957600080fd5b506001600160a01b038135169060200135610494565b604080519115158252519081900360200190f35b610202600480360360208110156101f957600080fd5b5035151561057c565b005b61020c610596565b60408051918252519081900360200190f35b6101cf6004803603606081101561023457600080fd5b506001600160a01b0381358116916020810135909116906040013561059c565b61025c6105b9565b6040805160ff9092168252519081900360200190f35b61027a6105c2565b6040805161ffff9092168252519081900360200190f35b610202600480360360608110156102a757600080fd5b506001600160a01b038135811691602081013590911690604001356105c7565b61020c600480360360208110156102dd57600080fd5b50356001600160a01b0316610600565b610202610612565b6102026004803603604081101561030b57600080fd5b506001600160a01b0381351690602001356106c9565b61032961079f565b604080516001600160a01b039092168252519081900360200190f35b61012e6107ae565b6102026004803603604081101561036357600080fd5b506001600160a01b038135169060200135610809565b6101cf6004803603604081101561038f57600080fd5b506001600160a01b0381351690602001356108c3565b6101cf6108de565b6103296108e7565b61020c600480360360408110156103cb57600080fd5b506001600160a01b03813581169160200135166108f6565b610202600480360360208110156103f957600080fd5b50356001600160a01b0316610913565b6002805460408051602060018416156101000260001901909316849004601f8101849004840282018401909252818152929183018282801561048c5780601f106104615761010080835404028352916020019161048c565b820191906000526020600020905b81548152906001019060200180831161046f57829003601f168201915b505050505081565b6000826104a081610991565b8215806104ce57503360009081526007602090815260408083206001600160a01b0388168452909152902054155b610514576040805162461bcd60e51b815260206004820152601260248201527111549497d253959053125117d05353d5539560721b604482015290519081900360640190fd5b3360008181526007602090815260408083206001600160a01b03891680855290835292819020879055805187815290519293927f8c5be1e5ebec7d5bd14f71427d1e84f3dd0314c0f7b2291e5b200ac8c7c3b925929181900390910190a35060019392505050565b6105846109e5565b6008805460ff19169115919091179055565b60055481565b60006105a6610a3a565b6105b1848484610a8a565b949350505050565b60045460ff1681565b600481565b6105cf6109e5565b826105d981610991565b826105e381610991565b836105ed81610b89565b6105f8868686610bdd565b505050505050565b60066020526000908152604090205481565b6001546001600160a01b03163314610665576040805162461bcd60e51b815260206004820152601160248201527011549497d050d0d154d4d7d11153925151607a1b604482015290519081900360640190fd5b600154600080546040516001600160a01b0393841693909116917f343765429aea5a34b3ff6a3785a98a5abb2597aca87bfbb58632c173d585373a91a360018054600080546001600160a01b03199081166001600160a01b03841617909155169055565b6106d16109e5565b816106db81610991565b826106e581610b89565b6005546106f29084610d3d565b6005556001600160a01b0384166000908152600660205260409020546107189084610d3d565b6001600160a01b03851660009081526006602090815260409182902092909255805185815290517f9386c90217c323f58030f9dadcbc938f807a940f4ff41cd4cead9562f5da7dc3929181900390910190a16040805184815290516001600160a01b03861691600091600080516020610e738339815191529181900360200190a350505050565b6000546001600160a01b031681565b6003805460408051602060026001851615610100026000190190941693909304601f8101849004840282018401909252818152929183018282801561048c5780601f106104615761010080835404028352916020019161048c565b6108116109e5565b6001600160a01b0382166000908152600660205260409020546108349082610d86565b6001600160a01b03831660009081526006602052604090205560055461085a9082610d86565b6005556040805182815290516000916001600160a01b03851691600080516020610e738339815191529181900360200190a36040805182815290517f9a1b418bc061a5d80270261562e6986a35d995f8051145f277be16103abd34539181900360200190a15050565b60006108cd610a3a565b6108d78383610dd3565b9392505050565b60085460ff1681565b6001546001600160a01b031681565b600760209081526000928352604080842090915290825290205481565b61091b6109e5565b6000546001600160a01b038281169116141561096f576040805162461bcd60e51b815260206004820152600e60248201526d22a9292fa9a0a6a2afa7aba722a960911b604482015290519081900360640190fd5b600180546001600160a01b0319166001600160a01b0392909216919091179055565b6001600160a01b0381166109e2576040805162461bcd60e51b81526020600482015260136024820152724552525f494e56414c49445f4144445245535360681b604482015290519081900360640190fd5b50565b6000546001600160a01b03163314610a38576040805162461bcd60e51b815260206004820152601160248201527011549497d050d0d154d4d7d11153925151607a1b604482015290519081900360640190fd5b565b60085460ff16610a38576040805162461bcd60e51b815260206004820152601660248201527511549497d514905394d1915494d7d11254d05093115160521b604482015290519081900360640190fd5b600083610a9681610991565b83610aa081610991565b6001600160a01b0386166000908152600760209081526040808320338452909152902054610ace9085610d86565b6001600160a01b038716600081815260076020908152604080832033845282528083209490945591815260069091522054610b099085610d86565b6001600160a01b038088166000908152600660205260408082209390935590871681522054610b389085610d3d565b6001600160a01b0380871660008181526006602090815260409182902094909455805188815290519193928a1692600080516020610e7383398151915292918290030190a350600195945050505050565b6001600160a01b0381163014156109e2576040805162461bcd60e51b815260206004820152601360248201527222a9292fa0a2222922a9a9afa4a9afa9a2a62360691b604482015290519081900360640190fd5b604080516001600160a01b038481166024830152604480830185905283518084039091018152606490920183526020820180516001600160e01b031663a9059cbb60e01b178152925182516000946060949389169392918291908083835b60208310610c5a5780518252601f199092019160209182019101610c3b565b6001836020036101000a0380198251168184511680821785525050505050509050019150506000604051808303816000865af19150503d8060008114610cbc576040519150601f19603f3d011682016040523d82523d6000602084013e610cc1565b606091505b5091509150818015610cef575080511580610cef5750808060200190516020811015610cec57600080fd5b50515b610d36576040805162461bcd60e51b815260206004820152601360248201527211549497d514905394d1915497d19052531151606a1b604482015290519081900360640190fd5b5050505050565b6000828201838110156108d7576040805162461bcd60e51b815260206004820152600c60248201526b4552525f4f564552464c4f5760a01b604482015290519081900360640190fd5b600081831015610dcd576040805162461bcd60e51b815260206004820152600d60248201526c4552525f554e444552464c4f5760981b604482015290519081900360640190fd5b50900390565b600082610ddf81610991565b33600090815260066020526040902054610df99084610d86565b33600090815260066020526040808220929092556001600160a01b03861681522054610e259084610d3d565b6001600160a01b038516600081815260066020908152604091829020939093558051868152905191923392600080516020610e738339815191529281900390910190a3506001939250505056feddf252ad1be2c89b69c2b068fc378daa952ba7f163c4a11628f55a4df523b3efa2646970667358221220d062eb319db2db22c11903c935b69a66b9513479c3c65c965f0b19eb73aa4f9464736f6c634300060c0033a2646970667358221220a616103ee78c72bf2a1a1be83b506f8fc1c4917607a2d487af3fc851c37be73664736f6c634300060c0033",
  "immutableReferences": {},
  "source": "// SPDX-License-Identifier: SEE LICENSE IN LICENSE\npragma solidity 0.6.12;\nimport \"../converter/interfaces/IConverterAnchor.sol\";\nimport \"../converter/interfaces/ITypedConverterAnchorFactory.sol\";\nimport \"../token/SmartToken.sol\";\n\ncontract TestTypedConverterAnchorFactory is ITypedConverterAnchorFactory {\n    string public name;\n\n    constructor(string memory _name) public {\n        name = _name;\n    }\n\n    function converterType() external pure override returns (uint16) {\n        return 8;\n    }\n\n    function createAnchor(string memory /*_name */, string memory _symbol, uint8 _decimals) external override returns (IConverterAnchor) {\n        IConverterAnchor anchor = new SmartToken(name, _symbol, _decimals);\n        anchor.transferOwnership(msg.sender);\n        return anchor;\n    }\n}\n",
  "sourcePath": "/home/lash/src/ext/cic/grassrootseconomics/bancor-contracts/solidity/contracts/helpers/TestTypedConverterAnchorFactory.sol",
  "compiler": {
    "name": "solc",
    "version": "0.6.12+commit.27d51765.Emscripten.clang"
  },
  "schemaVersion": "3.2.3",
  "updatedAt": "2020-11-09T23:40:29.197Z",
  "devdoc": {
    "kind": "dev",
    "methods": {},
    "version": 1
  },
  "userdoc": {
    "kind": "user",
    "methods": {},
    "version": 1
  }
}