{
  "contractName": "TestSafeMath",
  "abi": [
    {
      "inputs": [
        {
          "internalType": "uint256",
          "name": "_x",
          "type": "uint256"
        },
        {
          "internalType": "uint256",
          "name": "_y",
          "type": "uint256"
        }
      ],
      "name": "testSafeAdd",
      "outputs": [
        {
          "internalType": "uint256",
          "name": "",
          "type": "uint256"
        }
      ],
      "stateMutability": "pure",
      "type": "function"
    },
    {
      "inputs": [
        {
          "internalType": "uint256",
          "name": "_x",
          "type": "uint256"
        },
        {
          "internalType": "uint256",
          "name": "_y",
          "type": "uint256"
        }
      ],
      "name": "testSafeSub",
      "outputs": [
        {
          "internalType": "uint256",
          "name": "",
          "type": "uint256"
        }
      ],
      "stateMutability": "pure",
      "type": "function"
    },
    {
      "inputs": [
        {
          "internalType": "uint256",
          "name": "_x",
          "type": "uint256"
        },
        {
          "internalType": "uint256",
          "name": "_y",
          "type": "uint256"
        }
      ],
      "name": "testSafeMul",
      "outputs": [
        {
          "internalType": "uint256",
          "name": "",
          "type": "uint256"
        }
      ],
      "stateMutability": "pure",
      "type": "function"
    },
    {
      "inputs": [
        {
          "internalType": "uint256",
          "name": "_x",
          "type": "uint256"
        },
        {
          "internalType": "uint256",
          "name": "_y",
          "type": "uint256"
        }
      ],
      "name": "testSafeDiv",
      "outputs": [
        {
          "internalType": "uint256",
          "name": "",
          "type": "uint256"
        }
      ],
      "stateMutability": "pure",
      "type": "function"
    }
  ],
  "bytecode": "0x608060405234801561001057600080fd5b506102b1806100206000396000f3fe608060405234801561001057600080fd5b506004361061004c5760003560e01c80635e47381d146100515780639ee6ff7014610086578063de47864c146100a9578063ec0da330146100cc575b600080fd5b6100746004803603604081101561006757600080fd5b50803590602001356100ef565b60408051918252519081900360200190f35b6100746004803603604081101561009c57600080fd5b5080359060200135610104565b610074600480360360408110156100bf57600080fd5b5080359060200135610110565b610074600480360360408110156100e257600080fd5b508035906020013561011c565b60006100fb8383610128565b90505b92915050565b60006100fb8383610187565b60006100fb83836101e5565b60006100fb838361022e565b6000808211610173576040805162461bcd60e51b81526020600482015260126024820152714552525f4449564944455f42595f5a45524f60701b604482015290519081900360640190fd5b600082848161017e57fe5b04949350505050565b600082610196575060006100fe565b828202828482816101a357fe5b04146100fb576040805162461bcd60e51b815260206004820152600c60248201526b4552525f4f564552464c4f5760a01b604482015290519081900360640190fd5b6000828201838110156100fb576040805162461bcd60e51b815260206004820152600c60248201526b4552525f4f564552464c4f5760a01b604482015290519081900360640190fd5b600081831015610275576040805162461bcd60e51b815260206004820152600d60248201526c4552525f554e444552464c4f5760981b604482015290519081900360640190fd5b5090039056fea2646970667358221220ddcc0a2ad8d4e0d15448f392cd58786f67484ca55ebaadad5e6c1e05dc37ec8464736f6c634300060c0033",
  "immutableReferences": {},
  "source": "// SPDX-License-Identifier: SEE LICENSE IN LICENSE\npragma solidity 0.6.12;\nimport \"../utility/SafeMath.sol\";\n\n/*\n    Utils test helper that exposes the safe math functions\n*/\ncontract TestSafeMath {\n    using SafeMath for uint256;\n\n    function testSafeAdd(uint256 _x, uint256 _y) public pure returns (uint256) {\n        return _x.add(_y);\n    }\n\n    function testSafeSub(uint256 _x, uint256 _y) public pure returns (uint256) {\n        return _x.sub(_y);\n    }\n\n    function testSafeMul(uint256 _x, uint256 _y) public pure returns (uint256) {\n        return _x.mul(_y);\n    }\n\n    function testSafeDiv(uint256 _x, uint256 _y) public pure returns (uint256) {\n        return _x.div(_y);\n    }\n}\n",
  "sourcePath": "/home/lash/src/ext/cic/grassrootseconomics/bancor-contracts/solidity/contracts/helpers/TestSafeMath.sol",
  "compiler": {
    "name": "solc",
    "version": "0.6.12+commit.27d51765.Emscripten.clang"
  },
  "schemaVersion": "3.2.3",
  "updatedAt": "2020-10-20T08:24:47.812Z",
  "devdoc": {
    "kind": "dev",
    "methods": {},
    "version": 1
  },
  "userdoc": {
    "kind": "user",
    "methods": {},
    "version": 1
  }
}