{
  "contractName": "TokenHolder",
  "abi": [
    {
      "anonymous": false,
      "inputs": [
        {
          "indexed": true,
          "internalType": "address",
          "name": "_prevOwner",
          "type": "address"
        },
        {
          "indexed": true,
          "internalType": "address",
          "name": "_newOwner",
          "type": "address"
        }
      ],
      "name": "OwnerUpdate",
      "type": "event"
    },
    {
      "inputs": [],
      "name": "acceptOwnership",
      "outputs": [],
      "stateMutability": "nonpayable",
      "type": "function"
    },
    {
      "inputs": [],
      "name": "newOwner",
      "outputs": [
        {
          "internalType": "address",
          "name": "",
          "type": "address"
        }
      ],
      "stateMutability": "view",
      "type": "function"
    },
    {
      "inputs": [],
      "name": "owner",
      "outputs": [
        {
          "internalType": "address",
          "name": "",
          "type": "address"
        }
      ],
      "stateMutability": "view",
      "type": "function"
    },
    {
      "inputs": [
        {
          "internalType": "address",
          "name": "_newOwner",
          "type": "address"
        }
      ],
      "name": "transferOwnership",
      "outputs": [],
      "stateMutability": "nonpayable",
      "type": "function"
    },
    {
      "inputs": [
        {
          "internalType": "contract IERC20Token",
          "name": "_token",
          "type": "address"
        },
        {
          "internalType": "address",
          "name": "_to",
          "type": "address"
        },
        {
          "internalType": "uint256",
          "name": "_amount",
          "type": "uint256"
        }
      ],
      "name": "withdrawTokens",
      "outputs": [],
      "stateMutability": "nonpayable",
      "type": "function"
    }
  ],
  "bytecode": "0x608060405234801561001057600080fd5b50600080546001600160a01b0319163317905561050d806100326000396000f3fe608060405234801561001057600080fd5b50600436106100575760003560e01c80635e35359e1461005c57806379ba5097146100945780638da5cb5b1461009c578063d4ee1d90146100c0578063f2fde38b146100c8575b600080fd5b6100926004803603606081101561007257600080fd5b506001600160a01b038135811691602081013590911690604001356100ee565b005b610092610127565b6100a46101de565b604080516001600160a01b039092168252519081900360200190f35b6100a46101ed565b610092600480360360208110156100de57600080fd5b50356001600160a01b03166101fc565b6100f661027a565b82610100816102cf565b8261010a816102cf565b8361011481610323565b61011f868686610377565b505050505050565b6001546001600160a01b0316331461017a576040805162461bcd60e51b815260206004820152601160248201527011549497d050d0d154d4d7d11153925151607a1b604482015290519081900360640190fd5b600154600080546040516001600160a01b0393841693909116917f343765429aea5a34b3ff6a3785a98a5abb2597aca87bfbb58632c173d585373a91a360018054600080546001600160a01b03199081166001600160a01b03841617909155169055565b6000546001600160a01b031681565b6001546001600160a01b031681565b61020461027a565b6000546001600160a01b0382811691161415610258576040805162461bcd60e51b815260206004820152600e60248201526d22a9292fa9a0a6a2afa7aba722a960911b604482015290519081900360640190fd5b600180546001600160a01b0319166001600160a01b0392909216919091179055565b6000546001600160a01b031633146102cd576040805162461bcd60e51b815260206004820152601160248201527011549497d050d0d154d4d7d11153925151607a1b604482015290519081900360640190fd5b565b6001600160a01b038116610320576040805162461bcd60e51b81526020600482015260136024820152724552525f494e56414c49445f4144445245535360681b604482015290519081900360640190fd5b50565b6001600160a01b038116301415610320576040805162461bcd60e51b815260206004820152601360248201527222a9292fa0a2222922a9a9afa4a9afa9a2a62360691b604482015290519081900360640190fd5b604080516001600160a01b038481166024830152604480830185905283518084039091018152606490920183526020820180516001600160e01b031663a9059cbb60e01b178152925182516000946060949389169392918291908083835b602083106103f45780518252601f1990920191602091820191016103d5565b6001836020036101000a0380198251168184511680821785525050505050509050019150506000604051808303816000865af19150503d8060008114610456576040519150601f19603f3d011682016040523d82523d6000602084013e61045b565b606091505b5091509150818015610489575080511580610489575080806020019051602081101561048657600080fd5b50515b6104d0576040805162461bcd60e51b815260206004820152601360248201527211549497d514905394d1915497d19052531151606a1b604482015290519081900360640190fd5b505050505056fea2646970667358221220f7416415e0c8fb660caa2dddf34ea5232522a81a698089d61182fbcd82d0782f64736f6c634300060c0033",
  "immutableReferences": {},
  "source": "// SPDX-License-Identifier: SEE LICENSE IN LICENSE\r\npragma solidity 0.6.12;\r\nimport \"./Owned.sol\";\r\nimport \"./Utils.sol\";\r\nimport \"./TokenHandler.sol\";\r\nimport \"./interfaces/ITokenHolder.sol\";\r\nimport \"../token/interfaces/IERC20Token.sol\";\r\n\r\n/**\r\n  * @dev We consider every contract to be a 'token holder' since it's currently not possible\r\n  * for a contract to deny receiving tokens.\r\n  *\r\n  * The TokenHolder's contract sole purpose is to provide a safety mechanism that allows\r\n  * the owner to send tokens that were sent to the contract by mistake back to their sender.\r\n  *\r\n  * Note that we use the non standard ERC-20 interface which has no return value for transfer\r\n  * in order to support both non standard as well as standard token contracts.\r\n  * see https://github.com/ethereum/solidity/issues/4116\r\n*/\r\ncontract TokenHolder is ITokenHolder, TokenHandler, Owned, Utils {\r\n    /**\r\n      * @dev withdraws tokens held by the contract and sends them to an account\r\n      * can only be called by the owner\r\n      *\r\n      * @param _token   ERC20 token contract address\r\n      * @param _to      account to receive the new amount\r\n      * @param _amount  amount to withdraw\r\n    */\r\n    function withdrawTokens(IERC20Token _token, address _to, uint256 _amount)\r\n        public\r\n        virtual\r\n        override\r\n        ownerOnly\r\n        validAddress(address(_token))\r\n        validAddress(_to)\r\n        notThis(_to)\r\n    {\r\n        safeTransfer(_token, _to, _amount);\r\n    }\r\n}\r\n",
  "sourcePath": "/home/lash/src/ext/cic/grassrootseconomics/bancor-contracts/solidity/contracts/utility/TokenHolder.sol",
  "compiler": {
    "name": "solc",
    "version": "0.6.12+commit.27d51765.Emscripten.clang"
  },
  "schemaVersion": "3.2.3",
  "updatedAt": "2020-10-20T08:24:47.847Z",
  "devdoc": {
    "details": "We consider every contract to be a 'token holder' since it's currently not possible for a contract to deny receiving tokens. The TokenHolder's contract sole purpose is to provide a safety mechanism that allows the owner to send tokens that were sent to the contract by mistake back to their sender. Note that we use the non standard ERC-20 interface which has no return value for transfer in order to support both non standard as well as standard token contracts. see https://github.com/ethereum/solidity/issues/4116",
    "kind": "dev",
    "methods": {
      "acceptOwnership()": {
        "details": "used by a new owner to accept an ownership transfer"
      },
      "transferOwnership(address)": {
        "details": "allows transferring the contract ownership the new owner still needs to accept the transfer can only be called by the contract owner",
        "params": {
          "_newOwner": "new contract owner"
        }
      },
      "withdrawTokens(address,address,uint256)": {
        "details": "withdraws tokens held by the contract and sends them to an account can only be called by the owner",
        "params": {
          "_amount": "amount to withdraw",
          "_to": "account to receive the new amount",
          "_token": "ERC20 token contract address"
        }
      }
    },
    "version": 1
  },
  "userdoc": {
    "kind": "user",
    "methods": {},
    "version": 1
  }
}